{
  "transactions": [
    {
      "hash": "0xbc5f08ac9b2eec2c287c3c4ee4d8cb3031283cebee2090af483e74dc6b9dff9c",
      "transactionType": "CREATE",
      "contractName": "Attack",
      "contractAddress": "0xb98b204cab5265142983c52cdb79585bf030bfac",
      "function": null,
      "arguments": [
        "0xf7336fd84911203F1f01ab6803ECCc984700f591",
        "0x56dd51c27325f54b7d3d4c468A16560981380a43",
        "0xE88150C42CC6c0294dD20893Bf5b1EC6eDD24Fc6"
      ],
      "transaction": {
        "from": "0xe88150c42cc6c0294dd20893bf5b1ec6edd24fc6",
        "gas": "0x9a166",
        "value": "0x0",
        "input": "0x608060405234801561000f575f5ffd5b5060405161073d38038061073d83398101604081905261002e9161013a565b600180546001600160a01b038581166001600160a01b031992831617835560028054868316908416179055600380549185169190921681179091555f9081527f35caef69825cdb1fbfd221f52a215969ae583b38d7af2e4bc70bda521cf19ba860205260409020805460ff1916909117905560025460015460405163095ea7b360e01b81526001600160a01b0391821660048201525f19602482015291169063095ea7b3906044016020604051808303815f875af11580156100f2573d5f5f3e3d5ffd5b505050506040513d601f19601f82011682018060405250810190610116919061017a565b505050506101a0565b80516001600160a01b0381168114610135575f5ffd5b919050565b5f5f5f6060848603121561014c575f5ffd5b6101558461011f565b92506101636020850161011f565b91506101716040850161011f565b90509250925092565b5f6020828403121561018a575f5ffd5b81518015158114610199575f5ffd5b9392505050565b610590806101ad5f395ff3fe608060405234801561000f575f5ffd5b506004361061007a575f3560e01c80638525f888116100585780638525f888146100e45780639e5a39ca146100ec578063d47ef27e146100f4578063e78cea9214610107575f5ffd5b8063249cb3fa1461007e57806348db5f89146100a457806375ab9782146100cf575b5f5ffd5b61009161008c3660046103e7565b61011a565b6040519081526020015b60405180910390f35b6003546100b7906001600160a01b031681565b6040516001600160a01b03909116815260200161009b565b6100e26100dd36600461045a565b610170565b005b6100b7610242565b6100e26102ed565b6002546100b7906001600160a01b031681565b6001546100b7906001600160a01b031681565b5f828152602081815260408083206001600160a01b038516845290915281205460ff16610147575f610169565b7fa2ef4600d742022d532d4747cb3547474667d6f13804902513b2ec01c848f4b45b9392505050565b6003546001600160a01b03888116911614801561019557506001600160a01b03861630145b806101c557506001546001600160a01b0388811691161480156101c557506003546001600160a01b038781169116145b6102385760015460025460035460405163dafac22f60e01b81526001600160a01b03928316600482015290821660248201526044810188905291169063dafac22f906064015f604051808303815f87803b158015610221575f5ffd5b505af1158015610233573d5f5f3e3d5ffd5b505050505b5050505050505050565b60035460405163555ddc6560e11b81526001600160a01b0390911660048201527f29ddb589b1fb5fc7cf394961c1adf5f8c6454761adf795e67fe149f658abe89560248201525f90731820a4b7618bde71dce8cdc73aab6c95905fad249063aabbb8ca90604401602060405180830381865afa1580156102c4573d5f5f3e3d5ffd5b505050506040513d601f19601f820116820180604052508101906102e89190610509565b905090565b6002546003546040516370a0823160e01b81523060048201526001600160a01b039283169263a9059cbb92169083906370a0823190602401602060405180830381865afa158015610340573d5f5f3e3d5ffd5b505050506040513d601f19601f820116820180604052508101906103649190610524565b6040516001600160e01b031960e085901b1681526001600160a01b03909216600483015260248201526044016020604051808303815f875af11580156103ac573d5f5f3e3d5ffd5b505050506040513d601f19601f820116820180604052508101906103d0919061053b565b50565b6001600160a01b03811681146103d0575f5ffd5b5f5f604083850312156103f8575f5ffd5b82359150602083013561040a816103d3565b809150509250929050565b5f5f83601f840112610425575f5ffd5b50813567ffffffffffffffff81111561043c575f5ffd5b602083019150836020828501011115610453575f5ffd5b9250929050565b5f5f5f5f5f5f5f5f60c0898b031215610471575f5ffd5b883561047c816103d3565b9750602089013561048c816103d3565b9650604089013561049c816103d3565b955060608901359450608089013567ffffffffffffffff8111156104be575f5ffd5b6104ca8b828c01610415565b90955093505060a089013567ffffffffffffffff8111156104e9575f5ffd5b6104f58b828c01610415565b999c989b5096995094979396929594505050565b5f60208284031215610519575f5ffd5b8151610169816103d3565b5f60208284031215610534575f5ffd5b5051919050565b5f6020828403121561054b575f5ffd5b81518015158114610169575f5ffdfea264697066735822122024522ce9bfc1c0b89645a185bd3edef766dec5db97a680f036a697febec800bc64736f6c634300081b0033000000000000000000000000f7336fd84911203f1f01ab6803eccc984700f59100000000000000000000000056dd51c27325f54b7d3d4c468a16560981380a43000000000000000000000000e88150c42cc6c0294dd20893bf5b1ec6edd24fc6",
        "nonce": "0x63",
        "chainId": "0x4268"
      },
      "additionalContracts": [],
      "isFixedGasLimit": false
    },
    {
      "hash": "0x9e13dc93dcc0a4ccdf1a5e5a64c60a9e896f09f5a053d6fde72cdf23e631ab16",
      "transactionType": "CALL",
      "contractName": null,
      "contractAddress": "0x1820a4b7618bde71dce8cdc73aab6c95905fad24",
      "function": "setInterfaceImplementer(address,bytes32,address)",
      "arguments": [
        "0xE88150C42CC6c0294dD20893Bf5b1EC6eDD24Fc6",
        "0x29ddb589b1fb5fc7cf394961c1adf5f8c6454761adf795e67fe149f658abe895",
        "0xb98b204cab5265142983c52Cdb79585Bf030bfAC"
      ],
      "transaction": {
        "from": "0xe88150c42cc6c0294dd20893bf5b1ec6edd24fc6",
        "to": "0x1820a4b7618bde71dce8cdc73aab6c95905fad24",
        "gas": "0xcff1",
        "value": "0x0",
        "input": "0x29965a1d000000000000000000000000e88150c42cc6c0294dd20893bf5b1ec6edd24fc629ddb589b1fb5fc7cf394961c1adf5f8c6454761adf795e67fe149f658abe895000000000000000000000000b98b204cab5265142983c52cdb79585bf030bfac",
        "nonce": "0x64",
        "chainId": "0x4268"
      },
      "additionalContracts": [],
      "isFixedGasLimit": false
    },
    {
      "hash": "0x5596e064db30ddcf2ebf4178bf0126cd6605f2e13ab8322c02f3afbe272f0b47",
      "transactionType": "CALL",
      "contractName": "Attack",
      "contractAddress": "0xb98b204cab5265142983c52cdb79585bf030bfac",
      "function": "isRegister()",
      "arguments": [],
      "transaction": {
        "from": "0xe88150c42cc6c0294dd20893bf5b1ec6edd24fc6",
        "to": "0xb98b204cab5265142983c52cdb79585bf030bfac",
        "gas": "0x9e16",
        "value": "0x0",
        "input": "0x8525f888",
        "nonce": "0x65",
        "chainId": "0x4268"
      },
      "additionalContracts": [],
      "isFixedGasLimit": false
    },
    {
      "hash": "0xe8d76b1c93563bf1da60906b7c732bbbf719723388d0f9eaac1533be7784df4a",
      "transactionType": "CALL",
      "contractName": null,
      "contractAddress": "0x56dd51c27325f54b7d3d4c468a16560981380a43",
      "function": "approve(address,uint256)",
      "arguments": [
        "0xf7336fd84911203F1f01ab6803ECCc984700f591",
        "115792089237316195423570985008687907853269984665640564039457584007913129639935"
      ],
      "transaction": {
        "from": "0xe88150c42cc6c0294dd20893bf5b1ec6edd24fc6",
        "to": "0x56dd51c27325f54b7d3d4c468a16560981380a43",
        "gas": "0x9007",
        "value": "0x0",
        "input": "0x095ea7b3000000000000000000000000f7336fd84911203f1f01ab6803eccc984700f591ffffffffffffffffffffffffffffffffffffffffffffffffffffffffffffffff",
        "nonce": "0x66",
        "chainId": "0x4268"
      },
      "additionalContracts": [],
      "isFixedGasLimit": false
    }
  ],
  "receipts": [
    {
      "status": "0x1",
      "cumulativeGasUsed": "0x5e52cd",
      "logs": [
        {
          "address": "0x56dd51c27325f54b7d3d4c468a16560981380a43",
          "topics": [
            "0x8c5be1e5ebec7d5bd14f71427d1e84f3dd0314c0f7b2291e5b200ac8c7c3b925",
            "0x000000000000000000000000b98b204cab5265142983c52cdb79585bf030bfac",
            "0x000000000000000000000000f7336fd84911203f1f01ab6803eccc984700f591"
          ],
          "data": "0xffffffffffffffffffffffffffffffffffffffffffffffffffffffffffffffff",
          "blockHash": "0xc15e7fd14101e57a4c27bd5b9c6153bb5911cb9d634d00c58b5cd7878cd7b083",
          "blockNumber": "0x2d5235",
          "blockTimestamp": "0x6764793c",
          "transactionHash": "0xbc5f08ac9b2eec2c287c3c4ee4d8cb3031283cebee2090af483e74dc6b9dff9c",
          "transactionIndex": "0xb",
          "logIndex": "0x28",
          "removed": false
        }
      ],
      "logsBloom": "0x00000000000000000000000000000200000000000000000000000000000000000000000000000000000000000800000000000000000000000000000000200000000000000000000000000000000000000000000000000000000000000000000000000000000000001000000080000000000000000000000000008000000000000000000000000000000000000000010000000000000000000000000080000000020000000000000000000000000000000000000000000000000000000000000000001000000000000000000000000000000000000000000000000000000000000010000000000000000000000000000000000000000000020000000000000000",
      "type": "0x2",
      "transactionHash": "0xbc5f08ac9b2eec2c287c3c4ee4d8cb3031283cebee2090af483e74dc6b9dff9c",
      "transactionIndex": "0xb",
      "blockHash": "0xc15e7fd14101e57a4c27bd5b9c6153bb5911cb9d634d00c58b5cd7878cd7b083",
      "blockNumber": "0x2d5235",
      "gasUsed": "0x76876",
      "effectiveGasPrice": "0xe4e1cc",
      "from": "0xe88150c42cc6c0294dd20893bf5b1ec6edd24fc6",
      "to": null,
      "contractAddress": "0xb98b204cab5265142983c52cdb79585bf030bfac"
    },
    {
      "status": "0x1",
      "cumulativeGasUsed": "0x5ee95a",
      "logs": [
        {
          "address": "0x1820a4b7618bde71dce8cdc73aab6c95905fad24",
          "topics": [
            "0x93baa6efbd2244243bfee6ce4cfdd1d04fc4c0e9a786abd3a41313bd352db153",
            "0x000000000000000000000000e88150c42cc6c0294dd20893bf5b1ec6edd24fc6",
            "0x29ddb589b1fb5fc7cf394961c1adf5f8c6454761adf795e67fe149f658abe895",
            "0x000000000000000000000000b98b204cab5265142983c52cdb79585bf030bfac"
          ],
          "data": "0x",
          "blockHash": "0xc15e7fd14101e57a4c27bd5b9c6153bb5911cb9d634d00c58b5cd7878cd7b083",
          "blockNumber": "0x2d5235",
          "blockTimestamp": "0x6764793c",
          "transactionHash": "0x9e13dc93dcc0a4ccdf1a5e5a64c60a9e896f09f5a053d6fde72cdf23e631ab16",
          "transactionIndex": "0xc",
          "logIndex": "0x29",
          "removed": false
        }
      ],
      "logsBloom": "0x00000000020000000000000000000200000000000000000000000000000000001000000000000000000000000800000000000000000000000000000000000000000000000000000000000000000000000000000000000000000000000000000000000000000000000000000000000000002010000020000000000000000000000000000000000000000000000000011000000002000000000000000000000000000000000000000000000000000000000000000000000000200810000000000000000000000000000000000000000000000000000000000000000000000000000000040004000000000000000000000000000000000000000000000000000000",
      "type": "0x2",
      "transactionHash": "0x9e13dc93dcc0a4ccdf1a5e5a64c60a9e896f09f5a053d6fde72cdf23e631ab16",
      "transactionIndex": "0xc",
      "blockHash": "0xc15e7fd14101e57a4c27bd5b9c6153bb5911cb9d634d00c58b5cd7878cd7b083",
      "blockNumber": "0x2d5235",
      "gasUsed": "0x968d",
      "effectiveGasPrice": "0xe4e1cc",
      "from": "0xe88150c42cc6c0294dd20893bf5b1ec6edd24fc6",
      "to": "0x1820a4b7618bde71dce8cdc73aab6c95905fad24",
      "contractAddress": null
    },
    {
      "status": "0x1",
      "cumulativeGasUsed": "0x5f5bce",
      "logs": [],
      "logsBloom": "0x00000000000000000000000000000000000000000000000000000000000000000000000000000000000000000000000000000000000000000000000000000000000000000000000000000000000000000000000000000000000000000000000000000000000000000000000000000000000000000000000000000000000000000000000000000000000000000000000000000000000000000000000000000000000000000000000000000000000000000000000000000000000000000000000000000000000000000000000000000000000000000000000000000000000000000000000000000000000000000000000000000000000000000000000000000000",
      "type": "0x2",
      "transactionHash": "0x5596e064db30ddcf2ebf4178bf0126cd6605f2e13ab8322c02f3afbe272f0b47",
      "transactionIndex": "0xd",
      "blockHash": "0xc15e7fd14101e57a4c27bd5b9c6153bb5911cb9d634d00c58b5cd7878cd7b083",
      "blockNumber": "0x2d5235",
      "gasUsed": "0x7274",
      "effectiveGasPrice": "0xe4e1cc",
      "from": "0xe88150c42cc6c0294dd20893bf5b1ec6edd24fc6",
      "to": "0xb98b204cab5265142983c52cdb79585bf030bfac",
      "contractAddress": null
    },
    {
      "status": "0x1",
      "cumulativeGasUsed": "0x5fc415",
      "logs": [
        {
          "address": "0x56dd51c27325f54b7d3d4c468a16560981380a43",
          "topics": [
            "0x8c5be1e5ebec7d5bd14f71427d1e84f3dd0314c0f7b2291e5b200ac8c7c3b925",
            "0x000000000000000000000000e88150c42cc6c0294dd20893bf5b1ec6edd24fc6",
            "0x000000000000000000000000f7336fd84911203f1f01ab6803eccc984700f591"
          ],
          "data": "0xffffffffffffffffffffffffffffffffffffffffffffffffffffffffffffffff",
          "blockHash": "0xc15e7fd14101e57a4c27bd5b9c6153bb5911cb9d634d00c58b5cd7878cd7b083",
          "blockNumber": "0x2d5235",
          "blockTimestamp": "0x6764793c",
          "transactionHash": "0xe8d76b1c93563bf1da60906b7c732bbbf719723388d0f9eaac1533be7784df4a",
          "transactionIndex": "0xe",
          "logIndex": "0x2a",
          "removed": false
        }
      ],
      "logsBloom": "0x00000000000000000000000000000000000000000000000000000000000000000000000000000000000000000000000000000000000000000000000000200000000000000000000000000000000000000000000000000000000000000000000000000000000000001000000080000000000000000000000000008000000000000000000000000000000000000000000000000002000000000000000080000000020000000000000000000000000000000000000000000000000010000000000000001000000000000000000000000000000000000000000000000000000000000010000004000000000000000000000000000000000000020000000000000000",
      "type": "0x2",
      "transactionHash": "0xe8d76b1c93563bf1da60906b7c732bbbf719723388d0f9eaac1533be7784df4a",
      "transactionIndex": "0xe",
      "blockHash": "0xc15e7fd14101e57a4c27bd5b9c6153bb5911cb9d634d00c58b5cd7878cd7b083",
      "blockNumber": "0x2d5235",
      "gasUsed": "0x6847",
      "effectiveGasPrice": "0xe4e1cc",
      "from": "0xe88150c42cc6c0294dd20893bf5b1ec6edd24fc6",
      "to": "0x56dd51c27325f54b7d3d4c468a16560981380a43",
      "contractAddress": null
    }
  ],
  "libraries": [],
  "pending": [],
  "returns": {},
  "timestamp": 1734637890,
  "chain": 17000,
  "commit": "58111ea"
}