{
  "transactions": [
    {
      "hash": "0xa9e96e78940e890c963ed55ddec5b2592f94fa32760644b87c2b0d3023e1205d",
      "transactionType": "CREATE",
      "contractName": "Attack",
      "contractAddress": "0x44eb1823e6dd567a4ab3c5ac0819b280bb3ee359",
      "function": null,
      "arguments": [
        "0xf7336fd84911203F1f01ab6803ECCc984700f591",
        "0x56dd51c27325f54b7d3d4c468A16560981380a43",
        "0xE88150C42CC6c0294dD20893Bf5b1EC6eDD24Fc6"
      ],
      "transaction": {
        "from": "0xe88150c42cc6c0294dd20893bf5b1ec6edd24fc6",
        "gas": "0x9a175",
        "value": "0x0",
        "input": "0x608060405234801561000f575f5ffd5b5060405161073d38038061073d83398101604081905261002e9161013a565b600180546001600160a01b038581166001600160a01b031992831617835560028054868316908416179055600380549185169190921681179091555f9081527f35caef69825cdb1fbfd221f52a215969ae583b38d7af2e4bc70bda521cf19ba860205260409020805460ff1916909117905560025460015460405163095ea7b360e01b81526001600160a01b0391821660048201525f19602482015291169063095ea7b3906044016020604051808303815f875af11580156100f2573d5f5f3e3d5ffd5b505050506040513d601f19601f82011682018060405250810190610116919061017a565b505050506101a0565b80516001600160a01b0381168114610135575f5ffd5b919050565b5f5f5f6060848603121561014c575f5ffd5b6101558461011f565b92506101636020850161011f565b91506101716040850161011f565b90509250925092565b5f6020828403121561018a575f5ffd5b81518015158114610199575f5ffd5b9392505050565b610590806101ad5f395ff3fe608060405234801561000f575f5ffd5b506004361061007a575f3560e01c80638525f888116100585780638525f888146100e45780639e5a39ca146100ec578063d47ef27e146100f4578063e78cea9214610107575f5ffd5b8063249cb3fa1461007e57806348db5f89146100a457806375ab9782146100cf575b5f5ffd5b61009161008c3660046103e7565b61011a565b6040519081526020015b60405180910390f35b6003546100b7906001600160a01b031681565b6040516001600160a01b03909116815260200161009b565b6100e26100dd36600461045a565b610170565b005b6100b7610242565b6100e26102ed565b6002546100b7906001600160a01b031681565b6001546100b7906001600160a01b031681565b5f828152602081815260408083206001600160a01b038516845290915281205460ff16610147575f610169565b7fa2ef4600d742022d532d4747cb3547474667d6f13804902513b2ec01c848f4b45b9392505050565b6003546001600160a01b03888116911614801561019557506001600160a01b03861630145b806101c557506001546001600160a01b0388811691161480156101c557506003546001600160a01b038781169116145b6102385760015460025460035460405163dafac22f60e01b81526001600160a01b03928316600482015290821660248201526044810188905291169063dafac22f906064015f604051808303815f87803b158015610221575f5ffd5b505af1158015610233573d5f5f3e3d5ffd5b505050505b5050505050505050565b60035460405163555ddc6560e11b81526001600160a01b0390911660048201527f29ddb589b1fb5fc7cf394961c1adf5f8c6454761adf795e67fe149f658abe89560248201525f90731820a4b7618bde71dce8cdc73aab6c95905fad249063aabbb8ca90604401602060405180830381865afa1580156102c4573d5f5f3e3d5ffd5b505050506040513d601f19601f820116820180604052508101906102e89190610509565b905090565b6002546003546040516370a0823160e01b81523060048201526001600160a01b039283169263a9059cbb92169083906370a0823190602401602060405180830381865afa158015610340573d5f5f3e3d5ffd5b505050506040513d601f19601f820116820180604052508101906103649190610524565b6040516001600160e01b031960e085901b1681526001600160a01b03909216600483015260248201526044016020604051808303815f875af11580156103ac573d5f5f3e3d5ffd5b505050506040513d601f19601f820116820180604052508101906103d0919061053b565b50565b6001600160a01b03811681146103d0575f5ffd5b5f5f604083850312156103f8575f5ffd5b82359150602083013561040a816103d3565b809150509250929050565b5f5f83601f840112610425575f5ffd5b50813567ffffffffffffffff81111561043c575f5ffd5b602083019150836020828501011115610453575f5ffd5b9250929050565b5f5f5f5f5f5f5f5f60c0898b031215610471575f5ffd5b883561047c816103d3565b9750602089013561048c816103d3565b9650604089013561049c816103d3565b955060608901359450608089013567ffffffffffffffff8111156104be575f5ffd5b6104ca8b828c01610415565b90955093505060a089013567ffffffffffffffff8111156104e9575f5ffd5b6104f58b828c01610415565b999c989b5096995094979396929594505050565b5f60208284031215610519575f5ffd5b8151610169816103d3565b5f60208284031215610534575f5ffd5b5051919050565b5f6020828403121561054b575f5ffd5b81518015158114610169575f5ffdfea2646970667358221220d657d74c4533bf3cf02e49a15081ad670ef357e762b7fd53369a2e2271f7f20e64736f6c634300081b0033000000000000000000000000f7336fd84911203f1f01ab6803eccc984700f59100000000000000000000000056dd51c27325f54b7d3d4c468a16560981380a43000000000000000000000000e88150c42cc6c0294dd20893bf5b1ec6edd24fc6",
        "nonce": "0x67",
        "chainId": "0x4268"
      },
      "additionalContracts": [],
      "isFixedGasLimit": false
    },
    {
      "hash": "0x8c618f43d590ec8569759a8df81529dd7dc4ae69450e34916ad4487c784e7182",
      "transactionType": "CALL",
      "contractName": null,
      "contractAddress": "0x1820a4b7618bde71dce8cdc73aab6c95905fad24",
      "function": "setInterfaceImplementer(address,bytes32,address)",
      "arguments": [
        "0xE88150C42CC6c0294dD20893Bf5b1EC6eDD24Fc6",
        "0x29ddb589b1fb5fc7cf394961c1adf5f8c6454761adf795e67fe149f658abe895",
        "0x44eb1823e6Dd567A4ab3c5Ac0819b280bb3Ee359"
      ],
      "transaction": {
        "from": "0xe88150c42cc6c0294dd20893bf5b1ec6edd24fc6",
        "to": "0x1820a4b7618bde71dce8cdc73aab6c95905fad24",
        "gas": "0xcff1",
        "value": "0x0",
        "input": "0x29965a1d000000000000000000000000e88150c42cc6c0294dd20893bf5b1ec6edd24fc629ddb589b1fb5fc7cf394961c1adf5f8c6454761adf795e67fe149f658abe89500000000000000000000000044eb1823e6dd567a4ab3c5ac0819b280bb3ee359",
        "nonce": "0x68",
        "chainId": "0x4268"
      },
      "additionalContracts": [],
      "isFixedGasLimit": false
    },
    {
      "hash": "0x5e462f77d8f8042e47c7648fb3f9f13bb92cb2c80207518f093eacb3b59bfed3",
      "transactionType": "CALL",
      "contractName": "Attack",
      "contractAddress": "0x44eb1823e6dd567a4ab3c5ac0819b280bb3ee359",
      "function": "isRegister()",
      "arguments": [],
      "transaction": {
        "from": "0xe88150c42cc6c0294dd20893bf5b1ec6edd24fc6",
        "to": "0x44eb1823e6dd567a4ab3c5ac0819b280bb3ee359",
        "gas": "0x9e16",
        "value": "0x0",
        "input": "0x8525f888",
        "nonce": "0x69",
        "chainId": "0x4268"
      },
      "additionalContracts": [],
      "isFixedGasLimit": false
    },
    {
      "hash": "0x3de8fd5266fa4b8a2870e2df1e190940da62d9fe25f89eaaded8dbabcfe62e71",
      "transactionType": "CALL",
      "contractName": null,
      "contractAddress": "0x56dd51c27325f54b7d3d4c468a16560981380a43",
      "function": "approve(address,uint256)",
      "arguments": [
        "0xf7336fd84911203F1f01ab6803ECCc984700f591",
        "115792089237316195423570985008687907853269984665640564039457584007913129639935"
      ],
      "transaction": {
        "from": "0xe88150c42cc6c0294dd20893bf5b1ec6edd24fc6",
        "to": "0x56dd51c27325f54b7d3d4c468a16560981380a43",
        "gas": "0x9007",
        "value": "0x0",
        "input": "0x095ea7b3000000000000000000000000f7336fd84911203f1f01ab6803eccc984700f591ffffffffffffffffffffffffffffffffffffffffffffffffffffffffffffffff",
        "nonce": "0x6a",
        "chainId": "0x4268"
      },
      "additionalContracts": [],
      "isFixedGasLimit": false
    },
    {
      "hash": "0x7901b29037a947bf52449227b14b141a73ef307ebe153700d0ad1abe481320b5",
      "transactionType": "CALL",
      "contractName": null,
      "contractAddress": "0x56dd51c27325f54b7d3d4c468a16560981380a43",
      "function": "transfer(address,uint256)",
      "arguments": [
        "0x44eb1823e6Dd567A4ab3c5Ac0819b280bb3Ee359",
        "1125000000000000112"
      ],
      "transaction": {
        "from": "0xe88150c42cc6c0294dd20893bf5b1ec6edd24fc6",
        "to": "0x56dd51c27325f54b7d3d4c468a16560981380a43",
        "gas": "0x19881",
        "value": "0x0",
        "input": "0xa9059cbb00000000000000000000000044eb1823e6dd567a4ab3c5ac0819b280bb3ee3590000000000000000000000000000000000000000000000000f9ccd8a1c508070",
        "nonce": "0x6b",
        "chainId": "0x4268"
      },
      "additionalContracts": [],
      "isFixedGasLimit": false
    },
    {
      "hash": "0x961511f99f98500be40d8d047fec318900c20da76b1e14ebd845cfdeed577c90",
      "transactionType": "CALL",
      "contractName": null,
      "contractAddress": "0xf7336fd84911203f1f01ab6803eccc984700f591",
      "function": "ERC20Out(address,address,uint256)",
      "arguments": [
        "0x56dd51c27325f54b7d3d4c468A16560981380a43",
        "0xE88150C42CC6c0294dD20893Bf5b1EC6eDD24Fc6",
        "1125000000000000112"
      ],
      "transaction": {
        "from": "0xe88150c42cc6c0294dd20893bf5b1ec6edd24fc6",
        "to": "0xf7336fd84911203f1f01ab6803eccc984700f591",
        "gas": "0x58655",
        "value": "0x0",
        "input": "0xdafac22f00000000000000000000000056dd51c27325f54b7d3d4c468a16560981380a43000000000000000000000000e88150c42cc6c0294dd20893bf5b1ec6edd24fc60000000000000000000000000000000000000000000000000f9ccd8a1c508070",
        "nonce": "0x6c",
        "chainId": "0x4268"
      },
      "additionalContracts": [],
      "isFixedGasLimit": false
    },
    {
      "hash": "0x15e87afac0b40d3b5bbf22c1cf4f6f0631ab9def3bf0dbaca248777bbe6045eb",
      "transactionType": "CALL",
      "contractName": "Attack",
      "contractAddress": "0x44eb1823e6dd567a4ab3c5ac0819b280bb3ee359",
      "function": "sendMeback()",
      "arguments": [],
      "transaction": {
        "from": "0xe88150c42cc6c0294dd20893bf5b1ec6edd24fc6",
        "to": "0x44eb1823e6dd567a4ab3c5ac0819b280bb3ee359",
        "gas": "0x10d61",
        "value": "0x0",
        "input": "0x9e5a39ca",
        "nonce": "0x6d",
        "chainId": "0x4268"
      },
      "additionalContracts": [],
      "isFixedGasLimit": false
    },
    {
      "hash": "0x3b1a07c3c5d6a15a3b7077a23d49e8c46e45dd724474584db4f5896cf81c2ba2",
      "transactionType": "CALL",
      "contractName": null,
      "contractAddress": "0xe79206ea5f8ed1a5281a812d8864f5b3207c9441",
      "function": "ERC20Out(address,address,uint256)",
      "arguments": [
        "0xf35110F68f441fd3BD7d354A2A5Faa1D32b970a7",
        "0xE88150C42CC6c0294dD20893Bf5b1EC6eDD24Fc6",
        "3375000000000000336"
      ],
      "transaction": {
        "from": "0xe88150c42cc6c0294dd20893bf5b1ec6edd24fc6",
        "to": "0xe79206ea5f8ed1a5281a812d8864f5b3207c9441",
        "gas": "0x2cd7e",
        "value": "0x0",
        "input": "0xdafac22f000000000000000000000000f35110f68f441fd3bd7d354a2a5faa1d32b970a7000000000000000000000000e88150c42cc6c0294dd20893bf5b1ec6edd24fc60000000000000000000000000000000000000000000000002ed6689e54f18150",
        "nonce": "0x6e",
        "chainId": "0x4268"
      },
      "additionalContracts": [],
      "isFixedGasLimit": false
    },
    {
      "hash": "0x1c78c2d9dade82fbfb916fcee368613080ca89bffd948ca1d7874f41bb215fed",
      "transactionType": "CALL",
      "contractName": null,
      "contractAddress": "0x56dd51c27325f54b7d3d4c468a16560981380a43",
      "function": "transfer(address,uint256)",
      "arguments": [
        "0x44eb1823e6Dd567A4ab3c5Ac0819b280bb3Ee359",
        "1687500000000000168"
      ],
      "transaction": {
        "from": "0xe88150c42cc6c0294dd20893bf5b1ec6edd24fc6",
        "to": "0x56dd51c27325f54b7d3d4c468a16560981380a43",
        "gas": "0x19881",
        "value": "0x0",
        "input": "0xa9059cbb00000000000000000000000044eb1823e6dd567a4ab3c5ac0819b280bb3ee359000000000000000000000000000000000000000000000000176b344f2a78c0a8",
        "nonce": "0x6f",
        "chainId": "0x4268"
      },
      "additionalContracts": [],
      "isFixedGasLimit": false
    },
    {
      "hash": "0x16344d0c6e30493f935086d9f3be44d6a2415b6f4e1c89ce2346091fb5688e58",
      "transactionType": "CALL",
      "contractName": null,
      "contractAddress": "0xf7336fd84911203f1f01ab6803eccc984700f591",
      "function": "ERC20Out(address,address,uint256)",
      "arguments": [
        "0x56dd51c27325f54b7d3d4c468A16560981380a43",
        "0xE88150C42CC6c0294dD20893Bf5b1EC6eDD24Fc6",
        "1687500000000000168"
      ],
      "transaction": {
        "from": "0xe88150c42cc6c0294dd20893bf5b1ec6edd24fc6",
        "to": "0xf7336fd84911203f1f01ab6803eccc984700f591",
        "gas": "0x58655",
        "value": "0x0",
        "input": "0xdafac22f00000000000000000000000056dd51c27325f54b7d3d4c468a16560981380a43000000000000000000000000e88150c42cc6c0294dd20893bf5b1ec6edd24fc6000000000000000000000000000000000000000000000000176b344f2a78c0a8",
        "nonce": "0x70",
        "chainId": "0x4268"
      },
      "additionalContracts": [],
      "isFixedGasLimit": false
    },
    {
      "hash": "0x892e93e005bed95ce6e418e98776c58a40d33ba7c965b9b8e902e1a592a685bf",
      "transactionType": "CALL",
      "contractName": "Attack",
      "contractAddress": "0x44eb1823e6dd567a4ab3c5ac0819b280bb3ee359",
      "function": "sendMeback()",
      "arguments": [],
      "transaction": {
        "from": "0xe88150c42cc6c0294dd20893bf5b1ec6edd24fc6",
        "to": "0x44eb1823e6dd567a4ab3c5ac0819b280bb3ee359",
        "gas": "0x10d61",
        "value": "0x0",
        "input": "0x9e5a39ca",
        "nonce": "0x71",
        "chainId": "0x4268"
      },
      "additionalContracts": [],
      "isFixedGasLimit": false
    },
    {
      "hash": "0xe67f3cd577923a93ab191f63ca14f8205b6915a490b6ce86ab1745d0ebf237f3",
      "transactionType": "CALL",
      "contractName": null,
      "contractAddress": "0xe79206ea5f8ed1a5281a812d8864f5b3207c9441",
      "function": "ERC20Out(address,address,uint256)",
      "arguments": [
        "0xf35110F68f441fd3BD7d354A2A5Faa1D32b970a7",
        "0xE88150C42CC6c0294dD20893Bf5b1EC6eDD24Fc6",
        "5062500000000000504"
      ],
      "transaction": {
        "from": "0xe88150c42cc6c0294dd20893bf5b1ec6edd24fc6",
        "to": "0xe79206ea5f8ed1a5281a812d8864f5b3207c9441",
        "gas": "0x2cd7e",
        "value": "0x0",
        "input": "0xdafac22f000000000000000000000000f35110f68f441fd3bd7d354a2a5faa1d32b970a7000000000000000000000000e88150c42cc6c0294dd20893bf5b1ec6edd24fc600000000000000000000000000000000000000000000000046419ced7f6a41f8",
        "nonce": "0x72",
        "chainId": "0x4268"
      },
      "additionalContracts": [],
      "isFixedGasLimit": false
    },
    {
      "hash": "0x7768b667abc659a60e909c3e9f04c246c9f3f87673d3984fec6e53e7856c2650",
      "transactionType": "CALL",
      "contractName": null,
      "contractAddress": "0x56dd51c27325f54b7d3d4c468a16560981380a43",
      "function": "transfer(address,uint256)",
      "arguments": [
        "0x44eb1823e6Dd567A4ab3c5Ac0819b280bb3Ee359",
        "2531250000000000252"
      ],
      "transaction": {
        "from": "0xe88150c42cc6c0294dd20893bf5b1ec6edd24fc6",
        "to": "0x56dd51c27325f54b7d3d4c468a16560981380a43",
        "gas": "0x19881",
        "value": "0x0",
        "input": "0xa9059cbb00000000000000000000000044eb1823e6dd567a4ab3c5ac0819b280bb3ee3590000000000000000000000000000000000000000000000002320ce76bfb520fc",
        "nonce": "0x73",
        "chainId": "0x4268"
      },
      "additionalContracts": [],
      "isFixedGasLimit": false
    },
    {
      "hash": "0xae141635e62bfbb8c722550841ec78b4653bba82f74be710c606202e185b5ddc",
      "transactionType": "CALL",
      "contractName": null,
      "contractAddress": "0xf7336fd84911203f1f01ab6803eccc984700f591",
      "function": "ERC20Out(address,address,uint256)",
      "arguments": [
        "0x56dd51c27325f54b7d3d4c468A16560981380a43",
        "0xE88150C42CC6c0294dD20893Bf5b1EC6eDD24Fc6",
        "2531250000000000252"
      ],
      "transaction": {
        "from": "0xe88150c42cc6c0294dd20893bf5b1ec6edd24fc6",
        "to": "0xf7336fd84911203f1f01ab6803eccc984700f591",
        "gas": "0x58655",
        "value": "0x0",
        "input": "0xdafac22f00000000000000000000000056dd51c27325f54b7d3d4c468a16560981380a43000000000000000000000000e88150c42cc6c0294dd20893bf5b1ec6edd24fc60000000000000000000000000000000000000000000000002320ce76bfb520fc",
        "nonce": "0x74",
        "chainId": "0x4268"
      },
      "additionalContracts": [],
      "isFixedGasLimit": false
    },
    {
      "hash": "0xb6a73c2f6abd42990f7c14705a747d0d7711ba8322ce57614b52c3fe35abec94",
      "transactionType": "CALL",
      "contractName": "Attack",
      "contractAddress": "0x44eb1823e6dd567a4ab3c5ac0819b280bb3ee359",
      "function": "sendMeback()",
      "arguments": [],
      "transaction": {
        "from": "0xe88150c42cc6c0294dd20893bf5b1ec6edd24fc6",
        "to": "0x44eb1823e6dd567a4ab3c5ac0819b280bb3ee359",
        "gas": "0x10d61",
        "value": "0x0",
        "input": "0x9e5a39ca",
        "nonce": "0x75",
        "chainId": "0x4268"
      },
      "additionalContracts": [],
      "isFixedGasLimit": false
    },
    {
      "hash": "0xa16150d40757b2df2be681c740d8da8ca6d1c3cbdc3f2188ba3847ef27a08b70",
      "transactionType": "CALL",
      "contractName": null,
      "contractAddress": "0xe79206ea5f8ed1a5281a812d8864f5b3207c9441",
      "function": "ERC20Out(address,address,uint256)",
      "arguments": [
        "0xf35110F68f441fd3BD7d354A2A5Faa1D32b970a7",
        "0xE88150C42CC6c0294dD20893Bf5b1EC6eDD24Fc6",
        "7593750000000000756"
      ],
      "transaction": {
        "from": "0xe88150c42cc6c0294dd20893bf5b1ec6edd24fc6",
        "to": "0xe79206ea5f8ed1a5281a812d8864f5b3207c9441",
        "gas": "0x2cd7e",
        "value": "0x0",
        "input": "0xdafac22f000000000000000000000000f35110f68f441fd3bd7d354a2a5faa1d32b970a7000000000000000000000000e88150c42cc6c0294dd20893bf5b1ec6edd24fc600000000000000000000000000000000000000000000000069626b643f1f62f4",
        "nonce": "0x76",
        "chainId": "0x4268"
      },
      "additionalContracts": [],
      "isFixedGasLimit": false
    },
    {
      "hash": "0xf13bb4d5aa0c5cc840f15653a166e79ca607527b5c17f9493287c6a06ab0e7d5",
      "transactionType": "CALL",
      "contractName": null,
      "contractAddress": "0x56dd51c27325f54b7d3d4c468a16560981380a43",
      "function": "transfer(address,uint256)",
      "arguments": [
        "0x44eb1823e6Dd567A4ab3c5Ac0819b280bb3Ee359",
        "3796875000000000378"
      ],
      "transaction": {
        "from": "0xe88150c42cc6c0294dd20893bf5b1ec6edd24fc6",
        "to": "0x56dd51c27325f54b7d3d4c468a16560981380a43",
        "gas": "0x19881",
        "value": "0x0",
        "input": "0xa9059cbb00000000000000000000000044eb1823e6dd567a4ab3c5ac0819b280bb3ee35900000000000000000000000000000000000000000000000034b135b21f8fb17a",
        "nonce": "0x77",
        "chainId": "0x4268"
      },
      "additionalContracts": [],
      "isFixedGasLimit": false
    },
    {
      "hash": "0xa0574de115b6ab6d9449bfc9c4c31d6920cc77a234c26793f30f9461e8a813f0",
      "transactionType": "CALL",
      "contractName": null,
      "contractAddress": "0xf7336fd84911203f1f01ab6803eccc984700f591",
      "function": "ERC20Out(address,address,uint256)",
      "arguments": [
        "0x56dd51c27325f54b7d3d4c468A16560981380a43",
        "0xE88150C42CC6c0294dD20893Bf5b1EC6eDD24Fc6",
        "3796875000000000378"
      ],
      "transaction": {
        "from": "0xe88150c42cc6c0294dd20893bf5b1ec6edd24fc6",
        "to": "0xf7336fd84911203f1f01ab6803eccc984700f591",
        "gas": "0x58655",
        "value": "0x0",
        "input": "0xdafac22f00000000000000000000000056dd51c27325f54b7d3d4c468a16560981380a43000000000000000000000000e88150c42cc6c0294dd20893bf5b1ec6edd24fc600000000000000000000000000000000000000000000000034b135b21f8fb17a",
        "nonce": "0x78",
        "chainId": "0x4268"
      },
      "additionalContracts": [],
      "isFixedGasLimit": false
    },
    {
      "hash": "0xfb0136dcc16eb99d8f5e84f51bfb25a0bed151c7ea450269405fa4f1ae4a8461",
      "transactionType": "CALL",
      "contractName": "Attack",
      "contractAddress": "0x44eb1823e6dd567a4ab3c5ac0819b280bb3ee359",
      "function": "sendMeback()",
      "arguments": [],
      "transaction": {
        "from": "0xe88150c42cc6c0294dd20893bf5b1ec6edd24fc6",
        "to": "0x44eb1823e6dd567a4ab3c5ac0819b280bb3ee359",
        "gas": "0x10d61",
        "value": "0x0",
        "input": "0x9e5a39ca",
        "nonce": "0x79",
        "chainId": "0x4268"
      },
      "additionalContracts": [],
      "isFixedGasLimit": false
    },
    {
      "hash": "0x7547ec720ac55afdebd19edcde8e76f090aa625411bd7fe389dd3a072e72dffa",
      "transactionType": "CALL",
      "contractName": null,
      "contractAddress": "0xe79206ea5f8ed1a5281a812d8864f5b3207c9441",
      "function": "ERC20Out(address,address,uint256)",
      "arguments": [
        "0xf35110F68f441fd3BD7d354A2A5Faa1D32b970a7",
        "0xE88150C42CC6c0294dD20893Bf5b1EC6eDD24Fc6",
        "11390625000000001134"
      ],
      "transaction": {
        "from": "0xe88150c42cc6c0294dd20893bf5b1ec6edd24fc6",
        "to": "0xe79206ea5f8ed1a5281a812d8864f5b3207c9441",
        "gas": "0x2cd7e",
        "value": "0x0",
        "input": "0xdafac22f000000000000000000000000f35110f68f441fd3bd7d354a2a5faa1d32b970a7000000000000000000000000e88150c42cc6c0294dd20893bf5b1ec6edd24fc60000000000000000000000000000000000000000000000009e13a1165eaf146e",
        "nonce": "0x7a",
        "chainId": "0x4268"
      },
      "additionalContracts": [],
      "isFixedGasLimit": false
    },
    {
      "hash": "0xd19f1d8121d01305cf5d53709cd55cbcef8b6e108561a31dc3f6a09fb7c4a314",
      "transactionType": "CALL",
      "contractName": null,
      "contractAddress": "0x56dd51c27325f54b7d3d4c468a16560981380a43",
      "function": "transfer(address,uint256)",
      "arguments": [
        "0x44eb1823e6Dd567A4ab3c5Ac0819b280bb3Ee359",
        "5695312500000000567"
      ],
      "transaction": {
        "from": "0xe88150c42cc6c0294dd20893bf5b1ec6edd24fc6",
        "to": "0x56dd51c27325f54b7d3d4c468a16560981380a43",
        "gas": "0x19881",
        "value": "0x0",
        "input": "0xa9059cbb00000000000000000000000044eb1823e6dd567a4ab3c5ac0819b280bb3ee3590000000000000000000000000000000000000000000000004f09d08b2f578a37",
        "nonce": "0x7b",
        "chainId": "0x4268"
      },
      "additionalContracts": [],
      "isFixedGasLimit": false
    },
    {
      "hash": "0x5e47cfd9644e535d721ab7d26868184b754e7ced217d0a887d449fb5f1603832",
      "transactionType": "CALL",
      "contractName": null,
      "contractAddress": "0xf7336fd84911203f1f01ab6803eccc984700f591",
      "function": "ERC20Out(address,address,uint256)",
      "arguments": [
        "0x56dd51c27325f54b7d3d4c468A16560981380a43",
        "0xE88150C42CC6c0294dD20893Bf5b1EC6eDD24Fc6",
        "5695312500000000567"
      ],
      "transaction": {
        "from": "0xe88150c42cc6c0294dd20893bf5b1ec6edd24fc6",
        "to": "0xf7336fd84911203f1f01ab6803eccc984700f591",
        "gas": "0x58655",
        "value": "0x0",
        "input": "0xdafac22f00000000000000000000000056dd51c27325f54b7d3d4c468a16560981380a43000000000000000000000000e88150c42cc6c0294dd20893bf5b1ec6edd24fc60000000000000000000000000000000000000000000000004f09d08b2f578a37",
        "nonce": "0x7c",
        "chainId": "0x4268"
      },
      "additionalContracts": [],
      "isFixedGasLimit": false
    },
    {
      "hash": "0xe284affb5c014d6af748504db0e31655f8fd36aa68160747c1628f184660fc33",
      "transactionType": "CALL",
      "contractName": "Attack",
      "contractAddress": "0x44eb1823e6dd567a4ab3c5ac0819b280bb3ee359",
      "function": "sendMeback()",
      "arguments": [],
      "transaction": {
        "from": "0xe88150c42cc6c0294dd20893bf5b1ec6edd24fc6",
        "to": "0x44eb1823e6dd567a4ab3c5ac0819b280bb3ee359",
        "gas": "0x10d61",
        "value": "0x0",
        "input": "0x9e5a39ca",
        "nonce": "0x7d",
        "chainId": "0x4268"
      },
      "additionalContracts": [],
      "isFixedGasLimit": false
    },
    {
      "hash": "0x909a5ae4edd5cdb9749b2a0b48d9e1ac258dbafce35d5aa6228df471b818b11c",
      "transactionType": "CALL",
      "contractName": null,
      "contractAddress": "0xe79206ea5f8ed1a5281a812d8864f5b3207c9441",
      "function": "ERC20Out(address,address,uint256)",
      "arguments": [
        "0xf35110F68f441fd3BD7d354A2A5Faa1D32b970a7",
        "0xE88150C42CC6c0294dD20893Bf5b1EC6eDD24Fc6",
        "17085937500000001701"
      ],
      "transaction": {
        "from": "0xe88150c42cc6c0294dd20893bf5b1ec6edd24fc6",
        "to": "0xe79206ea5f8ed1a5281a812d8864f5b3207c9441",
        "gas": "0x2cd7e",
        "value": "0x0",
        "input": "0xdafac22f000000000000000000000000f35110f68f441fd3bd7d354a2a5faa1d32b970a7000000000000000000000000e88150c42cc6c0294dd20893bf5b1ec6edd24fc6000000000000000000000000000000000000000000000000ed1d71a18e069ea5",
        "nonce": "0x7e",
        "chainId": "0x4268"
      },
      "additionalContracts": [],
      "isFixedGasLimit": false
    }
  ],
  "receipts": [
    {
      "status": "0x1",
      "cumulativeGasUsed": "0x5dfb40",
      "logs": [
        {
          "address": "0x56dd51c27325f54b7d3d4c468a16560981380a43",
          "topics": [
            "0x8c5be1e5ebec7d5bd14f71427d1e84f3dd0314c0f7b2291e5b200ac8c7c3b925",
            "0x00000000000000000000000044eb1823e6dd567a4ab3c5ac0819b280bb3ee359",
            "0x000000000000000000000000f7336fd84911203f1f01ab6803eccc984700f591"
          ],
          "data": "0xffffffffffffffffffffffffffffffffffffffffffffffffffffffffffffffff",
          "blockHash": "0x1cb09fda68d9940766c73fd0e15f95ce57306cd20497cf92c938d6511fd19149",
          "blockNumber": "0x2d5240",
          "blockTimestamp": "0x676479c0",
          "transactionHash": "0xa9e96e78940e890c963ed55ddec5b2592f94fa32760644b87c2b0d3023e1205d",
          "transactionIndex": "0xa",
          "logIndex": "0x21",
          "removed": false
        }
      ],
      "logsBloom": "0x00000000000000000000000000000000000000000000000000000000000000000000000000000000000000000000000000000000000000000002000000200000000000000000000000000000000000000000000000000000000000000000000000000000000000001000000080000000000000000000000000008000000000000000000000000000000000000000000000000000000000000000000080000000020000000000000000000000000000100000000000040000000000000000000000001000000000000000000000000000000000000000000000000000000000000010000000000000000000000000000000000000000000020000000000000000",
      "type": "0x2",
      "transactionHash": "0xa9e96e78940e890c963ed55ddec5b2592f94fa32760644b87c2b0d3023e1205d",
      "transactionIndex": "0xa",
      "blockHash": "0x1cb09fda68d9940766c73fd0e15f95ce57306cd20497cf92c938d6511fd19149",
      "blockNumber": "0x2d5240",
      "gasUsed": "0x76882",
      "effectiveGasPrice": "0xe4e1ca",
      "from": "0xe88150c42cc6c0294dd20893bf5b1ec6edd24fc6",
      "to": null,
      "contractAddress": "0x44eb1823e6dd567a4ab3c5ac0819b280bb3ee359"
    },
    {
      "status": "0x1",
      "cumulativeGasUsed": "0x5e91cd",
      "logs": [
        {
          "address": "0x1820a4b7618bde71dce8cdc73aab6c95905fad24",
          "topics": [
            "0x93baa6efbd2244243bfee6ce4cfdd1d04fc4c0e9a786abd3a41313bd352db153",
            "0x000000000000000000000000e88150c42cc6c0294dd20893bf5b1ec6edd24fc6",
            "0x29ddb589b1fb5fc7cf394961c1adf5f8c6454761adf795e67fe149f658abe895",
            "0x00000000000000000000000044eb1823e6dd567a4ab3c5ac0819b280bb3ee359"
          ],
          "data": "0x",
          "blockHash": "0x1cb09fda68d9940766c73fd0e15f95ce57306cd20497cf92c938d6511fd19149",
          "blockNumber": "0x2d5240",
          "blockTimestamp": "0x676479c0",
          "transactionHash": "0x8c618f43d590ec8569759a8df81529dd7dc4ae69450e34916ad4487c784e7182",
          "transactionIndex": "0xb",
          "logIndex": "0x22",
          "removed": false
        }
      ],
      "logsBloom": "0x00000000020000000000000000000000000000000000000000000000000000001000000000000000000000000000000000000000000000000002000000000000000000000000000000000000000000000000000000000000000000000000000000000000000000000000000000000000002010000020000000000000000000000000000000000000000000000000001000000002000000000000000000000000000000000000000000000000000000100000000000040000200810000000000000000000000000000000000000000000000000000000000000000000000000000000040004000000000000000000000000000000000000000000000000000000",
      "type": "0x2",
      "transactionHash": "0x8c618f43d590ec8569759a8df81529dd7dc4ae69450e34916ad4487c784e7182",
      "transactionIndex": "0xb",
      "blockHash": "0x1cb09fda68d9940766c73fd0e15f95ce57306cd20497cf92c938d6511fd19149",
      "blockNumber": "0x2d5240",
      "gasUsed": "0x968d",
      "effectiveGasPrice": "0xe4e1ca",
      "from": "0xe88150c42cc6c0294dd20893bf5b1ec6edd24fc6",
      "to": "0x1820a4b7618bde71dce8cdc73aab6c95905fad24",
      "contractAddress": null
    },
    {
      "status": "0x1",
      "cumulativeGasUsed": "0x5f0441",
      "logs": [],
      "logsBloom": "0x00000000000000000000000000000000000000000000000000000000000000000000000000000000000000000000000000000000000000000000000000000000000000000000000000000000000000000000000000000000000000000000000000000000000000000000000000000000000000000000000000000000000000000000000000000000000000000000000000000000000000000000000000000000000000000000000000000000000000000000000000000000000000000000000000000000000000000000000000000000000000000000000000000000000000000000000000000000000000000000000000000000000000000000000000000000",
      "type": "0x2",
      "transactionHash": "0x5e462f77d8f8042e47c7648fb3f9f13bb92cb2c80207518f093eacb3b59bfed3",
      "transactionIndex": "0xc",
      "blockHash": "0x1cb09fda68d9940766c73fd0e15f95ce57306cd20497cf92c938d6511fd19149",
      "blockNumber": "0x2d5240",
      "gasUsed": "0x7274",
      "effectiveGasPrice": "0xe4e1ca",
      "from": "0xe88150c42cc6c0294dd20893bf5b1ec6edd24fc6",
      "to": "0x44eb1823e6dd567a4ab3c5ac0819b280bb3ee359",
      "contractAddress": null
    },
    {
      "status": "0x1",
      "cumulativeGasUsed": "0x5f6c88",
      "logs": [
        {
          "address": "0x56dd51c27325f54b7d3d4c468a16560981380a43",
          "topics": [
            "0x8c5be1e5ebec7d5bd14f71427d1e84f3dd0314c0f7b2291e5b200ac8c7c3b925",
            "0x000000000000000000000000e88150c42cc6c0294dd20893bf5b1ec6edd24fc6",
            "0x000000000000000000000000f7336fd84911203f1f01ab6803eccc984700f591"
          ],
          "data": "0xffffffffffffffffffffffffffffffffffffffffffffffffffffffffffffffff",
          "blockHash": "0x1cb09fda68d9940766c73fd0e15f95ce57306cd20497cf92c938d6511fd19149",
          "blockNumber": "0x2d5240",
          "blockTimestamp": "0x676479c0",
          "transactionHash": "0x3de8fd5266fa4b8a2870e2df1e190940da62d9fe25f89eaaded8dbabcfe62e71",
          "transactionIndex": "0xd",
          "logIndex": "0x23",
          "removed": false
        }
      ],
      "logsBloom": "0x00000000000000000000000000000000000000000000000000000000000000000000000000000000000000000000000000000000000000000000000000200000000000000000000000000000000000000000000000000000000000000000000000000000000000001000000080000000000000000000000000008000000000000000000000000000000000000000000000000002000000000000000080000000020000000000000000000000000000000000000000000000000010000000000000001000000000000000000000000000000000000000000000000000000000000010000004000000000000000000000000000000000000020000000000000000",
      "type": "0x2",
      "transactionHash": "0x3de8fd5266fa4b8a2870e2df1e190940da62d9fe25f89eaaded8dbabcfe62e71",
      "transactionIndex": "0xd",
      "blockHash": "0x1cb09fda68d9940766c73fd0e15f95ce57306cd20497cf92c938d6511fd19149",
      "blockNumber": "0x2d5240",
      "gasUsed": "0x6847",
      "effectiveGasPrice": "0xe4e1ca",
      "from": "0xe88150c42cc6c0294dd20893bf5b1ec6edd24fc6",
      "to": "0x56dd51c27325f54b7d3d4c468a16560981380a43",
      "contractAddress": null
    },
    {
      "status": "0x1",
      "cumulativeGasUsed": "0x6083da",
      "logs": [
        {
          "address": "0x56dd51c27325f54b7d3d4c468a16560981380a43",
          "topics": [
            "0x06b541ddaa720db2b10a4d0cdac39b8d360425fc073085fac19bc82614677987",
            "0x000000000000000000000000e88150c42cc6c0294dd20893bf5b1ec6edd24fc6",
            "0x000000000000000000000000e88150c42cc6c0294dd20893bf5b1ec6edd24fc6",
            "0x00000000000000000000000044eb1823e6dd567a4ab3c5ac0819b280bb3ee359"
          ],
          "data": "0x0000000000000000000000000000000000000000000000000f9ccd8a1c5080700000000000000000000000000000000000000000000000000000000000000060000000000000000000000000000000000000000000000000000000000000008000000000000000000000000000000000000000000000000000000000000000000000000000000000000000000000000000000000000000000000000000000000",
          "blockHash": "0x1cb09fda68d9940766c73fd0e15f95ce57306cd20497cf92c938d6511fd19149",
          "blockNumber": "0x2d5240",
          "blockTimestamp": "0x676479c0",
          "transactionHash": "0x7901b29037a947bf52449227b14b141a73ef307ebe153700d0ad1abe481320b5",
          "transactionIndex": "0xe",
          "logIndex": "0x24",
          "removed": false
        },
        {
          "address": "0x56dd51c27325f54b7d3d4c468a16560981380a43",
          "topics": [
            "0xddf252ad1be2c89b69c2b068fc378daa952ba7f163c4a11628f55a4df523b3ef",
            "0x000000000000000000000000e88150c42cc6c0294dd20893bf5b1ec6edd24fc6",
            "0x00000000000000000000000044eb1823e6dd567a4ab3c5ac0819b280bb3ee359"
          ],
          "data": "0x0000000000000000000000000000000000000000000000000f9ccd8a1c508070",
          "blockHash": "0x1cb09fda68d9940766c73fd0e15f95ce57306cd20497cf92c938d6511fd19149",
          "blockNumber": "0x2d5240",
          "blockTimestamp": "0x676479c0",
          "transactionHash": "0x7901b29037a947bf52449227b14b141a73ef307ebe153700d0ad1abe481320b5",
          "transactionIndex": "0xe",
          "logIndex": "0x25",
          "removed": false
        }
      ],
      "logsBloom": "0x00000000000000000000000000000000000000000000000000000000000000000000000000000000000000000000000000000000000000000002000000000000000000000000000000000008000000000000000000000000000000000000000000000000000000000000000000000000000000400000000000000010000000000000000000000000000000000000000000000002000000000000000080000000000000000100000000000000000000100000000000040000000010000000000000001002000000000000000000000000000000000000000000002000000000000000000004000000000000000000000000000000000000020000000000000000",
      "type": "0x2",
      "transactionHash": "0x7901b29037a947bf52449227b14b141a73ef307ebe153700d0ad1abe481320b5",
      "transactionIndex": "0xe",
      "blockHash": "0x1cb09fda68d9940766c73fd0e15f95ce57306cd20497cf92c938d6511fd19149",
      "blockNumber": "0x2d5240",
      "gasUsed": "0x11752",
      "effectiveGasPrice": "0xe4e1ca",
      "from": "0xe88150c42cc6c0294dd20893bf5b1ec6edd24fc6",
      "to": "0x56dd51c27325f54b7d3d4c468a16560981380a43",
      "contractAddress": null
    },
    {
      "status": "0x1",
      "cumulativeGasUsed": "0x843c5",
      "logs": [
        {
          "address": "0xf7336fd84911203f1f01ab6803eccc984700f591",
          "topics": [
            "0x44b4f910eed5395f84d00285781e37020302f8ae9b632209b4c3eafe05bd2e87",
            "0x00000000000000000000000056dd51c27325f54b7d3d4c468a16560981380a43",
            "0x000000000000000000000000e88150c42cc6c0294dd20893bf5b1ec6edd24fc6"
          ],
          "data": "0x0000000000000000000000000000000000000000000000000f9ccd8a1c508070",
          "blockHash": "0x32ff8aeac71420f9a27ca264be8731a5635cd71316e588dbc5356b13dac50eac",
          "blockNumber": "0x2d5241",
          "blockTimestamp": "0x676479cc",
          "transactionHash": "0x961511f99f98500be40d8d047fec318900c20da76b1e14ebd845cfdeed577c90",
          "transactionIndex": "0x4",
          "logIndex": "0x3",
          "removed": false
        },
        {
          "address": "0xf7336fd84911203f1f01ab6803eccc984700f591",
          "topics": [
            "0x44b4f910eed5395f84d00285781e37020302f8ae9b632209b4c3eafe05bd2e87",
            "0x00000000000000000000000056dd51c27325f54b7d3d4c468a16560981380a43",
            "0x000000000000000000000000e88150c42cc6c0294dd20893bf5b1ec6edd24fc6"
          ],
          "data": "0x0000000000000000000000000000000000000000000000000f9ccd8a1c508070",
          "blockHash": "0x32ff8aeac71420f9a27ca264be8731a5635cd71316e588dbc5356b13dac50eac",
          "blockNumber": "0x2d5241",
          "blockTimestamp": "0x676479cc",
          "transactionHash": "0x961511f99f98500be40d8d047fec318900c20da76b1e14ebd845cfdeed577c90",
          "transactionIndex": "0x4",
          "logIndex": "0x4",
          "removed": false
        },
        {
          "address": "0x56dd51c27325f54b7d3d4c468a16560981380a43",
          "topics": [
            "0x06b541ddaa720db2b10a4d0cdac39b8d360425fc073085fac19bc82614677987",
            "0x000000000000000000000000f7336fd84911203f1f01ab6803eccc984700f591",
            "0x00000000000000000000000044eb1823e6dd567a4ab3c5ac0819b280bb3ee359",
            "0x000000000000000000000000f7336fd84911203f1f01ab6803eccc984700f591"
          ],
          "data": "0x0000000000000000000000000000000000000000000000000f9ccd8a1c5080700000000000000000000000000000000000000000000000000000000000000060000000000000000000000000000000000000000000000000000000000000008000000000000000000000000000000000000000000000000000000000000000000000000000000000000000000000000000000000000000000000000000000000",
          "blockHash": "0x32ff8aeac71420f9a27ca264be8731a5635cd71316e588dbc5356b13dac50eac",
          "blockNumber": "0x2d5241",
          "blockTimestamp": "0x676479cc",
          "transactionHash": "0x961511f99f98500be40d8d047fec318900c20da76b1e14ebd845cfdeed577c90",
          "transactionIndex": "0x4",
          "logIndex": "0x5",
          "removed": false
        },
        {
          "address": "0x56dd51c27325f54b7d3d4c468a16560981380a43",
          "topics": [
            "0xddf252ad1be2c89b69c2b068fc378daa952ba7f163c4a11628f55a4df523b3ef",
            "0x00000000000000000000000044eb1823e6dd567a4ab3c5ac0819b280bb3ee359",
            "0x000000000000000000000000f7336fd84911203f1f01ab6803eccc984700f591"
          ],
          "data": "0x0000000000000000000000000000000000000000000000000f9ccd8a1c508070",
          "blockHash": "0x32ff8aeac71420f9a27ca264be8731a5635cd71316e588dbc5356b13dac50eac",
          "blockNumber": "0x2d5241",
          "blockTimestamp": "0x676479cc",
          "transactionHash": "0x961511f99f98500be40d8d047fec318900c20da76b1e14ebd845cfdeed577c90",
          "transactionIndex": "0x4",
          "logIndex": "0x6",
          "removed": false
        },
        {
          "address": "0xf7336fd84911203f1f01ab6803eccc984700f591",
          "topics": [
            "0xbe89fbc5edbebf243cf8cf7946ce755357087079003d51a4eb7c69e987bf0801",
            "0x0000000000000000000000000000000000000000000000000000000000000002",
            "0x000000000000000000000000e79206ea5f8ed1a5281a812d8864f5b3207c9441",
            "0x000000000000000000000000f7336fd84911203f1f01ab6803eccc984700f591"
          ],
          "data": "0x0000000000000000000000000000000000000000000000000000000000000000000000000000000000000000000000000000000000000000000000000000000d000000000000000000000000000000000000000000000000000000000000006000000000000000000000000000000000000000000000000000000000000000648a9d3fcf00000000000000000000000056dd51c27325f54b7d3d4c468a16560981380a43000000000000000000000000e88150c42cc6c0294dd20893bf5b1ec6edd24fc60000000000000000000000000000000000000000000000000f9ccd8a1c50807000000000000000000000000000000000000000000000000000000000",
          "blockHash": "0x32ff8aeac71420f9a27ca264be8731a5635cd71316e588dbc5356b13dac50eac",
          "blockNumber": "0x2d5241",
          "blockTimestamp": "0x676479cc",
          "transactionHash": "0x961511f99f98500be40d8d047fec318900c20da76b1e14ebd845cfdeed577c90",
          "transactionIndex": "0x4",
          "logIndex": "0x7",
          "removed": false
        },
        {
          "address": "0xf7336fd84911203f1f01ab6803eccc984700f591",
          "topics": [
            "0x4641df4a962071e12719d8c8c8e5ac7fc4d97b927346a3d7a335b1f7517e133c",
            "0xf5c2c0e5c339b9511a0763e2a0fb41250b55fd73dffb89ee678cd95badd468c0"
          ],
          "data": "0x",
          "blockHash": "0x32ff8aeac71420f9a27ca264be8731a5635cd71316e588dbc5356b13dac50eac",
          "blockNumber": "0x2d5241",
          "blockTimestamp": "0x676479cc",
          "transactionHash": "0x961511f99f98500be40d8d047fec318900c20da76b1e14ebd845cfdeed577c90",
          "transactionIndex": "0x4",
          "logIndex": "0x8",
          "removed": false
        },
        {
          "address": "0xe79206ea5f8ed1a5281a812d8864f5b3207c9441",
          "topics": [
            "0x44b4f910eed5395f84d00285781e37020302f8ae9b632209b4c3eafe05bd2e87",
            "0x00000000000000000000000056dd51c27325f54b7d3d4c468a16560981380a43",
            "0x000000000000000000000000e88150c42cc6c0294dd20893bf5b1ec6edd24fc6"
          ],
          "data": "0x0000000000000000000000000000000000000000000000000f9ccd8a1c508070",
          "blockHash": "0x32ff8aeac71420f9a27ca264be8731a5635cd71316e588dbc5356b13dac50eac",
          "blockNumber": "0x2d5241",
          "blockTimestamp": "0x676479cc",
          "transactionHash": "0x961511f99f98500be40d8d047fec318900c20da76b1e14ebd845cfdeed577c90",
          "transactionIndex": "0x4",
          "logIndex": "0x9",
          "removed": false
        },
        {
          "address": "0xf35110f68f441fd3bd7d354a2a5faa1d32b970a7",
          "topics": [
            "0xddf252ad1be2c89b69c2b068fc378daa952ba7f163c4a11628f55a4df523b3ef",
            "0x0000000000000000000000000000000000000000000000000000000000000000",
            "0x000000000000000000000000e88150c42cc6c0294dd20893bf5b1ec6edd24fc6"
          ],
          "data": "0x0000000000000000000000000000000000000000000000000f9ccd8a1c508070",
          "blockHash": "0x32ff8aeac71420f9a27ca264be8731a5635cd71316e588dbc5356b13dac50eac",
          "blockNumber": "0x2d5241",
          "blockTimestamp": "0x676479cc",
          "transactionHash": "0x961511f99f98500be40d8d047fec318900c20da76b1e14ebd845cfdeed577c90",
          "transactionIndex": "0x4",
          "logIndex": "0xa",
          "removed": false
        },
        {
          "address": "0x56dd51c27325f54b7d3d4c468a16560981380a43",
          "topics": [
            "0x06b541ddaa720db2b10a4d0cdac39b8d360425fc073085fac19bc82614677987",
            "0x000000000000000000000000f7336fd84911203f1f01ab6803eccc984700f591",
            "0x000000000000000000000000e88150c42cc6c0294dd20893bf5b1ec6edd24fc6",
            "0x000000000000000000000000f7336fd84911203f1f01ab6803eccc984700f591"
          ],
          "data": "0x0000000000000000000000000000000000000000000000000f9ccd8a1c5080700000000000000000000000000000000000000000000000000000000000000060000000000000000000000000000000000000000000000000000000000000008000000000000000000000000000000000000000000000000000000000000000000000000000000000000000000000000000000000000000000000000000000000",
          "blockHash": "0x32ff8aeac71420f9a27ca264be8731a5635cd71316e588dbc5356b13dac50eac",
          "blockNumber": "0x2d5241",
          "blockTimestamp": "0x676479cc",
          "transactionHash": "0x961511f99f98500be40d8d047fec318900c20da76b1e14ebd845cfdeed577c90",
          "transactionIndex": "0x4",
          "logIndex": "0xb",
          "removed": false
        },
        {
          "address": "0x56dd51c27325f54b7d3d4c468a16560981380a43",
          "topics": [
            "0xddf252ad1be2c89b69c2b068fc378daa952ba7f163c4a11628f55a4df523b3ef",
            "0x000000000000000000000000e88150c42cc6c0294dd20893bf5b1ec6edd24fc6",
            "0x000000000000000000000000f7336fd84911203f1f01ab6803eccc984700f591"
          ],
          "data": "0x0000000000000000000000000000000000000000000000000f9ccd8a1c508070",
          "blockHash": "0x32ff8aeac71420f9a27ca264be8731a5635cd71316e588dbc5356b13dac50eac",
          "blockNumber": "0x2d5241",
          "blockTimestamp": "0x676479cc",
          "transactionHash": "0x961511f99f98500be40d8d047fec318900c20da76b1e14ebd845cfdeed577c90",
          "transactionIndex": "0x4",
          "logIndex": "0xc",
          "removed": false
        },
        {
          "address": "0xf7336fd84911203f1f01ab6803eccc984700f591",
          "topics": [
            "0xbe89fbc5edbebf243cf8cf7946ce755357087079003d51a4eb7c69e987bf0801",
            "0x0000000000000000000000000000000000000000000000000000000000000002",
            "0x000000000000000000000000e79206ea5f8ed1a5281a812d8864f5b3207c9441",
            "0x000000000000000000000000f7336fd84911203f1f01ab6803eccc984700f591"
          ],
          "data": "0x0000000000000000000000000000000000000000000000000000000000000000000000000000000000000000000000000000000000000000000000000000000e000000000000000000000000000000000000000000000000000000000000006000000000000000000000000000000000000000000000000000000000000000648a9d3fcf00000000000000000000000056dd51c27325f54b7d3d4c468a16560981380a43000000000000000000000000e88150c42cc6c0294dd20893bf5b1ec6edd24fc60000000000000000000000000000000000000000000000001f399b1438a100e000000000000000000000000000000000000000000000000000000000",
          "blockHash": "0x32ff8aeac71420f9a27ca264be8731a5635cd71316e588dbc5356b13dac50eac",
          "blockNumber": "0x2d5241",
          "blockTimestamp": "0x676479cc",
          "transactionHash": "0x961511f99f98500be40d8d047fec318900c20da76b1e14ebd845cfdeed577c90",
          "transactionIndex": "0x4",
          "logIndex": "0xd",
          "removed": false
        },
        {
          "address": "0xf7336fd84911203f1f01ab6803eccc984700f591",
          "topics": [
            "0x4641df4a962071e12719d8c8c8e5ac7fc4d97b927346a3d7a335b1f7517e133c",
            "0xaa229523c019d15af51eb91d24bf9ccb3e11634c44e92ada162d365c74a343be"
          ],
          "data": "0x",
          "blockHash": "0x32ff8aeac71420f9a27ca264be8731a5635cd71316e588dbc5356b13dac50eac",
          "blockNumber": "0x2d5241",
          "blockTimestamp": "0x676479cc",
          "transactionHash": "0x961511f99f98500be40d8d047fec318900c20da76b1e14ebd845cfdeed577c90",
          "transactionIndex": "0x4",
          "logIndex": "0xe",
          "removed": false
        },
        {
          "address": "0xe79206ea5f8ed1a5281a812d8864f5b3207c9441",
          "topics": [
            "0x44b4f910eed5395f84d00285781e37020302f8ae9b632209b4c3eafe05bd2e87",
            "0x00000000000000000000000056dd51c27325f54b7d3d4c468a16560981380a43",
            "0x000000000000000000000000e88150c42cc6c0294dd20893bf5b1ec6edd24fc6"
          ],
          "data": "0x0000000000000000000000000000000000000000000000001f399b1438a100e0",
          "blockHash": "0x32ff8aeac71420f9a27ca264be8731a5635cd71316e588dbc5356b13dac50eac",
          "blockNumber": "0x2d5241",
          "blockTimestamp": "0x676479cc",
          "transactionHash": "0x961511f99f98500be40d8d047fec318900c20da76b1e14ebd845cfdeed577c90",
          "transactionIndex": "0x4",
          "logIndex": "0xf",
          "removed": false
        },
        {
          "address": "0xf35110f68f441fd3bd7d354a2a5faa1d32b970a7",
          "topics": [
            "0xddf252ad1be2c89b69c2b068fc378daa952ba7f163c4a11628f55a4df523b3ef",
            "0x0000000000000000000000000000000000000000000000000000000000000000",
            "0x000000000000000000000000e88150c42cc6c0294dd20893bf5b1ec6edd24fc6"
          ],
          "data": "0x0000000000000000000000000000000000000000000000001f399b1438a100e0",
          "blockHash": "0x32ff8aeac71420f9a27ca264be8731a5635cd71316e588dbc5356b13dac50eac",
          "blockNumber": "0x2d5241",
          "blockTimestamp": "0x676479cc",
          "transactionHash": "0x961511f99f98500be40d8d047fec318900c20da76b1e14ebd845cfdeed577c90",
          "transactionIndex": "0x4",
          "logIndex": "0x10",
          "removed": false
        }
      ],
      "logsBloom": "0x04000000000010000000000000000000000000000000000000000000000000000000000000100000000000000000000000000000000000000012000000800000140000000000000010008008000000000000000000000000000000100000000000020000020000401000000080400801000000400000000000008018000000000000010000a0000000040000000000000000000200000000000000008000400000000100010000000000010000000010000000000004040000001000000000000000100200000040000000000000002000000000000000000000200000002000a800000004000000000000000000000000000000008000020000000008200008",
      "type": "0x2",
      "transactionHash": "0x961511f99f98500be40d8d047fec318900c20da76b1e14ebd845cfdeed577c90",
      "transactionIndex": "0x4",
      "blockHash": "0x32ff8aeac71420f9a27ca264be8731a5635cd71316e588dbc5356b13dac50eac",
      "blockNumber": "0x2d5241",
      "gasUsed": "0x3fff4",
      "effectiveGasPrice": "0xe4e1ca",
      "from": "0xe88150c42cc6c0294dd20893bf5b1ec6edd24fc6",
      "to": "0xf7336fd84911203f1f01ab6803eccc984700f591",
      "contractAddress": null
    },
    {
      "status": "0x1",
      "cumulativeGasUsed": "0x906cc",
      "logs": [
        {
          "address": "0x56dd51c27325f54b7d3d4c468a16560981380a43",
          "topics": [
            "0x06b541ddaa720db2b10a4d0cdac39b8d360425fc073085fac19bc82614677987",
            "0x00000000000000000000000044eb1823e6dd567a4ab3c5ac0819b280bb3ee359",
            "0x00000000000000000000000044eb1823e6dd567a4ab3c5ac0819b280bb3ee359",
            "0x000000000000000000000000e88150c42cc6c0294dd20893bf5b1ec6edd24fc6"
          ],
          "data": "0x00000000000000000000000000000000000000000000000000000000000000000000000000000000000000000000000000000000000000000000000000000060000000000000000000000000000000000000000000000000000000000000008000000000000000000000000000000000000000000000000000000000000000000000000000000000000000000000000000000000000000000000000000000000",
          "blockHash": "0x32ff8aeac71420f9a27ca264be8731a5635cd71316e588dbc5356b13dac50eac",
          "blockNumber": "0x2d5241",
          "blockTimestamp": "0x676479cc",
          "transactionHash": "0x15e87afac0b40d3b5bbf22c1cf4f6f0631ab9def3bf0dbaca248777bbe6045eb",
          "transactionIndex": "0x5",
          "logIndex": "0x11",
          "removed": false
        },
        {
          "address": "0x56dd51c27325f54b7d3d4c468a16560981380a43",
          "topics": [
            "0xddf252ad1be2c89b69c2b068fc378daa952ba7f163c4a11628f55a4df523b3ef",
            "0x00000000000000000000000044eb1823e6dd567a4ab3c5ac0819b280bb3ee359",
            "0x000000000000000000000000e88150c42cc6c0294dd20893bf5b1ec6edd24fc6"
          ],
          "data": "0x0000000000000000000000000000000000000000000000000000000000000000",
          "blockHash": "0x32ff8aeac71420f9a27ca264be8731a5635cd71316e588dbc5356b13dac50eac",
          "blockNumber": "0x2d5241",
          "blockTimestamp": "0x676479cc",
          "transactionHash": "0x15e87afac0b40d3b5bbf22c1cf4f6f0631ab9def3bf0dbaca248777bbe6045eb",
          "transactionIndex": "0x5",
          "logIndex": "0x12",
          "removed": false
        }
      ],
      "logsBloom": "0x00000000000000000000000000000000000000000000000000000000000000000000000000000000000000000000000000000000000000000002000000000000000000000000000000000008000000000000000000000000000000000000000000000000000000000000000000000000000000400000000000000010000000000000000000000000000000000000000000000002000000000000000080000000000000000100000000000000000000100000000000040000000010000000000000001002000000000000000000000000000000000000000000002000000000000000000004000000000000000000000000000000000000020000000000000000",
      "type": "0x2",
      "transactionHash": "0x15e87afac0b40d3b5bbf22c1cf4f6f0631ab9def3bf0dbaca248777bbe6045eb",
      "transactionIndex": "0x5",
      "blockHash": "0x32ff8aeac71420f9a27ca264be8731a5635cd71316e588dbc5356b13dac50eac",
      "blockNumber": "0x2d5241",
      "gasUsed": "0xc307",
      "effectiveGasPrice": "0xe4e1ca",
      "from": "0xe88150c42cc6c0294dd20893bf5b1ec6edd24fc6",
      "to": "0x44eb1823e6dd567a4ab3c5ac0819b280bb3ee359",
      "contractAddress": null
    },
    {
      "status": "0x1",
      "cumulativeGasUsed": "0xb0e40",
      "logs": [
        {
          "address": "0xe79206ea5f8ed1a5281a812d8864f5b3207c9441",
          "topics": [
            "0x44b4f910eed5395f84d00285781e37020302f8ae9b632209b4c3eafe05bd2e87",
            "0x000000000000000000000000f35110f68f441fd3bd7d354a2a5faa1d32b970a7",
            "0x000000000000000000000000e88150c42cc6c0294dd20893bf5b1ec6edd24fc6"
          ],
          "data": "0x0000000000000000000000000000000000000000000000002ed6689e54f18150",
          "blockHash": "0x32ff8aeac71420f9a27ca264be8731a5635cd71316e588dbc5356b13dac50eac",
          "blockNumber": "0x2d5241",
          "blockTimestamp": "0x676479cc",
          "transactionHash": "0x3b1a07c3c5d6a15a3b7077a23d49e8c46e45dd724474584db4f5896cf81c2ba2",
          "transactionIndex": "0x6",
          "logIndex": "0x13",
          "removed": false
        },
        {
          "address": "0xf35110f68f441fd3bd7d354a2a5faa1d32b970a7",
          "topics": [
            "0xddf252ad1be2c89b69c2b068fc378daa952ba7f163c4a11628f55a4df523b3ef",
            "0x000000000000000000000000e88150c42cc6c0294dd20893bf5b1ec6edd24fc6",
            "0x0000000000000000000000000000000000000000000000000000000000000000"
          ],
          "data": "0x0000000000000000000000000000000000000000000000002ed6689e54f18150",
          "blockHash": "0x32ff8aeac71420f9a27ca264be8731a5635cd71316e588dbc5356b13dac50eac",
          "blockNumber": "0x2d5241",
          "blockTimestamp": "0x676479cc",
          "transactionHash": "0x3b1a07c3c5d6a15a3b7077a23d49e8c46e45dd724474584db4f5896cf81c2ba2",
          "transactionIndex": "0x6",
          "logIndex": "0x14",
          "removed": false
        },
        {
          "address": "0xe79206ea5f8ed1a5281a812d8864f5b3207c9441",
          "topics": [
            "0xbe89fbc5edbebf243cf8cf7946ce755357087079003d51a4eb7c69e987bf0801",
            "0x0000000000000000000000000000000000000000000000000000000000000001",
            "0x000000000000000000000000f7336fd84911203f1f01ab6803eccc984700f591",
            "0x000000000000000000000000e79206ea5f8ed1a5281a812d8864f5b3207c9441"
          ],
          "data": "0x00000000000000000000000000000000000000000000000000000000000000000000000000000000000000000000000000000000000000000000000000000006000000000000000000000000000000000000000000000000000000000000006000000000000000000000000000000000000000000000000000000000000000648a9d3fcf00000000000000000000000056dd51c27325f54b7d3d4c468a16560981380a43000000000000000000000000e88150c42cc6c0294dd20893bf5b1ec6edd24fc60000000000000000000000000000000000000000000000002ed6689e54f1815000000000000000000000000000000000000000000000000000000000",
          "blockHash": "0x32ff8aeac71420f9a27ca264be8731a5635cd71316e588dbc5356b13dac50eac",
          "blockNumber": "0x2d5241",
          "blockTimestamp": "0x676479cc",
          "transactionHash": "0x3b1a07c3c5d6a15a3b7077a23d49e8c46e45dd724474584db4f5896cf81c2ba2",
          "transactionIndex": "0x6",
          "logIndex": "0x15",
          "removed": false
        },
        {
          "address": "0xe79206ea5f8ed1a5281a812d8864f5b3207c9441",
          "topics": [
            "0x4641df4a962071e12719d8c8c8e5ac7fc4d97b927346a3d7a335b1f7517e133c",
            "0xc89a1494e9f9cb48e5930b5c82e511a20c42d2830aa6267e7483573df65671a2"
          ],
          "data": "0x",
          "blockHash": "0x32ff8aeac71420f9a27ca264be8731a5635cd71316e588dbc5356b13dac50eac",
          "blockNumber": "0x2d5241",
          "blockTimestamp": "0x676479cc",
          "transactionHash": "0x3b1a07c3c5d6a15a3b7077a23d49e8c46e45dd724474584db4f5896cf81c2ba2",
          "transactionIndex": "0x6",
          "logIndex": "0x16",
          "removed": false
        },
        {
          "address": "0xf7336fd84911203f1f01ab6803eccc984700f591",
          "topics": [
            "0x44b4f910eed5395f84d00285781e37020302f8ae9b632209b4c3eafe05bd2e87",
            "0x00000000000000000000000056dd51c27325f54b7d3d4c468a16560981380a43",
            "0x000000000000000000000000e88150c42cc6c0294dd20893bf5b1ec6edd24fc6"
          ],
          "data": "0x0000000000000000000000000000000000000000000000002ed6689e54f18150",
          "blockHash": "0x32ff8aeac71420f9a27ca264be8731a5635cd71316e588dbc5356b13dac50eac",
          "blockNumber": "0x2d5241",
          "blockTimestamp": "0x676479cc",
          "transactionHash": "0x3b1a07c3c5d6a15a3b7077a23d49e8c46e45dd724474584db4f5896cf81c2ba2",
          "transactionIndex": "0x6",
          "logIndex": "0x17",
          "removed": false
        },
        {
          "address": "0x56dd51c27325f54b7d3d4c468a16560981380a43",
          "topics": [
            "0x06b541ddaa720db2b10a4d0cdac39b8d360425fc073085fac19bc82614677987",
            "0x000000000000000000000000f7336fd84911203f1f01ab6803eccc984700f591",
            "0x000000000000000000000000f7336fd84911203f1f01ab6803eccc984700f591",
            "0x000000000000000000000000e88150c42cc6c0294dd20893bf5b1ec6edd24fc6"
          ],
          "data": "0x0000000000000000000000000000000000000000000000002ed6689e54f181500000000000000000000000000000000000000000000000000000000000000060000000000000000000000000000000000000000000000000000000000000008000000000000000000000000000000000000000000000000000000000000000000000000000000000000000000000000000000000000000000000000000000000",
          "blockHash": "0x32ff8aeac71420f9a27ca264be8731a5635cd71316e588dbc5356b13dac50eac",
          "blockNumber": "0x2d5241",
          "blockTimestamp": "0x676479cc",
          "transactionHash": "0x3b1a07c3c5d6a15a3b7077a23d49e8c46e45dd724474584db4f5896cf81c2ba2",
          "transactionIndex": "0x6",
          "logIndex": "0x18",
          "removed": false
        },
        {
          "address": "0x56dd51c27325f54b7d3d4c468a16560981380a43",
          "topics": [
            "0xddf252ad1be2c89b69c2b068fc378daa952ba7f163c4a11628f55a4df523b3ef",
            "0x000000000000000000000000f7336fd84911203f1f01ab6803eccc984700f591",
            "0x000000000000000000000000e88150c42cc6c0294dd20893bf5b1ec6edd24fc6"
          ],
          "data": "0x0000000000000000000000000000000000000000000000002ed6689e54f18150",
          "blockHash": "0x32ff8aeac71420f9a27ca264be8731a5635cd71316e588dbc5356b13dac50eac",
          "blockNumber": "0x2d5241",
          "blockTimestamp": "0x676479cc",
          "transactionHash": "0x3b1a07c3c5d6a15a3b7077a23d49e8c46e45dd724474584db4f5896cf81c2ba2",
          "transactionIndex": "0x6",
          "logIndex": "0x19",
          "removed": false
        }
      ],
      "logsBloom": "0x00000000000010000000000000000000000000000000000000000000000000000000000000000000000000000000000000000000000000000010000000840000140000000000000010008008000000000000002000040000000000100000000000020000020000401000000080400821000000400000000000008018000000000000000000200000000400000000000000000002000000000000000080004000000000000100000000008000000000000000000000000000000010000000000000001102000000400000000000000020000000000000001000002000000060002800000004000000800000000000000000000000000000020000000008200008",
      "type": "0x2",
      "transactionHash": "0x3b1a07c3c5d6a15a3b7077a23d49e8c46e45dd724474584db4f5896cf81c2ba2",
      "transactionIndex": "0x6",
      "blockHash": "0x32ff8aeac71420f9a27ca264be8731a5635cd71316e588dbc5356b13dac50eac",
      "blockNumber": "0x2d5241",
      "gasUsed": "0x20774",
      "effectiveGasPrice": "0xe4e1ca",
      "from": "0xe88150c42cc6c0294dd20893bf5b1ec6edd24fc6",
      "to": "0xe79206ea5f8ed1a5281a812d8864f5b3207c9441",
      "contractAddress": null
    },
    {
      "status": "0x1",
      "cumulativeGasUsed": "0xc2592",
      "logs": [
        {
          "address": "0x56dd51c27325f54b7d3d4c468a16560981380a43",
          "topics": [
            "0x06b541ddaa720db2b10a4d0cdac39b8d360425fc073085fac19bc82614677987",
            "0x000000000000000000000000e88150c42cc6c0294dd20893bf5b1ec6edd24fc6",
            "0x000000000000000000000000e88150c42cc6c0294dd20893bf5b1ec6edd24fc6",
            "0x00000000000000000000000044eb1823e6dd567a4ab3c5ac0819b280bb3ee359"
          ],
          "data": "0x000000000000000000000000000000000000000000000000176b344f2a78c0a80000000000000000000000000000000000000000000000000000000000000060000000000000000000000000000000000000000000000000000000000000008000000000000000000000000000000000000000000000000000000000000000000000000000000000000000000000000000000000000000000000000000000000",
          "blockHash": "0x32ff8aeac71420f9a27ca264be8731a5635cd71316e588dbc5356b13dac50eac",
          "blockNumber": "0x2d5241",
          "blockTimestamp": "0x676479cc",
          "transactionHash": "0x1c78c2d9dade82fbfb916fcee368613080ca89bffd948ca1d7874f41bb215fed",
          "transactionIndex": "0x7",
          "logIndex": "0x1a",
          "removed": false
        },
        {
          "address": "0x56dd51c27325f54b7d3d4c468a16560981380a43",
          "topics": [
            "0xddf252ad1be2c89b69c2b068fc378daa952ba7f163c4a11628f55a4df523b3ef",
            "0x000000000000000000000000e88150c42cc6c0294dd20893bf5b1ec6edd24fc6",
            "0x00000000000000000000000044eb1823e6dd567a4ab3c5ac0819b280bb3ee359"
          ],
          "data": "0x000000000000000000000000000000000000000000000000176b344f2a78c0a8",
          "blockHash": "0x32ff8aeac71420f9a27ca264be8731a5635cd71316e588dbc5356b13dac50eac",
          "blockNumber": "0x2d5241",
          "blockTimestamp": "0x676479cc",
          "transactionHash": "0x1c78c2d9dade82fbfb916fcee368613080ca89bffd948ca1d7874f41bb215fed",
          "transactionIndex": "0x7",
          "logIndex": "0x1b",
          "removed": false
        }
      ],
      "logsBloom": "0x00000000000000000000000000000000000000000000000000000000000000000000000000000000000000000000000000000000000000000002000000000000000000000000000000000008000000000000000000000000000000000000000000000000000000000000000000000000000000400000000000000010000000000000000000000000000000000000000000000002000000000000000080000000000000000100000000000000000000100000000000040000000010000000000000001002000000000000000000000000000000000000000000002000000000000000000004000000000000000000000000000000000000020000000000000000",
      "type": "0x2",
      "transactionHash": "0x1c78c2d9dade82fbfb916fcee368613080ca89bffd948ca1d7874f41bb215fed",
      "transactionIndex": "0x7",
      "blockHash": "0x32ff8aeac71420f9a27ca264be8731a5635cd71316e588dbc5356b13dac50eac",
      "blockNumber": "0x2d5241",
      "gasUsed": "0x11752",
      "effectiveGasPrice": "0xe4e1ca",
      "from": "0xe88150c42cc6c0294dd20893bf5b1ec6edd24fc6",
      "to": "0x56dd51c27325f54b7d3d4c468a16560981380a43",
      "contractAddress": null
    },
    {
      "status": "0x1",
      "cumulativeGasUsed": "0x102586",
      "logs": [
        {
          "address": "0xf7336fd84911203f1f01ab6803eccc984700f591",
          "topics": [
            "0x44b4f910eed5395f84d00285781e37020302f8ae9b632209b4c3eafe05bd2e87",
            "0x00000000000000000000000056dd51c27325f54b7d3d4c468a16560981380a43",
            "0x000000000000000000000000e88150c42cc6c0294dd20893bf5b1ec6edd24fc6"
          ],
          "data": "0x000000000000000000000000000000000000000000000000176b344f2a78c0a8",
          "blockHash": "0x32ff8aeac71420f9a27ca264be8731a5635cd71316e588dbc5356b13dac50eac",
          "blockNumber": "0x2d5241",
          "blockTimestamp": "0x676479cc",
          "transactionHash": "0x16344d0c6e30493f935086d9f3be44d6a2415b6f4e1c89ce2346091fb5688e58",
          "transactionIndex": "0x8",
          "logIndex": "0x1c",
          "removed": false
        },
        {
          "address": "0xf7336fd84911203f1f01ab6803eccc984700f591",
          "topics": [
            "0x44b4f910eed5395f84d00285781e37020302f8ae9b632209b4c3eafe05bd2e87",
            "0x00000000000000000000000056dd51c27325f54b7d3d4c468a16560981380a43",
            "0x000000000000000000000000e88150c42cc6c0294dd20893bf5b1ec6edd24fc6"
          ],
          "data": "0x000000000000000000000000000000000000000000000000176b344f2a78c0a8",
          "blockHash": "0x32ff8aeac71420f9a27ca264be8731a5635cd71316e588dbc5356b13dac50eac",
          "blockNumber": "0x2d5241",
          "blockTimestamp": "0x676479cc",
          "transactionHash": "0x16344d0c6e30493f935086d9f3be44d6a2415b6f4e1c89ce2346091fb5688e58",
          "transactionIndex": "0x8",
          "logIndex": "0x1d",
          "removed": false
        },
        {
          "address": "0x56dd51c27325f54b7d3d4c468a16560981380a43",
          "topics": [
            "0x06b541ddaa720db2b10a4d0cdac39b8d360425fc073085fac19bc82614677987",
            "0x000000000000000000000000f7336fd84911203f1f01ab6803eccc984700f591",
            "0x00000000000000000000000044eb1823e6dd567a4ab3c5ac0819b280bb3ee359",
            "0x000000000000000000000000f7336fd84911203f1f01ab6803eccc984700f591"
          ],
          "data": "0x000000000000000000000000000000000000000000000000176b344f2a78c0a80000000000000000000000000000000000000000000000000000000000000060000000000000000000000000000000000000000000000000000000000000008000000000000000000000000000000000000000000000000000000000000000000000000000000000000000000000000000000000000000000000000000000000",
          "blockHash": "0x32ff8aeac71420f9a27ca264be8731a5635cd71316e588dbc5356b13dac50eac",
          "blockNumber": "0x2d5241",
          "blockTimestamp": "0x676479cc",
          "transactionHash": "0x16344d0c6e30493f935086d9f3be44d6a2415b6f4e1c89ce2346091fb5688e58",
          "transactionIndex": "0x8",
          "logIndex": "0x1e",
          "removed": false
        },
        {
          "address": "0x56dd51c27325f54b7d3d4c468a16560981380a43",
          "topics": [
            "0xddf252ad1be2c89b69c2b068fc378daa952ba7f163c4a11628f55a4df523b3ef",
            "0x00000000000000000000000044eb1823e6dd567a4ab3c5ac0819b280bb3ee359",
            "0x000000000000000000000000f7336fd84911203f1f01ab6803eccc984700f591"
          ],
          "data": "0x000000000000000000000000000000000000000000000000176b344f2a78c0a8",
          "blockHash": "0x32ff8aeac71420f9a27ca264be8731a5635cd71316e588dbc5356b13dac50eac",
          "blockNumber": "0x2d5241",
          "blockTimestamp": "0x676479cc",
          "transactionHash": "0x16344d0c6e30493f935086d9f3be44d6a2415b6f4e1c89ce2346091fb5688e58",
          "transactionIndex": "0x8",
          "logIndex": "0x1f",
          "removed": false
        },
        {
          "address": "0xf7336fd84911203f1f01ab6803eccc984700f591",
          "topics": [
            "0xbe89fbc5edbebf243cf8cf7946ce755357087079003d51a4eb7c69e987bf0801",
            "0x0000000000000000000000000000000000000000000000000000000000000002",
            "0x000000000000000000000000e79206ea5f8ed1a5281a812d8864f5b3207c9441",
            "0x000000000000000000000000f7336fd84911203f1f01ab6803eccc984700f591"
          ],
          "data": "0x0000000000000000000000000000000000000000000000000000000000000000000000000000000000000000000000000000000000000000000000000000000f000000000000000000000000000000000000000000000000000000000000006000000000000000000000000000000000000000000000000000000000000000648a9d3fcf00000000000000000000000056dd51c27325f54b7d3d4c468a16560981380a43000000000000000000000000e88150c42cc6c0294dd20893bf5b1ec6edd24fc6000000000000000000000000000000000000000000000000176b344f2a78c0a800000000000000000000000000000000000000000000000000000000",
          "blockHash": "0x32ff8aeac71420f9a27ca264be8731a5635cd71316e588dbc5356b13dac50eac",
          "blockNumber": "0x2d5241",
          "blockTimestamp": "0x676479cc",
          "transactionHash": "0x16344d0c6e30493f935086d9f3be44d6a2415b6f4e1c89ce2346091fb5688e58",
          "transactionIndex": "0x8",
          "logIndex": "0x20",
          "removed": false
        },
        {
          "address": "0xf7336fd84911203f1f01ab6803eccc984700f591",
          "topics": [
            "0x4641df4a962071e12719d8c8c8e5ac7fc4d97b927346a3d7a335b1f7517e133c",
            "0xf2febcbfb38abdcb3f4b8f94955778e9cc7d1af990bda4c70c998a7ca6152659"
          ],
          "data": "0x",
          "blockHash": "0x32ff8aeac71420f9a27ca264be8731a5635cd71316e588dbc5356b13dac50eac",
          "blockNumber": "0x2d5241",
          "blockTimestamp": "0x676479cc",
          "transactionHash": "0x16344d0c6e30493f935086d9f3be44d6a2415b6f4e1c89ce2346091fb5688e58",
          "transactionIndex": "0x8",
          "logIndex": "0x21",
          "removed": false
        },
        {
          "address": "0xe79206ea5f8ed1a5281a812d8864f5b3207c9441",
          "topics": [
            "0x44b4f910eed5395f84d00285781e37020302f8ae9b632209b4c3eafe05bd2e87",
            "0x00000000000000000000000056dd51c27325f54b7d3d4c468a16560981380a43",
            "0x000000000000000000000000e88150c42cc6c0294dd20893bf5b1ec6edd24fc6"
          ],
          "data": "0x000000000000000000000000000000000000000000000000176b344f2a78c0a8",
          "blockHash": "0x32ff8aeac71420f9a27ca264be8731a5635cd71316e588dbc5356b13dac50eac",
          "blockNumber": "0x2d5241",
          "blockTimestamp": "0x676479cc",
          "transactionHash": "0x16344d0c6e30493f935086d9f3be44d6a2415b6f4e1c89ce2346091fb5688e58",
          "transactionIndex": "0x8",
          "logIndex": "0x22",
          "removed": false
        },
        {
          "address": "0xf35110f68f441fd3bd7d354a2a5faa1d32b970a7",
          "topics": [
            "0xddf252ad1be2c89b69c2b068fc378daa952ba7f163c4a11628f55a4df523b3ef",
            "0x0000000000000000000000000000000000000000000000000000000000000000",
            "0x000000000000000000000000e88150c42cc6c0294dd20893bf5b1ec6edd24fc6"
          ],
          "data": "0x000000000000000000000000000000000000000000000000176b344f2a78c0a8",
          "blockHash": "0x32ff8aeac71420f9a27ca264be8731a5635cd71316e588dbc5356b13dac50eac",
          "blockNumber": "0x2d5241",
          "blockTimestamp": "0x676479cc",
          "transactionHash": "0x16344d0c6e30493f935086d9f3be44d6a2415b6f4e1c89ce2346091fb5688e58",
          "transactionIndex": "0x8",
          "logIndex": "0x23",
          "removed": false
        },
        {
          "address": "0x56dd51c27325f54b7d3d4c468a16560981380a43",
          "topics": [
            "0x06b541ddaa720db2b10a4d0cdac39b8d360425fc073085fac19bc82614677987",
            "0x000000000000000000000000f7336fd84911203f1f01ab6803eccc984700f591",
            "0x000000000000000000000000e88150c42cc6c0294dd20893bf5b1ec6edd24fc6",
            "0x000000000000000000000000f7336fd84911203f1f01ab6803eccc984700f591"
          ],
          "data": "0x000000000000000000000000000000000000000000000000176b344f2a78c0a80000000000000000000000000000000000000000000000000000000000000060000000000000000000000000000000000000000000000000000000000000008000000000000000000000000000000000000000000000000000000000000000000000000000000000000000000000000000000000000000000000000000000000",
          "blockHash": "0x32ff8aeac71420f9a27ca264be8731a5635cd71316e588dbc5356b13dac50eac",
          "blockNumber": "0x2d5241",
          "blockTimestamp": "0x676479cc",
          "transactionHash": "0x16344d0c6e30493f935086d9f3be44d6a2415b6f4e1c89ce2346091fb5688e58",
          "transactionIndex": "0x8",
          "logIndex": "0x24",
          "removed": false
        },
        {
          "address": "0x56dd51c27325f54b7d3d4c468a16560981380a43",
          "topics": [
            "0xddf252ad1be2c89b69c2b068fc378daa952ba7f163c4a11628f55a4df523b3ef",
            "0x000000000000000000000000e88150c42cc6c0294dd20893bf5b1ec6edd24fc6",
            "0x000000000000000000000000f7336fd84911203f1f01ab6803eccc984700f591"
          ],
          "data": "0x000000000000000000000000000000000000000000000000176b344f2a78c0a8",
          "blockHash": "0x32ff8aeac71420f9a27ca264be8731a5635cd71316e588dbc5356b13dac50eac",
          "blockNumber": "0x2d5241",
          "blockTimestamp": "0x676479cc",
          "transactionHash": "0x16344d0c6e30493f935086d9f3be44d6a2415b6f4e1c89ce2346091fb5688e58",
          "transactionIndex": "0x8",
          "logIndex": "0x25",
          "removed": false
        },
        {
          "address": "0xf7336fd84911203f1f01ab6803eccc984700f591",
          "topics": [
            "0xbe89fbc5edbebf243cf8cf7946ce755357087079003d51a4eb7c69e987bf0801",
            "0x0000000000000000000000000000000000000000000000000000000000000002",
            "0x000000000000000000000000e79206ea5f8ed1a5281a812d8864f5b3207c9441",
            "0x000000000000000000000000f7336fd84911203f1f01ab6803eccc984700f591"
          ],
          "data": "0x00000000000000000000000000000000000000000000000000000000000000000000000000000000000000000000000000000000000000000000000000000010000000000000000000000000000000000000000000000000000000000000006000000000000000000000000000000000000000000000000000000000000000648a9d3fcf00000000000000000000000056dd51c27325f54b7d3d4c468a16560981380a43000000000000000000000000e88150c42cc6c0294dd20893bf5b1ec6edd24fc60000000000000000000000000000000000000000000000002ed6689e54f1815000000000000000000000000000000000000000000000000000000000",
          "blockHash": "0x32ff8aeac71420f9a27ca264be8731a5635cd71316e588dbc5356b13dac50eac",
          "blockNumber": "0x2d5241",
          "blockTimestamp": "0x676479cc",
          "transactionHash": "0x16344d0c6e30493f935086d9f3be44d6a2415b6f4e1c89ce2346091fb5688e58",
          "transactionIndex": "0x8",
          "logIndex": "0x26",
          "removed": false
        },
        {
          "address": "0xf7336fd84911203f1f01ab6803eccc984700f591",
          "topics": [
            "0x4641df4a962071e12719d8c8c8e5ac7fc4d97b927346a3d7a335b1f7517e133c",
            "0x52cfa9eff6370dc3b229c5e54b4eb3e70531801ce0d89fd976908fda69e3b81a"
          ],
          "data": "0x",
          "blockHash": "0x32ff8aeac71420f9a27ca264be8731a5635cd71316e588dbc5356b13dac50eac",
          "blockNumber": "0x2d5241",
          "blockTimestamp": "0x676479cc",
          "transactionHash": "0x16344d0c6e30493f935086d9f3be44d6a2415b6f4e1c89ce2346091fb5688e58",
          "transactionIndex": "0x8",
          "logIndex": "0x27",
          "removed": false
        },
        {
          "address": "0xe79206ea5f8ed1a5281a812d8864f5b3207c9441",
          "topics": [
            "0x44b4f910eed5395f84d00285781e37020302f8ae9b632209b4c3eafe05bd2e87",
            "0x00000000000000000000000056dd51c27325f54b7d3d4c468a16560981380a43",
            "0x000000000000000000000000e88150c42cc6c0294dd20893bf5b1ec6edd24fc6"
          ],
          "data": "0x0000000000000000000000000000000000000000000000002ed6689e54f18150",
          "blockHash": "0x32ff8aeac71420f9a27ca264be8731a5635cd71316e588dbc5356b13dac50eac",
          "blockNumber": "0x2d5241",
          "blockTimestamp": "0x676479cc",
          "transactionHash": "0x16344d0c6e30493f935086d9f3be44d6a2415b6f4e1c89ce2346091fb5688e58",
          "transactionIndex": "0x8",
          "logIndex": "0x28",
          "removed": false
        },
        {
          "address": "0xf35110f68f441fd3bd7d354a2a5faa1d32b970a7",
          "topics": [
            "0xddf252ad1be2c89b69c2b068fc378daa952ba7f163c4a11628f55a4df523b3ef",
            "0x0000000000000000000000000000000000000000000000000000000000000000",
            "0x000000000000000000000000e88150c42cc6c0294dd20893bf5b1ec6edd24fc6"
          ],
          "data": "0x0000000000000000000000000000000000000000000000002ed6689e54f18150",
          "blockHash": "0x32ff8aeac71420f9a27ca264be8731a5635cd71316e588dbc5356b13dac50eac",
          "blockNumber": "0x2d5241",
          "blockTimestamp": "0x676479cc",
          "transactionHash": "0x16344d0c6e30493f935086d9f3be44d6a2415b6f4e1c89ce2346091fb5688e58",
          "transactionIndex": "0x8",
          "logIndex": "0x29",
          "removed": false
        }
      ],
      "logsBloom": "0x04000000000010000000000000000000000000000000000000000000000000000000000000000000000000080000000000000000000000000012000000800000140000000000000010008008000000800000000000000000000000100000000010020000020000401000000080400801000000400000000000009018000000000000000000200000000400000000000000200002000000000000000080004000000000000100000000000100000000100000000000040000000010000000000000001002000000400000000000000020000000000000000000002000000020002800000004000010000000000000000000000000008000020000000008200008",
      "type": "0x2",
      "transactionHash": "0x16344d0c6e30493f935086d9f3be44d6a2415b6f4e1c89ce2346091fb5688e58",
      "transactionIndex": "0x8",
      "blockHash": "0x32ff8aeac71420f9a27ca264be8731a5635cd71316e588dbc5356b13dac50eac",
      "blockNumber": "0x2d5241",
      "gasUsed": "0x3fff4",
      "effectiveGasPrice": "0xe4e1ca",
      "from": "0xe88150c42cc6c0294dd20893bf5b1ec6edd24fc6",
      "to": "0xf7336fd84911203f1f01ab6803eccc984700f591",
      "contractAddress": null
    },
    {
      "status": "0x1",
      "cumulativeGasUsed": "0x10e88d",
      "logs": [
        {
          "address": "0x56dd51c27325f54b7d3d4c468a16560981380a43",
          "topics": [
            "0x06b541ddaa720db2b10a4d0cdac39b8d360425fc073085fac19bc82614677987",
            "0x00000000000000000000000044eb1823e6dd567a4ab3c5ac0819b280bb3ee359",
            "0x00000000000000000000000044eb1823e6dd567a4ab3c5ac0819b280bb3ee359",
            "0x000000000000000000000000e88150c42cc6c0294dd20893bf5b1ec6edd24fc6"
          ],
          "data": "0x00000000000000000000000000000000000000000000000000000000000000000000000000000000000000000000000000000000000000000000000000000060000000000000000000000000000000000000000000000000000000000000008000000000000000000000000000000000000000000000000000000000000000000000000000000000000000000000000000000000000000000000000000000000",
          "blockHash": "0x32ff8aeac71420f9a27ca264be8731a5635cd71316e588dbc5356b13dac50eac",
          "blockNumber": "0x2d5241",
          "blockTimestamp": "0x676479cc",
          "transactionHash": "0x892e93e005bed95ce6e418e98776c58a40d33ba7c965b9b8e902e1a592a685bf",
          "transactionIndex": "0x9",
          "logIndex": "0x2a",
          "removed": false
        },
        {
          "address": "0x56dd51c27325f54b7d3d4c468a16560981380a43",
          "topics": [
            "0xddf252ad1be2c89b69c2b068fc378daa952ba7f163c4a11628f55a4df523b3ef",
            "0x00000000000000000000000044eb1823e6dd567a4ab3c5ac0819b280bb3ee359",
            "0x000000000000000000000000e88150c42cc6c0294dd20893bf5b1ec6edd24fc6"
          ],
          "data": "0x0000000000000000000000000000000000000000000000000000000000000000",
          "blockHash": "0x32ff8aeac71420f9a27ca264be8731a5635cd71316e588dbc5356b13dac50eac",
          "blockNumber": "0x2d5241",
          "blockTimestamp": "0x676479cc",
          "transactionHash": "0x892e93e005bed95ce6e418e98776c58a40d33ba7c965b9b8e902e1a592a685bf",
          "transactionIndex": "0x9",
          "logIndex": "0x2b",
          "removed": false
        }
      ],
      "logsBloom": "0x00000000000000000000000000000000000000000000000000000000000000000000000000000000000000000000000000000000000000000002000000000000000000000000000000000008000000000000000000000000000000000000000000000000000000000000000000000000000000400000000000000010000000000000000000000000000000000000000000000002000000000000000080000000000000000100000000000000000000100000000000040000000010000000000000001002000000000000000000000000000000000000000000002000000000000000000004000000000000000000000000000000000000020000000000000000",
      "type": "0x2",
      "transactionHash": "0x892e93e005bed95ce6e418e98776c58a40d33ba7c965b9b8e902e1a592a685bf",
      "transactionIndex": "0x9",
      "blockHash": "0x32ff8aeac71420f9a27ca264be8731a5635cd71316e588dbc5356b13dac50eac",
      "blockNumber": "0x2d5241",
      "gasUsed": "0xc307",
      "effectiveGasPrice": "0xe4e1ca",
      "from": "0xe88150c42cc6c0294dd20893bf5b1ec6edd24fc6",
      "to": "0x44eb1823e6dd567a4ab3c5ac0819b280bb3ee359",
      "contractAddress": null
    },
    {
      "status": "0x1",
      "cumulativeGasUsed": "0x12f001",
      "logs": [
        {
          "address": "0xe79206ea5f8ed1a5281a812d8864f5b3207c9441",
          "topics": [
            "0x44b4f910eed5395f84d00285781e37020302f8ae9b632209b4c3eafe05bd2e87",
            "0x000000000000000000000000f35110f68f441fd3bd7d354a2a5faa1d32b970a7",
            "0x000000000000000000000000e88150c42cc6c0294dd20893bf5b1ec6edd24fc6"
          ],
          "data": "0x00000000000000000000000000000000000000000000000046419ced7f6a41f8",
          "blockHash": "0x32ff8aeac71420f9a27ca264be8731a5635cd71316e588dbc5356b13dac50eac",
          "blockNumber": "0x2d5241",
          "blockTimestamp": "0x676479cc",
          "transactionHash": "0xe67f3cd577923a93ab191f63ca14f8205b6915a490b6ce86ab1745d0ebf237f3",
          "transactionIndex": "0xa",
          "logIndex": "0x2c",
          "removed": false
        },
        {
          "address": "0xf35110f68f441fd3bd7d354a2a5faa1d32b970a7",
          "topics": [
            "0xddf252ad1be2c89b69c2b068fc378daa952ba7f163c4a11628f55a4df523b3ef",
            "0x000000000000000000000000e88150c42cc6c0294dd20893bf5b1ec6edd24fc6",
            "0x0000000000000000000000000000000000000000000000000000000000000000"
          ],
          "data": "0x00000000000000000000000000000000000000000000000046419ced7f6a41f8",
          "blockHash": "0x32ff8aeac71420f9a27ca264be8731a5635cd71316e588dbc5356b13dac50eac",
          "blockNumber": "0x2d5241",
          "blockTimestamp": "0x676479cc",
          "transactionHash": "0xe67f3cd577923a93ab191f63ca14f8205b6915a490b6ce86ab1745d0ebf237f3",
          "transactionIndex": "0xa",
          "logIndex": "0x2d",
          "removed": false
        },
        {
          "address": "0xe79206ea5f8ed1a5281a812d8864f5b3207c9441",
          "topics": [
            "0xbe89fbc5edbebf243cf8cf7946ce755357087079003d51a4eb7c69e987bf0801",
            "0x0000000000000000000000000000000000000000000000000000000000000001",
            "0x000000000000000000000000f7336fd84911203f1f01ab6803eccc984700f591",
            "0x000000000000000000000000e79206ea5f8ed1a5281a812d8864f5b3207c9441"
          ],
          "data": "0x00000000000000000000000000000000000000000000000000000000000000000000000000000000000000000000000000000000000000000000000000000007000000000000000000000000000000000000000000000000000000000000006000000000000000000000000000000000000000000000000000000000000000648a9d3fcf00000000000000000000000056dd51c27325f54b7d3d4c468a16560981380a43000000000000000000000000e88150c42cc6c0294dd20893bf5b1ec6edd24fc600000000000000000000000000000000000000000000000046419ced7f6a41f800000000000000000000000000000000000000000000000000000000",
          "blockHash": "0x32ff8aeac71420f9a27ca264be8731a5635cd71316e588dbc5356b13dac50eac",
          "blockNumber": "0x2d5241",
          "blockTimestamp": "0x676479cc",
          "transactionHash": "0xe67f3cd577923a93ab191f63ca14f8205b6915a490b6ce86ab1745d0ebf237f3",
          "transactionIndex": "0xa",
          "logIndex": "0x2e",
          "removed": false
        },
        {
          "address": "0xe79206ea5f8ed1a5281a812d8864f5b3207c9441",
          "topics": [
            "0x4641df4a962071e12719d8c8c8e5ac7fc4d97b927346a3d7a335b1f7517e133c",
            "0x2245bc5f8d1a73fd8df3ff9aa89774b970eed931c7e22616b72545031bcf3a97"
          ],
          "data": "0x",
          "blockHash": "0x32ff8aeac71420f9a27ca264be8731a5635cd71316e588dbc5356b13dac50eac",
          "blockNumber": "0x2d5241",
          "blockTimestamp": "0x676479cc",
          "transactionHash": "0xe67f3cd577923a93ab191f63ca14f8205b6915a490b6ce86ab1745d0ebf237f3",
          "transactionIndex": "0xa",
          "logIndex": "0x2f",
          "removed": false
        },
        {
          "address": "0xf7336fd84911203f1f01ab6803eccc984700f591",
          "topics": [
            "0x44b4f910eed5395f84d00285781e37020302f8ae9b632209b4c3eafe05bd2e87",
            "0x00000000000000000000000056dd51c27325f54b7d3d4c468a16560981380a43",
            "0x000000000000000000000000e88150c42cc6c0294dd20893bf5b1ec6edd24fc6"
          ],
          "data": "0x00000000000000000000000000000000000000000000000046419ced7f6a41f8",
          "blockHash": "0x32ff8aeac71420f9a27ca264be8731a5635cd71316e588dbc5356b13dac50eac",
          "blockNumber": "0x2d5241",
          "blockTimestamp": "0x676479cc",
          "transactionHash": "0xe67f3cd577923a93ab191f63ca14f8205b6915a490b6ce86ab1745d0ebf237f3",
          "transactionIndex": "0xa",
          "logIndex": "0x30",
          "removed": false
        },
        {
          "address": "0x56dd51c27325f54b7d3d4c468a16560981380a43",
          "topics": [
            "0x06b541ddaa720db2b10a4d0cdac39b8d360425fc073085fac19bc82614677987",
            "0x000000000000000000000000f7336fd84911203f1f01ab6803eccc984700f591",
            "0x000000000000000000000000f7336fd84911203f1f01ab6803eccc984700f591",
            "0x000000000000000000000000e88150c42cc6c0294dd20893bf5b1ec6edd24fc6"
          ],
          "data": "0x00000000000000000000000000000000000000000000000046419ced7f6a41f80000000000000000000000000000000000000000000000000000000000000060000000000000000000000000000000000000000000000000000000000000008000000000000000000000000000000000000000000000000000000000000000000000000000000000000000000000000000000000000000000000000000000000",
          "blockHash": "0x32ff8aeac71420f9a27ca264be8731a5635cd71316e588dbc5356b13dac50eac",
          "blockNumber": "0x2d5241",
          "blockTimestamp": "0x676479cc",
          "transactionHash": "0xe67f3cd577923a93ab191f63ca14f8205b6915a490b6ce86ab1745d0ebf237f3",
          "transactionIndex": "0xa",
          "logIndex": "0x31",
          "removed": false
        },
        {
          "address": "0x56dd51c27325f54b7d3d4c468a16560981380a43",
          "topics": [
            "0xddf252ad1be2c89b69c2b068fc378daa952ba7f163c4a11628f55a4df523b3ef",
            "0x000000000000000000000000f7336fd84911203f1f01ab6803eccc984700f591",
            "0x000000000000000000000000e88150c42cc6c0294dd20893bf5b1ec6edd24fc6"
          ],
          "data": "0x00000000000000000000000000000000000000000000000046419ced7f6a41f8",
          "blockHash": "0x32ff8aeac71420f9a27ca264be8731a5635cd71316e588dbc5356b13dac50eac",
          "blockNumber": "0x2d5241",
          "blockTimestamp": "0x676479cc",
          "transactionHash": "0xe67f3cd577923a93ab191f63ca14f8205b6915a490b6ce86ab1745d0ebf237f3",
          "transactionIndex": "0xa",
          "logIndex": "0x32",
          "removed": false
        }
      ],
      "logsBloom": "0x00000000000010000000000000000000000000000000000000000000000000000000000000000000000000000000000000000000000000000010000000840200140000000000000010008008000000000000000000040000000000100000000000020000020000401000000080400801000000400000000000008018000000000000000000200000000400020000000000000002000000000000000080004000000000000100000000000000020000000000000000000000000010000000000000001102000000400000000000000020000000000000001000002000000060002800000004000000800000000000000000000000000000020000000008200008",
      "type": "0x2",
      "transactionHash": "0xe67f3cd577923a93ab191f63ca14f8205b6915a490b6ce86ab1745d0ebf237f3",
      "transactionIndex": "0xa",
      "blockHash": "0x32ff8aeac71420f9a27ca264be8731a5635cd71316e588dbc5356b13dac50eac",
      "blockNumber": "0x2d5241",
      "gasUsed": "0x20774",
      "effectiveGasPrice": "0xe4e1ca",
      "from": "0xe88150c42cc6c0294dd20893bf5b1ec6edd24fc6",
      "to": "0xe79206ea5f8ed1a5281a812d8864f5b3207c9441",
      "contractAddress": null
    },
    {
      "status": "0x1",
      "cumulativeGasUsed": "0x140753",
      "logs": [
        {
          "address": "0x56dd51c27325f54b7d3d4c468a16560981380a43",
          "topics": [
            "0x06b541ddaa720db2b10a4d0cdac39b8d360425fc073085fac19bc82614677987",
            "0x000000000000000000000000e88150c42cc6c0294dd20893bf5b1ec6edd24fc6",
            "0x000000000000000000000000e88150c42cc6c0294dd20893bf5b1ec6edd24fc6",
            "0x00000000000000000000000044eb1823e6dd567a4ab3c5ac0819b280bb3ee359"
          ],
          "data": "0x0000000000000000000000000000000000000000000000002320ce76bfb520fc0000000000000000000000000000000000000000000000000000000000000060000000000000000000000000000000000000000000000000000000000000008000000000000000000000000000000000000000000000000000000000000000000000000000000000000000000000000000000000000000000000000000000000",
          "blockHash": "0x32ff8aeac71420f9a27ca264be8731a5635cd71316e588dbc5356b13dac50eac",
          "blockNumber": "0x2d5241",
          "blockTimestamp": "0x676479cc",
          "transactionHash": "0x7768b667abc659a60e909c3e9f04c246c9f3f87673d3984fec6e53e7856c2650",
          "transactionIndex": "0xb",
          "logIndex": "0x33",
          "removed": false
        },
        {
          "address": "0x56dd51c27325f54b7d3d4c468a16560981380a43",
          "topics": [
            "0xddf252ad1be2c89b69c2b068fc378daa952ba7f163c4a11628f55a4df523b3ef",
            "0x000000000000000000000000e88150c42cc6c0294dd20893bf5b1ec6edd24fc6",
            "0x00000000000000000000000044eb1823e6dd567a4ab3c5ac0819b280bb3ee359"
          ],
          "data": "0x0000000000000000000000000000000000000000000000002320ce76bfb520fc",
          "blockHash": "0x32ff8aeac71420f9a27ca264be8731a5635cd71316e588dbc5356b13dac50eac",
          "blockNumber": "0x2d5241",
          "blockTimestamp": "0x676479cc",
          "transactionHash": "0x7768b667abc659a60e909c3e9f04c246c9f3f87673d3984fec6e53e7856c2650",
          "transactionIndex": "0xb",
          "logIndex": "0x34",
          "removed": false
        }
      ],
      "logsBloom": "0x00000000000000000000000000000000000000000000000000000000000000000000000000000000000000000000000000000000000000000002000000000000000000000000000000000008000000000000000000000000000000000000000000000000000000000000000000000000000000400000000000000010000000000000000000000000000000000000000000000002000000000000000080000000000000000100000000000000000000100000000000040000000010000000000000001002000000000000000000000000000000000000000000002000000000000000000004000000000000000000000000000000000000020000000000000000",
      "type": "0x2",
      "transactionHash": "0x7768b667abc659a60e909c3e9f04c246c9f3f87673d3984fec6e53e7856c2650",
      "transactionIndex": "0xb",
      "blockHash": "0x32ff8aeac71420f9a27ca264be8731a5635cd71316e588dbc5356b13dac50eac",
      "blockNumber": "0x2d5241",
      "gasUsed": "0x11752",
      "effectiveGasPrice": "0xe4e1ca",
      "from": "0xe88150c42cc6c0294dd20893bf5b1ec6edd24fc6",
      "to": "0x56dd51c27325f54b7d3d4c468a16560981380a43",
      "contractAddress": null
    },
    {
      "status": "0x1",
      "cumulativeGasUsed": "0x180747",
      "logs": [
        {
          "address": "0xf7336fd84911203f1f01ab6803eccc984700f591",
          "topics": [
            "0x44b4f910eed5395f84d00285781e37020302f8ae9b632209b4c3eafe05bd2e87",
            "0x00000000000000000000000056dd51c27325f54b7d3d4c468a16560981380a43",
            "0x000000000000000000000000e88150c42cc6c0294dd20893bf5b1ec6edd24fc6"
          ],
          "data": "0x0000000000000000000000000000000000000000000000002320ce76bfb520fc",
          "blockHash": "0x32ff8aeac71420f9a27ca264be8731a5635cd71316e588dbc5356b13dac50eac",
          "blockNumber": "0x2d5241",
          "blockTimestamp": "0x676479cc",
          "transactionHash": "0xae141635e62bfbb8c722550841ec78b4653bba82f74be710c606202e185b5ddc",
          "transactionIndex": "0xc",
          "logIndex": "0x35",
          "removed": false
        },
        {
          "address": "0xf7336fd84911203f1f01ab6803eccc984700f591",
          "topics": [
            "0x44b4f910eed5395f84d00285781e37020302f8ae9b632209b4c3eafe05bd2e87",
            "0x00000000000000000000000056dd51c27325f54b7d3d4c468a16560981380a43",
            "0x000000000000000000000000e88150c42cc6c0294dd20893bf5b1ec6edd24fc6"
          ],
          "data": "0x0000000000000000000000000000000000000000000000002320ce76bfb520fc",
          "blockHash": "0x32ff8aeac71420f9a27ca264be8731a5635cd71316e588dbc5356b13dac50eac",
          "blockNumber": "0x2d5241",
          "blockTimestamp": "0x676479cc",
          "transactionHash": "0xae141635e62bfbb8c722550841ec78b4653bba82f74be710c606202e185b5ddc",
          "transactionIndex": "0xc",
          "logIndex": "0x36",
          "removed": false
        },
        {
          "address": "0x56dd51c27325f54b7d3d4c468a16560981380a43",
          "topics": [
            "0x06b541ddaa720db2b10a4d0cdac39b8d360425fc073085fac19bc82614677987",
            "0x000000000000000000000000f7336fd84911203f1f01ab6803eccc984700f591",
            "0x00000000000000000000000044eb1823e6dd567a4ab3c5ac0819b280bb3ee359",
            "0x000000000000000000000000f7336fd84911203f1f01ab6803eccc984700f591"
          ],
          "data": "0x0000000000000000000000000000000000000000000000002320ce76bfb520fc0000000000000000000000000000000000000000000000000000000000000060000000000000000000000000000000000000000000000000000000000000008000000000000000000000000000000000000000000000000000000000000000000000000000000000000000000000000000000000000000000000000000000000",
          "blockHash": "0x32ff8aeac71420f9a27ca264be8731a5635cd71316e588dbc5356b13dac50eac",
          "blockNumber": "0x2d5241",
          "blockTimestamp": "0x676479cc",
          "transactionHash": "0xae141635e62bfbb8c722550841ec78b4653bba82f74be710c606202e185b5ddc",
          "transactionIndex": "0xc",
          "logIndex": "0x37",
          "removed": false
        },
        {
          "address": "0x56dd51c27325f54b7d3d4c468a16560981380a43",
          "topics": [
            "0xddf252ad1be2c89b69c2b068fc378daa952ba7f163c4a11628f55a4df523b3ef",
            "0x00000000000000000000000044eb1823e6dd567a4ab3c5ac0819b280bb3ee359",
            "0x000000000000000000000000f7336fd84911203f1f01ab6803eccc984700f591"
          ],
          "data": "0x0000000000000000000000000000000000000000000000002320ce76bfb520fc",
          "blockHash": "0x32ff8aeac71420f9a27ca264be8731a5635cd71316e588dbc5356b13dac50eac",
          "blockNumber": "0x2d5241",
          "blockTimestamp": "0x676479cc",
          "transactionHash": "0xae141635e62bfbb8c722550841ec78b4653bba82f74be710c606202e185b5ddc",
          "transactionIndex": "0xc",
          "logIndex": "0x38",
          "removed": false
        },
        {
          "address": "0xf7336fd84911203f1f01ab6803eccc984700f591",
          "topics": [
            "0xbe89fbc5edbebf243cf8cf7946ce755357087079003d51a4eb7c69e987bf0801",
            "0x0000000000000000000000000000000000000000000000000000000000000002",
            "0x000000000000000000000000e79206ea5f8ed1a5281a812d8864f5b3207c9441",
            "0x000000000000000000000000f7336fd84911203f1f01ab6803eccc984700f591"
          ],
          "data": "0x00000000000000000000000000000000000000000000000000000000000000000000000000000000000000000000000000000000000000000000000000000011000000000000000000000000000000000000000000000000000000000000006000000000000000000000000000000000000000000000000000000000000000648a9d3fcf00000000000000000000000056dd51c27325f54b7d3d4c468a16560981380a43000000000000000000000000e88150c42cc6c0294dd20893bf5b1ec6edd24fc60000000000000000000000000000000000000000000000002320ce76bfb520fc00000000000000000000000000000000000000000000000000000000",
          "blockHash": "0x32ff8aeac71420f9a27ca264be8731a5635cd71316e588dbc5356b13dac50eac",
          "blockNumber": "0x2d5241",
          "blockTimestamp": "0x676479cc",
          "transactionHash": "0xae141635e62bfbb8c722550841ec78b4653bba82f74be710c606202e185b5ddc",
          "transactionIndex": "0xc",
          "logIndex": "0x39",
          "removed": false
        },
        {
          "address": "0xf7336fd84911203f1f01ab6803eccc984700f591",
          "topics": [
            "0x4641df4a962071e12719d8c8c8e5ac7fc4d97b927346a3d7a335b1f7517e133c",
            "0x27e167058cf9f12639f0de85cba4c58b03ae26fe0428142fc0d25dc9c3337a79"
          ],
          "data": "0x",
          "blockHash": "0x32ff8aeac71420f9a27ca264be8731a5635cd71316e588dbc5356b13dac50eac",
          "blockNumber": "0x2d5241",
          "blockTimestamp": "0x676479cc",
          "transactionHash": "0xae141635e62bfbb8c722550841ec78b4653bba82f74be710c606202e185b5ddc",
          "transactionIndex": "0xc",
          "logIndex": "0x3a",
          "removed": false
        },
        {
          "address": "0xe79206ea5f8ed1a5281a812d8864f5b3207c9441",
          "topics": [
            "0x44b4f910eed5395f84d00285781e37020302f8ae9b632209b4c3eafe05bd2e87",
            "0x00000000000000000000000056dd51c27325f54b7d3d4c468a16560981380a43",
            "0x000000000000000000000000e88150c42cc6c0294dd20893bf5b1ec6edd24fc6"
          ],
          "data": "0x0000000000000000000000000000000000000000000000002320ce76bfb520fc",
          "blockHash": "0x32ff8aeac71420f9a27ca264be8731a5635cd71316e588dbc5356b13dac50eac",
          "blockNumber": "0x2d5241",
          "blockTimestamp": "0x676479cc",
          "transactionHash": "0xae141635e62bfbb8c722550841ec78b4653bba82f74be710c606202e185b5ddc",
          "transactionIndex": "0xc",
          "logIndex": "0x3b",
          "removed": false
        },
        {
          "address": "0xf35110f68f441fd3bd7d354a2a5faa1d32b970a7",
          "topics": [
            "0xddf252ad1be2c89b69c2b068fc378daa952ba7f163c4a11628f55a4df523b3ef",
            "0x0000000000000000000000000000000000000000000000000000000000000000",
            "0x000000000000000000000000e88150c42cc6c0294dd20893bf5b1ec6edd24fc6"
          ],
          "data": "0x0000000000000000000000000000000000000000000000002320ce76bfb520fc",
          "blockHash": "0x32ff8aeac71420f9a27ca264be8731a5635cd71316e588dbc5356b13dac50eac",
          "blockNumber": "0x2d5241",
          "blockTimestamp": "0x676479cc",
          "transactionHash": "0xae141635e62bfbb8c722550841ec78b4653bba82f74be710c606202e185b5ddc",
          "transactionIndex": "0xc",
          "logIndex": "0x3c",
          "removed": false
        },
        {
          "address": "0x56dd51c27325f54b7d3d4c468a16560981380a43",
          "topics": [
            "0x06b541ddaa720db2b10a4d0cdac39b8d360425fc073085fac19bc82614677987",
            "0x000000000000000000000000f7336fd84911203f1f01ab6803eccc984700f591",
            "0x000000000000000000000000e88150c42cc6c0294dd20893bf5b1ec6edd24fc6",
            "0x000000000000000000000000f7336fd84911203f1f01ab6803eccc984700f591"
          ],
          "data": "0x0000000000000000000000000000000000000000000000002320ce76bfb520fc0000000000000000000000000000000000000000000000000000000000000060000000000000000000000000000000000000000000000000000000000000008000000000000000000000000000000000000000000000000000000000000000000000000000000000000000000000000000000000000000000000000000000000",
          "blockHash": "0x32ff8aeac71420f9a27ca264be8731a5635cd71316e588dbc5356b13dac50eac",
          "blockNumber": "0x2d5241",
          "blockTimestamp": "0x676479cc",
          "transactionHash": "0xae141635e62bfbb8c722550841ec78b4653bba82f74be710c606202e185b5ddc",
          "transactionIndex": "0xc",
          "logIndex": "0x3d",
          "removed": false
        },
        {
          "address": "0x56dd51c27325f54b7d3d4c468a16560981380a43",
          "topics": [
            "0xddf252ad1be2c89b69c2b068fc378daa952ba7f163c4a11628f55a4df523b3ef",
            "0x000000000000000000000000e88150c42cc6c0294dd20893bf5b1ec6edd24fc6",
            "0x000000000000000000000000f7336fd84911203f1f01ab6803eccc984700f591"
          ],
          "data": "0x0000000000000000000000000000000000000000000000002320ce76bfb520fc",
          "blockHash": "0x32ff8aeac71420f9a27ca264be8731a5635cd71316e588dbc5356b13dac50eac",
          "blockNumber": "0x2d5241",
          "blockTimestamp": "0x676479cc",
          "transactionHash": "0xae141635e62bfbb8c722550841ec78b4653bba82f74be710c606202e185b5ddc",
          "transactionIndex": "0xc",
          "logIndex": "0x3e",
          "removed": false
        },
        {
          "address": "0xf7336fd84911203f1f01ab6803eccc984700f591",
          "topics": [
            "0xbe89fbc5edbebf243cf8cf7946ce755357087079003d51a4eb7c69e987bf0801",
            "0x0000000000000000000000000000000000000000000000000000000000000002",
            "0x000000000000000000000000e79206ea5f8ed1a5281a812d8864f5b3207c9441",
            "0x000000000000000000000000f7336fd84911203f1f01ab6803eccc984700f591"
          ],
          "data": "0x00000000000000000000000000000000000000000000000000000000000000000000000000000000000000000000000000000000000000000000000000000012000000000000000000000000000000000000000000000000000000000000006000000000000000000000000000000000000000000000000000000000000000648a9d3fcf00000000000000000000000056dd51c27325f54b7d3d4c468a16560981380a43000000000000000000000000e88150c42cc6c0294dd20893bf5b1ec6edd24fc600000000000000000000000000000000000000000000000046419ced7f6a41f800000000000000000000000000000000000000000000000000000000",
          "blockHash": "0x32ff8aeac71420f9a27ca264be8731a5635cd71316e588dbc5356b13dac50eac",
          "blockNumber": "0x2d5241",
          "blockTimestamp": "0x676479cc",
          "transactionHash": "0xae141635e62bfbb8c722550841ec78b4653bba82f74be710c606202e185b5ddc",
          "transactionIndex": "0xc",
          "logIndex": "0x3f",
          "removed": false
        },
        {
          "address": "0xf7336fd84911203f1f01ab6803eccc984700f591",
          "topics": [
            "0x4641df4a962071e12719d8c8c8e5ac7fc4d97b927346a3d7a335b1f7517e133c",
            "0xf3f3f02c88d81bf1a5ae227920664bf2a2b0571863c2796ea4faa740c099085b"
          ],
          "data": "0x",
          "blockHash": "0x32ff8aeac71420f9a27ca264be8731a5635cd71316e588dbc5356b13dac50eac",
          "blockNumber": "0x2d5241",
          "blockTimestamp": "0x676479cc",
          "transactionHash": "0xae141635e62bfbb8c722550841ec78b4653bba82f74be710c606202e185b5ddc",
          "transactionIndex": "0xc",
          "logIndex": "0x40",
          "removed": false
        },
        {
          "address": "0xe79206ea5f8ed1a5281a812d8864f5b3207c9441",
          "topics": [
            "0x44b4f910eed5395f84d00285781e37020302f8ae9b632209b4c3eafe05bd2e87",
            "0x00000000000000000000000056dd51c27325f54b7d3d4c468a16560981380a43",
            "0x000000000000000000000000e88150c42cc6c0294dd20893bf5b1ec6edd24fc6"
          ],
          "data": "0x00000000000000000000000000000000000000000000000046419ced7f6a41f8",
          "blockHash": "0x32ff8aeac71420f9a27ca264be8731a5635cd71316e588dbc5356b13dac50eac",
          "blockNumber": "0x2d5241",
          "blockTimestamp": "0x676479cc",
          "transactionHash": "0xae141635e62bfbb8c722550841ec78b4653bba82f74be710c606202e185b5ddc",
          "transactionIndex": "0xc",
          "logIndex": "0x41",
          "removed": false
        },
        {
          "address": "0xf35110f68f441fd3bd7d354a2a5faa1d32b970a7",
          "topics": [
            "0xddf252ad1be2c89b69c2b068fc378daa952ba7f163c4a11628f55a4df523b3ef",
            "0x0000000000000000000000000000000000000000000000000000000000000000",
            "0x000000000000000000000000e88150c42cc6c0294dd20893bf5b1ec6edd24fc6"
          ],
          "data": "0x00000000000000000000000000000000000000000000000046419ced7f6a41f8",
          "blockHash": "0x32ff8aeac71420f9a27ca264be8731a5635cd71316e588dbc5356b13dac50eac",
          "blockNumber": "0x2d5241",
          "blockTimestamp": "0x676479cc",
          "transactionHash": "0xae141635e62bfbb8c722550841ec78b4653bba82f74be710c606202e185b5ddc",
          "transactionIndex": "0xc",
          "logIndex": "0x42",
          "removed": false
        }
      ],
      "logsBloom": "0x04000000000010000000000000000000000000000000000000000000000000001000000000000000000000000000000000000000000000000012000000800000140000000000000010008008000000000000000000000000000000100000000000020000020000401000000080400801004000400000000040008018000000000000000000200000000400000000000000000002000000000000000080004000000800000100000004000100000000100000000000040000000010000000000000001002000000400000000000000020000000000000000000002000000020002880000004000000000000000000000000000000008000020000000008200008",
      "type": "0x2",
      "transactionHash": "0xae141635e62bfbb8c722550841ec78b4653bba82f74be710c606202e185b5ddc",
      "transactionIndex": "0xc",
      "blockHash": "0x32ff8aeac71420f9a27ca264be8731a5635cd71316e588dbc5356b13dac50eac",
      "blockNumber": "0x2d5241",
      "gasUsed": "0x3fff4",
      "effectiveGasPrice": "0xe4e1ca",
      "from": "0xe88150c42cc6c0294dd20893bf5b1ec6edd24fc6",
      "to": "0xf7336fd84911203f1f01ab6803eccc984700f591",
      "contractAddress": null
    },
    {
      "status": "0x1",
      "cumulativeGasUsed": "0x18ca4e",
      "logs": [
        {
          "address": "0x56dd51c27325f54b7d3d4c468a16560981380a43",
          "topics": [
            "0x06b541ddaa720db2b10a4d0cdac39b8d360425fc073085fac19bc82614677987",
            "0x00000000000000000000000044eb1823e6dd567a4ab3c5ac0819b280bb3ee359",
            "0x00000000000000000000000044eb1823e6dd567a4ab3c5ac0819b280bb3ee359",
            "0x000000000000000000000000e88150c42cc6c0294dd20893bf5b1ec6edd24fc6"
          ],
          "data": "0x00000000000000000000000000000000000000000000000000000000000000000000000000000000000000000000000000000000000000000000000000000060000000000000000000000000000000000000000000000000000000000000008000000000000000000000000000000000000000000000000000000000000000000000000000000000000000000000000000000000000000000000000000000000",
          "blockHash": "0x32ff8aeac71420f9a27ca264be8731a5635cd71316e588dbc5356b13dac50eac",
          "blockNumber": "0x2d5241",
          "blockTimestamp": "0x676479cc",
          "transactionHash": "0xb6a73c2f6abd42990f7c14705a747d0d7711ba8322ce57614b52c3fe35abec94",
          "transactionIndex": "0xd",
          "logIndex": "0x43",
          "removed": false
        },
        {
          "address": "0x56dd51c27325f54b7d3d4c468a16560981380a43",
          "topics": [
            "0xddf252ad1be2c89b69c2b068fc378daa952ba7f163c4a11628f55a4df523b3ef",
            "0x00000000000000000000000044eb1823e6dd567a4ab3c5ac0819b280bb3ee359",
            "0x000000000000000000000000e88150c42cc6c0294dd20893bf5b1ec6edd24fc6"
          ],
          "data": "0x0000000000000000000000000000000000000000000000000000000000000000",
          "blockHash": "0x32ff8aeac71420f9a27ca264be8731a5635cd71316e588dbc5356b13dac50eac",
          "blockNumber": "0x2d5241",
          "blockTimestamp": "0x676479cc",
          "transactionHash": "0xb6a73c2f6abd42990f7c14705a747d0d7711ba8322ce57614b52c3fe35abec94",
          "transactionIndex": "0xd",
          "logIndex": "0x44",
          "removed": false
        }
      ],
      "logsBloom": "0x00000000000000000000000000000000000000000000000000000000000000000000000000000000000000000000000000000000000000000002000000000000000000000000000000000008000000000000000000000000000000000000000000000000000000000000000000000000000000400000000000000010000000000000000000000000000000000000000000000002000000000000000080000000000000000100000000000000000000100000000000040000000010000000000000001002000000000000000000000000000000000000000000002000000000000000000004000000000000000000000000000000000000020000000000000000",
      "type": "0x2",
      "transactionHash": "0xb6a73c2f6abd42990f7c14705a747d0d7711ba8322ce57614b52c3fe35abec94",
      "transactionIndex": "0xd",
      "blockHash": "0x32ff8aeac71420f9a27ca264be8731a5635cd71316e588dbc5356b13dac50eac",
      "blockNumber": "0x2d5241",
      "gasUsed": "0xc307",
      "effectiveGasPrice": "0xe4e1ca",
      "from": "0xe88150c42cc6c0294dd20893bf5b1ec6edd24fc6",
      "to": "0x44eb1823e6dd567a4ab3c5ac0819b280bb3ee359",
      "contractAddress": null
    },
    {
      "status": "0x1",
      "cumulativeGasUsed": "0x6132ed",
      "logs": [
        {
          "address": "0xe79206ea5f8ed1a5281a812d8864f5b3207c9441",
          "topics": [
            "0x44b4f910eed5395f84d00285781e37020302f8ae9b632209b4c3eafe05bd2e87",
            "0x000000000000000000000000f35110f68f441fd3bd7d354a2a5faa1d32b970a7",
            "0x000000000000000000000000e88150c42cc6c0294dd20893bf5b1ec6edd24fc6"
          ],
          "data": "0x00000000000000000000000000000000000000000000000069626b643f1f62f4",
          "blockHash": "0x32ff8aeac71420f9a27ca264be8731a5635cd71316e588dbc5356b13dac50eac",
          "blockNumber": "0x2d5241",
          "blockTimestamp": "0x676479cc",
          "transactionHash": "0xa16150d40757b2df2be681c740d8da8ca6d1c3cbdc3f2188ba3847ef27a08b70",
          "transactionIndex": "0x10",
          "logIndex": "0x52",
          "removed": false
        },
        {
          "address": "0xf35110f68f441fd3bd7d354a2a5faa1d32b970a7",
          "topics": [
            "0xddf252ad1be2c89b69c2b068fc378daa952ba7f163c4a11628f55a4df523b3ef",
            "0x000000000000000000000000e88150c42cc6c0294dd20893bf5b1ec6edd24fc6",
            "0x0000000000000000000000000000000000000000000000000000000000000000"
          ],
          "data": "0x00000000000000000000000000000000000000000000000069626b643f1f62f4",
          "blockHash": "0x32ff8aeac71420f9a27ca264be8731a5635cd71316e588dbc5356b13dac50eac",
          "blockNumber": "0x2d5241",
          "blockTimestamp": "0x676479cc",
          "transactionHash": "0xa16150d40757b2df2be681c740d8da8ca6d1c3cbdc3f2188ba3847ef27a08b70",
          "transactionIndex": "0x10",
          "logIndex": "0x53",
          "removed": false
        },
        {
          "address": "0xe79206ea5f8ed1a5281a812d8864f5b3207c9441",
          "topics": [
            "0xbe89fbc5edbebf243cf8cf7946ce755357087079003d51a4eb7c69e987bf0801",
            "0x0000000000000000000000000000000000000000000000000000000000000001",
            "0x000000000000000000000000f7336fd84911203f1f01ab6803eccc984700f591",
            "0x000000000000000000000000e79206ea5f8ed1a5281a812d8864f5b3207c9441"
          ],
          "data": "0x00000000000000000000000000000000000000000000000000000000000000000000000000000000000000000000000000000000000000000000000000000008000000000000000000000000000000000000000000000000000000000000006000000000000000000000000000000000000000000000000000000000000000648a9d3fcf00000000000000000000000056dd51c27325f54b7d3d4c468a16560981380a43000000000000000000000000e88150c42cc6c0294dd20893bf5b1ec6edd24fc600000000000000000000000000000000000000000000000069626b643f1f62f400000000000000000000000000000000000000000000000000000000",
          "blockHash": "0x32ff8aeac71420f9a27ca264be8731a5635cd71316e588dbc5356b13dac50eac",
          "blockNumber": "0x2d5241",
          "blockTimestamp": "0x676479cc",
          "transactionHash": "0xa16150d40757b2df2be681c740d8da8ca6d1c3cbdc3f2188ba3847ef27a08b70",
          "transactionIndex": "0x10",
          "logIndex": "0x54",
          "removed": false
        },
        {
          "address": "0xe79206ea5f8ed1a5281a812d8864f5b3207c9441",
          "topics": [
            "0x4641df4a962071e12719d8c8c8e5ac7fc4d97b927346a3d7a335b1f7517e133c",
            "0x4fcf25d0636f7d88a97362ae433ed7411e24eba43ad53e11660c865c5d7b0712"
          ],
          "data": "0x",
          "blockHash": "0x32ff8aeac71420f9a27ca264be8731a5635cd71316e588dbc5356b13dac50eac",
          "blockNumber": "0x2d5241",
          "blockTimestamp": "0x676479cc",
          "transactionHash": "0xa16150d40757b2df2be681c740d8da8ca6d1c3cbdc3f2188ba3847ef27a08b70",
          "transactionIndex": "0x10",
          "logIndex": "0x55",
          "removed": false
        },
        {
          "address": "0xf7336fd84911203f1f01ab6803eccc984700f591",
          "topics": [
            "0x44b4f910eed5395f84d00285781e37020302f8ae9b632209b4c3eafe05bd2e87",
            "0x00000000000000000000000056dd51c27325f54b7d3d4c468a16560981380a43",
            "0x000000000000000000000000e88150c42cc6c0294dd20893bf5b1ec6edd24fc6"
          ],
          "data": "0x00000000000000000000000000000000000000000000000069626b643f1f62f4",
          "blockHash": "0x32ff8aeac71420f9a27ca264be8731a5635cd71316e588dbc5356b13dac50eac",
          "blockNumber": "0x2d5241",
          "blockTimestamp": "0x676479cc",
          "transactionHash": "0xa16150d40757b2df2be681c740d8da8ca6d1c3cbdc3f2188ba3847ef27a08b70",
          "transactionIndex": "0x10",
          "logIndex": "0x56",
          "removed": false
        },
        {
          "address": "0x56dd51c27325f54b7d3d4c468a16560981380a43",
          "topics": [
            "0x06b541ddaa720db2b10a4d0cdac39b8d360425fc073085fac19bc82614677987",
            "0x000000000000000000000000f7336fd84911203f1f01ab6803eccc984700f591",
            "0x000000000000000000000000f7336fd84911203f1f01ab6803eccc984700f591",
            "0x000000000000000000000000e88150c42cc6c0294dd20893bf5b1ec6edd24fc6"
          ],
          "data": "0x00000000000000000000000000000000000000000000000069626b643f1f62f40000000000000000000000000000000000000000000000000000000000000060000000000000000000000000000000000000000000000000000000000000008000000000000000000000000000000000000000000000000000000000000000000000000000000000000000000000000000000000000000000000000000000000",
          "blockHash": "0x32ff8aeac71420f9a27ca264be8731a5635cd71316e588dbc5356b13dac50eac",
          "blockNumber": "0x2d5241",
          "blockTimestamp": "0x676479cc",
          "transactionHash": "0xa16150d40757b2df2be681c740d8da8ca6d1c3cbdc3f2188ba3847ef27a08b70",
          "transactionIndex": "0x10",
          "logIndex": "0x57",
          "removed": false
        },
        {
          "address": "0x56dd51c27325f54b7d3d4c468a16560981380a43",
          "topics": [
            "0xddf252ad1be2c89b69c2b068fc378daa952ba7f163c4a11628f55a4df523b3ef",
            "0x000000000000000000000000f7336fd84911203f1f01ab6803eccc984700f591",
            "0x000000000000000000000000e88150c42cc6c0294dd20893bf5b1ec6edd24fc6"
          ],
          "data": "0x00000000000000000000000000000000000000000000000069626b643f1f62f4",
          "blockHash": "0x32ff8aeac71420f9a27ca264be8731a5635cd71316e588dbc5356b13dac50eac",
          "blockNumber": "0x2d5241",
          "blockTimestamp": "0x676479cc",
          "transactionHash": "0xa16150d40757b2df2be681c740d8da8ca6d1c3cbdc3f2188ba3847ef27a08b70",
          "transactionIndex": "0x10",
          "logIndex": "0x58",
          "removed": false
        }
      ],
      "logsBloom": "0x00000000004010000000000000000000000004000000000000000000000000000000000000000000000000000000000000000000000000000010000000840000140000000000000010008008000000000000000000040000000000100000000000020000020000401000000080400801000000400000000000008018000000000000000000200000000400000000000000020002000000000000000080004000000000000100000000000000000000000000000000000000000010000000000000001102000000400000000000000020000000000000001000002000000060002800000004000000800000000000000000000000000000020000000008200008",
      "type": "0x2",
      "transactionHash": "0xa16150d40757b2df2be681c740d8da8ca6d1c3cbdc3f2188ba3847ef27a08b70",
      "transactionIndex": "0x10",
      "blockHash": "0x32ff8aeac71420f9a27ca264be8731a5635cd71316e588dbc5356b13dac50eac",
      "blockNumber": "0x2d5241",
      "gasUsed": "0x20774",
      "effectiveGasPrice": "0xe4e1ca",
      "from": "0xe88150c42cc6c0294dd20893bf5b1ec6edd24fc6",
      "to": "0xe79206ea5f8ed1a5281a812d8864f5b3207c9441",
      "contractAddress": null
    },
    {
      "status": "0x1",
      "cumulativeGasUsed": "0xba308",
      "logs": [
        {
          "address": "0x56dd51c27325f54b7d3d4c468a16560981380a43",
          "topics": [
            "0x06b541ddaa720db2b10a4d0cdac39b8d360425fc073085fac19bc82614677987",
            "0x000000000000000000000000e88150c42cc6c0294dd20893bf5b1ec6edd24fc6",
            "0x000000000000000000000000e88150c42cc6c0294dd20893bf5b1ec6edd24fc6",
            "0x00000000000000000000000044eb1823e6dd567a4ab3c5ac0819b280bb3ee359"
          ],
          "data": "0x00000000000000000000000000000000000000000000000034b135b21f8fb17a0000000000000000000000000000000000000000000000000000000000000060000000000000000000000000000000000000000000000000000000000000008000000000000000000000000000000000000000000000000000000000000000000000000000000000000000000000000000000000000000000000000000000000",
          "blockHash": "0x9e8090831c5553560121a0f115a0694f23ee6d0b9ea1ca021a537f352545f2ba",
          "blockNumber": "0x2d5242",
          "blockTimestamp": "0x676479d8",
          "transactionHash": "0xf13bb4d5aa0c5cc840f15653a166e79ca607527b5c17f9493287c6a06ab0e7d5",
          "transactionIndex": "0x6",
          "logIndex": "0xc",
          "removed": false
        },
        {
          "address": "0x56dd51c27325f54b7d3d4c468a16560981380a43",
          "topics": [
            "0xddf252ad1be2c89b69c2b068fc378daa952ba7f163c4a11628f55a4df523b3ef",
            "0x000000000000000000000000e88150c42cc6c0294dd20893bf5b1ec6edd24fc6",
            "0x00000000000000000000000044eb1823e6dd567a4ab3c5ac0819b280bb3ee359"
          ],
          "data": "0x00000000000000000000000000000000000000000000000034b135b21f8fb17a",
          "blockHash": "0x9e8090831c5553560121a0f115a0694f23ee6d0b9ea1ca021a537f352545f2ba",
          "blockNumber": "0x2d5242",
          "blockTimestamp": "0x676479d8",
          "transactionHash": "0xf13bb4d5aa0c5cc840f15653a166e79ca607527b5c17f9493287c6a06ab0e7d5",
          "transactionIndex": "0x6",
          "logIndex": "0xd",
          "removed": false
        }
      ],
      "logsBloom": "0x00000000000000000000000000000000000000000000000000000000000000000000000000000000000000000000000000000000000000000002000000000000000000000000000000000008000000000000000000000000000000000000000000000000000000000000000000000000000000400000000000000010000000000000000000000000000000000000000000000002000000000000000080000000000000000100000000000000000000100000000000040000000010000000000000001002000000000000000000000000000000000000000000002000000000000000000004000000000000000000000000000000000000020000000000000000",
      "type": "0x2",
      "transactionHash": "0xf13bb4d5aa0c5cc840f15653a166e79ca607527b5c17f9493287c6a06ab0e7d5",
      "transactionIndex": "0x6",
      "blockHash": "0x9e8090831c5553560121a0f115a0694f23ee6d0b9ea1ca021a537f352545f2ba",
      "blockNumber": "0x2d5242",
      "gasUsed": "0x11752",
      "effectiveGasPrice": "0xe4e1ca",
      "from": "0xe88150c42cc6c0294dd20893bf5b1ec6edd24fc6",
      "to": "0x56dd51c27325f54b7d3d4c468a16560981380a43",
      "contractAddress": null
    },
    {
      "status": "0x1",
      "cumulativeGasUsed": "0xfa2fc",
      "logs": [
        {
          "address": "0xf7336fd84911203f1f01ab6803eccc984700f591",
          "topics": [
            "0x44b4f910eed5395f84d00285781e37020302f8ae9b632209b4c3eafe05bd2e87",
            "0x00000000000000000000000056dd51c27325f54b7d3d4c468a16560981380a43",
            "0x000000000000000000000000e88150c42cc6c0294dd20893bf5b1ec6edd24fc6"
          ],
          "data": "0x00000000000000000000000000000000000000000000000034b135b21f8fb17a",
          "blockHash": "0x9e8090831c5553560121a0f115a0694f23ee6d0b9ea1ca021a537f352545f2ba",
          "blockNumber": "0x2d5242",
          "blockTimestamp": "0x676479d8",
          "transactionHash": "0xa0574de115b6ab6d9449bfc9c4c31d6920cc77a234c26793f30f9461e8a813f0",
          "transactionIndex": "0x7",
          "logIndex": "0xe",
          "removed": false
        },
        {
          "address": "0xf7336fd84911203f1f01ab6803eccc984700f591",
          "topics": [
            "0x44b4f910eed5395f84d00285781e37020302f8ae9b632209b4c3eafe05bd2e87",
            "0x00000000000000000000000056dd51c27325f54b7d3d4c468a16560981380a43",
            "0x000000000000000000000000e88150c42cc6c0294dd20893bf5b1ec6edd24fc6"
          ],
          "data": "0x00000000000000000000000000000000000000000000000034b135b21f8fb17a",
          "blockHash": "0x9e8090831c5553560121a0f115a0694f23ee6d0b9ea1ca021a537f352545f2ba",
          "blockNumber": "0x2d5242",
          "blockTimestamp": "0x676479d8",
          "transactionHash": "0xa0574de115b6ab6d9449bfc9c4c31d6920cc77a234c26793f30f9461e8a813f0",
          "transactionIndex": "0x7",
          "logIndex": "0xf",
          "removed": false
        },
        {
          "address": "0x56dd51c27325f54b7d3d4c468a16560981380a43",
          "topics": [
            "0x06b541ddaa720db2b10a4d0cdac39b8d360425fc073085fac19bc82614677987",
            "0x000000000000000000000000f7336fd84911203f1f01ab6803eccc984700f591",
            "0x00000000000000000000000044eb1823e6dd567a4ab3c5ac0819b280bb3ee359",
            "0x000000000000000000000000f7336fd84911203f1f01ab6803eccc984700f591"
          ],
          "data": "0x00000000000000000000000000000000000000000000000034b135b21f8fb17a0000000000000000000000000000000000000000000000000000000000000060000000000000000000000000000000000000000000000000000000000000008000000000000000000000000000000000000000000000000000000000000000000000000000000000000000000000000000000000000000000000000000000000",
          "blockHash": "0x9e8090831c5553560121a0f115a0694f23ee6d0b9ea1ca021a537f352545f2ba",
          "blockNumber": "0x2d5242",
          "blockTimestamp": "0x676479d8",
          "transactionHash": "0xa0574de115b6ab6d9449bfc9c4c31d6920cc77a234c26793f30f9461e8a813f0",
          "transactionIndex": "0x7",
          "logIndex": "0x10",
          "removed": false
        },
        {
          "address": "0x56dd51c27325f54b7d3d4c468a16560981380a43",
          "topics": [
            "0xddf252ad1be2c89b69c2b068fc378daa952ba7f163c4a11628f55a4df523b3ef",
            "0x00000000000000000000000044eb1823e6dd567a4ab3c5ac0819b280bb3ee359",
            "0x000000000000000000000000f7336fd84911203f1f01ab6803eccc984700f591"
          ],
          "data": "0x00000000000000000000000000000000000000000000000034b135b21f8fb17a",
          "blockHash": "0x9e8090831c5553560121a0f115a0694f23ee6d0b9ea1ca021a537f352545f2ba",
          "blockNumber": "0x2d5242",
          "blockTimestamp": "0x676479d8",
          "transactionHash": "0xa0574de115b6ab6d9449bfc9c4c31d6920cc77a234c26793f30f9461e8a813f0",
          "transactionIndex": "0x7",
          "logIndex": "0x11",
          "removed": false
        },
        {
          "address": "0xf7336fd84911203f1f01ab6803eccc984700f591",
          "topics": [
            "0xbe89fbc5edbebf243cf8cf7946ce755357087079003d51a4eb7c69e987bf0801",
            "0x0000000000000000000000000000000000000000000000000000000000000002",
            "0x000000000000000000000000e79206ea5f8ed1a5281a812d8864f5b3207c9441",
            "0x000000000000000000000000f7336fd84911203f1f01ab6803eccc984700f591"
          ],
          "data": "0x00000000000000000000000000000000000000000000000000000000000000000000000000000000000000000000000000000000000000000000000000000013000000000000000000000000000000000000000000000000000000000000006000000000000000000000000000000000000000000000000000000000000000648a9d3fcf00000000000000000000000056dd51c27325f54b7d3d4c468a16560981380a43000000000000000000000000e88150c42cc6c0294dd20893bf5b1ec6edd24fc600000000000000000000000000000000000000000000000034b135b21f8fb17a00000000000000000000000000000000000000000000000000000000",
          "blockHash": "0x9e8090831c5553560121a0f115a0694f23ee6d0b9ea1ca021a537f352545f2ba",
          "blockNumber": "0x2d5242",
          "blockTimestamp": "0x676479d8",
          "transactionHash": "0xa0574de115b6ab6d9449bfc9c4c31d6920cc77a234c26793f30f9461e8a813f0",
          "transactionIndex": "0x7",
          "logIndex": "0x12",
          "removed": false
        },
        {
          "address": "0xf7336fd84911203f1f01ab6803eccc984700f591",
          "topics": [
            "0x4641df4a962071e12719d8c8c8e5ac7fc4d97b927346a3d7a335b1f7517e133c",
            "0x0d8886f0a62d8e5c49bbbfc10022c54a925b7ce352fccd157fb97c12cc8cd8cf"
          ],
          "data": "0x",
          "blockHash": "0x9e8090831c5553560121a0f115a0694f23ee6d0b9ea1ca021a537f352545f2ba",
          "blockNumber": "0x2d5242",
          "blockTimestamp": "0x676479d8",
          "transactionHash": "0xa0574de115b6ab6d9449bfc9c4c31d6920cc77a234c26793f30f9461e8a813f0",
          "transactionIndex": "0x7",
          "logIndex": "0x13",
          "removed": false
        },
        {
          "address": "0xe79206ea5f8ed1a5281a812d8864f5b3207c9441",
          "topics": [
            "0x44b4f910eed5395f84d00285781e37020302f8ae9b632209b4c3eafe05bd2e87",
            "0x00000000000000000000000056dd51c27325f54b7d3d4c468a16560981380a43",
            "0x000000000000000000000000e88150c42cc6c0294dd20893bf5b1ec6edd24fc6"
          ],
          "data": "0x00000000000000000000000000000000000000000000000034b135b21f8fb17a",
          "blockHash": "0x9e8090831c5553560121a0f115a0694f23ee6d0b9ea1ca021a537f352545f2ba",
          "blockNumber": "0x2d5242",
          "blockTimestamp": "0x676479d8",
          "transactionHash": "0xa0574de115b6ab6d9449bfc9c4c31d6920cc77a234c26793f30f9461e8a813f0",
          "transactionIndex": "0x7",
          "logIndex": "0x14",
          "removed": false
        },
        {
          "address": "0xf35110f68f441fd3bd7d354a2a5faa1d32b970a7",
          "topics": [
            "0xddf252ad1be2c89b69c2b068fc378daa952ba7f163c4a11628f55a4df523b3ef",
            "0x0000000000000000000000000000000000000000000000000000000000000000",
            "0x000000000000000000000000e88150c42cc6c0294dd20893bf5b1ec6edd24fc6"
          ],
          "data": "0x00000000000000000000000000000000000000000000000034b135b21f8fb17a",
          "blockHash": "0x9e8090831c5553560121a0f115a0694f23ee6d0b9ea1ca021a537f352545f2ba",
          "blockNumber": "0x2d5242",
          "blockTimestamp": "0x676479d8",
          "transactionHash": "0xa0574de115b6ab6d9449bfc9c4c31d6920cc77a234c26793f30f9461e8a813f0",
          "transactionIndex": "0x7",
          "logIndex": "0x15",
          "removed": false
        },
        {
          "address": "0x56dd51c27325f54b7d3d4c468a16560981380a43",
          "topics": [
            "0x06b541ddaa720db2b10a4d0cdac39b8d360425fc073085fac19bc82614677987",
            "0x000000000000000000000000f7336fd84911203f1f01ab6803eccc984700f591",
            "0x000000000000000000000000e88150c42cc6c0294dd20893bf5b1ec6edd24fc6",
            "0x000000000000000000000000f7336fd84911203f1f01ab6803eccc984700f591"
          ],
          "data": "0x00000000000000000000000000000000000000000000000034b135b21f8fb17a0000000000000000000000000000000000000000000000000000000000000060000000000000000000000000000000000000000000000000000000000000008000000000000000000000000000000000000000000000000000000000000000000000000000000000000000000000000000000000000000000000000000000000",
          "blockHash": "0x9e8090831c5553560121a0f115a0694f23ee6d0b9ea1ca021a537f352545f2ba",
          "blockNumber": "0x2d5242",
          "blockTimestamp": "0x676479d8",
          "transactionHash": "0xa0574de115b6ab6d9449bfc9c4c31d6920cc77a234c26793f30f9461e8a813f0",
          "transactionIndex": "0x7",
          "logIndex": "0x16",
          "removed": false
        },
        {
          "address": "0x56dd51c27325f54b7d3d4c468a16560981380a43",
          "topics": [
            "0xddf252ad1be2c89b69c2b068fc378daa952ba7f163c4a11628f55a4df523b3ef",
            "0x000000000000000000000000e88150c42cc6c0294dd20893bf5b1ec6edd24fc6",
            "0x000000000000000000000000f7336fd84911203f1f01ab6803eccc984700f591"
          ],
          "data": "0x00000000000000000000000000000000000000000000000034b135b21f8fb17a",
          "blockHash": "0x9e8090831c5553560121a0f115a0694f23ee6d0b9ea1ca021a537f352545f2ba",
          "blockNumber": "0x2d5242",
          "blockTimestamp": "0x676479d8",
          "transactionHash": "0xa0574de115b6ab6d9449bfc9c4c31d6920cc77a234c26793f30f9461e8a813f0",
          "transactionIndex": "0x7",
          "logIndex": "0x17",
          "removed": false
        },
        {
          "address": "0xf7336fd84911203f1f01ab6803eccc984700f591",
          "topics": [
            "0xbe89fbc5edbebf243cf8cf7946ce755357087079003d51a4eb7c69e987bf0801",
            "0x0000000000000000000000000000000000000000000000000000000000000002",
            "0x000000000000000000000000e79206ea5f8ed1a5281a812d8864f5b3207c9441",
            "0x000000000000000000000000f7336fd84911203f1f01ab6803eccc984700f591"
          ],
          "data": "0x00000000000000000000000000000000000000000000000000000000000000000000000000000000000000000000000000000000000000000000000000000014000000000000000000000000000000000000000000000000000000000000006000000000000000000000000000000000000000000000000000000000000000648a9d3fcf00000000000000000000000056dd51c27325f54b7d3d4c468a16560981380a43000000000000000000000000e88150c42cc6c0294dd20893bf5b1ec6edd24fc600000000000000000000000000000000000000000000000069626b643f1f62f400000000000000000000000000000000000000000000000000000000",
          "blockHash": "0x9e8090831c5553560121a0f115a0694f23ee6d0b9ea1ca021a537f352545f2ba",
          "blockNumber": "0x2d5242",
          "blockTimestamp": "0x676479d8",
          "transactionHash": "0xa0574de115b6ab6d9449bfc9c4c31d6920cc77a234c26793f30f9461e8a813f0",
          "transactionIndex": "0x7",
          "logIndex": "0x18",
          "removed": false
        },
        {
          "address": "0xf7336fd84911203f1f01ab6803eccc984700f591",
          "topics": [
            "0x4641df4a962071e12719d8c8c8e5ac7fc4d97b927346a3d7a335b1f7517e133c",
            "0x40c4ed6d501cb4042bc8325ed9a99573288871b7b251856ab69e59773ee711ca"
          ],
          "data": "0x",
          "blockHash": "0x9e8090831c5553560121a0f115a0694f23ee6d0b9ea1ca021a537f352545f2ba",
          "blockNumber": "0x2d5242",
          "blockTimestamp": "0x676479d8",
          "transactionHash": "0xa0574de115b6ab6d9449bfc9c4c31d6920cc77a234c26793f30f9461e8a813f0",
          "transactionIndex": "0x7",
          "logIndex": "0x19",
          "removed": false
        },
        {
          "address": "0xe79206ea5f8ed1a5281a812d8864f5b3207c9441",
          "topics": [
            "0x44b4f910eed5395f84d00285781e37020302f8ae9b632209b4c3eafe05bd2e87",
            "0x00000000000000000000000056dd51c27325f54b7d3d4c468a16560981380a43",
            "0x000000000000000000000000e88150c42cc6c0294dd20893bf5b1ec6edd24fc6"
          ],
          "data": "0x00000000000000000000000000000000000000000000000069626b643f1f62f4",
          "blockHash": "0x9e8090831c5553560121a0f115a0694f23ee6d0b9ea1ca021a537f352545f2ba",
          "blockNumber": "0x2d5242",
          "blockTimestamp": "0x676479d8",
          "transactionHash": "0xa0574de115b6ab6d9449bfc9c4c31d6920cc77a234c26793f30f9461e8a813f0",
          "transactionIndex": "0x7",
          "logIndex": "0x1a",
          "removed": false
        },
        {
          "address": "0xf35110f68f441fd3bd7d354a2a5faa1d32b970a7",
          "topics": [
            "0xddf252ad1be2c89b69c2b068fc378daa952ba7f163c4a11628f55a4df523b3ef",
            "0x0000000000000000000000000000000000000000000000000000000000000000",
            "0x000000000000000000000000e88150c42cc6c0294dd20893bf5b1ec6edd24fc6"
          ],
          "data": "0x00000000000000000000000000000000000000000000000069626b643f1f62f4",
          "blockHash": "0x9e8090831c5553560121a0f115a0694f23ee6d0b9ea1ca021a537f352545f2ba",
          "blockNumber": "0x2d5242",
          "blockTimestamp": "0x676479d8",
          "transactionHash": "0xa0574de115b6ab6d9449bfc9c4c31d6920cc77a234c26793f30f9461e8a813f0",
          "transactionIndex": "0x7",
          "logIndex": "0x1b",
          "removed": false
        }
      ],
      "logsBloom": "0x0400000000001000000000000000000000000000000000000000000000000000000000000000000000000000000000000000000000000000401a000000800000140000000000000010008008000000000002000000000000000000100000000000020000020000401000000080400801000000400200000000008018000000000000000000200000000400000000000000000002000000000000000080004000000000000100000000000100000000100000000000040000000010000000000000001002000000400000000000080020000000000100000000002000000020002800000004000000000000000000000000000000008000020000000008200008",
      "type": "0x2",
      "transactionHash": "0xa0574de115b6ab6d9449bfc9c4c31d6920cc77a234c26793f30f9461e8a813f0",
      "transactionIndex": "0x7",
      "blockHash": "0x9e8090831c5553560121a0f115a0694f23ee6d0b9ea1ca021a537f352545f2ba",
      "blockNumber": "0x2d5242",
      "gasUsed": "0x3fff4",
      "effectiveGasPrice": "0xe4e1ca",
      "from": "0xe88150c42cc6c0294dd20893bf5b1ec6edd24fc6",
      "to": "0xf7336fd84911203f1f01ab6803eccc984700f591",
      "contractAddress": null
    },
    {
      "status": "0x1",
      "cumulativeGasUsed": "0x272a5e",
      "logs": [
        {
          "address": "0x56dd51c27325f54b7d3d4c468a16560981380a43",
          "topics": [
            "0x06b541ddaa720db2b10a4d0cdac39b8d360425fc073085fac19bc82614677987",
            "0x00000000000000000000000044eb1823e6dd567a4ab3c5ac0819b280bb3ee359",
            "0x00000000000000000000000044eb1823e6dd567a4ab3c5ac0819b280bb3ee359",
            "0x000000000000000000000000e88150c42cc6c0294dd20893bf5b1ec6edd24fc6"
          ],
          "data": "0x00000000000000000000000000000000000000000000000000000000000000000000000000000000000000000000000000000000000000000000000000000060000000000000000000000000000000000000000000000000000000000000008000000000000000000000000000000000000000000000000000000000000000000000000000000000000000000000000000000000000000000000000000000000",
          "blockHash": "0x4cc3baa92227581ae3da208f12c5127d2bcd21a4c1d91adff62dcee5765c199e",
          "blockNumber": "0x2d5243",
          "blockTimestamp": "0x676479e4",
          "transactionHash": "0xfb0136dcc16eb99d8f5e84f51bfb25a0bed151c7ea450269405fa4f1ae4a8461",
          "transactionIndex": "0xc",
          "logIndex": "0x15",
          "removed": false
        },
        {
          "address": "0x56dd51c27325f54b7d3d4c468a16560981380a43",
          "topics": [
            "0xddf252ad1be2c89b69c2b068fc378daa952ba7f163c4a11628f55a4df523b3ef",
            "0x00000000000000000000000044eb1823e6dd567a4ab3c5ac0819b280bb3ee359",
            "0x000000000000000000000000e88150c42cc6c0294dd20893bf5b1ec6edd24fc6"
          ],
          "data": "0x0000000000000000000000000000000000000000000000000000000000000000",
          "blockHash": "0x4cc3baa92227581ae3da208f12c5127d2bcd21a4c1d91adff62dcee5765c199e",
          "blockNumber": "0x2d5243",
          "blockTimestamp": "0x676479e4",
          "transactionHash": "0xfb0136dcc16eb99d8f5e84f51bfb25a0bed151c7ea450269405fa4f1ae4a8461",
          "transactionIndex": "0xc",
          "logIndex": "0x16",
          "removed": false
        }
      ],
      "logsBloom": "0x00000000000000000000000000000000000000000000000000000000000000000000000000000000000000000000000000000000000000000002000000000000000000000000000000000008000000000000000000000000000000000000000000000000000000000000000000000000000000400000000000000010000000000000000000000000000000000000000000000002000000000000000080000000000000000100000000000000000000100000000000040000000010000000000000001002000000000000000000000000000000000000000000002000000000000000000004000000000000000000000000000000000000020000000000000000",
      "type": "0x2",
      "transactionHash": "0xfb0136dcc16eb99d8f5e84f51bfb25a0bed151c7ea450269405fa4f1ae4a8461",
      "transactionIndex": "0xc",
      "blockHash": "0x4cc3baa92227581ae3da208f12c5127d2bcd21a4c1d91adff62dcee5765c199e",
      "blockNumber": "0x2d5243",
      "gasUsed": "0xc307",
      "effectiveGasPrice": "0xe4e1ca",
      "from": "0xe88150c42cc6c0294dd20893bf5b1ec6edd24fc6",
      "to": "0x44eb1823e6dd567a4ab3c5ac0819b280bb3ee359",
      "contractAddress": null
    },
    {
      "status": "0x1",
      "cumulativeGasUsed": "0x2931d2",
      "logs": [
        {
          "address": "0xe79206ea5f8ed1a5281a812d8864f5b3207c9441",
          "topics": [
            "0x44b4f910eed5395f84d00285781e37020302f8ae9b632209b4c3eafe05bd2e87",
            "0x000000000000000000000000f35110f68f441fd3bd7d354a2a5faa1d32b970a7",
            "0x000000000000000000000000e88150c42cc6c0294dd20893bf5b1ec6edd24fc6"
          ],
          "data": "0x0000000000000000000000000000000000000000000000009e13a1165eaf146e",
          "blockHash": "0x4cc3baa92227581ae3da208f12c5127d2bcd21a4c1d91adff62dcee5765c199e",
          "blockNumber": "0x2d5243",
          "blockTimestamp": "0x676479e4",
          "transactionHash": "0x7547ec720ac55afdebd19edcde8e76f090aa625411bd7fe389dd3a072e72dffa",
          "transactionIndex": "0xd",
          "logIndex": "0x17",
          "removed": false
        },
        {
          "address": "0xf35110f68f441fd3bd7d354a2a5faa1d32b970a7",
          "topics": [
            "0xddf252ad1be2c89b69c2b068fc378daa952ba7f163c4a11628f55a4df523b3ef",
            "0x000000000000000000000000e88150c42cc6c0294dd20893bf5b1ec6edd24fc6",
            "0x0000000000000000000000000000000000000000000000000000000000000000"
          ],
          "data": "0x0000000000000000000000000000000000000000000000009e13a1165eaf146e",
          "blockHash": "0x4cc3baa92227581ae3da208f12c5127d2bcd21a4c1d91adff62dcee5765c199e",
          "blockNumber": "0x2d5243",
          "blockTimestamp": "0x676479e4",
          "transactionHash": "0x7547ec720ac55afdebd19edcde8e76f090aa625411bd7fe389dd3a072e72dffa",
          "transactionIndex": "0xd",
          "logIndex": "0x18",
          "removed": false
        },
        {
          "address": "0xe79206ea5f8ed1a5281a812d8864f5b3207c9441",
          "topics": [
            "0xbe89fbc5edbebf243cf8cf7946ce755357087079003d51a4eb7c69e987bf0801",
            "0x0000000000000000000000000000000000000000000000000000000000000001",
            "0x000000000000000000000000f7336fd84911203f1f01ab6803eccc984700f591",
            "0x000000000000000000000000e79206ea5f8ed1a5281a812d8864f5b3207c9441"
          ],
          "data": "0x00000000000000000000000000000000000000000000000000000000000000000000000000000000000000000000000000000000000000000000000000000009000000000000000000000000000000000000000000000000000000000000006000000000000000000000000000000000000000000000000000000000000000648a9d3fcf00000000000000000000000056dd51c27325f54b7d3d4c468a16560981380a43000000000000000000000000e88150c42cc6c0294dd20893bf5b1ec6edd24fc60000000000000000000000000000000000000000000000009e13a1165eaf146e00000000000000000000000000000000000000000000000000000000",
          "blockHash": "0x4cc3baa92227581ae3da208f12c5127d2bcd21a4c1d91adff62dcee5765c199e",
          "blockNumber": "0x2d5243",
          "blockTimestamp": "0x676479e4",
          "transactionHash": "0x7547ec720ac55afdebd19edcde8e76f090aa625411bd7fe389dd3a072e72dffa",
          "transactionIndex": "0xd",
          "logIndex": "0x19",
          "removed": false
        },
        {
          "address": "0xe79206ea5f8ed1a5281a812d8864f5b3207c9441",
          "topics": [
            "0x4641df4a962071e12719d8c8c8e5ac7fc4d97b927346a3d7a335b1f7517e133c",
            "0xad834c1c75e2f15a8c51abd2376ae1ae4dbe4d5ec7a86d4b094c0cc6189eb304"
          ],
          "data": "0x",
          "blockHash": "0x4cc3baa92227581ae3da208f12c5127d2bcd21a4c1d91adff62dcee5765c199e",
          "blockNumber": "0x2d5243",
          "blockTimestamp": "0x676479e4",
          "transactionHash": "0x7547ec720ac55afdebd19edcde8e76f090aa625411bd7fe389dd3a072e72dffa",
          "transactionIndex": "0xd",
          "logIndex": "0x1a",
          "removed": false
        },
        {
          "address": "0xf7336fd84911203f1f01ab6803eccc984700f591",
          "topics": [
            "0x44b4f910eed5395f84d00285781e37020302f8ae9b632209b4c3eafe05bd2e87",
            "0x00000000000000000000000056dd51c27325f54b7d3d4c468a16560981380a43",
            "0x000000000000000000000000e88150c42cc6c0294dd20893bf5b1ec6edd24fc6"
          ],
          "data": "0x0000000000000000000000000000000000000000000000009e13a1165eaf146e",
          "blockHash": "0x4cc3baa92227581ae3da208f12c5127d2bcd21a4c1d91adff62dcee5765c199e",
          "blockNumber": "0x2d5243",
          "blockTimestamp": "0x676479e4",
          "transactionHash": "0x7547ec720ac55afdebd19edcde8e76f090aa625411bd7fe389dd3a072e72dffa",
          "transactionIndex": "0xd",
          "logIndex": "0x1b",
          "removed": false
        },
        {
          "address": "0x56dd51c27325f54b7d3d4c468a16560981380a43",
          "topics": [
            "0x06b541ddaa720db2b10a4d0cdac39b8d360425fc073085fac19bc82614677987",
            "0x000000000000000000000000f7336fd84911203f1f01ab6803eccc984700f591",
            "0x000000000000000000000000f7336fd84911203f1f01ab6803eccc984700f591",
            "0x000000000000000000000000e88150c42cc6c0294dd20893bf5b1ec6edd24fc6"
          ],
          "data": "0x0000000000000000000000000000000000000000000000009e13a1165eaf146e0000000000000000000000000000000000000000000000000000000000000060000000000000000000000000000000000000000000000000000000000000008000000000000000000000000000000000000000000000000000000000000000000000000000000000000000000000000000000000000000000000000000000000",
          "blockHash": "0x4cc3baa92227581ae3da208f12c5127d2bcd21a4c1d91adff62dcee5765c199e",
          "blockNumber": "0x2d5243",
          "blockTimestamp": "0x676479e4",
          "transactionHash": "0x7547ec720ac55afdebd19edcde8e76f090aa625411bd7fe389dd3a072e72dffa",
          "transactionIndex": "0xd",
          "logIndex": "0x1c",
          "removed": false
        },
        {
          "address": "0x56dd51c27325f54b7d3d4c468a16560981380a43",
          "topics": [
            "0xddf252ad1be2c89b69c2b068fc378daa952ba7f163c4a11628f55a4df523b3ef",
            "0x000000000000000000000000f7336fd84911203f1f01ab6803eccc984700f591",
            "0x000000000000000000000000e88150c42cc6c0294dd20893bf5b1ec6edd24fc6"
          ],
          "data": "0x0000000000000000000000000000000000000000000000009e13a1165eaf146e",
          "blockHash": "0x4cc3baa92227581ae3da208f12c5127d2bcd21a4c1d91adff62dcee5765c199e",
          "blockNumber": "0x2d5243",
          "blockTimestamp": "0x676479e4",
          "transactionHash": "0x7547ec720ac55afdebd19edcde8e76f090aa625411bd7fe389dd3a072e72dffa",
          "transactionIndex": "0xd",
          "logIndex": "0x1d",
          "removed": false
        }
      ],
      "logsBloom": "0x00000000000010000000200000000000000000000000000000000000000000000000000000000000000000000000000000000000000000000010000000840000140000000000020010008008000000000000000000040000000000100000000000020000020000401000000080400801000000400000000000008018000000000000000000200000000400000000000000000002000000000000000080004000000000000100000000000000000000000000000000000000000010000000000000001102000000400000000000000020000000000000001000002000000060002800000004000000800000000000000000000000000000020000080008200008",
      "type": "0x2",
      "transactionHash": "0x7547ec720ac55afdebd19edcde8e76f090aa625411bd7fe389dd3a072e72dffa",
      "transactionIndex": "0xd",
      "blockHash": "0x4cc3baa92227581ae3da208f12c5127d2bcd21a4c1d91adff62dcee5765c199e",
      "blockNumber": "0x2d5243",
      "gasUsed": "0x20774",
      "effectiveGasPrice": "0xe4e1ca",
      "from": "0xe88150c42cc6c0294dd20893bf5b1ec6edd24fc6",
      "to": "0xe79206ea5f8ed1a5281a812d8864f5b3207c9441",
      "contractAddress": null
    },
    {
      "status": "0x1",
      "cumulativeGasUsed": "0x2a4924",
      "logs": [
        {
          "address": "0x56dd51c27325f54b7d3d4c468a16560981380a43",
          "topics": [
            "0x06b541ddaa720db2b10a4d0cdac39b8d360425fc073085fac19bc82614677987",
            "0x000000000000000000000000e88150c42cc6c0294dd20893bf5b1ec6edd24fc6",
            "0x000000000000000000000000e88150c42cc6c0294dd20893bf5b1ec6edd24fc6",
            "0x00000000000000000000000044eb1823e6dd567a4ab3c5ac0819b280bb3ee359"
          ],
          "data": "0x0000000000000000000000000000000000000000000000004f09d08b2f578a370000000000000000000000000000000000000000000000000000000000000060000000000000000000000000000000000000000000000000000000000000008000000000000000000000000000000000000000000000000000000000000000000000000000000000000000000000000000000000000000000000000000000000",
          "blockHash": "0x4cc3baa92227581ae3da208f12c5127d2bcd21a4c1d91adff62dcee5765c199e",
          "blockNumber": "0x2d5243",
          "blockTimestamp": "0x676479e4",
          "transactionHash": "0xd19f1d8121d01305cf5d53709cd55cbcef8b6e108561a31dc3f6a09fb7c4a314",
          "transactionIndex": "0xe",
          "logIndex": "0x1e",
          "removed": false
        },
        {
          "address": "0x56dd51c27325f54b7d3d4c468a16560981380a43",
          "topics": [
            "0xddf252ad1be2c89b69c2b068fc378daa952ba7f163c4a11628f55a4df523b3ef",
            "0x000000000000000000000000e88150c42cc6c0294dd20893bf5b1ec6edd24fc6",
            "0x00000000000000000000000044eb1823e6dd567a4ab3c5ac0819b280bb3ee359"
          ],
          "data": "0x0000000000000000000000000000000000000000000000004f09d08b2f578a37",
          "blockHash": "0x4cc3baa92227581ae3da208f12c5127d2bcd21a4c1d91adff62dcee5765c199e",
          "blockNumber": "0x2d5243",
          "blockTimestamp": "0x676479e4",
          "transactionHash": "0xd19f1d8121d01305cf5d53709cd55cbcef8b6e108561a31dc3f6a09fb7c4a314",
          "transactionIndex": "0xe",
          "logIndex": "0x1f",
          "removed": false
        }
      ],
      "logsBloom": "0x00000000000000000000000000000000000000000000000000000000000000000000000000000000000000000000000000000000000000000002000000000000000000000000000000000008000000000000000000000000000000000000000000000000000000000000000000000000000000400000000000000010000000000000000000000000000000000000000000000002000000000000000080000000000000000100000000000000000000100000000000040000000010000000000000001002000000000000000000000000000000000000000000002000000000000000000004000000000000000000000000000000000000020000000000000000",
      "type": "0x2",
      "transactionHash": "0xd19f1d8121d01305cf5d53709cd55cbcef8b6e108561a31dc3f6a09fb7c4a314",
      "transactionIndex": "0xe",
      "blockHash": "0x4cc3baa92227581ae3da208f12c5127d2bcd21a4c1d91adff62dcee5765c199e",
      "blockNumber": "0x2d5243",
      "gasUsed": "0x11752",
      "effectiveGasPrice": "0xe4e1ca",
      "from": "0xe88150c42cc6c0294dd20893bf5b1ec6edd24fc6",
      "to": "0x56dd51c27325f54b7d3d4c468a16560981380a43",
      "contractAddress": null
    },
    {
      "status": "0x1",
      "cumulativeGasUsed": "0x2e4918",
      "logs": [
        {
          "address": "0xf7336fd84911203f1f01ab6803eccc984700f591",
          "topics": [
            "0x44b4f910eed5395f84d00285781e37020302f8ae9b632209b4c3eafe05bd2e87",
            "0x00000000000000000000000056dd51c27325f54b7d3d4c468a16560981380a43",
            "0x000000000000000000000000e88150c42cc6c0294dd20893bf5b1ec6edd24fc6"
          ],
          "data": "0x0000000000000000000000000000000000000000000000004f09d08b2f578a37",
          "blockHash": "0x4cc3baa92227581ae3da208f12c5127d2bcd21a4c1d91adff62dcee5765c199e",
          "blockNumber": "0x2d5243",
          "blockTimestamp": "0x676479e4",
          "transactionHash": "0x5e47cfd9644e535d721ab7d26868184b754e7ced217d0a887d449fb5f1603832",
          "transactionIndex": "0xf",
          "logIndex": "0x20",
          "removed": false
        },
        {
          "address": "0xf7336fd84911203f1f01ab6803eccc984700f591",
          "topics": [
            "0x44b4f910eed5395f84d00285781e37020302f8ae9b632209b4c3eafe05bd2e87",
            "0x00000000000000000000000056dd51c27325f54b7d3d4c468a16560981380a43",
            "0x000000000000000000000000e88150c42cc6c0294dd20893bf5b1ec6edd24fc6"
          ],
          "data": "0x0000000000000000000000000000000000000000000000004f09d08b2f578a37",
          "blockHash": "0x4cc3baa92227581ae3da208f12c5127d2bcd21a4c1d91adff62dcee5765c199e",
          "blockNumber": "0x2d5243",
          "blockTimestamp": "0x676479e4",
          "transactionHash": "0x5e47cfd9644e535d721ab7d26868184b754e7ced217d0a887d449fb5f1603832",
          "transactionIndex": "0xf",
          "logIndex": "0x21",
          "removed": false
        },
        {
          "address": "0x56dd51c27325f54b7d3d4c468a16560981380a43",
          "topics": [
            "0x06b541ddaa720db2b10a4d0cdac39b8d360425fc073085fac19bc82614677987",
            "0x000000000000000000000000f7336fd84911203f1f01ab6803eccc984700f591",
            "0x00000000000000000000000044eb1823e6dd567a4ab3c5ac0819b280bb3ee359",
            "0x000000000000000000000000f7336fd84911203f1f01ab6803eccc984700f591"
          ],
          "data": "0x0000000000000000000000000000000000000000000000004f09d08b2f578a370000000000000000000000000000000000000000000000000000000000000060000000000000000000000000000000000000000000000000000000000000008000000000000000000000000000000000000000000000000000000000000000000000000000000000000000000000000000000000000000000000000000000000",
          "blockHash": "0x4cc3baa92227581ae3da208f12c5127d2bcd21a4c1d91adff62dcee5765c199e",
          "blockNumber": "0x2d5243",
          "blockTimestamp": "0x676479e4",
          "transactionHash": "0x5e47cfd9644e535d721ab7d26868184b754e7ced217d0a887d449fb5f1603832",
          "transactionIndex": "0xf",
          "logIndex": "0x22",
          "removed": false
        },
        {
          "address": "0x56dd51c27325f54b7d3d4c468a16560981380a43",
          "topics": [
            "0xddf252ad1be2c89b69c2b068fc378daa952ba7f163c4a11628f55a4df523b3ef",
            "0x00000000000000000000000044eb1823e6dd567a4ab3c5ac0819b280bb3ee359",
            "0x000000000000000000000000f7336fd84911203f1f01ab6803eccc984700f591"
          ],
          "data": "0x0000000000000000000000000000000000000000000000004f09d08b2f578a37",
          "blockHash": "0x4cc3baa92227581ae3da208f12c5127d2bcd21a4c1d91adff62dcee5765c199e",
          "blockNumber": "0x2d5243",
          "blockTimestamp": "0x676479e4",
          "transactionHash": "0x5e47cfd9644e535d721ab7d26868184b754e7ced217d0a887d449fb5f1603832",
          "transactionIndex": "0xf",
          "logIndex": "0x23",
          "removed": false
        },
        {
          "address": "0xf7336fd84911203f1f01ab6803eccc984700f591",
          "topics": [
            "0xbe89fbc5edbebf243cf8cf7946ce755357087079003d51a4eb7c69e987bf0801",
            "0x0000000000000000000000000000000000000000000000000000000000000002",
            "0x000000000000000000000000e79206ea5f8ed1a5281a812d8864f5b3207c9441",
            "0x000000000000000000000000f7336fd84911203f1f01ab6803eccc984700f591"
          ],
          "data": "0x00000000000000000000000000000000000000000000000000000000000000000000000000000000000000000000000000000000000000000000000000000015000000000000000000000000000000000000000000000000000000000000006000000000000000000000000000000000000000000000000000000000000000648a9d3fcf00000000000000000000000056dd51c27325f54b7d3d4c468a16560981380a43000000000000000000000000e88150c42cc6c0294dd20893bf5b1ec6edd24fc60000000000000000000000000000000000000000000000004f09d08b2f578a3700000000000000000000000000000000000000000000000000000000",
          "blockHash": "0x4cc3baa92227581ae3da208f12c5127d2bcd21a4c1d91adff62dcee5765c199e",
          "blockNumber": "0x2d5243",
          "blockTimestamp": "0x676479e4",
          "transactionHash": "0x5e47cfd9644e535d721ab7d26868184b754e7ced217d0a887d449fb5f1603832",
          "transactionIndex": "0xf",
          "logIndex": "0x24",
          "removed": false
        },
        {
          "address": "0xf7336fd84911203f1f01ab6803eccc984700f591",
          "topics": [
            "0x4641df4a962071e12719d8c8c8e5ac7fc4d97b927346a3d7a335b1f7517e133c",
            "0x6faacaebe3ca8a2012b9a719a14385a531f5a20fd1723e8588ca2162c8b4901b"
          ],
          "data": "0x",
          "blockHash": "0x4cc3baa92227581ae3da208f12c5127d2bcd21a4c1d91adff62dcee5765c199e",
          "blockNumber": "0x2d5243",
          "blockTimestamp": "0x676479e4",
          "transactionHash": "0x5e47cfd9644e535d721ab7d26868184b754e7ced217d0a887d449fb5f1603832",
          "transactionIndex": "0xf",
          "logIndex": "0x25",
          "removed": false
        },
        {
          "address": "0xe79206ea5f8ed1a5281a812d8864f5b3207c9441",
          "topics": [
            "0x44b4f910eed5395f84d00285781e37020302f8ae9b632209b4c3eafe05bd2e87",
            "0x00000000000000000000000056dd51c27325f54b7d3d4c468a16560981380a43",
            "0x000000000000000000000000e88150c42cc6c0294dd20893bf5b1ec6edd24fc6"
          ],
          "data": "0x0000000000000000000000000000000000000000000000004f09d08b2f578a37",
          "blockHash": "0x4cc3baa92227581ae3da208f12c5127d2bcd21a4c1d91adff62dcee5765c199e",
          "blockNumber": "0x2d5243",
          "blockTimestamp": "0x676479e4",
          "transactionHash": "0x5e47cfd9644e535d721ab7d26868184b754e7ced217d0a887d449fb5f1603832",
          "transactionIndex": "0xf",
          "logIndex": "0x26",
          "removed": false
        },
        {
          "address": "0xf35110f68f441fd3bd7d354a2a5faa1d32b970a7",
          "topics": [
            "0xddf252ad1be2c89b69c2b068fc378daa952ba7f163c4a11628f55a4df523b3ef",
            "0x0000000000000000000000000000000000000000000000000000000000000000",
            "0x000000000000000000000000e88150c42cc6c0294dd20893bf5b1ec6edd24fc6"
          ],
          "data": "0x0000000000000000000000000000000000000000000000004f09d08b2f578a37",
          "blockHash": "0x4cc3baa92227581ae3da208f12c5127d2bcd21a4c1d91adff62dcee5765c199e",
          "blockNumber": "0x2d5243",
          "blockTimestamp": "0x676479e4",
          "transactionHash": "0x5e47cfd9644e535d721ab7d26868184b754e7ced217d0a887d449fb5f1603832",
          "transactionIndex": "0xf",
          "logIndex": "0x27",
          "removed": false
        },
        {
          "address": "0x56dd51c27325f54b7d3d4c468a16560981380a43",
          "topics": [
            "0x06b541ddaa720db2b10a4d0cdac39b8d360425fc073085fac19bc82614677987",
            "0x000000000000000000000000f7336fd84911203f1f01ab6803eccc984700f591",
            "0x000000000000000000000000e88150c42cc6c0294dd20893bf5b1ec6edd24fc6",
            "0x000000000000000000000000f7336fd84911203f1f01ab6803eccc984700f591"
          ],
          "data": "0x0000000000000000000000000000000000000000000000004f09d08b2f578a370000000000000000000000000000000000000000000000000000000000000060000000000000000000000000000000000000000000000000000000000000008000000000000000000000000000000000000000000000000000000000000000000000000000000000000000000000000000000000000000000000000000000000",
          "blockHash": "0x4cc3baa92227581ae3da208f12c5127d2bcd21a4c1d91adff62dcee5765c199e",
          "blockNumber": "0x2d5243",
          "blockTimestamp": "0x676479e4",
          "transactionHash": "0x5e47cfd9644e535d721ab7d26868184b754e7ced217d0a887d449fb5f1603832",
          "transactionIndex": "0xf",
          "logIndex": "0x28",
          "removed": false
        },
        {
          "address": "0x56dd51c27325f54b7d3d4c468a16560981380a43",
          "topics": [
            "0xddf252ad1be2c89b69c2b068fc378daa952ba7f163c4a11628f55a4df523b3ef",
            "0x000000000000000000000000e88150c42cc6c0294dd20893bf5b1ec6edd24fc6",
            "0x000000000000000000000000f7336fd84911203f1f01ab6803eccc984700f591"
          ],
          "data": "0x0000000000000000000000000000000000000000000000004f09d08b2f578a37",
          "blockHash": "0x4cc3baa92227581ae3da208f12c5127d2bcd21a4c1d91adff62dcee5765c199e",
          "blockNumber": "0x2d5243",
          "blockTimestamp": "0x676479e4",
          "transactionHash": "0x5e47cfd9644e535d721ab7d26868184b754e7ced217d0a887d449fb5f1603832",
          "transactionIndex": "0xf",
          "logIndex": "0x29",
          "removed": false
        },
        {
          "address": "0xf7336fd84911203f1f01ab6803eccc984700f591",
          "topics": [
            "0xbe89fbc5edbebf243cf8cf7946ce755357087079003d51a4eb7c69e987bf0801",
            "0x0000000000000000000000000000000000000000000000000000000000000002",
            "0x000000000000000000000000e79206ea5f8ed1a5281a812d8864f5b3207c9441",
            "0x000000000000000000000000f7336fd84911203f1f01ab6803eccc984700f591"
          ],
          "data": "0x00000000000000000000000000000000000000000000000000000000000000000000000000000000000000000000000000000000000000000000000000000016000000000000000000000000000000000000000000000000000000000000006000000000000000000000000000000000000000000000000000000000000000648a9d3fcf00000000000000000000000056dd51c27325f54b7d3d4c468a16560981380a43000000000000000000000000e88150c42cc6c0294dd20893bf5b1ec6edd24fc60000000000000000000000000000000000000000000000009e13a1165eaf146e00000000000000000000000000000000000000000000000000000000",
          "blockHash": "0x4cc3baa92227581ae3da208f12c5127d2bcd21a4c1d91adff62dcee5765c199e",
          "blockNumber": "0x2d5243",
          "blockTimestamp": "0x676479e4",
          "transactionHash": "0x5e47cfd9644e535d721ab7d26868184b754e7ced217d0a887d449fb5f1603832",
          "transactionIndex": "0xf",
          "logIndex": "0x2a",
          "removed": false
        },
        {
          "address": "0xf7336fd84911203f1f01ab6803eccc984700f591",
          "topics": [
            "0x4641df4a962071e12719d8c8c8e5ac7fc4d97b927346a3d7a335b1f7517e133c",
            "0xb3ce84ba7e5903b27aee8e902e5e07f82f34c00ba9e997ff702c75c668c4c368"
          ],
          "data": "0x",
          "blockHash": "0x4cc3baa92227581ae3da208f12c5127d2bcd21a4c1d91adff62dcee5765c199e",
          "blockNumber": "0x2d5243",
          "blockTimestamp": "0x676479e4",
          "transactionHash": "0x5e47cfd9644e535d721ab7d26868184b754e7ced217d0a887d449fb5f1603832",
          "transactionIndex": "0xf",
          "logIndex": "0x2b",
          "removed": false
        },
        {
          "address": "0xe79206ea5f8ed1a5281a812d8864f5b3207c9441",
          "topics": [
            "0x44b4f910eed5395f84d00285781e37020302f8ae9b632209b4c3eafe05bd2e87",
            "0x00000000000000000000000056dd51c27325f54b7d3d4c468a16560981380a43",
            "0x000000000000000000000000e88150c42cc6c0294dd20893bf5b1ec6edd24fc6"
          ],
          "data": "0x0000000000000000000000000000000000000000000000009e13a1165eaf146e",
          "blockHash": "0x4cc3baa92227581ae3da208f12c5127d2bcd21a4c1d91adff62dcee5765c199e",
          "blockNumber": "0x2d5243",
          "blockTimestamp": "0x676479e4",
          "transactionHash": "0x5e47cfd9644e535d721ab7d26868184b754e7ced217d0a887d449fb5f1603832",
          "transactionIndex": "0xf",
          "logIndex": "0x2c",
          "removed": false
        },
        {
          "address": "0xf35110f68f441fd3bd7d354a2a5faa1d32b970a7",
          "topics": [
            "0xddf252ad1be2c89b69c2b068fc378daa952ba7f163c4a11628f55a4df523b3ef",
            "0x0000000000000000000000000000000000000000000000000000000000000000",
            "0x000000000000000000000000e88150c42cc6c0294dd20893bf5b1ec6edd24fc6"
          ],
          "data": "0x0000000000000000000000000000000000000000000000009e13a1165eaf146e",
          "blockHash": "0x4cc3baa92227581ae3da208f12c5127d2bcd21a4c1d91adff62dcee5765c199e",
          "blockNumber": "0x2d5243",
          "blockTimestamp": "0x676479e4",
          "transactionHash": "0x5e47cfd9644e535d721ab7d26868184b754e7ced217d0a887d449fb5f1603832",
          "transactionIndex": "0xf",
          "logIndex": "0x2d",
          "removed": false
        }
      ],
      "logsBloom": "0x0400000000001000000000000000000000000000000000000000000000000000000000000000000000000000000000000000000004000080001200000080000014000000000000001000800800000000000000000000000000000010008000000002000002000040100000008040080100000040000000000000801800000000000000000020000000040002000000000000000200000000000000008000400000000000010000000000010000000010000000000004000000001000000000000000100200000040000000000000002000000000000000000010200000002000280000000400000000000000000000000000000000a000020000000008200008",
      "type": "0x2",
      "transactionHash": "0x5e47cfd9644e535d721ab7d26868184b754e7ced217d0a887d449fb5f1603832",
      "transactionIndex": "0xf",
      "blockHash": "0x4cc3baa92227581ae3da208f12c5127d2bcd21a4c1d91adff62dcee5765c199e",
      "blockNumber": "0x2d5243",
      "gasUsed": "0x3fff4",
      "effectiveGasPrice": "0xe4e1ca",
      "from": "0xe88150c42cc6c0294dd20893bf5b1ec6edd24fc6",
      "to": "0xf7336fd84911203f1f01ab6803eccc984700f591",
      "contractAddress": null
    },
    {
      "status": "0x1",
      "cumulativeGasUsed": "0x2f0c1f",
      "logs": [
        {
          "address": "0x56dd51c27325f54b7d3d4c468a16560981380a43",
          "topics": [
            "0x06b541ddaa720db2b10a4d0cdac39b8d360425fc073085fac19bc82614677987",
            "0x00000000000000000000000044eb1823e6dd567a4ab3c5ac0819b280bb3ee359",
            "0x00000000000000000000000044eb1823e6dd567a4ab3c5ac0819b280bb3ee359",
            "0x000000000000000000000000e88150c42cc6c0294dd20893bf5b1ec6edd24fc6"
          ],
          "data": "0x00000000000000000000000000000000000000000000000000000000000000000000000000000000000000000000000000000000000000000000000000000060000000000000000000000000000000000000000000000000000000000000008000000000000000000000000000000000000000000000000000000000000000000000000000000000000000000000000000000000000000000000000000000000",
          "blockHash": "0x4cc3baa92227581ae3da208f12c5127d2bcd21a4c1d91adff62dcee5765c199e",
          "blockNumber": "0x2d5243",
          "blockTimestamp": "0x676479e4",
          "transactionHash": "0xe284affb5c014d6af748504db0e31655f8fd36aa68160747c1628f184660fc33",
          "transactionIndex": "0x10",
          "logIndex": "0x2e",
          "removed": false
        },
        {
          "address": "0x56dd51c27325f54b7d3d4c468a16560981380a43",
          "topics": [
            "0xddf252ad1be2c89b69c2b068fc378daa952ba7f163c4a11628f55a4df523b3ef",
            "0x00000000000000000000000044eb1823e6dd567a4ab3c5ac0819b280bb3ee359",
            "0x000000000000000000000000e88150c42cc6c0294dd20893bf5b1ec6edd24fc6"
          ],
          "data": "0x0000000000000000000000000000000000000000000000000000000000000000",
          "blockHash": "0x4cc3baa92227581ae3da208f12c5127d2bcd21a4c1d91adff62dcee5765c199e",
          "blockNumber": "0x2d5243",
          "blockTimestamp": "0x676479e4",
          "transactionHash": "0xe284affb5c014d6af748504db0e31655f8fd36aa68160747c1628f184660fc33",
          "transactionIndex": "0x10",
          "logIndex": "0x2f",
          "removed": false
        }
      ],
      "logsBloom": "0x00000000000000000000000000000000000000000000000000000000000000000000000000000000000000000000000000000000000000000002000000000000000000000000000000000008000000000000000000000000000000000000000000000000000000000000000000000000000000400000000000000010000000000000000000000000000000000000000000000002000000000000000080000000000000000100000000000000000000100000000000040000000010000000000000001002000000000000000000000000000000000000000000002000000000000000000004000000000000000000000000000000000000020000000000000000",
      "type": "0x2",
      "transactionHash": "0xe284affb5c014d6af748504db0e31655f8fd36aa68160747c1628f184660fc33",
      "transactionIndex": "0x10",
      "blockHash": "0x4cc3baa92227581ae3da208f12c5127d2bcd21a4c1d91adff62dcee5765c199e",
      "blockNumber": "0x2d5243",
      "gasUsed": "0xc307",
      "effectiveGasPrice": "0xe4e1ca",
      "from": "0xe88150c42cc6c0294dd20893bf5b1ec6edd24fc6",
      "to": "0x44eb1823e6dd567a4ab3c5ac0819b280bb3ee359",
      "contractAddress": null
    },
    {
      "status": "0x1",
      "cumulativeGasUsed": "0x311393",
      "logs": [
        {
          "address": "0xe79206ea5f8ed1a5281a812d8864f5b3207c9441",
          "topics": [
            "0x44b4f910eed5395f84d00285781e37020302f8ae9b632209b4c3eafe05bd2e87",
            "0x000000000000000000000000f35110f68f441fd3bd7d354a2a5faa1d32b970a7",
            "0x000000000000000000000000e88150c42cc6c0294dd20893bf5b1ec6edd24fc6"
          ],
          "data": "0x000000000000000000000000000000000000000000000000ed1d71a18e069ea5",
          "blockHash": "0x4cc3baa92227581ae3da208f12c5127d2bcd21a4c1d91adff62dcee5765c199e",
          "blockNumber": "0x2d5243",
          "blockTimestamp": "0x676479e4",
          "transactionHash": "0x909a5ae4edd5cdb9749b2a0b48d9e1ac258dbafce35d5aa6228df471b818b11c",
          "transactionIndex": "0x11",
          "logIndex": "0x30",
          "removed": false
        },
        {
          "address": "0xf35110f68f441fd3bd7d354a2a5faa1d32b970a7",
          "topics": [
            "0xddf252ad1be2c89b69c2b068fc378daa952ba7f163c4a11628f55a4df523b3ef",
            "0x000000000000000000000000e88150c42cc6c0294dd20893bf5b1ec6edd24fc6",
            "0x0000000000000000000000000000000000000000000000000000000000000000"
          ],
          "data": "0x000000000000000000000000000000000000000000000000ed1d71a18e069ea5",
          "blockHash": "0x4cc3baa92227581ae3da208f12c5127d2bcd21a4c1d91adff62dcee5765c199e",
          "blockNumber": "0x2d5243",
          "blockTimestamp": "0x676479e4",
          "transactionHash": "0x909a5ae4edd5cdb9749b2a0b48d9e1ac258dbafce35d5aa6228df471b818b11c",
          "transactionIndex": "0x11",
          "logIndex": "0x31",
          "removed": false
        },
        {
          "address": "0xe79206ea5f8ed1a5281a812d8864f5b3207c9441",
          "topics": [
            "0xbe89fbc5edbebf243cf8cf7946ce755357087079003d51a4eb7c69e987bf0801",
            "0x0000000000000000000000000000000000000000000000000000000000000001",
            "0x000000000000000000000000f7336fd84911203f1f01ab6803eccc984700f591",
            "0x000000000000000000000000e79206ea5f8ed1a5281a812d8864f5b3207c9441"
          ],
          "data": "0x0000000000000000000000000000000000000000000000000000000000000000000000000000000000000000000000000000000000000000000000000000000a000000000000000000000000000000000000000000000000000000000000006000000000000000000000000000000000000000000000000000000000000000648a9d3fcf00000000000000000000000056dd51c27325f54b7d3d4c468a16560981380a43000000000000000000000000e88150c42cc6c0294dd20893bf5b1ec6edd24fc6000000000000000000000000000000000000000000000000ed1d71a18e069ea500000000000000000000000000000000000000000000000000000000",
          "blockHash": "0x4cc3baa92227581ae3da208f12c5127d2bcd21a4c1d91adff62dcee5765c199e",
          "blockNumber": "0x2d5243",
          "blockTimestamp": "0x676479e4",
          "transactionHash": "0x909a5ae4edd5cdb9749b2a0b48d9e1ac258dbafce35d5aa6228df471b818b11c",
          "transactionIndex": "0x11",
          "logIndex": "0x32",
          "removed": false
        },
        {
          "address": "0xe79206ea5f8ed1a5281a812d8864f5b3207c9441",
          "topics": [
            "0x4641df4a962071e12719d8c8c8e5ac7fc4d97b927346a3d7a335b1f7517e133c",
            "0x571b18eaa90e181116454f4fb519e153ec62f87fd4707c8271cc7faf979c4727"
          ],
          "data": "0x",
          "blockHash": "0x4cc3baa92227581ae3da208f12c5127d2bcd21a4c1d91adff62dcee5765c199e",
          "blockNumber": "0x2d5243",
          "blockTimestamp": "0x676479e4",
          "transactionHash": "0x909a5ae4edd5cdb9749b2a0b48d9e1ac258dbafce35d5aa6228df471b818b11c",
          "transactionIndex": "0x11",
          "logIndex": "0x33",
          "removed": false
        },
        {
          "address": "0xf7336fd84911203f1f01ab6803eccc984700f591",
          "topics": [
            "0x44b4f910eed5395f84d00285781e37020302f8ae9b632209b4c3eafe05bd2e87",
            "0x00000000000000000000000056dd51c27325f54b7d3d4c468a16560981380a43",
            "0x000000000000000000000000e88150c42cc6c0294dd20893bf5b1ec6edd24fc6"
          ],
          "data": "0x000000000000000000000000000000000000000000000000ed1d71a18e069ea5",
          "blockHash": "0x4cc3baa92227581ae3da208f12c5127d2bcd21a4c1d91adff62dcee5765c199e",
          "blockNumber": "0x2d5243",
          "blockTimestamp": "0x676479e4",
          "transactionHash": "0x909a5ae4edd5cdb9749b2a0b48d9e1ac258dbafce35d5aa6228df471b818b11c",
          "transactionIndex": "0x11",
          "logIndex": "0x34",
          "removed": false
        },
        {
          "address": "0x56dd51c27325f54b7d3d4c468a16560981380a43",
          "topics": [
            "0x06b541ddaa720db2b10a4d0cdac39b8d360425fc073085fac19bc82614677987",
            "0x000000000000000000000000f7336fd84911203f1f01ab6803eccc984700f591",
            "0x000000000000000000000000f7336fd84911203f1f01ab6803eccc984700f591",
            "0x000000000000000000000000e88150c42cc6c0294dd20893bf5b1ec6edd24fc6"
          ],
          "data": "0x000000000000000000000000000000000000000000000000ed1d71a18e069ea50000000000000000000000000000000000000000000000000000000000000060000000000000000000000000000000000000000000000000000000000000008000000000000000000000000000000000000000000000000000000000000000000000000000000000000000000000000000000000000000000000000000000000",
          "blockHash": "0x4cc3baa92227581ae3da208f12c5127d2bcd21a4c1d91adff62dcee5765c199e",
          "blockNumber": "0x2d5243",
          "blockTimestamp": "0x676479e4",
          "transactionHash": "0x909a5ae4edd5cdb9749b2a0b48d9e1ac258dbafce35d5aa6228df471b818b11c",
          "transactionIndex": "0x11",
          "logIndex": "0x35",
          "removed": false
        },
        {
          "address": "0x56dd51c27325f54b7d3d4c468a16560981380a43",
          "topics": [
            "0xddf252ad1be2c89b69c2b068fc378daa952ba7f163c4a11628f55a4df523b3ef",
            "0x000000000000000000000000f7336fd84911203f1f01ab6803eccc984700f591",
            "0x000000000000000000000000e88150c42cc6c0294dd20893bf5b1ec6edd24fc6"
          ],
          "data": "0x000000000000000000000000000000000000000000000000ed1d71a18e069ea5",
          "blockHash": "0x4cc3baa92227581ae3da208f12c5127d2bcd21a4c1d91adff62dcee5765c199e",
          "blockNumber": "0x2d5243",
          "blockTimestamp": "0x676479e4",
          "transactionHash": "0x909a5ae4edd5cdb9749b2a0b48d9e1ac258dbafce35d5aa6228df471b818b11c",
          "transactionIndex": "0x11",
          "logIndex": "0x36",
          "removed": false
        }
      ],
      "logsBloom": "0x00000000000010000000000000000000000000000000000000000000000000000000000000000000000000000000000000000000000000000010000000840000140000000000000010008008000000000000000000040000000000100000000000020000020000401002000080400801000000400000000000008018000000000000000000200000000400000000000000000002200000000000000080004000000000000100000000008000000000000000000000000000000010000000000000001102000000400000000000000020000000000000001000002000000060002800000004000000800000000000000000000000000000020000000008200008",
      "type": "0x2",
      "transactionHash": "0x909a5ae4edd5cdb9749b2a0b48d9e1ac258dbafce35d5aa6228df471b818b11c",
      "transactionIndex": "0x11",
      "blockHash": "0x4cc3baa92227581ae3da208f12c5127d2bcd21a4c1d91adff62dcee5765c199e",
      "blockNumber": "0x2d5243",
      "gasUsed": "0x20774",
      "effectiveGasPrice": "0xe4e1ca",
      "from": "0xe88150c42cc6c0294dd20893bf5b1ec6edd24fc6",
      "to": "0xe79206ea5f8ed1a5281a812d8864f5b3207c9441",
      "contractAddress": null
    }
  ],
  "libraries": [],
  "pending": [],
  "returns": {},
  "timestamp": 1734638055,
  "chain": 17000,
  "commit": "58111ea"
}