{
  "transactions": [
    {
      "hash": "0xda128241a73233bfd329120e141c41374925aabcabe5412228d29587417bfb74",
      "transactionType": "CALL",
      "contractName": null,
      "contractAddress": "0x1bc49ebad8b3407feee810f62a920ef7fd506110",
      "function": "ERC20Out(address,address,uint256)",
      "arguments": [
        "0x6B5634390791FDd9fec57b6899Fb27af1F64F42d",
        "0xE88150C42CC6c0294dD20893Bf5b1EC6eDD24Fc6",
        "100"
      ],
      "transaction": {
        "from": "0xe88150c42cc6c0294dd20893bf5b1ec6edd24fc6",
        "to": "0x1bc49ebad8b3407feee810f62a920ef7fd506110",
        "gas": "0x34578",
        "value": "0x0",
        "input": "0xdafac22f0000000000000000000000006b5634390791fdd9fec57b6899fb27af1f64f42d000000000000000000000000e88150c42cc6c0294dd20893bf5b1ec6edd24fc60000000000000000000000000000000000000000000000000000000000000064",
        "nonce": "0x2a",
        "chainId": "0x4268"
      },
      "additionalContracts": [],
      "isFixedGasLimit": false
    }
  ],
  "receipts": [
    {
      "status": "0x1",
      "cumulativeGasUsed": "0x1b0dee",
      "logs": [
        {
          "address": "0x1bc49ebad8b3407feee810f62a920ef7fd506110",
          "topics": [
            "0x44b4f910eed5395f84d00285781e37020302f8ae9b632209b4c3eafe05bd2e87",
            "0x0000000000000000000000006b5634390791fdd9fec57b6899fb27af1f64f42d",
            "0x000000000000000000000000e88150c42cc6c0294dd20893bf5b1ec6edd24fc6"
          ],
          "data": "0x0000000000000000000000000000000000000000000000000000000000000064",
          "blockHash": "0x9139a6c96c59db0d85638fb0af74f41e904d6b7c95b59f5eb0c383415fe1ca8c",
          "blockNumber": "0x2d3915",
          "blockTimestamp": "0x676334b8",
          "transactionHash": "0xda128241a73233bfd329120e141c41374925aabcabe5412228d29587417bfb74",
          "transactionIndex": "0xa",
          "logIndex": "0x10",
          "removed": false
        },
        {
          "address": "0x6b5634390791fdd9fec57b6899fb27af1f64f42d",
          "topics": [
            "0xddf252ad1be2c89b69c2b068fc378daa952ba7f163c4a11628f55a4df523b3ef",
            "0x000000000000000000000000e88150c42cc6c0294dd20893bf5b1ec6edd24fc6",
            "0x0000000000000000000000000000000000000000000000000000000000000000"
          ],
          "data": "0x0000000000000000000000000000000000000000000000000000000000000064",
          "blockHash": "0x9139a6c96c59db0d85638fb0af74f41e904d6b7c95b59f5eb0c383415fe1ca8c",
          "blockNumber": "0x2d3915",
          "blockTimestamp": "0x676334b8",
          "transactionHash": "0xda128241a73233bfd329120e141c41374925aabcabe5412228d29587417bfb74",
          "transactionIndex": "0xa",
          "logIndex": "0x11",
          "removed": false
        },
        {
          "address": "0x1bc49ebad8b3407feee810f62a920ef7fd506110",
          "topics": [
            "0xbe89fbc5edbebf243cf8cf7946ce755357087079003d51a4eb7c69e987bf0801",
            "0x0000000000000000000000000000000000000000000000000000000000000001",
            "0x0000000000000000000000004bb324b195fae8ced6ddd34d01499c0b31ac3480",
            "0x0000000000000000000000001bc49ebad8b3407feee810f62a920ef7fd506110"
          ],
          "data": "0x00000000000000000000000000000000000000000000000000000000000000000000000000000000000000000000000000000000000000000000000000000000000000000000000000000000000000000000000000000000000000000000006000000000000000000000000000000000000000000000000000000000000000648a9d3fcf00000000000000000000000015b12c86e640a3a27c2c9e9dada40d1efbf6a555000000000000000000000000e88150c42cc6c0294dd20893bf5b1ec6edd24fc6000000000000000000000000000000000000000000000000000000000000006400000000000000000000000000000000000000000000000000000000",
          "blockHash": "0x9139a6c96c59db0d85638fb0af74f41e904d6b7c95b59f5eb0c383415fe1ca8c",
          "blockNumber": "0x2d3915",
          "blockTimestamp": "0x676334b8",
          "transactionHash": "0xda128241a73233bfd329120e141c41374925aabcabe5412228d29587417bfb74",
          "transactionIndex": "0xa",
          "logIndex": "0x12",
          "removed": false
        },
        {
          "address": "0x1bc49ebad8b3407feee810f62a920ef7fd506110",
          "topics": [
            "0x4641df4a962071e12719d8c8c8e5ac7fc4d97b927346a3d7a335b1f7517e133c",
            "0xe105e766e1ac7f4364e7398019c87dd1762f98f34d0336a38cc2bc22cb512cf2"
          ],
          "data": "0x",
          "blockHash": "0x9139a6c96c59db0d85638fb0af74f41e904d6b7c95b59f5eb0c383415fe1ca8c",
          "blockNumber": "0x2d3915",
          "blockTimestamp": "0x676334b8",
          "transactionHash": "0xda128241a73233bfd329120e141c41374925aabcabe5412228d29587417bfb74",
          "transactionIndex": "0xa",
          "logIndex": "0x13",
          "removed": false
        },
        {
          "address": "0x4bb324b195fae8ced6ddd34d01499c0b31ac3480",
          "topics": [
            "0x44b4f910eed5395f84d00285781e37020302f8ae9b632209b4c3eafe05bd2e87",
            "0x00000000000000000000000015b12c86e640a3a27c2c9e9dada40d1efbf6a555",
            "0x000000000000000000000000e88150c42cc6c0294dd20893bf5b1ec6edd24fc6"
          ],
          "data": "0x0000000000000000000000000000000000000000000000000000000000000064",
          "blockHash": "0x9139a6c96c59db0d85638fb0af74f41e904d6b7c95b59f5eb0c383415fe1ca8c",
          "blockNumber": "0x2d3915",
          "blockTimestamp": "0x676334b8",
          "transactionHash": "0xda128241a73233bfd329120e141c41374925aabcabe5412228d29587417bfb74",
          "transactionIndex": "0xa",
          "logIndex": "0x14",
          "removed": false
        },
        {
          "address": "0x15b12c86e640a3a27c2c9e9dada40d1efbf6a555",
          "topics": [
            "0x06b541ddaa720db2b10a4d0cdac39b8d360425fc073085fac19bc82614677987",
            "0x0000000000000000000000004bb324b195fae8ced6ddd34d01499c0b31ac3480",
            "0x0000000000000000000000004bb324b195fae8ced6ddd34d01499c0b31ac3480",
            "0x000000000000000000000000e88150c42cc6c0294dd20893bf5b1ec6edd24fc6"
          ],
          "data": "0x00000000000000000000000000000000000000000000000000000000000000640000000000000000000000000000000000000000000000000000000000000060000000000000000000000000000000000000000000000000000000000000008000000000000000000000000000000000000000000000000000000000000000000000000000000000000000000000000000000000000000000000000000000000",
          "blockHash": "0x9139a6c96c59db0d85638fb0af74f41e904d6b7c95b59f5eb0c383415fe1ca8c",
          "blockNumber": "0x2d3915",
          "blockTimestamp": "0x676334b8",
          "transactionHash": "0xda128241a73233bfd329120e141c41374925aabcabe5412228d29587417bfb74",
          "transactionIndex": "0xa",
          "logIndex": "0x15",
          "removed": false
        },
        {
          "address": "0x15b12c86e640a3a27c2c9e9dada40d1efbf6a555",
          "topics": [
            "0xddf252ad1be2c89b69c2b068fc378daa952ba7f163c4a11628f55a4df523b3ef",
            "0x0000000000000000000000004bb324b195fae8ced6ddd34d01499c0b31ac3480",
            "0x000000000000000000000000e88150c42cc6c0294dd20893bf5b1ec6edd24fc6"
          ],
          "data": "0x0000000000000000000000000000000000000000000000000000000000000064",
          "blockHash": "0x9139a6c96c59db0d85638fb0af74f41e904d6b7c95b59f5eb0c383415fe1ca8c",
          "blockNumber": "0x2d3915",
          "blockTimestamp": "0x676334b8",
          "transactionHash": "0xda128241a73233bfd329120e141c41374925aabcabe5412228d29587417bfb74",
          "transactionIndex": "0xa",
          "logIndex": "0x16",
          "removed": false
        }
      ],
      "logsBloom": "0x10000000000000000000000000000000800001000000000000000000004000000000000000000000000020000000000000000000000000000000000000040000140000800000000000000008000000000000800000040000000000000000000000000000020000400000000000000800000000400000000080000018000020000000000000200040000400000c00000000000002000000000000000000014008000100000100002000000000000000000000008000040000000010000000000000000002080000400000000000042080000000000000000000002000000060000000000004000008000000000008000000000000000000000000080808000008",
      "type": "0x2",
      "transactionHash": "0xda128241a73233bfd329120e141c41374925aabcabe5412228d29587417bfb74",
      "transactionIndex": "0xa",
      "blockHash": "0x9139a6c96c59db0d85638fb0af74f41e904d6b7c95b59f5eb0c383415fe1ca8c",
      "blockNumber": "0x2d3915",
      "gasUsed": "0x23ca1",
      "effectiveGasPrice": "0x3b9aca07",
      "from": "0xe88150c42cc6c0294dd20893bf5b1ec6edd24fc6",
      "to": "0x1bc49ebad8b3407feee810f62a920ef7fd506110",
      "contractAddress": null
    }
  ],
  "libraries": [],
  "pending": [],
  "returns": {},
  "timestamp": 1734554811,
  "chain": 17000,
  "commit": "58111ea"
}