{
  "transactions": [
    {
      "hash": "0x7e3083107c0aa8fb350de6d3ec037ddfbc8ed37a5f6d5e5b2ef3a8b9e4775f11",
      "transactionType": "CREATE",
      "contractName": "Attack",
      "contractAddress": "0xaa240add22fa51ba736325a525b56c8b98af64ec",
      "function": null,
      "arguments": null,
      "transaction": {
        "from": "0xe88150c42cc6c0294dd20893bf5b1ec6edd24fc6",
        "gas": "0x1537e",
        "value": "0x0",
        "input": "0x6080604052348015600e575f5ffd5b50603e80601a5f395ff3fe60806040525f5ffdfea264697066735822122080b026221efbb6ac8aed44ec1fb55d5750c73ae1ab926431b2ab16a66423cc7d64736f6c634300081b0033",
        "nonce": "0x25",
        "chainId": "0x4268"
      },
      "additionalContracts": [],
      "isFixedGasLimit": false
    },
    {
      "hash": "0x5604b6057e4b0bc308c28dd0cc49dc8419fd0e24ca5114602ff929018cee850e",
      "transactionType": "CALL",
      "contractName": null,
      "contractAddress": "0x15b12c86e640a3a27c2c9e9dada40d1efbf6a555",
      "function": "approve(address,uint256)",
      "arguments": [
        "0x4bb324b195FaE8CED6ddD34d01499C0B31AC3480",
        "100"
      ],
      "transaction": {
        "from": "0xe88150c42cc6c0294dd20893bf5b1ec6edd24fc6",
        "to": "0x15b12c86e640a3a27c2c9e9dada40d1efbf6a555",
        "gas": "0x10822",
        "value": "0x0",
        "input": "0x095ea7b30000000000000000000000004bb324b195fae8ced6ddd34d01499c0b31ac34800000000000000000000000000000000000000000000000000000000000000064",
        "nonce": "0x26",
        "chainId": "0x4268"
      },
      "additionalContracts": [],
      "isFixedGasLimit": false
    },
    {
      "hash": "0x807510e4e40811fa24a7cfebb3122663d1ece1a1d98c9be2f4fa7e671abd6838",
      "transactionType": "CALL",
      "contractName": null,
      "contractAddress": "0x4bb324b195fae8ced6ddd34d01499c0b31ac3480",
      "function": "ERC20Out(address,address,uint256)",
      "arguments": [
        "0x15b12c86e640a3A27C2C9E9DAda40D1EFBf6A555",
        "0xaa240adD22fa51BA736325a525B56C8B98Af64ec",
        "100"
      ],
      "transaction": {
        "from": "0xe88150c42cc6c0294dd20893bf5b1ec6edd24fc6",
        "to": "0x4bb324b195fae8ced6ddd34d01499c0b31ac3480",
        "gas": "0x17a99f",
        "value": "0x0",
        "input": "0xdafac22f00000000000000000000000015b12c86e640a3a27c2c9e9dada40d1efbf6a555000000000000000000000000aa240add22fa51ba736325a525b56c8b98af64ec0000000000000000000000000000000000000000000000000000000000000064",
        "nonce": "0x27",
        "chainId": "0x4268"
      },
      "additionalContracts": [
        {
          "transactionType": "CREATE",
          "address": "0x6b5634390791fdd9fec57b6899fb27af1f64f42d",
          "initCode": "0x60e060405234801561000f575f80fd5b506040516111d33803806111d383398101604081905261002e91610120565b8181600361003c8382610224565b5060046100498282610224565b5050336080525050506001600160a01b0391821660a0521660c0526102e3565b80516001600160a01b038116811461007f575f80fd5b919050565b634e487b7160e01b5f52604160045260245ffd5b5f82601f8301126100a7575f80fd5b81516001600160401b03808211156100c1576100c1610084565b604051601f8301601f19908116603f011681019082821181831017156100e9576100e9610084565b81604052838152866020858801011115610101575f80fd5b8360208701602083015e5f602085830101528094505050505092915050565b5f805f8060808587031215610133575f80fd5b61013c85610069565b935061014a60208601610069565b60408601519093506001600160401b0380821115610166575f80fd5b61017288838901610098565b93506060870151915080821115610187575f80fd5b5061019487828801610098565b91505092959194509250565b600181811c908216806101b457607f821691505b6020821081036101d257634e487b7160e01b5f52602260045260245ffd5b50919050565b601f82111561021f57805f5260205f20601f840160051c810160208510156101fd5750805b601f840160051c820191505b8181101561021c575f8155600101610209565b50505b505050565b81516001600160401b0381111561023d5761023d610084565b6102518161024b84546101a0565b846101d8565b602080601f831160018114610284575f841561026d5750858301515b5f19600386901b1c1916600185901b1785556102db565b5f85815260208120601f198616915b828110156102b257888601518255948401946001909101908401610293565b50858210156102cf57878501515f19600388901b60f8161c191681555b505060018460011b0185555b505050505050565b60805160a05160c051610e9c6103375f395f61010401525f818161024501528181610435015281816104be015261056d01525f81816102a4015281816103db0152818161053e01526106c50152610e9c5ff3fe608060405234801561000f575f80fd5b50600436106100fb575f3560e01c806370a0823111610093578063a9059cbb11610063578063a9059cbb1461022d578063afb1f77814610240578063dd62ed3e14610267578063ee9a31a21461029f575f80fd5b806370a08231146101d757806395d89b41146101ff5780639dc29fac14610207578063a457c2d71461021a575f80fd5b806323b872dd116100ce57806323b872dd1461018d578063313ce567146101a057806339509351146101af57806340c10f19146101c2575f80fd5b8063033964be146100ff57806306fdde0314610143578063095ea7b31461015857806318160ddd1461017b575b5f80fd5b6101267f000000000000000000000000000000000000000000000000000000000000000081565b6040516001600160a01b0390911681526020015b60405180910390f35b61014b6102c6565b60405161013a9190610cf9565b61016b610166366004610d45565b610356565b604051901515815260200161013a565b6002545b60405190815260200161013a565b61016b61019b366004610d6f565b61036f565b6040516012815260200161013a565b61016b6101bd366004610d45565b610392565b6101d56101d0366004610d45565b6103d0565b005b61017f6101e5366004610dad565b6001600160a01b03165f9081526020819052604090205490565b61014b6106ab565b6101d5610215366004610d45565b6106ba565b61016b610228366004610d45565b610720565b61016b61023b366004610d45565b6107b1565b6101267f000000000000000000000000000000000000000000000000000000000000000081565b61017f610275366004610dcf565b6001600160a01b039182165f90815260016020908152604080832093909416825291909152205490565b6101267f000000000000000000000000000000000000000000000000000000000000000081565b6060600380546102d590610e06565b80601f016020809104026020016040519081016040528092919081815260200182805461030190610e06565b801561034c5780601f106103235761010080835404028352916020019161034c565b820191905f5260205f20905b81548152906001019060200180831161032f57829003601f168201915b5050505050905090565b5f336103638185856107be565b60019150505b92915050565b5f3361037c8582856108e2565b610387858585610972565b506001949350505050565b335f8181526001602090815260408083206001600160a01b038716845290915281205490919061036390829086906103cb908790610e3e565b6107be565b336001600160a01b037f000000000000000000000000000000000000000000000000000000000000000016146104335760405162461bcd60e51b815260206004820152600360248201526252423160e81b60448201526064015b60405180910390fd5b7f00000000000000000000000000000000000000000000000000000000000000006001600160a01b03166317b9c20f6040518163ffffffff1660e01b8152600401602060405180830381865afa15801561048f573d5f803e3d5ffd5b505050506040513d601f19601f820116820180604052508101906104b39190610e5d565b1580159061066b57507f00000000000000000000000000000000000000000000000000000000000000006001600160a01b03166317b9c20f6040518163ffffffff1660e01b8152600401602060405180830381865afa158015610518573d5f803e3d5ffd5b505050506040513d601f19601f8201168201806040525081019061053c9190610e5d565b7f00000000000000000000000000000000000000000000000000000000000000006001600160a01b0316634e12f4217f00000000000000000000000000000000000000000000000000000000000000006001600160a01b031663284a5f0e6040518163ffffffff1660e01b8152600401602060405180830381865afa1580156105c7573d5f803e3d5ffd5b505050506040513d601f19601f820116820180604052508101906105eb9190610e74565b6040517fffffffff0000000000000000000000000000000000000000000000000000000060e084901b1681526001600160a01b039091166004820152602401602060405180830381865afa158015610645573d5f803e3d5ffd5b505050506040513d601f19601f820116820180604052508101906106699190610e5d565b145b61069d5760405162461bcd60e51b815260206004820152600360248201526229211960e91b604482015260640161042a565b6106a78282610b14565b5050565b6060600480546102d590610e06565b336001600160a01b037f000000000000000000000000000000000000000000000000000000000000000016146107165760405162461bcd60e51b81526020600482015260016024820152602160f91b604482015260640161042a565b6106a78282610bd1565b335f8181526001602090815260408083206001600160a01b0387168452909152812054909190838110156107a45760405162461bcd60e51b815260206004820152602560248201527f45524332303a2064656372656173656420616c6c6f77616e63652062656c6f77604482015264207a65726f60d81b606482015260840161042a565b61038782868684036107be565b5f33610363818585610972565b6001600160a01b0383166108205760405162461bcd60e51b8152602060048201526024808201527f45524332303a20617070726f76652066726f6d20746865207a65726f206164646044820152637265737360e01b606482015260840161042a565b6001600160a01b0382166108815760405162461bcd60e51b815260206004820152602260248201527f45524332303a20617070726f766520746f20746865207a65726f206164647265604482015261737360f01b606482015260840161042a565b6001600160a01b038381165f8181526001602090815260408083209487168084529482529182902085905590518481527f8c5be1e5ebec7d5bd14f71427d1e84f3dd0314c0f7b2291e5b200ac8c7c3b92591015b60405180910390a3505050565b6001600160a01b038381165f908152600160209081526040808320938616835292905220545f19811461096c578181101561095f5760405162461bcd60e51b815260206004820152601d60248201527f45524332303a20696e73756666696369656e7420616c6c6f77616e6365000000604482015260640161042a565b61096c84848484036107be565b50505050565b6001600160a01b0383166109d65760405162461bcd60e51b815260206004820152602560248201527f45524332303a207472616e736665722066726f6d20746865207a65726f206164604482015264647265737360d81b606482015260840161042a565b6001600160a01b038216610a385760405162461bcd60e51b815260206004820152602360248201527f45524332303a207472616e7366657220746f20746865207a65726f206164647260448201526265737360e81b606482015260840161042a565b6001600160a01b0383165f9081526020819052604090205481811015610aaf5760405162461bcd60e51b815260206004820152602660248201527f45524332303a207472616e7366657220616d6f756e7420657863656564732062604482015265616c616e636560d01b606482015260840161042a565b6001600160a01b038481165f81815260208181526040808320878703905593871680835291849020805487019055925185815290927fddf252ad1be2c89b69c2b068fc378daa952ba7f163c4a11628f55a4df523b3ef910160405180910390a361096c565b6001600160a01b038216610b6a5760405162461bcd60e51b815260206004820152601f60248201527f45524332303a206d696e7420746f20746865207a65726f206164647265737300604482015260640161042a565b8060025f828254610b7b9190610e3e565b90915550506001600160a01b0382165f81815260208181526040808320805486019055518481527fddf252ad1be2c89b69c2b068fc378daa952ba7f163c4a11628f55a4df523b3ef910160405180910390a35050565b6001600160a01b038216610c315760405162461bcd60e51b815260206004820152602160248201527f45524332303a206275726e2066726f6d20746865207a65726f206164647265736044820152607360f81b606482015260840161042a565b6001600160a01b0382165f9081526020819052604090205481811015610ca45760405162461bcd60e51b815260206004820152602260248201527f45524332303a206275726e20616d6f756e7420657863656564732062616c616e604482015261636560f01b606482015260840161042a565b6001600160a01b0383165f818152602081815260408083208686039055600280548790039055518581529192917fddf252ad1be2c89b69c2b068fc378daa952ba7f163c4a11628f55a4df523b3ef91016108d5565b602081525f82518060208401528060208501604085015e5f604082850101526040601f19601f83011684010191505092915050565b6001600160a01b0381168114610d42575f80fd5b50565b5f8060408385031215610d56575f80fd5b8235610d6181610d2e565b946020939093013593505050565b5f805f60608486031215610d81575f80fd5b8335610d8c81610d2e565b92506020840135610d9c81610d2e565b929592945050506040919091013590565b5f60208284031215610dbd575f80fd5b8135610dc881610d2e565b9392505050565b5f8060408385031215610de0575f80fd5b8235610deb81610d2e565b91506020830135610dfb81610d2e565b809150509250929050565b600181811c90821680610e1a57607f821691505b602082108103610e3857634e487b7160e01b5f52602260045260245ffd5b50919050565b8082018082111561036957634e487b7160e01b5f52601160045260245ffd5b5f60208284031215610e6d575f80fd5b5051919050565b5f60208284031215610e84575f80fd5b8151610dc881610d2e56fea164736f6c6343000819000a0000000000000000000000004bb324b195fae8ced6ddd34d01499c0b31ac348000000000000000000000000015b12c86e640a3a27c2c9e9dada40d1efbf6a555000000000000000000000000000000000000000000000000000000000000008000000000000000000000000000000000000000000000000000000000000000c00000000000000000000000000000000000000000000000000000000000000005546f6b656e0000000000000000000000000000000000000000000000000000000000000000000000000000000000000000000000000000000000000000000003546f6b0000000000000000000000000000000000000000000000000000000000"
        }
      ],
      "isFixedGasLimit": false
    }
  ],
  "receipts": [
    {
      "status": "0x1",
      "cumulativeGasUsed": "0x2b817e",
      "logs": [],
      "logsBloom": "0x00000000000000000000000000000000000000000000000000000000000000000000000000000000000000000000000000000000000000000000000000000000000000000000000000000000000000000000000000000000000000000000000000000000000000000000000000000000000000000000000000000000000000000000000000000000000000000000000000000000000000000000000000000000000000000000000000000000000000000000000000000000000000000000000000000000000000000000000000000000000000000000000000000000000000000000000000000000000000000000000000000000000000000000000000000000",
      "type": "0x2",
      "transactionHash": "0x7e3083107c0aa8fb350de6d3ec037ddfbc8ed37a5f6d5e5b2ef3a8b9e4775f11",
      "transactionIndex": "0xf",
      "blockHash": "0xe5687301120b5b1e80594f06038b04a363b097251774979b3d999cd1b79630be",
      "blockNumber": "0x2d3899",
      "gasUsed": "0x10526",
      "effectiveGasPrice": "0x3b9aca08",
      "from": "0xe88150c42cc6c0294dd20893bf5b1ec6edd24fc6",
      "to": null,
      "contractAddress": "0xaa240add22fa51ba736325a525b56c8b98af64ec"
    },
    {
      "status": "0x1",
      "cumulativeGasUsed": "0x2c3619",
      "logs": [
        {
          "address": "0x15b12c86e640a3a27c2c9e9dada40d1efbf6a555",
          "topics": [
            "0x8c5be1e5ebec7d5bd14f71427d1e84f3dd0314c0f7b2291e5b200ac8c7c3b925",
            "0x000000000000000000000000e88150c42cc6c0294dd20893bf5b1ec6edd24fc6",
            "0x0000000000000000000000004bb324b195fae8ced6ddd34d01499c0b31ac3480"
          ],
          "data": "0x0000000000000000000000000000000000000000000000000000000000000064",
          "blockHash": "0xe5687301120b5b1e80594f06038b04a363b097251774979b3d999cd1b79630be",
          "blockNumber": "0x2d3899",
          "blockTimestamp": "0x67632e64",
          "transactionHash": "0x5604b6057e4b0bc308c28dd0cc49dc8419fd0e24ca5114602ff929018cee850e",
          "transactionIndex": "0x10",
          "logIndex": "0x1c",
          "removed": false
        }
      ],
      "logsBloom": "0x00000000000000000000000000000000800001000000000000000000000000000000000000000000000000000000000000000000000000000000000000200000000000000000000000000000000000000000000000000000000000000000000000000000000000000000000000000000000000000000000080000000000000000000000000000000000000000000000000000002000000000000000000000000020000000000000000000000000000000000008000000000000010000000000000000000000000000000000000000080000000000000000000000000000000000010000004000000000000000008000000000000000000000000000000000000",
      "type": "0x2",
      "transactionHash": "0x5604b6057e4b0bc308c28dd0cc49dc8419fd0e24ca5114602ff929018cee850e",
      "transactionIndex": "0x10",
      "blockHash": "0xe5687301120b5b1e80594f06038b04a363b097251774979b3d999cd1b79630be",
      "blockNumber": "0x2d3899",
      "gasUsed": "0xb49b",
      "effectiveGasPrice": "0x3b9aca08",
      "from": "0xe88150c42cc6c0294dd20893bf5b1ec6edd24fc6",
      "to": "0x15b12c86e640a3a27c2c9e9dada40d1efbf6a555",
      "contractAddress": null
    },
    {
      "status": "0x1",
      "cumulativeGasUsed": "0x3d57b6",
      "logs": [
        {
          "address": "0x4bb324b195fae8ced6ddd34d01499c0b31ac3480",
          "topics": [
            "0x44b4f910eed5395f84d00285781e37020302f8ae9b632209b4c3eafe05bd2e87",
            "0x00000000000000000000000015b12c86e640a3a27c2c9e9dada40d1efbf6a555",
            "0x000000000000000000000000aa240add22fa51ba736325a525b56c8b98af64ec"
          ],
          "data": "0x0000000000000000000000000000000000000000000000000000000000000064",
          "blockHash": "0xe5687301120b5b1e80594f06038b04a363b097251774979b3d999cd1b79630be",
          "blockNumber": "0x2d3899",
          "blockTimestamp": "0x67632e64",
          "transactionHash": "0x807510e4e40811fa24a7cfebb3122663d1ece1a1d98c9be2f4fa7e671abd6838",
          "transactionIndex": "0x11",
          "logIndex": "0x1d",
          "removed": false
        },
        {
          "address": "0x15b12c86e640a3a27c2c9e9dada40d1efbf6a555",
          "topics": [
            "0x8c5be1e5ebec7d5bd14f71427d1e84f3dd0314c0f7b2291e5b200ac8c7c3b925",
            "0x000000000000000000000000e88150c42cc6c0294dd20893bf5b1ec6edd24fc6",
            "0x0000000000000000000000004bb324b195fae8ced6ddd34d01499c0b31ac3480"
          ],
          "data": "0x0000000000000000000000000000000000000000000000000000000000000000",
          "blockHash": "0xe5687301120b5b1e80594f06038b04a363b097251774979b3d999cd1b79630be",
          "blockNumber": "0x2d3899",
          "blockTimestamp": "0x67632e64",
          "transactionHash": "0x807510e4e40811fa24a7cfebb3122663d1ece1a1d98c9be2f4fa7e671abd6838",
          "transactionIndex": "0x11",
          "logIndex": "0x1e",
          "removed": false
        },
        {
          "address": "0x15b12c86e640a3a27c2c9e9dada40d1efbf6a555",
          "topics": [
            "0x06b541ddaa720db2b10a4d0cdac39b8d360425fc073085fac19bc82614677987",
            "0x0000000000000000000000004bb324b195fae8ced6ddd34d01499c0b31ac3480",
            "0x000000000000000000000000e88150c42cc6c0294dd20893bf5b1ec6edd24fc6",
            "0x0000000000000000000000004bb324b195fae8ced6ddd34d01499c0b31ac3480"
          ],
          "data": "0x00000000000000000000000000000000000000000000000000000000000000640000000000000000000000000000000000000000000000000000000000000060000000000000000000000000000000000000000000000000000000000000008000000000000000000000000000000000000000000000000000000000000000000000000000000000000000000000000000000000000000000000000000000000",
          "blockHash": "0xe5687301120b5b1e80594f06038b04a363b097251774979b3d999cd1b79630be",
          "blockNumber": "0x2d3899",
          "blockTimestamp": "0x67632e64",
          "transactionHash": "0x807510e4e40811fa24a7cfebb3122663d1ece1a1d98c9be2f4fa7e671abd6838",
          "transactionIndex": "0x11",
          "logIndex": "0x1f",
          "removed": false
        },
        {
          "address": "0x15b12c86e640a3a27c2c9e9dada40d1efbf6a555",
          "topics": [
            "0xddf252ad1be2c89b69c2b068fc378daa952ba7f163c4a11628f55a4df523b3ef",
            "0x000000000000000000000000e88150c42cc6c0294dd20893bf5b1ec6edd24fc6",
            "0x0000000000000000000000004bb324b195fae8ced6ddd34d01499c0b31ac3480"
          ],
          "data": "0x0000000000000000000000000000000000000000000000000000000000000064",
          "blockHash": "0xe5687301120b5b1e80594f06038b04a363b097251774979b3d999cd1b79630be",
          "blockNumber": "0x2d3899",
          "blockTimestamp": "0x67632e64",
          "transactionHash": "0x807510e4e40811fa24a7cfebb3122663d1ece1a1d98c9be2f4fa7e671abd6838",
          "transactionIndex": "0x11",
          "logIndex": "0x20",
          "removed": false
        },
        {
          "address": "0x4bb324b195fae8ced6ddd34d01499c0b31ac3480",
          "topics": [
            "0xbe89fbc5edbebf243cf8cf7946ce755357087079003d51a4eb7c69e987bf0801",
            "0x0000000000000000000000000000000000000000000000000000000000000002",
            "0x0000000000000000000000001bc49ebad8b3407feee810f62a920ef7fd506110",
            "0x0000000000000000000000004bb324b195fae8ced6ddd34d01499c0b31ac3480"
          ],
          "data": "0x00000000000000000000000000000000000000000000000000000000000000000000000000000000000000000000000000000000000000000000000000000000000000000000000000000000000000000000000000000000000000000000006000000000000000000000000000000000000000000000000000000000000000e49039c90200000000000000000000000015b12c86e640a3a27c2c9e9dada40d1efbf6a555000000000000000000000000000000000000000000000000000000000000006000000000000000000000000000000000000000000000000000000000000000a00000000000000000000000000000000000000000000000000000000000000005546f6b656e0000000000000000000000000000000000000000000000000000000000000000000000000000000000000000000000000000000000000000000003546f6b000000000000000000000000000000000000000000000000000000000000000000000000000000000000000000000000000000000000000000",
          "blockHash": "0xe5687301120b5b1e80594f06038b04a363b097251774979b3d999cd1b79630be",
          "blockNumber": "0x2d3899",
          "blockTimestamp": "0x67632e64",
          "transactionHash": "0x807510e4e40811fa24a7cfebb3122663d1ece1a1d98c9be2f4fa7e671abd6838",
          "transactionIndex": "0x11",
          "logIndex": "0x21",
          "removed": false
        },
        {
          "address": "0x4bb324b195fae8ced6ddd34d01499c0b31ac3480",
          "topics": [
            "0x4641df4a962071e12719d8c8c8e5ac7fc4d97b927346a3d7a335b1f7517e133c",
            "0xbe4632b950934f3f2cc358680172fc78babf9605e369ee7ca8e07f4905dbbad8"
          ],
          "data": "0x",
          "blockHash": "0xe5687301120b5b1e80594f06038b04a363b097251774979b3d999cd1b79630be",
          "blockNumber": "0x2d3899",
          "blockTimestamp": "0x67632e64",
          "transactionHash": "0x807510e4e40811fa24a7cfebb3122663d1ece1a1d98c9be2f4fa7e671abd6838",
          "transactionIndex": "0x11",
          "logIndex": "0x22",
          "removed": false
        },
        {
          "address": "0x1bc49ebad8b3407feee810f62a920ef7fd506110",
          "topics": [
            "0xbf51f33e028e024c2ee9fa166c62c4684a641601ad85aa3670ed506cc0fa0ca3",
            "0x00000000000000000000000015b12c86e640a3a27c2c9e9dada40d1efbf6a555"
          ],
          "data": "0x000000000000000000000000000000000000000000000000000000000000004000000000000000000000000000000000000000000000000000000000000000800000000000000000000000000000000000000000000000000000000000000005546f6b656e0000000000000000000000000000000000000000000000000000000000000000000000000000000000000000000000000000000000000000000003546f6b0000000000000000000000000000000000000000000000000000000000",
          "blockHash": "0xe5687301120b5b1e80594f06038b04a363b097251774979b3d999cd1b79630be",
          "blockNumber": "0x2d3899",
          "blockTimestamp": "0x67632e64",
          "transactionHash": "0x807510e4e40811fa24a7cfebb3122663d1ece1a1d98c9be2f4fa7e671abd6838",
          "transactionIndex": "0x11",
          "logIndex": "0x23",
          "removed": false
        },
        {
          "address": "0x4bb324b195fae8ced6ddd34d01499c0b31ac3480",
          "topics": [
            "0xbe89fbc5edbebf243cf8cf7946ce755357087079003d51a4eb7c69e987bf0801",
            "0x0000000000000000000000000000000000000000000000000000000000000002",
            "0x0000000000000000000000001bc49ebad8b3407feee810f62a920ef7fd506110",
            "0x0000000000000000000000004bb324b195fae8ced6ddd34d01499c0b31ac3480"
          ],
          "data": "0x00000000000000000000000000000000000000000000000000000000000000000000000000000000000000000000000000000000000000000000000000000001000000000000000000000000000000000000000000000000000000000000006000000000000000000000000000000000000000000000000000000000000000648a9d3fcf00000000000000000000000015b12c86e640a3a27c2c9e9dada40d1efbf6a555000000000000000000000000aa240add22fa51ba736325a525b56c8b98af64ec000000000000000000000000000000000000000000000000000000000000006400000000000000000000000000000000000000000000000000000000",
          "blockHash": "0xe5687301120b5b1e80594f06038b04a363b097251774979b3d999cd1b79630be",
          "blockNumber": "0x2d3899",
          "blockTimestamp": "0x67632e64",
          "transactionHash": "0x807510e4e40811fa24a7cfebb3122663d1ece1a1d98c9be2f4fa7e671abd6838",
          "transactionIndex": "0x11",
          "logIndex": "0x24",
          "removed": false
        },
        {
          "address": "0x4bb324b195fae8ced6ddd34d01499c0b31ac3480",
          "topics": [
            "0x4641df4a962071e12719d8c8c8e5ac7fc4d97b927346a3d7a335b1f7517e133c",
            "0x98f666b290555d0ea73ab3df27dcbd44b979f13d56d08aaa45bfa75d6129aef8"
          ],
          "data": "0x",
          "blockHash": "0xe5687301120b5b1e80594f06038b04a363b097251774979b3d999cd1b79630be",
          "blockNumber": "0x2d3899",
          "blockTimestamp": "0x67632e64",
          "transactionHash": "0x807510e4e40811fa24a7cfebb3122663d1ece1a1d98c9be2f4fa7e671abd6838",
          "transactionIndex": "0x11",
          "logIndex": "0x25",
          "removed": false
        },
        {
          "address": "0x1bc49ebad8b3407feee810f62a920ef7fd506110",
          "topics": [
            "0x44b4f910eed5395f84d00285781e37020302f8ae9b632209b4c3eafe05bd2e87",
            "0x00000000000000000000000015b12c86e640a3a27c2c9e9dada40d1efbf6a555",
            "0x000000000000000000000000aa240add22fa51ba736325a525b56c8b98af64ec"
          ],
          "data": "0x0000000000000000000000000000000000000000000000000000000000000064",
          "blockHash": "0xe5687301120b5b1e80594f06038b04a363b097251774979b3d999cd1b79630be",
          "blockNumber": "0x2d3899",
          "blockTimestamp": "0x67632e64",
          "transactionHash": "0x807510e4e40811fa24a7cfebb3122663d1ece1a1d98c9be2f4fa7e671abd6838",
          "transactionIndex": "0x11",
          "logIndex": "0x26",
          "removed": false
        },
        {
          "address": "0x6b5634390791fdd9fec57b6899fb27af1f64f42d",
          "topics": [
            "0xddf252ad1be2c89b69c2b068fc378daa952ba7f163c4a11628f55a4df523b3ef",
            "0x0000000000000000000000000000000000000000000000000000000000000000",
            "0x000000000000000000000000aa240add22fa51ba736325a525b56c8b98af64ec"
          ],
          "data": "0x0000000000000000000000000000000000000000000000000000000000000064",
          "blockHash": "0xe5687301120b5b1e80594f06038b04a363b097251774979b3d999cd1b79630be",
          "blockNumber": "0x2d3899",
          "blockTimestamp": "0x67632e64",
          "transactionHash": "0x807510e4e40811fa24a7cfebb3122663d1ece1a1d98c9be2f4fa7e671abd6838",
          "transactionIndex": "0x11",
          "logIndex": "0x27",
          "removed": false
        }
      ],
      "logsBloom": "0x14000000000000000000000000000000800001000000000000000000004000000000000000000000080020000000000000000000000000000000000000200000140000800000000000000008000000000000800000000000000000000000000000000000020000400000002000000800000000400000000080000018000020000000000000a00000000400000c00000000000002000000000004000000014008022100000100040000000100020000000040808000040000000010000000000010000002080000000000000000040080000000000000000000002000000020000030000004000008000000000008000000000000008000000000000008000008",
      "type": "0x2",
      "transactionHash": "0x807510e4e40811fa24a7cfebb3122663d1ece1a1d98c9be2f4fa7e671abd6838",
      "transactionIndex": "0x11",
      "blockHash": "0xe5687301120b5b1e80594f06038b04a363b097251774979b3d999cd1b79630be",
      "blockNumber": "0x2d3899",
      "gasUsed": "0x11219d",
      "effectiveGasPrice": "0x3b9aca08",
      "from": "0xe88150c42cc6c0294dd20893bf5b1ec6edd24fc6",
      "to": "0x4bb324b195fae8ced6ddd34d01499c0b31ac3480",
      "contractAddress": null
    }
  ],
  "libraries": [],
  "pending": [],
  "returns": {},
  "timestamp": 1734553191,
  "chain": 17000,
  "commit": "58111ea"
}