{
  "transactions": [
    {
      "hash": "0xb86851647922d3402f57813eece9fb336b2fbe948efafcf51281306f9b9cdc16",
      "transactionType": "CALL",
      "contractName": null,
      "contractAddress": "0x15b12c86e640a3a27c2c9e9dada40d1efbf6a555",
      "function": "approve(address,uint256)",
      "arguments": [
        "0x4bb324b195FaE8CED6ddD34d01499C0B31AC3480",
        "100"
      ],
      "transaction": {
        "from": "0xe88150c42cc6c0294dd20893bf5b1ec6edd24fc6",
        "to": "0x15b12c86e640a3a27c2c9e9dada40d1efbf6a555",
        "gas": "0x10822",
        "value": "0x0",
        "input": "0x095ea7b30000000000000000000000004bb324b195fae8ced6ddd34d01499c0b31ac34800000000000000000000000000000000000000000000000000000000000000064",
        "nonce": "0x28",
        "chainId": "0x4268"
      },
      "additionalContracts": [],
      "isFixedGasLimit": false
    },
    {
      "hash": "0x54f4ec52fa1747dd8f8724bba861ae12e13addd705931bd13e476f14b8498be2",
      "transactionType": "CALL",
      "contractName": null,
      "contractAddress": "0x4bb324b195fae8ced6ddd34d01499c0b31ac3480",
      "function": "ERC20Out(address,address,uint256)",
      "arguments": [
        "0x15b12c86e640a3A27C2C9E9DAda40D1EFBf6A555",
        "0xE88150C42CC6c0294dD20893Bf5b1EC6eDD24Fc6",
        "100"
      ],
      "transaction": {
        "from": "0xe88150c42cc6c0294dd20893bf5b1ec6edd24fc6",
        "to": "0x4bb324b195fae8ced6ddd34d01499c0b31ac3480",
        "gas": "0x35554",
        "value": "0x0",
        "input": "0xdafac22f00000000000000000000000015b12c86e640a3a27c2c9e9dada40d1efbf6a555000000000000000000000000e88150c42cc6c0294dd20893bf5b1ec6edd24fc60000000000000000000000000000000000000000000000000000000000000064",
        "nonce": "0x29",
        "chainId": "0x4268"
      },
      "additionalContracts": [],
      "isFixedGasLimit": false
    }
  ],
  "receipts": [
    {
      "status": "0x1",
      "cumulativeGasUsed": "0xef10c",
      "logs": [
        {
          "address": "0x15b12c86e640a3a27c2c9e9dada40d1efbf6a555",
          "topics": [
            "0x8c5be1e5ebec7d5bd14f71427d1e84f3dd0314c0f7b2291e5b200ac8c7c3b925",
            "0x000000000000000000000000e88150c42cc6c0294dd20893bf5b1ec6edd24fc6",
            "0x0000000000000000000000004bb324b195fae8ced6ddd34d01499c0b31ac3480"
          ],
          "data": "0x0000000000000000000000000000000000000000000000000000000000000064",
          "blockHash": "0x7e9b363570b8b2192ff6dc507dc17ea05b0c29508fc4fd9b23d2d94f1ddfda17",
          "blockNumber": "0x2d3911",
          "blockTimestamp": "0x67633470",
          "transactionHash": "0xb86851647922d3402f57813eece9fb336b2fbe948efafcf51281306f9b9cdc16",
          "transactionIndex": "0x7",
          "logIndex": "0xb",
          "removed": false
        }
      ],
      "logsBloom": "0x00000000000000000000000000000000800001000000000000000000000000000000000000000000000000000000000000000000000000000000000000200000000000000000000000000000000000000000000000000000000000000000000000000000000000000000000000000000000000000000000080000000000000000000000000000000000000000000000000000002000000000000000000000000020000000000000000000000000000000000008000000000000010000000000000000000000000000000000000000080000000000000000000000000000000000010000004000000000000000008000000000000000000000000000000000000",
      "type": "0x2",
      "transactionHash": "0xb86851647922d3402f57813eece9fb336b2fbe948efafcf51281306f9b9cdc16",
      "transactionIndex": "0x7",
      "blockHash": "0x7e9b363570b8b2192ff6dc507dc17ea05b0c29508fc4fd9b23d2d94f1ddfda17",
      "blockNumber": "0x2d3911",
      "gasUsed": "0xb49b",
      "effectiveGasPrice": "0x3b9aca07",
      "from": "0xe88150c42cc6c0294dd20893bf5b1ec6edd24fc6",
      "to": "0x15b12c86e640a3a27c2c9e9dada40d1efbf6a555",
      "contractAddress": null
    },
    {
      "status": "0x1",
      "cumulativeGasUsed": "0x115ad8",
      "logs": [
        {
          "address": "0x4bb324b195fae8ced6ddd34d01499c0b31ac3480",
          "topics": [
            "0x44b4f910eed5395f84d00285781e37020302f8ae9b632209b4c3eafe05bd2e87",
            "0x00000000000000000000000015b12c86e640a3a27c2c9e9dada40d1efbf6a555",
            "0x000000000000000000000000e88150c42cc6c0294dd20893bf5b1ec6edd24fc6"
          ],
          "data": "0x0000000000000000000000000000000000000000000000000000000000000064",
          "blockHash": "0x7e9b363570b8b2192ff6dc507dc17ea05b0c29508fc4fd9b23d2d94f1ddfda17",
          "blockNumber": "0x2d3911",
          "blockTimestamp": "0x67633470",
          "transactionHash": "0x54f4ec52fa1747dd8f8724bba861ae12e13addd705931bd13e476f14b8498be2",
          "transactionIndex": "0x8",
          "logIndex": "0xc",
          "removed": false
        },
        {
          "address": "0x15b12c86e640a3a27c2c9e9dada40d1efbf6a555",
          "topics": [
            "0x8c5be1e5ebec7d5bd14f71427d1e84f3dd0314c0f7b2291e5b200ac8c7c3b925",
            "0x000000000000000000000000e88150c42cc6c0294dd20893bf5b1ec6edd24fc6",
            "0x0000000000000000000000004bb324b195fae8ced6ddd34d01499c0b31ac3480"
          ],
          "data": "0x0000000000000000000000000000000000000000000000000000000000000000",
          "blockHash": "0x7e9b363570b8b2192ff6dc507dc17ea05b0c29508fc4fd9b23d2d94f1ddfda17",
          "blockNumber": "0x2d3911",
          "blockTimestamp": "0x67633470",
          "transactionHash": "0x54f4ec52fa1747dd8f8724bba861ae12e13addd705931bd13e476f14b8498be2",
          "transactionIndex": "0x8",
          "logIndex": "0xd",
          "removed": false
        },
        {
          "address": "0x15b12c86e640a3a27c2c9e9dada40d1efbf6a555",
          "topics": [
            "0x06b541ddaa720db2b10a4d0cdac39b8d360425fc073085fac19bc82614677987",
            "0x0000000000000000000000004bb324b195fae8ced6ddd34d01499c0b31ac3480",
            "0x000000000000000000000000e88150c42cc6c0294dd20893bf5b1ec6edd24fc6",
            "0x0000000000000000000000004bb324b195fae8ced6ddd34d01499c0b31ac3480"
          ],
          "data": "0x00000000000000000000000000000000000000000000000000000000000000640000000000000000000000000000000000000000000000000000000000000060000000000000000000000000000000000000000000000000000000000000008000000000000000000000000000000000000000000000000000000000000000000000000000000000000000000000000000000000000000000000000000000000",
          "blockHash": "0x7e9b363570b8b2192ff6dc507dc17ea05b0c29508fc4fd9b23d2d94f1ddfda17",
          "blockNumber": "0x2d3911",
          "blockTimestamp": "0x67633470",
          "transactionHash": "0x54f4ec52fa1747dd8f8724bba861ae12e13addd705931bd13e476f14b8498be2",
          "transactionIndex": "0x8",
          "logIndex": "0xe",
          "removed": false
        },
        {
          "address": "0x15b12c86e640a3a27c2c9e9dada40d1efbf6a555",
          "topics": [
            "0xddf252ad1be2c89b69c2b068fc378daa952ba7f163c4a11628f55a4df523b3ef",
            "0x000000000000000000000000e88150c42cc6c0294dd20893bf5b1ec6edd24fc6",
            "0x0000000000000000000000004bb324b195fae8ced6ddd34d01499c0b31ac3480"
          ],
          "data": "0x0000000000000000000000000000000000000000000000000000000000000064",
          "blockHash": "0x7e9b363570b8b2192ff6dc507dc17ea05b0c29508fc4fd9b23d2d94f1ddfda17",
          "blockNumber": "0x2d3911",
          "blockTimestamp": "0x67633470",
          "transactionHash": "0x54f4ec52fa1747dd8f8724bba861ae12e13addd705931bd13e476f14b8498be2",
          "transactionIndex": "0x8",
          "logIndex": "0xf",
          "removed": false
        },
        {
          "address": "0x4bb324b195fae8ced6ddd34d01499c0b31ac3480",
          "topics": [
            "0xbe89fbc5edbebf243cf8cf7946ce755357087079003d51a4eb7c69e987bf0801",
            "0x0000000000000000000000000000000000000000000000000000000000000002",
            "0x0000000000000000000000001bc49ebad8b3407feee810f62a920ef7fd506110",
            "0x0000000000000000000000004bb324b195fae8ced6ddd34d01499c0b31ac3480"
          ],
          "data": "0x00000000000000000000000000000000000000000000000000000000000000000000000000000000000000000000000000000000000000000000000000000002000000000000000000000000000000000000000000000000000000000000006000000000000000000000000000000000000000000000000000000000000000648a9d3fcf00000000000000000000000015b12c86e640a3a27c2c9e9dada40d1efbf6a555000000000000000000000000e88150c42cc6c0294dd20893bf5b1ec6edd24fc6000000000000000000000000000000000000000000000000000000000000006400000000000000000000000000000000000000000000000000000000",
          "blockHash": "0x7e9b363570b8b2192ff6dc507dc17ea05b0c29508fc4fd9b23d2d94f1ddfda17",
          "blockNumber": "0x2d3911",
          "blockTimestamp": "0x67633470",
          "transactionHash": "0x54f4ec52fa1747dd8f8724bba861ae12e13addd705931bd13e476f14b8498be2",
          "transactionIndex": "0x8",
          "logIndex": "0x10",
          "removed": false
        },
        {
          "address": "0x4bb324b195fae8ced6ddd34d01499c0b31ac3480",
          "topics": [
            "0x4641df4a962071e12719d8c8c8e5ac7fc4d97b927346a3d7a335b1f7517e133c",
            "0x3ee01c012f4dcaa007c432602f7c5804cdfb6f72596e846ed316e3bece926105"
          ],
          "data": "0x",
          "blockHash": "0x7e9b363570b8b2192ff6dc507dc17ea05b0c29508fc4fd9b23d2d94f1ddfda17",
          "blockNumber": "0x2d3911",
          "blockTimestamp": "0x67633470",
          "transactionHash": "0x54f4ec52fa1747dd8f8724bba861ae12e13addd705931bd13e476f14b8498be2",
          "transactionIndex": "0x8",
          "logIndex": "0x11",
          "removed": false
        },
        {
          "address": "0x1bc49ebad8b3407feee810f62a920ef7fd506110",
          "topics": [
            "0x44b4f910eed5395f84d00285781e37020302f8ae9b632209b4c3eafe05bd2e87",
            "0x00000000000000000000000015b12c86e640a3a27c2c9e9dada40d1efbf6a555",
            "0x000000000000000000000000e88150c42cc6c0294dd20893bf5b1ec6edd24fc6"
          ],
          "data": "0x0000000000000000000000000000000000000000000000000000000000000064",
          "blockHash": "0x7e9b363570b8b2192ff6dc507dc17ea05b0c29508fc4fd9b23d2d94f1ddfda17",
          "blockNumber": "0x2d3911",
          "blockTimestamp": "0x67633470",
          "transactionHash": "0x54f4ec52fa1747dd8f8724bba861ae12e13addd705931bd13e476f14b8498be2",
          "transactionIndex": "0x8",
          "logIndex": "0x12",
          "removed": false
        },
        {
          "address": "0x6b5634390791fdd9fec57b6899fb27af1f64f42d",
          "topics": [
            "0xddf252ad1be2c89b69c2b068fc378daa952ba7f163c4a11628f55a4df523b3ef",
            "0x0000000000000000000000000000000000000000000000000000000000000000",
            "0x000000000000000000000000e88150c42cc6c0294dd20893bf5b1ec6edd24fc6"
          ],
          "data": "0x0000000000000000000000000000000000000000000000000000000000000064",
          "blockHash": "0x7e9b363570b8b2192ff6dc507dc17ea05b0c29508fc4fd9b23d2d94f1ddfda17",
          "blockNumber": "0x2d3911",
          "blockTimestamp": "0x67633470",
          "transactionHash": "0x54f4ec52fa1747dd8f8724bba861ae12e13addd705931bd13e476f14b8498be2",
          "transactionIndex": "0x8",
          "logIndex": "0x13",
          "removed": false
        }
      ],
      "logsBloom": "0x14000000000000000000000000000000800001000000000000000000004000000400000000000000000020000000000000000000000000000000000000200000140000800000000000000008000000100000800000000000000000000000000000000000020000400000000000000800000000400000000080000018000020000000000000200000000400000c00000000000002000000000000000000014008020100000100000000000100000000000000408000040000000010000000000000000002080000000000000000040080000000000000000000002000000020000010000004000008000000000008000000000000008000000000000008000008",
      "type": "0x2",
      "transactionHash": "0x54f4ec52fa1747dd8f8724bba861ae12e13addd705931bd13e476f14b8498be2",
      "transactionIndex": "0x8",
      "blockHash": "0x7e9b363570b8b2192ff6dc507dc17ea05b0c29508fc4fd9b23d2d94f1ddfda17",
      "blockNumber": "0x2d3911",
      "gasUsed": "0x269cc",
      "effectiveGasPrice": "0x3b9aca07",
      "from": "0xe88150c42cc6c0294dd20893bf5b1ec6edd24fc6",
      "to": "0x4bb324b195fae8ced6ddd34d01499c0b31ac3480",
      "contractAddress": null
    }
  ],
  "libraries": [],
  "pending": [],
  "returns": {},
  "timestamp": 1734554738,
  "chain": 17000,
  "commit": "58111ea"
}